{"contracts/Day1.sol":{"Day1":{"abi":[{"inputs":[{"internalType":"string","name":"in_str","type":"string"}],"name":"first_split","outputs":[{"internalType":"string[]","name":"","type":"string[]"}],"stateMutability":"pure","type":"function"},{"inputs":[{"internalType":"string","name":"input","type":"string"}],"name":"main","outputs":[{"internalType":"uint256","name":"","type":"uint256"}],"stateMutability":"pure","type":"function"},{"inputs":[{"internalType":"string","name":"in_str","type":"string"}],"name":"smt","outputs":[{"internalType":"uint256[]","name":"","type":"uint256[]"}],"stateMutability":"pure","type":"function"},{"inputs":[{"internalType":"string","name":"numString","type":"string"}],"name":"st2num","outputs":[{"internalType":"uint256","name":"","type":"uint256"}],"stateMutability":"pure","type":"function"},{"inputs":[{"internalType":"uint256[]","name":"num_group","type":"uint256[]"}],"name":"sum","outputs":[{"internalType":"uint256","name":"","type":"uint256"}],"stateMutability":"pure","type":"function"}],"evm":{"bytecode":{"linkReferences":{},"object":"608060405234801561001057600080fd5b50611221806100206000396000f3fe608060405234801561001057600080fd5b50600436106100575760003560e01c80630194db8e1461005c578063769f204d1461008c57806379cd9055146100bc57806396caabb8146100ec578063a7c73fd81461011c575b600080fd5b61007660048036038101906100719190610b32565b61014c565b6040516100839190610b8a565b60405180910390f35b6100a660048036038101906100a19190610c5a565b6101a4565b6040516100b39190610b8a565b60405180910390f35b6100d660048036038101906100d19190610c5a565b610242565b6040516100e39190610b8a565b60405180910390f35b61010660048036038101906101019190610c5a565b6102fc565b6040516101139190610d61565b60405180910390f35b61013660048036038101906101319190610c5a565b610425565b6040516101439190610ec4565b60405180910390f35b6000806000905060005b835181101561019a5783818151811061017257610171610ee6565b5b6020026020010151826101859190610f44565b9150808061019290610f78565b915050610156565b5080915050919050565b600080600090506000808451036101d1576040518060600160405280603781526020016111b56037913993505b60006101dc85610425565b905060005b81518110156102365761021561021083838151811061020357610202610ee6565b5b60200260200101516102fc565b61014c565b925083831115610223578293505b808061022e90610f78565b9150506101e1565b50829350505050919050565b60008060009050600083905060005b81518110156102f15760008183516102699190610fc0565b905060008383815181106102805761027f610ee6565b5b602001015160f81c60f81b905060008160f81c9050600060308260ff166102a79190610fc0565b90506001846102b69190610fc0565b600a6102c29190611127565b816102cd9190611172565b876102d89190610f44565b96505050505080806102e990610f78565b915050610251565b508192505050919050565b606060006103098361054a565b9050600061034b6040518060400160405280600181526020017f0a0000000000000000000000000000000000000000000000000000000000000081525061054a565b905060006001610364838561057890919063ffffffff16565b61036e9190610f44565b67ffffffffffffffff811115610387576103866109b9565b5b6040519080825280602002602001820160405280156103b55781602001602082028036833780820191505090505b50905060005b8151811015610419576103e76103e26103dd858761062090919063ffffffff16565b61063a565b610242565b8282815181106103fa576103f9610ee6565b5b602002602001018181525050808061041190610f78565b9150506103bb565b50809350505050919050565b606060006104328361054a565b905060006104746040518060400160405280600281526020017f0a0a00000000000000000000000000000000000000000000000000000000000081525061054a565b90506000600161048d838561057890919063ffffffff16565b6104979190610f44565b67ffffffffffffffff8111156104b0576104af6109b9565b5b6040519080825280602002602001820160405280156104e357816020015b60608152602001906001900390816104ce5790505b50905060005b815181101561053e5761050d610508848661062090919063ffffffff16565b61063a565b8282815181106105205761051f610ee6565b5b6020026020010181905250808061053690610f78565b9150506104e9565b50809350505050919050565b610552610975565b600060208301905060405180604001604052808451815260200182815250915050919050565b600080826000015161059c85600001518660200151866000015187602001516106b6565b6105a69190610f44565b90505b836000015184602001516105bd9190610f44565b81116106195781806105ce90610f78565b92505082600001516106088560200151836105e99190610fc0565b86600001516105f89190610fc0565b83866000015187602001516106b6565b6106129190610f44565b90506105a9565b5092915050565b610628610975565b6106338383836107ff565b5092915050565b60606000826000015167ffffffffffffffff81111561065c5761065b6109b9565b5b6040519080825280601f01601f19166020018201604052801561068e5781602001600182028036833780820191505090505b50905060006020820190506106ac81856020015186600001516108c9565b8192505050919050565b60008084905060008685116107e657602085116107895760008086111561070f5760018660206106e69190610fc0565b60086106f29190611172565b60026106fe9190611127565b6107089190610fc0565b1960001b90505b60008186511690506000878a8a6107269190610f44565b6107309190610fc0565b905060008386511690505b82811461077b57818610610762578a8a6107559190610f44565b96505050505050506107f7565b858061076d90610f78565b96505083865116905061073b565b8596505050505050506107f7565b60008585209050600091505b85886107a19190610fc0565b82116107e457600086842090508082036107c157839450505050506107f7565b6001846107ce9190610f44565b93505081806107dc90610f78565b925050610795565b505b86866107f29190610f44565b925050505b949350505050565b610807610975565b600061082585600001518660200151866000015187602001516106b6565b905084602001518360200181815250508460200151816108459190610fc0565b836000018181525050846000015185602001516108629190610f44565b81036108785760008560000181815250506108be565b8360000151836000015161088c9190610f44565b8560000181815161089d9190610fc0565b915081815250508360000151816108b49190610f44565b8560200181815250505b829150509392505050565b5b6020811061090857815183526020836108e39190610f44565b92506020826108f29190610f44565b91506020816109019190610fc0565b90506108ca565b60007fffffffffffffffffffffffffffffffffffffffffffffffffffffffffffffffff9050600082111561095f5760018260206109459190610fc0565b6101006109529190611127565b61095c9190610fc0565b90505b8019835116818551168181178652505050505050565b604051806040016040528060008152602001600081525090565b6000604051905090565b600080fd5b600080fd5b600080fd5b6000601f19601f8301169050919050565b7f4e487b7100000000000000000000000000000000000000000000000000000000600052604160045260246000fd5b6109f1826109a8565b810181811067ffffffffffffffff82111715610a1057610a0f6109b9565b5b80604052505050565b6000610a2361098f565b9050610a2f82826109e8565b919050565b600067ffffffffffffffff821115610a4f57610a4e6109b9565b5b602082029050602081019050919050565b600080fd5b6000819050919050565b610a7881610a65565b8114610a8357600080fd5b50565b600081359050610a9581610a6f565b92915050565b6000610aae610aa984610a34565b610a19565b90508083825260208201905060208402830185811115610ad157610ad0610a60565b5b835b81811015610afa5780610ae68882610a86565b845260208401935050602081019050610ad3565b5050509392505050565b600082601f830112610b1957610b186109a3565b5b8135610b29848260208601610a9b565b91505092915050565b600060208284031215610b4857610b47610999565b5b600082013567ffffffffffffffff811115610b6657610b6561099e565b5b610b7284828501610b04565b91505092915050565b610b8481610a65565b82525050565b6000602082019050610b9f6000830184610b7b565b92915050565b600080fd5b600067ffffffffffffffff821115610bc557610bc46109b9565b5b610bce826109a8565b9050602081019050919050565b82818337600083830152505050565b6000610bfd610bf884610baa565b610a19565b905082815260208101848484011115610c1957610c18610ba5565b5b610c24848285610bdb565b509392505050565b600082601f830112610c4157610c406109a3565b5b8135610c51848260208601610bea565b91505092915050565b600060208284031215610c7057610c6f610999565b5b600082013567ffffffffffffffff811115610c8e57610c8d61099e565b5b610c9a84828501610c2c565b91505092915050565b600081519050919050565b600082825260208201905092915050565b6000819050602082019050919050565b610cd881610a65565b82525050565b6000610cea8383610ccf565b60208301905092915050565b6000602082019050919050565b6000610d0e82610ca3565b610d188185610cae565b9350610d2383610cbf565b8060005b83811015610d54578151610d3b8882610cde565b9750610d4683610cf6565b925050600181019050610d27565b5085935050505092915050565b60006020820190508181036000830152610d7b8184610d03565b905092915050565b600081519050919050565b600082825260208201905092915050565b6000819050602082019050919050565b600081519050919050565b600082825260208201905092915050565b60005b83811015610de9578082015181840152602081019050610dce565b60008484015250505050565b6000610e0082610daf565b610e0a8185610dba565b9350610e1a818560208601610dcb565b610e23816109a8565b840191505092915050565b6000610e3a8383610df5565b905092915050565b6000602082019050919050565b6000610e5a82610d83565b610e648185610d8e565b935083602082028501610e7685610d9f565b8060005b85811015610eb25784840389528151610e938582610e2e565b9450610e9e83610e42565b925060208a01995050600181019050610e7a565b50829750879550505050505092915050565b60006020820190508181036000830152610ede8184610e4f565b905092915050565b7f4e487b7100000000000000000000000000000000000000000000000000000000600052603260045260246000fd5b7f4e487b7100000000000000000000000000000000000000000000000000000000600052601160045260246000fd5b6000610f4f82610a65565b9150610f5a83610a65565b9250828201905080821115610f7257610f71610f15565b5b92915050565b6000610f8382610a65565b91507fffffffffffffffffffffffffffffffffffffffffffffffffffffffffffffffff8203610fb557610fb4610f15565b5b600182019050919050565b6000610fcb82610a65565b9150610fd683610a65565b9250828203905081811115610fee57610fed610f15565b5b92915050565b60008160011c9050919050565b6000808291508390505b600185111561104b5780860481111561102757611026610f15565b5b60018516156110365780820291505b808102905061104485610ff4565b945061100b565b94509492505050565b6000826110645760019050611120565b816110725760009050611120565b81600181146110885760028114611092576110c1565b6001915050611120565b60ff8411156110a4576110a3610f15565b5b8360020a9150848211156110bb576110ba610f15565b5b50611120565b5060208310610133831016604e8410600b84101617156110f65782820a9050838111156110f1576110f0610f15565b5b611120565b6111038484846001611001565b9250905081840481111561111a57611119610f15565b5b81810290505b9392505050565b600061113282610a65565b915061113d83610a65565b925061116a7fffffffffffffffffffffffffffffffffffffffffffffffffffffffffffffffff8484611054565b905092915050565b600061117d82610a65565b915061118883610a65565b925082820261119681610a65565b915082820484148315176111ad576111ac610f15565b5b509291505056fe313030300a323030300a333030300a0a343030300a0a353030300a363030300a0a373030300a383030300a393030300a0a31303030300aa26469706673582212203ef196a0143114c40f021c9240deece9bcb804460658f9e9afe9feb09760f0fa64736f6c63430008110033","opcodes":"PUSH1 0x80 PUSH1 0x40 MSTORE CALLVALUE DUP1 ISZERO PUSH2 0x10 JUMPI PUSH1 0x0 DUP1 REVERT JUMPDEST POP PUSH2 0x1221 DUP1 PUSH2 0x20 PUSH1 0x0 CODECOPY PUSH1 0x0 RETURN INVALID PUSH1 0x80 PUSH1 0x40 MSTORE CALLVALUE DUP1 ISZERO PUSH2 0x10 JUMPI PUSH1 0x0 DUP1 REVERT JUMPDEST POP PUSH1 0x4 CALLDATASIZE LT PUSH2 0x57 JUMPI PUSH1 0x0 CALLDATALOAD PUSH1 0xE0 SHR DUP1 PUSH4 0x194DB8E EQ PUSH2 0x5C JUMPI DUP1 PUSH4 0x769F204D EQ PUSH2 0x8C JUMPI DUP1 PUSH4 0x79CD9055 EQ PUSH2 0xBC JUMPI DUP1 PUSH4 0x96CAABB8 EQ PUSH2 0xEC JUMPI DUP1 PUSH4 0xA7C73FD8 EQ PUSH2 0x11C JUMPI JUMPDEST PUSH1 0x0 DUP1 REVERT JUMPDEST PUSH2 0x76 PUSH1 0x4 DUP1 CALLDATASIZE SUB DUP2 ADD SWAP1 PUSH2 0x71 SWAP2 SWAP1 PUSH2 0xB32 JUMP JUMPDEST PUSH2 0x14C JUMP JUMPDEST PUSH1 0x40 MLOAD PUSH2 0x83 SWAP2 SWAP1 PUSH2 0xB8A JUMP JUMPDEST PUSH1 0x40 MLOAD DUP1 SWAP2 SUB SWAP1 RETURN JUMPDEST PUSH2 0xA6 PUSH1 0x4 DUP1 CALLDATASIZE SUB DUP2 ADD SWAP1 PUSH2 0xA1 SWAP2 SWAP1 PUSH2 0xC5A JUMP JUMPDEST PUSH2 0x1A4 JUMP JUMPDEST PUSH1 0x40 MLOAD PUSH2 0xB3 SWAP2 SWAP1 PUSH2 0xB8A JUMP JUMPDEST PUSH1 0x40 MLOAD DUP1 SWAP2 SUB SWAP1 RETURN JUMPDEST PUSH2 0xD6 PUSH1 0x4 DUP1 CALLDATASIZE SUB DUP2 ADD SWAP1 PUSH2 0xD1 SWAP2 SWAP1 PUSH2 0xC5A JUMP JUMPDEST PUSH2 0x242 JUMP JUMPDEST PUSH1 0x40 MLOAD PUSH2 0xE3 SWAP2 SWAP1 PUSH2 0xB8A JUMP JUMPDEST PUSH1 0x40 MLOAD DUP1 SWAP2 SUB SWAP1 RETURN JUMPDEST PUSH2 0x106 PUSH1 0x4 DUP1 CALLDATASIZE SUB DUP2 ADD SWAP1 PUSH2 0x101 SWAP2 SWAP1 PUSH2 0xC5A JUMP JUMPDEST PUSH2 0x2FC JUMP JUMPDEST PUSH1 0x40 MLOAD PUSH2 0x113 SWAP2 SWAP1 PUSH2 0xD61 JUMP JUMPDEST PUSH1 0x40 MLOAD DUP1 SWAP2 SUB SWAP1 RETURN JUMPDEST PUSH2 0x136 PUSH1 0x4 DUP1 CALLDATASIZE SUB DUP2 ADD SWAP1 PUSH2 0x131 SWAP2 SWAP1 PUSH2 0xC5A JUMP JUMPDEST PUSH2 0x425 JUMP JUMPDEST PUSH1 0x40 MLOAD PUSH2 0x143 SWAP2 SWAP1 PUSH2 0xEC4 JUMP JUMPDEST PUSH1 0x40 MLOAD DUP1 SWAP2 SUB SWAP1 RETURN JUMPDEST PUSH1 0x0 DUP1 PUSH1 0x0 SWAP1 POP PUSH1 0x0 JUMPDEST DUP4 MLOAD DUP2 LT ISZERO PUSH2 0x19A JUMPI DUP4 DUP2 DUP2 MLOAD DUP2 LT PUSH2 0x172 JUMPI PUSH2 0x171 PUSH2 0xEE6 JUMP JUMPDEST JUMPDEST PUSH1 0x20 MUL PUSH1 0x20 ADD ADD MLOAD DUP3 PUSH2 0x185 SWAP2 SWAP1 PUSH2 0xF44 JUMP JUMPDEST SWAP2 POP DUP1 DUP1 PUSH2 0x192 SWAP1 PUSH2 0xF78 JUMP JUMPDEST SWAP2 POP POP PUSH2 0x156 JUMP JUMPDEST POP DUP1 SWAP2 POP POP SWAP2 SWAP1 POP JUMP JUMPDEST PUSH1 0x0 DUP1 PUSH1 0x0 SWAP1 POP PUSH1 0x0 DUP1 DUP5 MLOAD SUB PUSH2 0x1D1 JUMPI PUSH1 0x40 MLOAD DUP1 PUSH1 0x60 ADD PUSH1 0x40 MSTORE DUP1 PUSH1 0x37 DUP2 MSTORE PUSH1 0x20 ADD PUSH2 0x11B5 PUSH1 0x37 SWAP2 CODECOPY SWAP4 POP JUMPDEST PUSH1 0x0 PUSH2 0x1DC DUP6 PUSH2 0x425 JUMP JUMPDEST SWAP1 POP PUSH1 0x0 JUMPDEST DUP2 MLOAD DUP2 LT ISZERO PUSH2 0x236 JUMPI PUSH2 0x215 PUSH2 0x210 DUP4 DUP4 DUP2 MLOAD DUP2 LT PUSH2 0x203 JUMPI PUSH2 0x202 PUSH2 0xEE6 JUMP JUMPDEST JUMPDEST PUSH1 0x20 MUL PUSH1 0x20 ADD ADD MLOAD PUSH2 0x2FC JUMP JUMPDEST PUSH2 0x14C JUMP JUMPDEST SWAP3 POP DUP4 DUP4 GT ISZERO PUSH2 0x223 JUMPI DUP3 SWAP4 POP JUMPDEST DUP1 DUP1 PUSH2 0x22E SWAP1 PUSH2 0xF78 JUMP JUMPDEST SWAP2 POP POP PUSH2 0x1E1 JUMP JUMPDEST POP DUP3 SWAP4 POP POP POP POP SWAP2 SWAP1 POP JUMP JUMPDEST PUSH1 0x0 DUP1 PUSH1 0x0 SWAP1 POP PUSH1 0x0 DUP4 SWAP1 POP PUSH1 0x0 JUMPDEST DUP2 MLOAD DUP2 LT ISZERO PUSH2 0x2F1 JUMPI PUSH1 0x0 DUP2 DUP4 MLOAD PUSH2 0x269 SWAP2 SWAP1 PUSH2 0xFC0 JUMP JUMPDEST SWAP1 POP PUSH1 0x0 DUP4 DUP4 DUP2 MLOAD DUP2 LT PUSH2 0x280 JUMPI PUSH2 0x27F PUSH2 0xEE6 JUMP JUMPDEST JUMPDEST PUSH1 0x20 ADD ADD MLOAD PUSH1 0xF8 SHR PUSH1 0xF8 SHL SWAP1 POP PUSH1 0x0 DUP2 PUSH1 0xF8 SHR SWAP1 POP PUSH1 0x0 PUSH1 0x30 DUP3 PUSH1 0xFF AND PUSH2 0x2A7 SWAP2 SWAP1 PUSH2 0xFC0 JUMP JUMPDEST SWAP1 POP PUSH1 0x1 DUP5 PUSH2 0x2B6 SWAP2 SWAP1 PUSH2 0xFC0 JUMP JUMPDEST PUSH1 0xA PUSH2 0x2C2 SWAP2 SWAP1 PUSH2 0x1127 JUMP JUMPDEST DUP2 PUSH2 0x2CD SWAP2 SWAP1 PUSH2 0x1172 JUMP JUMPDEST DUP8 PUSH2 0x2D8 SWAP2 SWAP1 PUSH2 0xF44 JUMP JUMPDEST SWAP7 POP POP POP POP POP DUP1 DUP1 PUSH2 0x2E9 SWAP1 PUSH2 0xF78 JUMP JUMPDEST SWAP2 POP POP PUSH2 0x251 JUMP JUMPDEST POP DUP2 SWAP3 POP POP POP SWAP2 SWAP1 POP JUMP JUMPDEST PUSH1 0x60 PUSH1 0x0 PUSH2 0x309 DUP4 PUSH2 0x54A JUMP JUMPDEST SWAP1 POP PUSH1 0x0 PUSH2 0x34B PUSH1 0x40 MLOAD DUP1 PUSH1 0x40 ADD PUSH1 0x40 MSTORE DUP1 PUSH1 0x1 DUP2 MSTORE PUSH1 0x20 ADD PUSH32 0xA00000000000000000000000000000000000000000000000000000000000000 DUP2 MSTORE POP PUSH2 0x54A JUMP JUMPDEST SWAP1 POP PUSH1 0x0 PUSH1 0x1 PUSH2 0x364 DUP4 DUP6 PUSH2 0x578 SWAP1 SWAP2 SWAP1 PUSH4 0xFFFFFFFF AND JUMP JUMPDEST PUSH2 0x36E SWAP2 SWAP1 PUSH2 0xF44 JUMP JUMPDEST PUSH8 0xFFFFFFFFFFFFFFFF DUP2 GT ISZERO PUSH2 0x387 JUMPI PUSH2 0x386 PUSH2 0x9B9 JUMP JUMPDEST JUMPDEST PUSH1 0x40 MLOAD SWAP1 DUP1 DUP3 MSTORE DUP1 PUSH1 0x20 MUL PUSH1 0x20 ADD DUP3 ADD PUSH1 0x40 MSTORE DUP1 ISZERO PUSH2 0x3B5 JUMPI DUP2 PUSH1 0x20 ADD PUSH1 0x20 DUP3 MUL DUP1 CALLDATASIZE DUP4 CALLDATACOPY DUP1 DUP3 ADD SWAP2 POP POP SWAP1 POP JUMPDEST POP SWAP1 POP PUSH1 0x0 JUMPDEST DUP2 MLOAD DUP2 LT ISZERO PUSH2 0x419 JUMPI PUSH2 0x3E7 PUSH2 0x3E2 PUSH2 0x3DD DUP6 DUP8 PUSH2 0x620 SWAP1 SWAP2 SWAP1 PUSH4 0xFFFFFFFF AND JUMP JUMPDEST PUSH2 0x63A JUMP JUMPDEST PUSH2 0x242 JUMP JUMPDEST DUP3 DUP3 DUP2 MLOAD DUP2 LT PUSH2 0x3FA JUMPI PUSH2 0x3F9 PUSH2 0xEE6 JUMP JUMPDEST JUMPDEST PUSH1 0x20 MUL PUSH1 0x20 ADD ADD DUP2 DUP2 MSTORE POP POP DUP1 DUP1 PUSH2 0x411 SWAP1 PUSH2 0xF78 JUMP JUMPDEST SWAP2 POP POP PUSH2 0x3BB JUMP JUMPDEST POP DUP1 SWAP4 POP POP POP POP SWAP2 SWAP1 POP JUMP JUMPDEST PUSH1 0x60 PUSH1 0x0 PUSH2 0x432 DUP4 PUSH2 0x54A JUMP JUMPDEST SWAP1 POP PUSH1 0x0 PUSH2 0x474 PUSH1 0x40 MLOAD DUP1 PUSH1 0x40 ADD PUSH1 0x40 MSTORE DUP1 PUSH1 0x2 DUP2 MSTORE PUSH1 0x20 ADD PUSH32 0xA0A000000000000000000000000000000000000000000000000000000000000 DUP2 MSTORE POP PUSH2 0x54A JUMP JUMPDEST SWAP1 POP PUSH1 0x0 PUSH1 0x1 PUSH2 0x48D DUP4 DUP6 PUSH2 0x578 SWAP1 SWAP2 SWAP1 PUSH4 0xFFFFFFFF AND JUMP JUMPDEST PUSH2 0x497 SWAP2 SWAP1 PUSH2 0xF44 JUMP JUMPDEST PUSH8 0xFFFFFFFFFFFFFFFF DUP2 GT ISZERO PUSH2 0x4B0 JUMPI PUSH2 0x4AF PUSH2 0x9B9 JUMP JUMPDEST JUMPDEST PUSH1 0x40 MLOAD SWAP1 DUP1 DUP3 MSTORE DUP1 PUSH1 0x20 MUL PUSH1 0x20 ADD DUP3 ADD PUSH1 0x40 MSTORE DUP1 ISZERO PUSH2 0x4E3 JUMPI DUP2 PUSH1 0x20 ADD JUMPDEST PUSH1 0x60 DUP2 MSTORE PUSH1 0x20 ADD SWAP1 PUSH1 0x1 SWAP1 SUB SWAP1 DUP2 PUSH2 0x4CE JUMPI SWAP1 POP JUMPDEST POP SWAP1 POP PUSH1 0x0 JUMPDEST DUP2 MLOAD DUP2 LT ISZERO PUSH2 0x53E JUMPI PUSH2 0x50D PUSH2 0x508 DUP5 DUP7 PUSH2 0x620 SWAP1 SWAP2 SWAP1 PUSH4 0xFFFFFFFF AND JUMP JUMPDEST PUSH2 0x63A JUMP JUMPDEST DUP3 DUP3 DUP2 MLOAD DUP2 LT PUSH2 0x520 JUMPI PUSH2 0x51F PUSH2 0xEE6 JUMP JUMPDEST JUMPDEST PUSH1 0x20 MUL PUSH1 0x20 ADD ADD DUP2 SWAP1 MSTORE POP DUP1 DUP1 PUSH2 0x536 SWAP1 PUSH2 0xF78 JUMP JUMPDEST SWAP2 POP POP PUSH2 0x4E9 JUMP JUMPDEST POP DUP1 SWAP4 POP POP POP POP SWAP2 SWAP1 POP JUMP JUMPDEST PUSH2 0x552 PUSH2 0x975 JUMP JUMPDEST PUSH1 0x0 PUSH1 0x20 DUP4 ADD SWAP1 POP PUSH1 0x40 MLOAD DUP1 PUSH1 0x40 ADD PUSH1 0x40 MSTORE DUP1 DUP5 MLOAD DUP2 MSTORE PUSH1 0x20 ADD DUP3 DUP2 MSTORE POP SWAP2 POP POP SWAP2 SWAP1 POP JUMP JUMPDEST PUSH1 0x0 DUP1 DUP3 PUSH1 0x0 ADD MLOAD PUSH2 0x59C DUP6 PUSH1 0x0 ADD MLOAD DUP7 PUSH1 0x20 ADD MLOAD DUP7 PUSH1 0x0 ADD MLOAD DUP8 PUSH1 0x20 ADD MLOAD PUSH2 0x6B6 JUMP JUMPDEST PUSH2 0x5A6 SWAP2 SWAP1 PUSH2 0xF44 JUMP JUMPDEST SWAP1 POP JUMPDEST DUP4 PUSH1 0x0 ADD MLOAD DUP5 PUSH1 0x20 ADD MLOAD PUSH2 0x5BD SWAP2 SWAP1 PUSH2 0xF44 JUMP JUMPDEST DUP2 GT PUSH2 0x619 JUMPI DUP2 DUP1 PUSH2 0x5CE SWAP1 PUSH2 0xF78 JUMP JUMPDEST SWAP3 POP POP DUP3 PUSH1 0x0 ADD MLOAD PUSH2 0x608 DUP6 PUSH1 0x20 ADD MLOAD DUP4 PUSH2 0x5E9 SWAP2 SWAP1 PUSH2 0xFC0 JUMP JUMPDEST DUP7 PUSH1 0x0 ADD MLOAD PUSH2 0x5F8 SWAP2 SWAP1 PUSH2 0xFC0 JUMP JUMPDEST DUP4 DUP7 PUSH1 0x0 ADD MLOAD DUP8 PUSH1 0x20 ADD MLOAD PUSH2 0x6B6 JUMP JUMPDEST PUSH2 0x612 SWAP2 SWAP1 PUSH2 0xF44 JUMP JUMPDEST SWAP1 POP PUSH2 0x5A9 JUMP JUMPDEST POP SWAP3 SWAP2 POP POP JUMP JUMPDEST PUSH2 0x628 PUSH2 0x975 JUMP JUMPDEST PUSH2 0x633 DUP4 DUP4 DUP4 PUSH2 0x7FF JUMP JUMPDEST POP SWAP3 SWAP2 POP POP JUMP JUMPDEST PUSH1 0x60 PUSH1 0x0 DUP3 PUSH1 0x0 ADD MLOAD PUSH8 0xFFFFFFFFFFFFFFFF DUP2 GT ISZERO PUSH2 0x65C JUMPI PUSH2 0x65B PUSH2 0x9B9 JUMP JUMPDEST JUMPDEST PUSH1 0x40 MLOAD SWAP1 DUP1 DUP3 MSTORE DUP1 PUSH1 0x1F ADD PUSH1 0x1F NOT AND PUSH1 0x20 ADD DUP3 ADD PUSH1 0x40 MSTORE DUP1 ISZERO PUSH2 0x68E JUMPI DUP2 PUSH1 0x20 ADD PUSH1 0x1 DUP3 MUL DUP1 CALLDATASIZE DUP4 CALLDATACOPY DUP1 DUP3 ADD SWAP2 POP POP SWAP1 POP JUMPDEST POP SWAP1 POP PUSH1 0x0 PUSH1 0x20 DUP3 ADD SWAP1 POP PUSH2 0x6AC DUP2 DUP6 PUSH1 0x20 ADD MLOAD DUP7 PUSH1 0x0 ADD MLOAD PUSH2 0x8C9 JUMP JUMPDEST DUP2 SWAP3 POP POP POP SWAP2 SWAP1 POP JUMP JUMPDEST PUSH1 0x0 DUP1 DUP5 SWAP1 POP PUSH1 0x0 DUP7 DUP6 GT PUSH2 0x7E6 JUMPI PUSH1 0x20 DUP6 GT PUSH2 0x789 JUMPI PUSH1 0x0 DUP1 DUP7 GT ISZERO PUSH2 0x70F JUMPI PUSH1 0x1 DUP7 PUSH1 0x20 PUSH2 0x6E6 SWAP2 SWAP1 PUSH2 0xFC0 JUMP JUMPDEST PUSH1 0x8 PUSH2 0x6F2 SWAP2 SWAP1 PUSH2 0x1172 JUMP JUMPDEST PUSH1 0x2 PUSH2 0x6FE SWAP2 SWAP1 PUSH2 0x1127 JUMP JUMPDEST PUSH2 0x708 SWAP2 SWAP1 PUSH2 0xFC0 JUMP JUMPDEST NOT PUSH1 0x0 SHL SWAP1 POP JUMPDEST PUSH1 0x0 DUP2 DUP7 MLOAD AND SWAP1 POP PUSH1 0x0 DUP8 DUP11 DUP11 PUSH2 0x726 SWAP2 SWAP1 PUSH2 0xF44 JUMP JUMPDEST PUSH2 0x730 SWAP2 SWAP1 PUSH2 0xFC0 JUMP JUMPDEST SWAP1 POP PUSH1 0x0 DUP4 DUP7 MLOAD AND SWAP1 POP JUMPDEST DUP3 DUP2 EQ PUSH2 0x77B JUMPI DUP2 DUP7 LT PUSH2 0x762 JUMPI DUP11 DUP11 PUSH2 0x755 SWAP2 SWAP1 PUSH2 0xF44 JUMP JUMPDEST SWAP7 POP POP POP POP POP POP POP PUSH2 0x7F7 JUMP JUMPDEST DUP6 DUP1 PUSH2 0x76D SWAP1 PUSH2 0xF78 JUMP JUMPDEST SWAP7 POP POP DUP4 DUP7 MLOAD AND SWAP1 POP PUSH2 0x73B JUMP JUMPDEST DUP6 SWAP7 POP POP POP POP POP POP POP PUSH2 0x7F7 JUMP JUMPDEST PUSH1 0x0 DUP6 DUP6 KECCAK256 SWAP1 POP PUSH1 0x0 SWAP2 POP JUMPDEST DUP6 DUP9 PUSH2 0x7A1 SWAP2 SWAP1 PUSH2 0xFC0 JUMP JUMPDEST DUP3 GT PUSH2 0x7E4 JUMPI PUSH1 0x0 DUP7 DUP5 KECCAK256 SWAP1 POP DUP1 DUP3 SUB PUSH2 0x7C1 JUMPI DUP4 SWAP5 POP POP POP POP POP PUSH2 0x7F7 JUMP JUMPDEST PUSH1 0x1 DUP5 PUSH2 0x7CE SWAP2 SWAP1 PUSH2 0xF44 JUMP JUMPDEST SWAP4 POP POP DUP2 DUP1 PUSH2 0x7DC SWAP1 PUSH2 0xF78 JUMP JUMPDEST SWAP3 POP POP PUSH2 0x795 JUMP JUMPDEST POP JUMPDEST DUP7 DUP7 PUSH2 0x7F2 SWAP2 SWAP1 PUSH2 0xF44 JUMP JUMPDEST SWAP3 POP POP POP JUMPDEST SWAP5 SWAP4 POP POP POP POP JUMP JUMPDEST PUSH2 0x807 PUSH2 0x975 JUMP JUMPDEST PUSH1 0x0 PUSH2 0x825 DUP6 PUSH1 0x0 ADD MLOAD DUP7 PUSH1 0x20 ADD MLOAD DUP7 PUSH1 0x0 ADD MLOAD DUP8 PUSH1 0x20 ADD MLOAD PUSH2 0x6B6 JUMP JUMPDEST SWAP1 POP DUP5 PUSH1 0x20 ADD MLOAD DUP4 PUSH1 0x20 ADD DUP2 DUP2 MSTORE POP POP DUP5 PUSH1 0x20 ADD MLOAD DUP2 PUSH2 0x845 SWAP2 SWAP1 PUSH2 0xFC0 JUMP JUMPDEST DUP4 PUSH1 0x0 ADD DUP2 DUP2 MSTORE POP POP DUP5 PUSH1 0x0 ADD MLOAD DUP6 PUSH1 0x20 ADD MLOAD PUSH2 0x862 SWAP2 SWAP1 PUSH2 0xF44 JUMP JUMPDEST DUP2 SUB PUSH2 0x878 JUMPI PUSH1 0x0 DUP6 PUSH1 0x0 ADD DUP2 DUP2 MSTORE POP POP PUSH2 0x8BE JUMP JUMPDEST DUP4 PUSH1 0x0 ADD MLOAD DUP4 PUSH1 0x0 ADD MLOAD PUSH2 0x88C SWAP2 SWAP1 PUSH2 0xF44 JUMP JUMPDEST DUP6 PUSH1 0x0 ADD DUP2 DUP2 MLOAD PUSH2 0x89D SWAP2 SWAP1 PUSH2 0xFC0 JUMP JUMPDEST SWAP2 POP DUP2 DUP2 MSTORE POP POP DUP4 PUSH1 0x0 ADD MLOAD DUP2 PUSH2 0x8B4 SWAP2 SWAP1 PUSH2 0xF44 JUMP JUMPDEST DUP6 PUSH1 0x20 ADD DUP2 DUP2 MSTORE POP POP JUMPDEST DUP3 SWAP2 POP POP SWAP4 SWAP3 POP POP POP JUMP JUMPDEST JUMPDEST PUSH1 0x20 DUP2 LT PUSH2 0x908 JUMPI DUP2 MLOAD DUP4 MSTORE PUSH1 0x20 DUP4 PUSH2 0x8E3 SWAP2 SWAP1 PUSH2 0xF44 JUMP JUMPDEST SWAP3 POP PUSH1 0x20 DUP3 PUSH2 0x8F2 SWAP2 SWAP1 PUSH2 0xF44 JUMP JUMPDEST SWAP2 POP PUSH1 0x20 DUP2 PUSH2 0x901 SWAP2 SWAP1 PUSH2 0xFC0 JUMP JUMPDEST SWAP1 POP PUSH2 0x8CA JUMP JUMPDEST PUSH1 0x0 PUSH32 0xFFFFFFFFFFFFFFFFFFFFFFFFFFFFFFFFFFFFFFFFFFFFFFFFFFFFFFFFFFFFFFFF SWAP1 POP PUSH1 0x0 DUP3 GT ISZERO PUSH2 0x95F JUMPI PUSH1 0x1 DUP3 PUSH1 0x20 PUSH2 0x945 SWAP2 SWAP1 PUSH2 0xFC0 JUMP JUMPDEST PUSH2 0x100 PUSH2 0x952 SWAP2 SWAP1 PUSH2 0x1127 JUMP JUMPDEST PUSH2 0x95C SWAP2 SWAP1 PUSH2 0xFC0 JUMP JUMPDEST SWAP1 POP JUMPDEST DUP1 NOT DUP4 MLOAD AND DUP2 DUP6 MLOAD AND DUP2 DUP2 OR DUP7 MSTORE POP POP POP POP POP POP JUMP JUMPDEST PUSH1 0x40 MLOAD DUP1 PUSH1 0x40 ADD PUSH1 0x40 MSTORE DUP1 PUSH1 0x0 DUP2 MSTORE PUSH1 0x20 ADD PUSH1 0x0 DUP2 MSTORE POP SWAP1 JUMP JUMPDEST PUSH1 0x0 PUSH1 0x40 MLOAD SWAP1 POP SWAP1 JUMP JUMPDEST PUSH1 0x0 DUP1 REVERT JUMPDEST PUSH1 0x0 DUP1 REVERT JUMPDEST PUSH1 0x0 DUP1 REVERT JUMPDEST PUSH1 0x0 PUSH1 0x1F NOT PUSH1 0x1F DUP4 ADD AND SWAP1 POP SWAP2 SWAP1 POP JUMP JUMPDEST PUSH32 0x4E487B7100000000000000000000000000000000000000000000000000000000 PUSH1 0x0 MSTORE PUSH1 0x41 PUSH1 0x4 MSTORE PUSH1 0x24 PUSH1 0x0 REVERT JUMPDEST PUSH2 0x9F1 DUP3 PUSH2 0x9A8 JUMP JUMPDEST DUP2 ADD DUP2 DUP2 LT PUSH8 0xFFFFFFFFFFFFFFFF DUP3 GT OR ISZERO PUSH2 0xA10 JUMPI PUSH2 0xA0F PUSH2 0x9B9 JUMP JUMPDEST JUMPDEST DUP1 PUSH1 0x40 MSTORE POP POP POP JUMP JUMPDEST PUSH1 0x0 PUSH2 0xA23 PUSH2 0x98F JUMP JUMPDEST SWAP1 POP PUSH2 0xA2F DUP3 DUP3 PUSH2 0x9E8 JUMP JUMPDEST SWAP2 SWAP1 POP JUMP JUMPDEST PUSH1 0x0 PUSH8 0xFFFFFFFFFFFFFFFF DUP3 GT ISZERO PUSH2 0xA4F JUMPI PUSH2 0xA4E PUSH2 0x9B9 JUMP JUMPDEST JUMPDEST PUSH1 0x20 DUP3 MUL SWAP1 POP PUSH1 0x20 DUP2 ADD SWAP1 POP SWAP2 SWAP1 POP JUMP JUMPDEST PUSH1 0x0 DUP1 REVERT JUMPDEST PUSH1 0x0 DUP2 SWAP1 POP SWAP2 SWAP1 POP JUMP JUMPDEST PUSH2 0xA78 DUP2 PUSH2 0xA65 JUMP JUMPDEST DUP2 EQ PUSH2 0xA83 JUMPI PUSH1 0x0 DUP1 REVERT JUMPDEST POP JUMP JUMPDEST PUSH1 0x0 DUP2 CALLDATALOAD SWAP1 POP PUSH2 0xA95 DUP2 PUSH2 0xA6F JUMP JUMPDEST SWAP3 SWAP2 POP POP JUMP JUMPDEST PUSH1 0x0 PUSH2 0xAAE PUSH2 0xAA9 DUP5 PUSH2 0xA34 JUMP JUMPDEST PUSH2 0xA19 JUMP JUMPDEST SWAP1 POP DUP1 DUP4 DUP3 MSTORE PUSH1 0x20 DUP3 ADD SWAP1 POP PUSH1 0x20 DUP5 MUL DUP4 ADD DUP6 DUP2 GT ISZERO PUSH2 0xAD1 JUMPI PUSH2 0xAD0 PUSH2 0xA60 JUMP JUMPDEST JUMPDEST DUP4 JUMPDEST DUP2 DUP2 LT ISZERO PUSH2 0xAFA JUMPI DUP1 PUSH2 0xAE6 DUP9 DUP3 PUSH2 0xA86 JUMP JUMPDEST DUP5 MSTORE PUSH1 0x20 DUP5 ADD SWAP4 POP POP PUSH1 0x20 DUP2 ADD SWAP1 POP PUSH2 0xAD3 JUMP JUMPDEST POP POP POP SWAP4 SWAP3 POP POP POP JUMP JUMPDEST PUSH1 0x0 DUP3 PUSH1 0x1F DUP4 ADD SLT PUSH2 0xB19 JUMPI PUSH2 0xB18 PUSH2 0x9A3 JUMP JUMPDEST JUMPDEST DUP2 CALLDATALOAD PUSH2 0xB29 DUP5 DUP3 PUSH1 0x20 DUP7 ADD PUSH2 0xA9B JUMP JUMPDEST SWAP2 POP POP SWAP3 SWAP2 POP POP JUMP JUMPDEST PUSH1 0x0 PUSH1 0x20 DUP3 DUP5 SUB SLT ISZERO PUSH2 0xB48 JUMPI PUSH2 0xB47 PUSH2 0x999 JUMP JUMPDEST JUMPDEST PUSH1 0x0 DUP3 ADD CALLDATALOAD PUSH8 0xFFFFFFFFFFFFFFFF DUP2 GT ISZERO PUSH2 0xB66 JUMPI PUSH2 0xB65 PUSH2 0x99E JUMP JUMPDEST JUMPDEST PUSH2 0xB72 DUP5 DUP3 DUP6 ADD PUSH2 0xB04 JUMP JUMPDEST SWAP2 POP POP SWAP3 SWAP2 POP POP JUMP JUMPDEST PUSH2 0xB84 DUP2 PUSH2 0xA65 JUMP JUMPDEST DUP3 MSTORE POP POP JUMP JUMPDEST PUSH1 0x0 PUSH1 0x20 DUP3 ADD SWAP1 POP PUSH2 0xB9F PUSH1 0x0 DUP4 ADD DUP5 PUSH2 0xB7B JUMP JUMPDEST SWAP3 SWAP2 POP POP JUMP JUMPDEST PUSH1 0x0 DUP1 REVERT JUMPDEST PUSH1 0x0 PUSH8 0xFFFFFFFFFFFFFFFF DUP3 GT ISZERO PUSH2 0xBC5 JUMPI PUSH2 0xBC4 PUSH2 0x9B9 JUMP JUMPDEST JUMPDEST PUSH2 0xBCE DUP3 PUSH2 0x9A8 JUMP JUMPDEST SWAP1 POP PUSH1 0x20 DUP2 ADD SWAP1 POP SWAP2 SWAP1 POP JUMP JUMPDEST DUP3 DUP2 DUP4 CALLDATACOPY PUSH1 0x0 DUP4 DUP4 ADD MSTORE POP POP POP JUMP JUMPDEST PUSH1 0x0 PUSH2 0xBFD PUSH2 0xBF8 DUP5 PUSH2 0xBAA JUMP JUMPDEST PUSH2 0xA19 JUMP JUMPDEST SWAP1 POP DUP3 DUP2 MSTORE PUSH1 0x20 DUP2 ADD DUP5 DUP5 DUP5 ADD GT ISZERO PUSH2 0xC19 JUMPI PUSH2 0xC18 PUSH2 0xBA5 JUMP JUMPDEST JUMPDEST PUSH2 0xC24 DUP5 DUP3 DUP6 PUSH2 0xBDB JUMP JUMPDEST POP SWAP4 SWAP3 POP POP POP JUMP JUMPDEST PUSH1 0x0 DUP3 PUSH1 0x1F DUP4 ADD SLT PUSH2 0xC41 JUMPI PUSH2 0xC40 PUSH2 0x9A3 JUMP JUMPDEST JUMPDEST DUP2 CALLDATALOAD PUSH2 0xC51 DUP5 DUP3 PUSH1 0x20 DUP7 ADD PUSH2 0xBEA JUMP JUMPDEST SWAP2 POP POP SWAP3 SWAP2 POP POP JUMP JUMPDEST PUSH1 0x0 PUSH1 0x20 DUP3 DUP5 SUB SLT ISZERO PUSH2 0xC70 JUMPI PUSH2 0xC6F PUSH2 0x999 JUMP JUMPDEST JUMPDEST PUSH1 0x0 DUP3 ADD CALLDATALOAD PUSH8 0xFFFFFFFFFFFFFFFF DUP2 GT ISZERO PUSH2 0xC8E JUMPI PUSH2 0xC8D PUSH2 0x99E JUMP JUMPDEST JUMPDEST PUSH2 0xC9A DUP5 DUP3 DUP6 ADD PUSH2 0xC2C JUMP JUMPDEST SWAP2 POP POP SWAP3 SWAP2 POP POP JUMP JUMPDEST PUSH1 0x0 DUP2 MLOAD SWAP1 POP SWAP2 SWAP1 POP JUMP JUMPDEST PUSH1 0x0 DUP3 DUP3 MSTORE PUSH1 0x20 DUP3 ADD SWAP1 POP SWAP3 SWAP2 POP POP JUMP JUMPDEST PUSH1 0x0 DUP2 SWAP1 POP PUSH1 0x20 DUP3 ADD SWAP1 POP SWAP2 SWAP1 POP JUMP JUMPDEST PUSH2 0xCD8 DUP2 PUSH2 0xA65 JUMP JUMPDEST DUP3 MSTORE POP POP JUMP JUMPDEST PUSH1 0x0 PUSH2 0xCEA DUP4 DUP4 PUSH2 0xCCF JUMP JUMPDEST PUSH1 0x20 DUP4 ADD SWAP1 POP SWAP3 SWAP2 POP POP JUMP JUMPDEST PUSH1 0x0 PUSH1 0x20 DUP3 ADD SWAP1 POP SWAP2 SWAP1 POP JUMP JUMPDEST PUSH1 0x0 PUSH2 0xD0E DUP3 PUSH2 0xCA3 JUMP JUMPDEST PUSH2 0xD18 DUP2 DUP6 PUSH2 0xCAE JUMP JUMPDEST SWAP4 POP PUSH2 0xD23 DUP4 PUSH2 0xCBF JUMP JUMPDEST DUP1 PUSH1 0x0 JUMPDEST DUP4 DUP2 LT ISZERO PUSH2 0xD54 JUMPI DUP2 MLOAD PUSH2 0xD3B DUP9 DUP3 PUSH2 0xCDE JUMP JUMPDEST SWAP8 POP PUSH2 0xD46 DUP4 PUSH2 0xCF6 JUMP JUMPDEST SWAP3 POP POP PUSH1 0x1 DUP2 ADD SWAP1 POP PUSH2 0xD27 JUMP JUMPDEST POP DUP6 SWAP4 POP POP POP POP SWAP3 SWAP2 POP POP JUMP JUMPDEST PUSH1 0x0 PUSH1 0x20 DUP3 ADD SWAP1 POP DUP2 DUP2 SUB PUSH1 0x0 DUP4 ADD MSTORE PUSH2 0xD7B DUP2 DUP5 PUSH2 0xD03 JUMP JUMPDEST SWAP1 POP SWAP3 SWAP2 POP POP JUMP JUMPDEST PUSH1 0x0 DUP2 MLOAD SWAP1 POP SWAP2 SWAP1 POP JUMP JUMPDEST PUSH1 0x0 DUP3 DUP3 MSTORE PUSH1 0x20 DUP3 ADD SWAP1 POP SWAP3 SWAP2 POP POP JUMP JUMPDEST PUSH1 0x0 DUP2 SWAP1 POP PUSH1 0x20 DUP3 ADD SWAP1 POP SWAP2 SWAP1 POP JUMP JUMPDEST PUSH1 0x0 DUP2 MLOAD SWAP1 POP SWAP2 SWAP1 POP JUMP JUMPDEST PUSH1 0x0 DUP3 DUP3 MSTORE PUSH1 0x20 DUP3 ADD SWAP1 POP SWAP3 SWAP2 POP POP JUMP JUMPDEST PUSH1 0x0 JUMPDEST DUP4 DUP2 LT ISZERO PUSH2 0xDE9 JUMPI DUP1 DUP3 ADD MLOAD DUP2 DUP5 ADD MSTORE PUSH1 0x20 DUP2 ADD SWAP1 POP PUSH2 0xDCE JUMP JUMPDEST PUSH1 0x0 DUP5 DUP5 ADD MSTORE POP POP POP POP JUMP JUMPDEST PUSH1 0x0 PUSH2 0xE00 DUP3 PUSH2 0xDAF JUMP JUMPDEST PUSH2 0xE0A DUP2 DUP6 PUSH2 0xDBA JUMP JUMPDEST SWAP4 POP PUSH2 0xE1A DUP2 DUP6 PUSH1 0x20 DUP7 ADD PUSH2 0xDCB JUMP JUMPDEST PUSH2 0xE23 DUP2 PUSH2 0x9A8 JUMP JUMPDEST DUP5 ADD SWAP2 POP POP SWAP3 SWAP2 POP POP JUMP JUMPDEST PUSH1 0x0 PUSH2 0xE3A DUP4 DUP4 PUSH2 0xDF5 JUMP JUMPDEST SWAP1 POP SWAP3 SWAP2 POP POP JUMP JUMPDEST PUSH1 0x0 PUSH1 0x20 DUP3 ADD SWAP1 POP SWAP2 SWAP1 POP JUMP JUMPDEST PUSH1 0x0 PUSH2 0xE5A DUP3 PUSH2 0xD83 JUMP JUMPDEST PUSH2 0xE64 DUP2 DUP6 PUSH2 0xD8E JUMP JUMPDEST SWAP4 POP DUP4 PUSH1 0x20 DUP3 MUL DUP6 ADD PUSH2 0xE76 DUP6 PUSH2 0xD9F JUMP JUMPDEST DUP1 PUSH1 0x0 JUMPDEST DUP6 DUP2 LT ISZERO PUSH2 0xEB2 JUMPI DUP5 DUP5 SUB DUP10 MSTORE DUP2 MLOAD PUSH2 0xE93 DUP6 DUP3 PUSH2 0xE2E JUMP JUMPDEST SWAP5 POP PUSH2 0xE9E DUP4 PUSH2 0xE42 JUMP JUMPDEST SWAP3 POP PUSH1 0x20 DUP11 ADD SWAP10 POP POP PUSH1 0x1 DUP2 ADD SWAP1 POP PUSH2 0xE7A JUMP JUMPDEST POP DUP3 SWAP8 POP DUP8 SWAP6 POP POP POP POP POP POP SWAP3 SWAP2 POP POP JUMP JUMPDEST PUSH1 0x0 PUSH1 0x20 DUP3 ADD SWAP1 POP DUP2 DUP2 SUB PUSH1 0x0 DUP4 ADD MSTORE PUSH2 0xEDE DUP2 DUP5 PUSH2 0xE4F JUMP JUMPDEST SWAP1 POP SWAP3 SWAP2 POP POP JUMP JUMPDEST PUSH32 0x4E487B7100000000000000000000000000000000000000000000000000000000 PUSH1 0x0 MSTORE PUSH1 0x32 PUSH1 0x4 MSTORE PUSH1 0x24 PUSH1 0x0 REVERT JUMPDEST PUSH32 0x4E487B7100000000000000000000000000000000000000000000000000000000 PUSH1 0x0 MSTORE PUSH1 0x11 PUSH1 0x4 MSTORE PUSH1 0x24 PUSH1 0x0 REVERT JUMPDEST PUSH1 0x0 PUSH2 0xF4F DUP3 PUSH2 0xA65 JUMP JUMPDEST SWAP2 POP PUSH2 0xF5A DUP4 PUSH2 0xA65 JUMP JUMPDEST SWAP3 POP DUP3 DUP3 ADD SWAP1 POP DUP1 DUP3 GT ISZERO PUSH2 0xF72 JUMPI PUSH2 0xF71 PUSH2 0xF15 JUMP JUMPDEST JUMPDEST SWAP3 SWAP2 POP POP JUMP JUMPDEST PUSH1 0x0 PUSH2 0xF83 DUP3 PUSH2 0xA65 JUMP JUMPDEST SWAP2 POP PUSH32 0xFFFFFFFFFFFFFFFFFFFFFFFFFFFFFFFFFFFFFFFFFFFFFFFFFFFFFFFFFFFFFFFF DUP3 SUB PUSH2 0xFB5 JUMPI PUSH2 0xFB4 PUSH2 0xF15 JUMP JUMPDEST JUMPDEST PUSH1 0x1 DUP3 ADD SWAP1 POP SWAP2 SWAP1 POP JUMP JUMPDEST PUSH1 0x0 PUSH2 0xFCB DUP3 PUSH2 0xA65 JUMP JUMPDEST SWAP2 POP PUSH2 0xFD6 DUP4 PUSH2 0xA65 JUMP JUMPDEST SWAP3 POP DUP3 DUP3 SUB SWAP1 POP DUP2 DUP2 GT ISZERO PUSH2 0xFEE JUMPI PUSH2 0xFED PUSH2 0xF15 JUMP JUMPDEST JUMPDEST SWAP3 SWAP2 POP POP JUMP JUMPDEST PUSH1 0x0 DUP2 PUSH1 0x1 SHR SWAP1 POP SWAP2 SWAP1 POP JUMP JUMPDEST PUSH1 0x0 DUP1 DUP3 SWAP2 POP DUP4 SWAP1 POP JUMPDEST PUSH1 0x1 DUP6 GT ISZERO PUSH2 0x104B JUMPI DUP1 DUP7 DIV DUP2 GT ISZERO PUSH2 0x1027 JUMPI PUSH2 0x1026 PUSH2 0xF15 JUMP JUMPDEST JUMPDEST PUSH1 0x1 DUP6 AND ISZERO PUSH2 0x1036 JUMPI DUP1 DUP3 MUL SWAP2 POP JUMPDEST DUP1 DUP2 MUL SWAP1 POP PUSH2 0x1044 DUP6 PUSH2 0xFF4 JUMP JUMPDEST SWAP5 POP PUSH2 0x100B JUMP JUMPDEST SWAP5 POP SWAP5 SWAP3 POP POP POP JUMP JUMPDEST PUSH1 0x0 DUP3 PUSH2 0x1064 JUMPI PUSH1 0x1 SWAP1 POP PUSH2 0x1120 JUMP JUMPDEST DUP2 PUSH2 0x1072 JUMPI PUSH1 0x0 SWAP1 POP PUSH2 0x1120 JUMP JUMPDEST DUP2 PUSH1 0x1 DUP2 EQ PUSH2 0x1088 JUMPI PUSH1 0x2 DUP2 EQ PUSH2 0x1092 JUMPI PUSH2 0x10C1 JUMP JUMPDEST PUSH1 0x1 SWAP2 POP POP PUSH2 0x1120 JUMP JUMPDEST PUSH1 0xFF DUP5 GT ISZERO PUSH2 0x10A4 JUMPI PUSH2 0x10A3 PUSH2 0xF15 JUMP JUMPDEST JUMPDEST DUP4 PUSH1 0x2 EXP SWAP2 POP DUP5 DUP3 GT ISZERO PUSH2 0x10BB JUMPI PUSH2 0x10BA PUSH2 0xF15 JUMP JUMPDEST JUMPDEST POP PUSH2 0x1120 JUMP JUMPDEST POP PUSH1 0x20 DUP4 LT PUSH2 0x133 DUP4 LT AND PUSH1 0x4E DUP5 LT PUSH1 0xB DUP5 LT AND OR ISZERO PUSH2 0x10F6 JUMPI DUP3 DUP3 EXP SWAP1 POP DUP4 DUP2 GT ISZERO PUSH2 0x10F1 JUMPI PUSH2 0x10F0 PUSH2 0xF15 JUMP JUMPDEST JUMPDEST PUSH2 0x1120 JUMP JUMPDEST PUSH2 0x1103 DUP5 DUP5 DUP5 PUSH1 0x1 PUSH2 0x1001 JUMP JUMPDEST SWAP3 POP SWAP1 POP DUP2 DUP5 DIV DUP2 GT ISZERO PUSH2 0x111A JUMPI PUSH2 0x1119 PUSH2 0xF15 JUMP JUMPDEST JUMPDEST DUP2 DUP2 MUL SWAP1 POP JUMPDEST SWAP4 SWAP3 POP POP POP JUMP JUMPDEST PUSH1 0x0 PUSH2 0x1132 DUP3 PUSH2 0xA65 JUMP JUMPDEST SWAP2 POP PUSH2 0x113D DUP4 PUSH2 0xA65 JUMP JUMPDEST SWAP3 POP PUSH2 0x116A PUSH32 0xFFFFFFFFFFFFFFFFFFFFFFFFFFFFFFFFFFFFFFFFFFFFFFFFFFFFFFFFFFFFFFFF DUP5 DUP5 PUSH2 0x1054 JUMP JUMPDEST SWAP1 POP SWAP3 SWAP2 POP POP JUMP JUMPDEST PUSH1 0x0 PUSH2 0x117D DUP3 PUSH2 0xA65 JUMP JUMPDEST SWAP2 POP PUSH2 0x1188 DUP4 PUSH2 0xA65 JUMP JUMPDEST SWAP3 POP DUP3 DUP3 MUL PUSH2 0x1196 DUP2 PUSH2 0xA65 JUMP JUMPDEST SWAP2 POP DUP3 DUP3 DIV DUP5 EQ DUP4 ISZERO OR PUSH2 0x11AD JUMPI PUSH2 0x11AC PUSH2 0xF15 JUMP JUMPDEST JUMPDEST POP SWAP3 SWAP2 POP POP JUMP INVALID BALANCE ADDRESS ADDRESS ADDRESS EXP ORIGIN ADDRESS ADDRESS ADDRESS EXP CALLER ADDRESS ADDRESS ADDRESS EXP EXP CALLVALUE ADDRESS ADDRESS ADDRESS EXP EXP CALLDATALOAD ADDRESS ADDRESS ADDRESS EXP CALLDATASIZE ADDRESS ADDRESS ADDRESS EXP EXP CALLDATACOPY ADDRESS ADDRESS ADDRESS EXP CODESIZE ADDRESS ADDRESS ADDRESS EXP CODECOPY ADDRESS ADDRESS ADDRESS EXP EXP BALANCE ADDRESS ADDRESS ADDRESS ADDRESS EXP LOG2 PUSH5 0x6970667358 0x22 SLT KECCAK256 RETURNDATACOPY CALL SWAP7 LOG0 EQ BALANCE EQ 0xC4 0xF MUL SHR SWAP3 BLOCKHASH 0xDE 0xEC 0xE9 0xBC 0xB8 DIV CHAINID MOD PC 0xF9 0xE9 0xAF 0xE9 INVALID 0xB0 SWAP8 PUSH1 0xF0 STATICCALL PUSH5 0x736F6C6343 STOP ADDMOD GT STOP CALLER "},"methodIdentifiers":{"first_split(string)":"a7c73fd8","main(string)":"769f204d","smt(string)":"96caabb8","st2num(string)":"79cd9055","sum(uint256[])":"0194db8e"}}}}}