{"contracts/Day2.sol":{"Day2":{"abi":[{"inputs":[{"internalType":"string","name":"in_str","type":"string"}],"name":"calculate_score","outputs":[{"internalType":"uint256","name":"","type":"uint256"}],"stateMutability":"pure","type":"function"},{"inputs":[{"internalType":"string","name":"in_str","type":"string"}],"name":"first_split","outputs":[{"internalType":"string[]","name":"","type":"string[]"}],"stateMutability":"pure","type":"function"},{"inputs":[{"internalType":"string","name":"input","type":"string"}],"name":"main","outputs":[{"internalType":"uint256","name":"","type":"uint256"}],"stateMutability":"pure","type":"function"},{"inputs":[{"internalType":"string","name":"str_1","type":"string"},{"internalType":"string","name":"str_2","type":"string"}],"name":"str_cmp","outputs":[{"internalType":"bool","name":"","type":"bool"}],"stateMutability":"pure","type":"function"}],"evm":{"bytecode":{"linkReferences":{},"object":"608060405234801561001057600080fd5b506111a0806100206000396000f3fe608060405234801561001057600080fd5b506004361061004c5760003560e01c806344b7f83c14610051578063769f204d14610081578063a1edea50146100b1578063a7c73fd8146100e1575b600080fd5b61006b60048036038101906100669190610bbb565b610111565b6040516100789190610c4e565b60405180910390f35b61009b60048036038101906100969190610c69565b61017a565b6040516100a89190610ccb565b60405180910390f35b6100cb60048036038101906100c69190610c69565b6101cd565b6040516100d89190610ccb565b60405180910390f35b6100fb60048036038101906100f69190610c69565b61048e565b6040516101089190610e27565b60405180910390f35b6000816040516020016101249190610e85565b604051602081830303815290604052805190602001208360405160200161014b9190610e85565b604051602081830303815290604052805190602001200361016f5760019050610174565b600090505b92915050565b6000808251036101bd576040518060400160405280600c81526020017f4120590a4220580a43205a0a000000000000000000000000000000000000000081525091505b6101c6826105b3565b9050919050565b600061020e826040518060400160405280600381526020017f4120580000000000000000000000000000000000000000000000000000000000815250610111565b1561021c5760049050610489565b61025b826040518060400160405280600381526020017f4120590000000000000000000000000000000000000000000000000000000000815250610111565b156102695760089050610489565b6102a8826040518060400160405280600381526020017f41205a0000000000000000000000000000000000000000000000000000000000815250610111565b156102b65760039050610489565b6102f5826040518060400160405280600381526020017f4220580000000000000000000000000000000000000000000000000000000000815250610111565b156103035760019050610489565b610342826040518060400160405280600381526020017f4220590000000000000000000000000000000000000000000000000000000000815250610111565b156103505760059050610489565b61038f826040518060400160405280600381526020017f42205a0000000000000000000000000000000000000000000000000000000000815250610111565b1561039d5760099050610489565b6103dc826040518060400160405280600381526020017f4320580000000000000000000000000000000000000000000000000000000000815250610111565b156103ea5760079050610489565b610429826040518060400160405280600381526020017f4320590000000000000000000000000000000000000000000000000000000000815250610111565b156104375760029050610489565b610476826040518060400160405280600381526020017f43205a0000000000000000000000000000000000000000000000000000000000815250610111565b156104845760069050610489565b600090505b919050565b6060600061049b8361061c565b905060006104dd6040518060400160405280600181526020017f0a0000000000000000000000000000000000000000000000000000000000000081525061061c565b9050600060016104f6838561064a90919063ffffffff16565b6105009190610ecb565b67ffffffffffffffff81111561051957610518610a90565b5b60405190808252806020026020018201604052801561054c57816020015b60608152602001906001900390816105375790505b50905060005b81518110156105a75761057661057184866106f290919063ffffffff16565b61070c565b82828151811061058957610588610eff565b5b6020026020010181905250808061059f90610f2e565b915050610552565b50809350505050919050565b6000806105bf8361048e565b90506000805b8251811015610611576105f18382815181106105e4576105e3610eff565b5b60200260200101516101cd565b826105fc9190610ecb565b9150808061060990610f2e565b9150506105c5565b508092505050919050565b610624610a47565b600060208301905060405180604001604052808451815260200182815250915050919050565b600080826000015161066e8560000151866020015186600001518760200151610788565b6106789190610ecb565b90505b8360000151846020015161068f9190610ecb565b81116106eb5781806106a090610f2e565b92505082600001516106da8560200151836106bb9190610f76565b86600001516106ca9190610f76565b8386600001518760200151610788565b6106e49190610ecb565b905061067b565b5092915050565b6106fa610a47565b6107058383836108d1565b5092915050565b60606000826000015167ffffffffffffffff81111561072e5761072d610a90565b5b6040519080825280601f01601f1916602001820160405280156107605781602001600182028036833780820191505090505b509050600060208201905061077e818560200151866000015161099b565b8192505050919050565b60008084905060008685116108b8576020851161085b576000808611156107e15760018660206107b89190610f76565b60086107c49190610faa565b60026107d0919061111f565b6107da9190610f76565b1960001b90505b60008186511690506000878a8a6107f89190610ecb565b6108029190610f76565b905060008386511690505b82811461084d57818610610834578a8a6108279190610ecb565b96505050505050506108c9565b858061083f90610f2e565b96505083865116905061080d565b8596505050505050506108c9565b60008585209050600091505b85886108739190610f76565b82116108b6576000868420905080820361089357839450505050506108c9565b6001846108a09190610ecb565b93505081806108ae90610f2e565b925050610867565b505b86866108c49190610ecb565b925050505b949350505050565b6108d9610a47565b60006108f78560000151866020015186600001518760200151610788565b905084602001518360200181815250508460200151816109179190610f76565b836000018181525050846000015185602001516109349190610ecb565b810361094a576000856000018181525050610990565b8360000151836000015161095e9190610ecb565b8560000181815161096f9190610f76565b915081815250508360000151816109869190610ecb565b8560200181815250505b829150509392505050565b5b602081106109da57815183526020836109b59190610ecb565b92506020826109c49190610ecb565b91506020816109d39190610f76565b905061099c565b60007fffffffffffffffffffffffffffffffffffffffffffffffffffffffffffffffff90506000821115610a31576001826020610a179190610f76565b610100610a24919061111f565b610a2e9190610f76565b90505b8019835116818551168181178652505050505050565b604051806040016040528060008152602001600081525090565b6000604051905090565b600080fd5b600080fd5b600080fd5b600080fd5b6000601f19601f8301169050919050565b7f4e487b7100000000000000000000000000000000000000000000000000000000600052604160045260246000fd5b610ac882610a7f565b810181811067ffffffffffffffff82111715610ae757610ae6610a90565b5b80604052505050565b6000610afa610a61565b9050610b068282610abf565b919050565b600067ffffffffffffffff821115610b2657610b25610a90565b5b610b2f82610a7f565b9050602081019050919050565b82818337600083830152505050565b6000610b5e610b5984610b0b565b610af0565b905082815260208101848484011115610b7a57610b79610a7a565b5b610b85848285610b3c565b509392505050565b600082601f830112610ba257610ba1610a75565b5b8135610bb2848260208601610b4b565b91505092915050565b60008060408385031215610bd257610bd1610a6b565b5b600083013567ffffffffffffffff811115610bf057610bef610a70565b5b610bfc85828601610b8d565b925050602083013567ffffffffffffffff811115610c1d57610c1c610a70565b5b610c2985828601610b8d565b9150509250929050565b60008115159050919050565b610c4881610c33565b82525050565b6000602082019050610c636000830184610c3f565b92915050565b600060208284031215610c7f57610c7e610a6b565b5b600082013567ffffffffffffffff811115610c9d57610c9c610a70565b5b610ca984828501610b8d565b91505092915050565b6000819050919050565b610cc581610cb2565b82525050565b6000602082019050610ce06000830184610cbc565b92915050565b600081519050919050565b600082825260208201905092915050565b6000819050602082019050919050565b600081519050919050565b600082825260208201905092915050565b60005b83811015610d4c578082015181840152602081019050610d31565b60008484015250505050565b6000610d6382610d12565b610d6d8185610d1d565b9350610d7d818560208601610d2e565b610d8681610a7f565b840191505092915050565b6000610d9d8383610d58565b905092915050565b6000602082019050919050565b6000610dbd82610ce6565b610dc78185610cf1565b935083602082028501610dd985610d02565b8060005b85811015610e155784840389528151610df68582610d91565b9450610e0183610da5565b925060208a01995050600181019050610ddd565b50829750879550505050505092915050565b60006020820190508181036000830152610e418184610db2565b905092915050565b600081905092915050565b6000610e5f82610d12565b610e698185610e49565b9350610e79818560208601610d2e565b80840191505092915050565b6000610e918284610e54565b915081905092915050565b7f4e487b7100000000000000000000000000000000000000000000000000000000600052601160045260246000fd5b6000610ed682610cb2565b9150610ee183610cb2565b9250828201905080821115610ef957610ef8610e9c565b5b92915050565b7f4e487b7100000000000000000000000000000000000000000000000000000000600052603260045260246000fd5b6000610f3982610cb2565b91507fffffffffffffffffffffffffffffffffffffffffffffffffffffffffffffffff8203610f6b57610f6a610e9c565b5b600182019050919050565b6000610f8182610cb2565b9150610f8c83610cb2565b9250828203905081811115610fa457610fa3610e9c565b5b92915050565b6000610fb582610cb2565b9150610fc083610cb2565b9250828202610fce81610cb2565b91508282048414831517610fe557610fe4610e9c565b5b5092915050565b60008160011c9050919050565b6000808291508390505b60018511156110435780860481111561101f5761101e610e9c565b5b600185161561102e5780820291505b808102905061103c85610fec565b9450611003565b94509492505050565b60008261105c5760019050611118565b8161106a5760009050611118565b8160018114611080576002811461108a576110b9565b6001915050611118565b60ff84111561109c5761109b610e9c565b5b8360020a9150848211156110b3576110b2610e9c565b5b50611118565b5060208310610133831016604e8410600b84101617156110ee5782820a9050838111156110e9576110e8610e9c565b5b611118565b6110fb8484846001610ff9565b9250905081840481111561111257611111610e9c565b5b81810290505b9392505050565b600061112a82610cb2565b915061113583610cb2565b92506111627fffffffffffffffffffffffffffffffffffffffffffffffffffffffffffffffff848461104c565b90509291505056fea2646970667358221220c0632fbc69c44a33c5e587cde7a8305a1c2a6bd6d5941365bf7119d70d4324f364736f6c63430008110033","opcodes":"PUSH1 0x80 PUSH1 0x40 MSTORE CALLVALUE DUP1 ISZERO PUSH2 0x10 JUMPI PUSH1 0x0 DUP1 REVERT JUMPDEST POP PUSH2 0x11A0 DUP1 PUSH2 0x20 PUSH1 0x0 CODECOPY PUSH1 0x0 RETURN INVALID PUSH1 0x80 PUSH1 0x40 MSTORE CALLVALUE DUP1 ISZERO PUSH2 0x10 JUMPI PUSH1 0x0 DUP1 REVERT JUMPDEST POP PUSH1 0x4 CALLDATASIZE LT PUSH2 0x4C JUMPI PUSH1 0x0 CALLDATALOAD PUSH1 0xE0 SHR DUP1 PUSH4 0x44B7F83C EQ PUSH2 0x51 JUMPI DUP1 PUSH4 0x769F204D EQ PUSH2 0x81 JUMPI DUP1 PUSH4 0xA1EDEA50 EQ PUSH2 0xB1 JUMPI DUP1 PUSH4 0xA7C73FD8 EQ PUSH2 0xE1 JUMPI JUMPDEST PUSH1 0x0 DUP1 REVERT JUMPDEST PUSH2 0x6B PUSH1 0x4 DUP1 CALLDATASIZE SUB DUP2 ADD SWAP1 PUSH2 0x66 SWAP2 SWAP1 PUSH2 0xBBB JUMP JUMPDEST PUSH2 0x111 JUMP JUMPDEST PUSH1 0x40 MLOAD PUSH2 0x78 SWAP2 SWAP1 PUSH2 0xC4E JUMP JUMPDEST PUSH1 0x40 MLOAD DUP1 SWAP2 SUB SWAP1 RETURN JUMPDEST PUSH2 0x9B PUSH1 0x4 DUP1 CALLDATASIZE SUB DUP2 ADD SWAP1 PUSH2 0x96 SWAP2 SWAP1 PUSH2 0xC69 JUMP JUMPDEST PUSH2 0x17A JUMP JUMPDEST PUSH1 0x40 MLOAD PUSH2 0xA8 SWAP2 SWAP1 PUSH2 0xCCB JUMP JUMPDEST PUSH1 0x40 MLOAD DUP1 SWAP2 SUB SWAP1 RETURN JUMPDEST PUSH2 0xCB PUSH1 0x4 DUP1 CALLDATASIZE SUB DUP2 ADD SWAP1 PUSH2 0xC6 SWAP2 SWAP1 PUSH2 0xC69 JUMP JUMPDEST PUSH2 0x1CD JUMP JUMPDEST PUSH1 0x40 MLOAD PUSH2 0xD8 SWAP2 SWAP1 PUSH2 0xCCB JUMP JUMPDEST PUSH1 0x40 MLOAD DUP1 SWAP2 SUB SWAP1 RETURN JUMPDEST PUSH2 0xFB PUSH1 0x4 DUP1 CALLDATASIZE SUB DUP2 ADD SWAP1 PUSH2 0xF6 SWAP2 SWAP1 PUSH2 0xC69 JUMP JUMPDEST PUSH2 0x48E JUMP JUMPDEST PUSH1 0x40 MLOAD PUSH2 0x108 SWAP2 SWAP1 PUSH2 0xE27 JUMP JUMPDEST PUSH1 0x40 MLOAD DUP1 SWAP2 SUB SWAP1 RETURN JUMPDEST PUSH1 0x0 DUP2 PUSH1 0x40 MLOAD PUSH1 0x20 ADD PUSH2 0x124 SWAP2 SWAP1 PUSH2 0xE85 JUMP JUMPDEST PUSH1 0x40 MLOAD PUSH1 0x20 DUP2 DUP4 SUB SUB DUP2 MSTORE SWAP1 PUSH1 0x40 MSTORE DUP1 MLOAD SWAP1 PUSH1 0x20 ADD KECCAK256 DUP4 PUSH1 0x40 MLOAD PUSH1 0x20 ADD PUSH2 0x14B SWAP2 SWAP1 PUSH2 0xE85 JUMP JUMPDEST PUSH1 0x40 MLOAD PUSH1 0x20 DUP2 DUP4 SUB SUB DUP2 MSTORE SWAP1 PUSH1 0x40 MSTORE DUP1 MLOAD SWAP1 PUSH1 0x20 ADD KECCAK256 SUB PUSH2 0x16F JUMPI PUSH1 0x1 SWAP1 POP PUSH2 0x174 JUMP JUMPDEST PUSH1 0x0 SWAP1 POP JUMPDEST SWAP3 SWAP2 POP POP JUMP JUMPDEST PUSH1 0x0 DUP1 DUP3 MLOAD SUB PUSH2 0x1BD JUMPI PUSH1 0x40 MLOAD DUP1 PUSH1 0x40 ADD PUSH1 0x40 MSTORE DUP1 PUSH1 0xC DUP2 MSTORE PUSH1 0x20 ADD PUSH32 0x4120590A4220580A43205A0A0000000000000000000000000000000000000000 DUP2 MSTORE POP SWAP2 POP JUMPDEST PUSH2 0x1C6 DUP3 PUSH2 0x5B3 JUMP JUMPDEST SWAP1 POP SWAP2 SWAP1 POP JUMP JUMPDEST PUSH1 0x0 PUSH2 0x20E DUP3 PUSH1 0x40 MLOAD DUP1 PUSH1 0x40 ADD PUSH1 0x40 MSTORE DUP1 PUSH1 0x3 DUP2 MSTORE PUSH1 0x20 ADD PUSH32 0x4120580000000000000000000000000000000000000000000000000000000000 DUP2 MSTORE POP PUSH2 0x111 JUMP JUMPDEST ISZERO PUSH2 0x21C JUMPI PUSH1 0x4 SWAP1 POP PUSH2 0x489 JUMP JUMPDEST PUSH2 0x25B DUP3 PUSH1 0x40 MLOAD DUP1 PUSH1 0x40 ADD PUSH1 0x40 MSTORE DUP1 PUSH1 0x3 DUP2 MSTORE PUSH1 0x20 ADD PUSH32 0x4120590000000000000000000000000000000000000000000000000000000000 DUP2 MSTORE POP PUSH2 0x111 JUMP JUMPDEST ISZERO PUSH2 0x269 JUMPI PUSH1 0x8 SWAP1 POP PUSH2 0x489 JUMP JUMPDEST PUSH2 0x2A8 DUP3 PUSH1 0x40 MLOAD DUP1 PUSH1 0x40 ADD PUSH1 0x40 MSTORE DUP1 PUSH1 0x3 DUP2 MSTORE PUSH1 0x20 ADD PUSH32 0x41205A0000000000000000000000000000000000000000000000000000000000 DUP2 MSTORE POP PUSH2 0x111 JUMP JUMPDEST ISZERO PUSH2 0x2B6 JUMPI PUSH1 0x3 SWAP1 POP PUSH2 0x489 JUMP JUMPDEST PUSH2 0x2F5 DUP3 PUSH1 0x40 MLOAD DUP1 PUSH1 0x40 ADD PUSH1 0x40 MSTORE DUP1 PUSH1 0x3 DUP2 MSTORE PUSH1 0x20 ADD PUSH32 0x4220580000000000000000000000000000000000000000000000000000000000 DUP2 MSTORE POP PUSH2 0x111 JUMP JUMPDEST ISZERO PUSH2 0x303 JUMPI PUSH1 0x1 SWAP1 POP PUSH2 0x489 JUMP JUMPDEST PUSH2 0x342 DUP3 PUSH1 0x40 MLOAD DUP1 PUSH1 0x40 ADD PUSH1 0x40 MSTORE DUP1 PUSH1 0x3 DUP2 MSTORE PUSH1 0x20 ADD PUSH32 0x4220590000000000000000000000000000000000000000000000000000000000 DUP2 MSTORE POP PUSH2 0x111 JUMP JUMPDEST ISZERO PUSH2 0x350 JUMPI PUSH1 0x5 SWAP1 POP PUSH2 0x489 JUMP JUMPDEST PUSH2 0x38F DUP3 PUSH1 0x40 MLOAD DUP1 PUSH1 0x40 ADD PUSH1 0x40 MSTORE DUP1 PUSH1 0x3 DUP2 MSTORE PUSH1 0x20 ADD PUSH32 0x42205A0000000000000000000000000000000000000000000000000000000000 DUP2 MSTORE POP PUSH2 0x111 JUMP JUMPDEST ISZERO PUSH2 0x39D JUMPI PUSH1 0x9 SWAP1 POP PUSH2 0x489 JUMP JUMPDEST PUSH2 0x3DC DUP3 PUSH1 0x40 MLOAD DUP1 PUSH1 0x40 ADD PUSH1 0x40 MSTORE DUP1 PUSH1 0x3 DUP2 MSTORE PUSH1 0x20 ADD PUSH32 0x4320580000000000000000000000000000000000000000000000000000000000 DUP2 MSTORE POP PUSH2 0x111 JUMP JUMPDEST ISZERO PUSH2 0x3EA JUMPI PUSH1 0x7 SWAP1 POP PUSH2 0x489 JUMP JUMPDEST PUSH2 0x429 DUP3 PUSH1 0x40 MLOAD DUP1 PUSH1 0x40 ADD PUSH1 0x40 MSTORE DUP1 PUSH1 0x3 DUP2 MSTORE PUSH1 0x20 ADD PUSH32 0x4320590000000000000000000000000000000000000000000000000000000000 DUP2 MSTORE POP PUSH2 0x111 JUMP JUMPDEST ISZERO PUSH2 0x437 JUMPI PUSH1 0x2 SWAP1 POP PUSH2 0x489 JUMP JUMPDEST PUSH2 0x476 DUP3 PUSH1 0x40 MLOAD DUP1 PUSH1 0x40 ADD PUSH1 0x40 MSTORE DUP1 PUSH1 0x3 DUP2 MSTORE PUSH1 0x20 ADD PUSH32 0x43205A0000000000000000000000000000000000000000000000000000000000 DUP2 MSTORE POP PUSH2 0x111 JUMP JUMPDEST ISZERO PUSH2 0x484 JUMPI PUSH1 0x6 SWAP1 POP PUSH2 0x489 JUMP JUMPDEST PUSH1 0x0 SWAP1 POP JUMPDEST SWAP2 SWAP1 POP JUMP JUMPDEST PUSH1 0x60 PUSH1 0x0 PUSH2 0x49B DUP4 PUSH2 0x61C JUMP JUMPDEST SWAP1 POP PUSH1 0x0 PUSH2 0x4DD PUSH1 0x40 MLOAD DUP1 PUSH1 0x40 ADD PUSH1 0x40 MSTORE DUP1 PUSH1 0x1 DUP2 MSTORE PUSH1 0x20 ADD PUSH32 0xA00000000000000000000000000000000000000000000000000000000000000 DUP2 MSTORE POP PUSH2 0x61C JUMP JUMPDEST SWAP1 POP PUSH1 0x0 PUSH1 0x1 PUSH2 0x4F6 DUP4 DUP6 PUSH2 0x64A SWAP1 SWAP2 SWAP1 PUSH4 0xFFFFFFFF AND JUMP JUMPDEST PUSH2 0x500 SWAP2 SWAP1 PUSH2 0xECB JUMP JUMPDEST PUSH8 0xFFFFFFFFFFFFFFFF DUP2 GT ISZERO PUSH2 0x519 JUMPI PUSH2 0x518 PUSH2 0xA90 JUMP JUMPDEST JUMPDEST PUSH1 0x40 MLOAD SWAP1 DUP1 DUP3 MSTORE DUP1 PUSH1 0x20 MUL PUSH1 0x20 ADD DUP3 ADD PUSH1 0x40 MSTORE DUP1 ISZERO PUSH2 0x54C JUMPI DUP2 PUSH1 0x20 ADD JUMPDEST PUSH1 0x60 DUP2 MSTORE PUSH1 0x20 ADD SWAP1 PUSH1 0x1 SWAP1 SUB SWAP1 DUP2 PUSH2 0x537 JUMPI SWAP1 POP JUMPDEST POP SWAP1 POP PUSH1 0x0 JUMPDEST DUP2 MLOAD DUP2 LT ISZERO PUSH2 0x5A7 JUMPI PUSH2 0x576 PUSH2 0x571 DUP5 DUP7 PUSH2 0x6F2 SWAP1 SWAP2 SWAP1 PUSH4 0xFFFFFFFF AND JUMP JUMPDEST PUSH2 0x70C JUMP JUMPDEST DUP3 DUP3 DUP2 MLOAD DUP2 LT PUSH2 0x589 JUMPI PUSH2 0x588 PUSH2 0xEFF JUMP JUMPDEST JUMPDEST PUSH1 0x20 MUL PUSH1 0x20 ADD ADD DUP2 SWAP1 MSTORE POP DUP1 DUP1 PUSH2 0x59F SWAP1 PUSH2 0xF2E JUMP JUMPDEST SWAP2 POP POP PUSH2 0x552 JUMP JUMPDEST POP DUP1 SWAP4 POP POP POP POP SWAP2 SWAP1 POP JUMP JUMPDEST PUSH1 0x0 DUP1 PUSH2 0x5BF DUP4 PUSH2 0x48E JUMP JUMPDEST SWAP1 POP PUSH1 0x0 DUP1 JUMPDEST DUP3 MLOAD DUP2 LT ISZERO PUSH2 0x611 JUMPI PUSH2 0x5F1 DUP4 DUP3 DUP2 MLOAD DUP2 LT PUSH2 0x5E4 JUMPI PUSH2 0x5E3 PUSH2 0xEFF JUMP JUMPDEST JUMPDEST PUSH1 0x20 MUL PUSH1 0x20 ADD ADD MLOAD PUSH2 0x1CD JUMP JUMPDEST DUP3 PUSH2 0x5FC SWAP2 SWAP1 PUSH2 0xECB JUMP JUMPDEST SWAP2 POP DUP1 DUP1 PUSH2 0x609 SWAP1 PUSH2 0xF2E JUMP JUMPDEST SWAP2 POP POP PUSH2 0x5C5 JUMP JUMPDEST POP DUP1 SWAP3 POP POP POP SWAP2 SWAP1 POP JUMP JUMPDEST PUSH2 0x624 PUSH2 0xA47 JUMP JUMPDEST PUSH1 0x0 PUSH1 0x20 DUP4 ADD SWAP1 POP PUSH1 0x40 MLOAD DUP1 PUSH1 0x40 ADD PUSH1 0x40 MSTORE DUP1 DUP5 MLOAD DUP2 MSTORE PUSH1 0x20 ADD DUP3 DUP2 MSTORE POP SWAP2 POP POP SWAP2 SWAP1 POP JUMP JUMPDEST PUSH1 0x0 DUP1 DUP3 PUSH1 0x0 ADD MLOAD PUSH2 0x66E DUP6 PUSH1 0x0 ADD MLOAD DUP7 PUSH1 0x20 ADD MLOAD DUP7 PUSH1 0x0 ADD MLOAD DUP8 PUSH1 0x20 ADD MLOAD PUSH2 0x788 JUMP JUMPDEST PUSH2 0x678 SWAP2 SWAP1 PUSH2 0xECB JUMP JUMPDEST SWAP1 POP JUMPDEST DUP4 PUSH1 0x0 ADD MLOAD DUP5 PUSH1 0x20 ADD MLOAD PUSH2 0x68F SWAP2 SWAP1 PUSH2 0xECB JUMP JUMPDEST DUP2 GT PUSH2 0x6EB JUMPI DUP2 DUP1 PUSH2 0x6A0 SWAP1 PUSH2 0xF2E JUMP JUMPDEST SWAP3 POP POP DUP3 PUSH1 0x0 ADD MLOAD PUSH2 0x6DA DUP6 PUSH1 0x20 ADD MLOAD DUP4 PUSH2 0x6BB SWAP2 SWAP1 PUSH2 0xF76 JUMP JUMPDEST DUP7 PUSH1 0x0 ADD MLOAD PUSH2 0x6CA SWAP2 SWAP1 PUSH2 0xF76 JUMP JUMPDEST DUP4 DUP7 PUSH1 0x0 ADD MLOAD DUP8 PUSH1 0x20 ADD MLOAD PUSH2 0x788 JUMP JUMPDEST PUSH2 0x6E4 SWAP2 SWAP1 PUSH2 0xECB JUMP JUMPDEST SWAP1 POP PUSH2 0x67B JUMP JUMPDEST POP SWAP3 SWAP2 POP POP JUMP JUMPDEST PUSH2 0x6FA PUSH2 0xA47 JUMP JUMPDEST PUSH2 0x705 DUP4 DUP4 DUP4 PUSH2 0x8D1 JUMP JUMPDEST POP SWAP3 SWAP2 POP POP JUMP JUMPDEST PUSH1 0x60 PUSH1 0x0 DUP3 PUSH1 0x0 ADD MLOAD PUSH8 0xFFFFFFFFFFFFFFFF DUP2 GT ISZERO PUSH2 0x72E JUMPI PUSH2 0x72D PUSH2 0xA90 JUMP JUMPDEST JUMPDEST PUSH1 0x40 MLOAD SWAP1 DUP1 DUP3 MSTORE DUP1 PUSH1 0x1F ADD PUSH1 0x1F NOT AND PUSH1 0x20 ADD DUP3 ADD PUSH1 0x40 MSTORE DUP1 ISZERO PUSH2 0x760 JUMPI DUP2 PUSH1 0x20 ADD PUSH1 0x1 DUP3 MUL DUP1 CALLDATASIZE DUP4 CALLDATACOPY DUP1 DUP3 ADD SWAP2 POP POP SWAP1 POP JUMPDEST POP SWAP1 POP PUSH1 0x0 PUSH1 0x20 DUP3 ADD SWAP1 POP PUSH2 0x77E DUP2 DUP6 PUSH1 0x20 ADD MLOAD DUP7 PUSH1 0x0 ADD MLOAD PUSH2 0x99B JUMP JUMPDEST DUP2 SWAP3 POP POP POP SWAP2 SWAP1 POP JUMP JUMPDEST PUSH1 0x0 DUP1 DUP5 SWAP1 POP PUSH1 0x0 DUP7 DUP6 GT PUSH2 0x8B8 JUMPI PUSH1 0x20 DUP6 GT PUSH2 0x85B JUMPI PUSH1 0x0 DUP1 DUP7 GT ISZERO PUSH2 0x7E1 JUMPI PUSH1 0x1 DUP7 PUSH1 0x20 PUSH2 0x7B8 SWAP2 SWAP1 PUSH2 0xF76 JUMP JUMPDEST PUSH1 0x8 PUSH2 0x7C4 SWAP2 SWAP1 PUSH2 0xFAA JUMP JUMPDEST PUSH1 0x2 PUSH2 0x7D0 SWAP2 SWAP1 PUSH2 0x111F JUMP JUMPDEST PUSH2 0x7DA SWAP2 SWAP1 PUSH2 0xF76 JUMP JUMPDEST NOT PUSH1 0x0 SHL SWAP1 POP JUMPDEST PUSH1 0x0 DUP2 DUP7 MLOAD AND SWAP1 POP PUSH1 0x0 DUP8 DUP11 DUP11 PUSH2 0x7F8 SWAP2 SWAP1 PUSH2 0xECB JUMP JUMPDEST PUSH2 0x802 SWAP2 SWAP1 PUSH2 0xF76 JUMP JUMPDEST SWAP1 POP PUSH1 0x0 DUP4 DUP7 MLOAD AND SWAP1 POP JUMPDEST DUP3 DUP2 EQ PUSH2 0x84D JUMPI DUP2 DUP7 LT PUSH2 0x834 JUMPI DUP11 DUP11 PUSH2 0x827 SWAP2 SWAP1 PUSH2 0xECB JUMP JUMPDEST SWAP7 POP POP POP POP POP POP POP PUSH2 0x8C9 JUMP JUMPDEST DUP6 DUP1 PUSH2 0x83F SWAP1 PUSH2 0xF2E JUMP JUMPDEST SWAP7 POP POP DUP4 DUP7 MLOAD AND SWAP1 POP PUSH2 0x80D JUMP JUMPDEST DUP6 SWAP7 POP POP POP POP POP POP POP PUSH2 0x8C9 JUMP JUMPDEST PUSH1 0x0 DUP6 DUP6 KECCAK256 SWAP1 POP PUSH1 0x0 SWAP2 POP JUMPDEST DUP6 DUP9 PUSH2 0x873 SWAP2 SWAP1 PUSH2 0xF76 JUMP JUMPDEST DUP3 GT PUSH2 0x8B6 JUMPI PUSH1 0x0 DUP7 DUP5 KECCAK256 SWAP1 POP DUP1 DUP3 SUB PUSH2 0x893 JUMPI DUP4 SWAP5 POP POP POP POP POP PUSH2 0x8C9 JUMP JUMPDEST PUSH1 0x1 DUP5 PUSH2 0x8A0 SWAP2 SWAP1 PUSH2 0xECB JUMP JUMPDEST SWAP4 POP POP DUP2 DUP1 PUSH2 0x8AE SWAP1 PUSH2 0xF2E JUMP JUMPDEST SWAP3 POP POP PUSH2 0x867 JUMP JUMPDEST POP JUMPDEST DUP7 DUP7 PUSH2 0x8C4 SWAP2 SWAP1 PUSH2 0xECB JUMP JUMPDEST SWAP3 POP POP POP JUMPDEST SWAP5 SWAP4 POP POP POP POP JUMP JUMPDEST PUSH2 0x8D9 PUSH2 0xA47 JUMP JUMPDEST PUSH1 0x0 PUSH2 0x8F7 DUP6 PUSH1 0x0 ADD MLOAD DUP7 PUSH1 0x20 ADD MLOAD DUP7 PUSH1 0x0 ADD MLOAD DUP8 PUSH1 0x20 ADD MLOAD PUSH2 0x788 JUMP JUMPDEST SWAP1 POP DUP5 PUSH1 0x20 ADD MLOAD DUP4 PUSH1 0x20 ADD DUP2 DUP2 MSTORE POP POP DUP5 PUSH1 0x20 ADD MLOAD DUP2 PUSH2 0x917 SWAP2 SWAP1 PUSH2 0xF76 JUMP JUMPDEST DUP4 PUSH1 0x0 ADD DUP2 DUP2 MSTORE POP POP DUP5 PUSH1 0x0 ADD MLOAD DUP6 PUSH1 0x20 ADD MLOAD PUSH2 0x934 SWAP2 SWAP1 PUSH2 0xECB JUMP JUMPDEST DUP2 SUB PUSH2 0x94A JUMPI PUSH1 0x0 DUP6 PUSH1 0x0 ADD DUP2 DUP2 MSTORE POP POP PUSH2 0x990 JUMP JUMPDEST DUP4 PUSH1 0x0 ADD MLOAD DUP4 PUSH1 0x0 ADD MLOAD PUSH2 0x95E SWAP2 SWAP1 PUSH2 0xECB JUMP JUMPDEST DUP6 PUSH1 0x0 ADD DUP2 DUP2 MLOAD PUSH2 0x96F SWAP2 SWAP1 PUSH2 0xF76 JUMP JUMPDEST SWAP2 POP DUP2 DUP2 MSTORE POP POP DUP4 PUSH1 0x0 ADD MLOAD DUP2 PUSH2 0x986 SWAP2 SWAP1 PUSH2 0xECB JUMP JUMPDEST DUP6 PUSH1 0x20 ADD DUP2 DUP2 MSTORE POP POP JUMPDEST DUP3 SWAP2 POP POP SWAP4 SWAP3 POP POP POP JUMP JUMPDEST JUMPDEST PUSH1 0x20 DUP2 LT PUSH2 0x9DA JUMPI DUP2 MLOAD DUP4 MSTORE PUSH1 0x20 DUP4 PUSH2 0x9B5 SWAP2 SWAP1 PUSH2 0xECB JUMP JUMPDEST SWAP3 POP PUSH1 0x20 DUP3 PUSH2 0x9C4 SWAP2 SWAP1 PUSH2 0xECB JUMP JUMPDEST SWAP2 POP PUSH1 0x20 DUP2 PUSH2 0x9D3 SWAP2 SWAP1 PUSH2 0xF76 JUMP JUMPDEST SWAP1 POP PUSH2 0x99C JUMP JUMPDEST PUSH1 0x0 PUSH32 0xFFFFFFFFFFFFFFFFFFFFFFFFFFFFFFFFFFFFFFFFFFFFFFFFFFFFFFFFFFFFFFFF SWAP1 POP PUSH1 0x0 DUP3 GT ISZERO PUSH2 0xA31 JUMPI PUSH1 0x1 DUP3 PUSH1 0x20 PUSH2 0xA17 SWAP2 SWAP1 PUSH2 0xF76 JUMP JUMPDEST PUSH2 0x100 PUSH2 0xA24 SWAP2 SWAP1 PUSH2 0x111F JUMP JUMPDEST PUSH2 0xA2E SWAP2 SWAP1 PUSH2 0xF76 JUMP JUMPDEST SWAP1 POP JUMPDEST DUP1 NOT DUP4 MLOAD AND DUP2 DUP6 MLOAD AND DUP2 DUP2 OR DUP7 MSTORE POP POP POP POP POP POP JUMP JUMPDEST PUSH1 0x40 MLOAD DUP1 PUSH1 0x40 ADD PUSH1 0x40 MSTORE DUP1 PUSH1 0x0 DUP2 MSTORE PUSH1 0x20 ADD PUSH1 0x0 DUP2 MSTORE POP SWAP1 JUMP JUMPDEST PUSH1 0x0 PUSH1 0x40 MLOAD SWAP1 POP SWAP1 JUMP JUMPDEST PUSH1 0x0 DUP1 REVERT JUMPDEST PUSH1 0x0 DUP1 REVERT JUMPDEST PUSH1 0x0 DUP1 REVERT JUMPDEST PUSH1 0x0 DUP1 REVERT JUMPDEST PUSH1 0x0 PUSH1 0x1F NOT PUSH1 0x1F DUP4 ADD AND SWAP1 POP SWAP2 SWAP1 POP JUMP JUMPDEST PUSH32 0x4E487B7100000000000000000000000000000000000000000000000000000000 PUSH1 0x0 MSTORE PUSH1 0x41 PUSH1 0x4 MSTORE PUSH1 0x24 PUSH1 0x0 REVERT JUMPDEST PUSH2 0xAC8 DUP3 PUSH2 0xA7F JUMP JUMPDEST DUP2 ADD DUP2 DUP2 LT PUSH8 0xFFFFFFFFFFFFFFFF DUP3 GT OR ISZERO PUSH2 0xAE7 JUMPI PUSH2 0xAE6 PUSH2 0xA90 JUMP JUMPDEST JUMPDEST DUP1 PUSH1 0x40 MSTORE POP POP POP JUMP JUMPDEST PUSH1 0x0 PUSH2 0xAFA PUSH2 0xA61 JUMP JUMPDEST SWAP1 POP PUSH2 0xB06 DUP3 DUP3 PUSH2 0xABF JUMP JUMPDEST SWAP2 SWAP1 POP JUMP JUMPDEST PUSH1 0x0 PUSH8 0xFFFFFFFFFFFFFFFF DUP3 GT ISZERO PUSH2 0xB26 JUMPI PUSH2 0xB25 PUSH2 0xA90 JUMP JUMPDEST JUMPDEST PUSH2 0xB2F DUP3 PUSH2 0xA7F JUMP JUMPDEST SWAP1 POP PUSH1 0x20 DUP2 ADD SWAP1 POP SWAP2 SWAP1 POP JUMP JUMPDEST DUP3 DUP2 DUP4 CALLDATACOPY PUSH1 0x0 DUP4 DUP4 ADD MSTORE POP POP POP JUMP JUMPDEST PUSH1 0x0 PUSH2 0xB5E PUSH2 0xB59 DUP5 PUSH2 0xB0B JUMP JUMPDEST PUSH2 0xAF0 JUMP JUMPDEST SWAP1 POP DUP3 DUP2 MSTORE PUSH1 0x20 DUP2 ADD DUP5 DUP5 DUP5 ADD GT ISZERO PUSH2 0xB7A JUMPI PUSH2 0xB79 PUSH2 0xA7A JUMP JUMPDEST JUMPDEST PUSH2 0xB85 DUP5 DUP3 DUP6 PUSH2 0xB3C JUMP JUMPDEST POP SWAP4 SWAP3 POP POP POP JUMP JUMPDEST PUSH1 0x0 DUP3 PUSH1 0x1F DUP4 ADD SLT PUSH2 0xBA2 JUMPI PUSH2 0xBA1 PUSH2 0xA75 JUMP JUMPDEST JUMPDEST DUP2 CALLDATALOAD PUSH2 0xBB2 DUP5 DUP3 PUSH1 0x20 DUP7 ADD PUSH2 0xB4B JUMP JUMPDEST SWAP2 POP POP SWAP3 SWAP2 POP POP JUMP JUMPDEST PUSH1 0x0 DUP1 PUSH1 0x40 DUP4 DUP6 SUB SLT ISZERO PUSH2 0xBD2 JUMPI PUSH2 0xBD1 PUSH2 0xA6B JUMP JUMPDEST JUMPDEST PUSH1 0x0 DUP4 ADD CALLDATALOAD PUSH8 0xFFFFFFFFFFFFFFFF DUP2 GT ISZERO PUSH2 0xBF0 JUMPI PUSH2 0xBEF PUSH2 0xA70 JUMP JUMPDEST JUMPDEST PUSH2 0xBFC DUP6 DUP3 DUP7 ADD PUSH2 0xB8D JUMP JUMPDEST SWAP3 POP POP PUSH1 0x20 DUP4 ADD CALLDATALOAD PUSH8 0xFFFFFFFFFFFFFFFF DUP2 GT ISZERO PUSH2 0xC1D JUMPI PUSH2 0xC1C PUSH2 0xA70 JUMP JUMPDEST JUMPDEST PUSH2 0xC29 DUP6 DUP3 DUP7 ADD PUSH2 0xB8D JUMP JUMPDEST SWAP2 POP POP SWAP3 POP SWAP3 SWAP1 POP JUMP JUMPDEST PUSH1 0x0 DUP2 ISZERO ISZERO SWAP1 POP SWAP2 SWAP1 POP JUMP JUMPDEST PUSH2 0xC48 DUP2 PUSH2 0xC33 JUMP JUMPDEST DUP3 MSTORE POP POP JUMP JUMPDEST PUSH1 0x0 PUSH1 0x20 DUP3 ADD SWAP1 POP PUSH2 0xC63 PUSH1 0x0 DUP4 ADD DUP5 PUSH2 0xC3F JUMP JUMPDEST SWAP3 SWAP2 POP POP JUMP JUMPDEST PUSH1 0x0 PUSH1 0x20 DUP3 DUP5 SUB SLT ISZERO PUSH2 0xC7F JUMPI PUSH2 0xC7E PUSH2 0xA6B JUMP JUMPDEST JUMPDEST PUSH1 0x0 DUP3 ADD CALLDATALOAD PUSH8 0xFFFFFFFFFFFFFFFF DUP2 GT ISZERO PUSH2 0xC9D JUMPI PUSH2 0xC9C PUSH2 0xA70 JUMP JUMPDEST JUMPDEST PUSH2 0xCA9 DUP5 DUP3 DUP6 ADD PUSH2 0xB8D JUMP JUMPDEST SWAP2 POP POP SWAP3 SWAP2 POP POP JUMP JUMPDEST PUSH1 0x0 DUP2 SWAP1 POP SWAP2 SWAP1 POP JUMP JUMPDEST PUSH2 0xCC5 DUP2 PUSH2 0xCB2 JUMP JUMPDEST DUP3 MSTORE POP POP JUMP JUMPDEST PUSH1 0x0 PUSH1 0x20 DUP3 ADD SWAP1 POP PUSH2 0xCE0 PUSH1 0x0 DUP4 ADD DUP5 PUSH2 0xCBC JUMP JUMPDEST SWAP3 SWAP2 POP POP JUMP JUMPDEST PUSH1 0x0 DUP2 MLOAD SWAP1 POP SWAP2 SWAP1 POP JUMP JUMPDEST PUSH1 0x0 DUP3 DUP3 MSTORE PUSH1 0x20 DUP3 ADD SWAP1 POP SWAP3 SWAP2 POP POP JUMP JUMPDEST PUSH1 0x0 DUP2 SWAP1 POP PUSH1 0x20 DUP3 ADD SWAP1 POP SWAP2 SWAP1 POP JUMP JUMPDEST PUSH1 0x0 DUP2 MLOAD SWAP1 POP SWAP2 SWAP1 POP JUMP JUMPDEST PUSH1 0x0 DUP3 DUP3 MSTORE PUSH1 0x20 DUP3 ADD SWAP1 POP SWAP3 SWAP2 POP POP JUMP JUMPDEST PUSH1 0x0 JUMPDEST DUP4 DUP2 LT ISZERO PUSH2 0xD4C JUMPI DUP1 DUP3 ADD MLOAD DUP2 DUP5 ADD MSTORE PUSH1 0x20 DUP2 ADD SWAP1 POP PUSH2 0xD31 JUMP JUMPDEST PUSH1 0x0 DUP5 DUP5 ADD MSTORE POP POP POP POP JUMP JUMPDEST PUSH1 0x0 PUSH2 0xD63 DUP3 PUSH2 0xD12 JUMP JUMPDEST PUSH2 0xD6D DUP2 DUP6 PUSH2 0xD1D JUMP JUMPDEST SWAP4 POP PUSH2 0xD7D DUP2 DUP6 PUSH1 0x20 DUP7 ADD PUSH2 0xD2E JUMP JUMPDEST PUSH2 0xD86 DUP2 PUSH2 0xA7F JUMP JUMPDEST DUP5 ADD SWAP2 POP POP SWAP3 SWAP2 POP POP JUMP JUMPDEST PUSH1 0x0 PUSH2 0xD9D DUP4 DUP4 PUSH2 0xD58 JUMP JUMPDEST SWAP1 POP SWAP3 SWAP2 POP POP JUMP JUMPDEST PUSH1 0x0 PUSH1 0x20 DUP3 ADD SWAP1 POP SWAP2 SWAP1 POP JUMP JUMPDEST PUSH1 0x0 PUSH2 0xDBD DUP3 PUSH2 0xCE6 JUMP JUMPDEST PUSH2 0xDC7 DUP2 DUP6 PUSH2 0xCF1 JUMP JUMPDEST SWAP4 POP DUP4 PUSH1 0x20 DUP3 MUL DUP6 ADD PUSH2 0xDD9 DUP6 PUSH2 0xD02 JUMP JUMPDEST DUP1 PUSH1 0x0 JUMPDEST DUP6 DUP2 LT ISZERO PUSH2 0xE15 JUMPI DUP5 DUP5 SUB DUP10 MSTORE DUP2 MLOAD PUSH2 0xDF6 DUP6 DUP3 PUSH2 0xD91 JUMP JUMPDEST SWAP5 POP PUSH2 0xE01 DUP4 PUSH2 0xDA5 JUMP JUMPDEST SWAP3 POP PUSH1 0x20 DUP11 ADD SWAP10 POP POP PUSH1 0x1 DUP2 ADD SWAP1 POP PUSH2 0xDDD JUMP JUMPDEST POP DUP3 SWAP8 POP DUP8 SWAP6 POP POP POP POP POP POP SWAP3 SWAP2 POP POP JUMP JUMPDEST PUSH1 0x0 PUSH1 0x20 DUP3 ADD SWAP1 POP DUP2 DUP2 SUB PUSH1 0x0 DUP4 ADD MSTORE PUSH2 0xE41 DUP2 DUP5 PUSH2 0xDB2 JUMP JUMPDEST SWAP1 POP SWAP3 SWAP2 POP POP JUMP JUMPDEST PUSH1 0x0 DUP2 SWAP1 POP SWAP3 SWAP2 POP POP JUMP JUMPDEST PUSH1 0x0 PUSH2 0xE5F DUP3 PUSH2 0xD12 JUMP JUMPDEST PUSH2 0xE69 DUP2 DUP6 PUSH2 0xE49 JUMP JUMPDEST SWAP4 POP PUSH2 0xE79 DUP2 DUP6 PUSH1 0x20 DUP7 ADD PUSH2 0xD2E JUMP JUMPDEST DUP1 DUP5 ADD SWAP2 POP POP SWAP3 SWAP2 POP POP JUMP JUMPDEST PUSH1 0x0 PUSH2 0xE91 DUP3 DUP5 PUSH2 0xE54 JUMP JUMPDEST SWAP2 POP DUP2 SWAP1 POP SWAP3 SWAP2 POP POP JUMP JUMPDEST PUSH32 0x4E487B7100000000000000000000000000000000000000000000000000000000 PUSH1 0x0 MSTORE PUSH1 0x11 PUSH1 0x4 MSTORE PUSH1 0x24 PUSH1 0x0 REVERT JUMPDEST PUSH1 0x0 PUSH2 0xED6 DUP3 PUSH2 0xCB2 JUMP JUMPDEST SWAP2 POP PUSH2 0xEE1 DUP4 PUSH2 0xCB2 JUMP JUMPDEST SWAP3 POP DUP3 DUP3 ADD SWAP1 POP DUP1 DUP3 GT ISZERO PUSH2 0xEF9 JUMPI PUSH2 0xEF8 PUSH2 0xE9C JUMP JUMPDEST JUMPDEST SWAP3 SWAP2 POP POP JUMP JUMPDEST PUSH32 0x4E487B7100000000000000000000000000000000000000000000000000000000 PUSH1 0x0 MSTORE PUSH1 0x32 PUSH1 0x4 MSTORE PUSH1 0x24 PUSH1 0x0 REVERT JUMPDEST PUSH1 0x0 PUSH2 0xF39 DUP3 PUSH2 0xCB2 JUMP JUMPDEST SWAP2 POP PUSH32 0xFFFFFFFFFFFFFFFFFFFFFFFFFFFFFFFFFFFFFFFFFFFFFFFFFFFFFFFFFFFFFFFF DUP3 SUB PUSH2 0xF6B JUMPI PUSH2 0xF6A PUSH2 0xE9C JUMP JUMPDEST JUMPDEST PUSH1 0x1 DUP3 ADD SWAP1 POP SWAP2 SWAP1 POP JUMP JUMPDEST PUSH1 0x0 PUSH2 0xF81 DUP3 PUSH2 0xCB2 JUMP JUMPDEST SWAP2 POP PUSH2 0xF8C DUP4 PUSH2 0xCB2 JUMP JUMPDEST SWAP3 POP DUP3 DUP3 SUB SWAP1 POP DUP2 DUP2 GT ISZERO PUSH2 0xFA4 JUMPI PUSH2 0xFA3 PUSH2 0xE9C JUMP JUMPDEST JUMPDEST SWAP3 SWAP2 POP POP JUMP JUMPDEST PUSH1 0x0 PUSH2 0xFB5 DUP3 PUSH2 0xCB2 JUMP JUMPDEST SWAP2 POP PUSH2 0xFC0 DUP4 PUSH2 0xCB2 JUMP JUMPDEST SWAP3 POP DUP3 DUP3 MUL PUSH2 0xFCE DUP2 PUSH2 0xCB2 JUMP JUMPDEST SWAP2 POP DUP3 DUP3 DIV DUP5 EQ DUP4 ISZERO OR PUSH2 0xFE5 JUMPI PUSH2 0xFE4 PUSH2 0xE9C JUMP JUMPDEST JUMPDEST POP SWAP3 SWAP2 POP POP JUMP JUMPDEST PUSH1 0x0 DUP2 PUSH1 0x1 SHR SWAP1 POP SWAP2 SWAP1 POP JUMP JUMPDEST PUSH1 0x0 DUP1 DUP3 SWAP2 POP DUP4 SWAP1 POP JUMPDEST PUSH1 0x1 DUP6 GT ISZERO PUSH2 0x1043 JUMPI DUP1 DUP7 DIV DUP2 GT ISZERO PUSH2 0x101F JUMPI PUSH2 0x101E PUSH2 0xE9C JUMP JUMPDEST JUMPDEST PUSH1 0x1 DUP6 AND ISZERO PUSH2 0x102E JUMPI DUP1 DUP3 MUL SWAP2 POP JUMPDEST DUP1 DUP2 MUL SWAP1 POP PUSH2 0x103C DUP6 PUSH2 0xFEC JUMP JUMPDEST SWAP5 POP PUSH2 0x1003 JUMP JUMPDEST SWAP5 POP SWAP5 SWAP3 POP POP POP JUMP JUMPDEST PUSH1 0x0 DUP3 PUSH2 0x105C JUMPI PUSH1 0x1 SWAP1 POP PUSH2 0x1118 JUMP JUMPDEST DUP2 PUSH2 0x106A JUMPI PUSH1 0x0 SWAP1 POP PUSH2 0x1118 JUMP JUMPDEST DUP2 PUSH1 0x1 DUP2 EQ PUSH2 0x1080 JUMPI PUSH1 0x2 DUP2 EQ PUSH2 0x108A JUMPI PUSH2 0x10B9 JUMP JUMPDEST PUSH1 0x1 SWAP2 POP POP PUSH2 0x1118 JUMP JUMPDEST PUSH1 0xFF DUP5 GT ISZERO PUSH2 0x109C JUMPI PUSH2 0x109B PUSH2 0xE9C JUMP JUMPDEST JUMPDEST DUP4 PUSH1 0x2 EXP SWAP2 POP DUP5 DUP3 GT ISZERO PUSH2 0x10B3 JUMPI PUSH2 0x10B2 PUSH2 0xE9C JUMP JUMPDEST JUMPDEST POP PUSH2 0x1118 JUMP JUMPDEST POP PUSH1 0x20 DUP4 LT PUSH2 0x133 DUP4 LT AND PUSH1 0x4E DUP5 LT PUSH1 0xB DUP5 LT AND OR ISZERO PUSH2 0x10EE JUMPI DUP3 DUP3 EXP SWAP1 POP DUP4 DUP2 GT ISZERO PUSH2 0x10E9 JUMPI PUSH2 0x10E8 PUSH2 0xE9C JUMP JUMPDEST JUMPDEST PUSH2 0x1118 JUMP JUMPDEST PUSH2 0x10FB DUP5 DUP5 DUP5 PUSH1 0x1 PUSH2 0xFF9 JUMP JUMPDEST SWAP3 POP SWAP1 POP DUP2 DUP5 DIV DUP2 GT ISZERO PUSH2 0x1112 JUMPI PUSH2 0x1111 PUSH2 0xE9C JUMP JUMPDEST JUMPDEST DUP2 DUP2 MUL SWAP1 POP JUMPDEST SWAP4 SWAP3 POP POP POP JUMP JUMPDEST PUSH1 0x0 PUSH2 0x112A DUP3 PUSH2 0xCB2 JUMP JUMPDEST SWAP2 POP PUSH2 0x1135 DUP4 PUSH2 0xCB2 JUMP JUMPDEST SWAP3 POP PUSH2 0x1162 PUSH32 0xFFFFFFFFFFFFFFFFFFFFFFFFFFFFFFFFFFFFFFFFFFFFFFFFFFFFFFFFFFFFFFFF DUP5 DUP5 PUSH2 0x104C JUMP JUMPDEST SWAP1 POP SWAP3 SWAP2 POP POP JUMP INVALID LOG2 PUSH5 0x6970667358 0x22 SLT KECCAK256 0xC0 PUSH4 0x2FBC69C4 0x4A CALLER 0xC5 0xE5 DUP8 0xCD 0xE7 0xA8 ADDRESS GAS SHR 0x2A PUSH12 0xD6D5941365BF7119D70D4324 RETURN PUSH5 0x736F6C6343 STOP ADDMOD GT STOP CALLER "},"methodIdentifiers":{"calculate_score(string)":"a1edea50","first_split(string)":"a7c73fd8","main(string)":"769f204d","str_cmp(string,string)":"44b7f83c"}}}}}