{"contracts/Day1.sol":{"Day1":{"abi":[{"inputs":[{"internalType":"string","name":"in_str","type":"string"}],"name":"first_split","outputs":[{"internalType":"string[]","name":"","type":"string[]"}],"stateMutability":"pure","type":"function"},{"inputs":[{"internalType":"string","name":"input","type":"string"}],"name":"main","outputs":[{"internalType":"uint256","name":"","type":"uint256"},{"internalType":"uint256","name":"","type":"uint256"}],"stateMutability":"pure","type":"function"},{"inputs":[{"internalType":"string","name":"in_str","type":"string"}],"name":"smt","outputs":[{"internalType":"uint256[]","name":"","type":"uint256[]"}],"stateMutability":"pure","type":"function"},{"inputs":[{"internalType":"string","name":"numString","type":"string"}],"name":"st2num","outputs":[{"internalType":"uint256","name":"","type":"uint256"}],"stateMutability":"pure","type":"function"},{"inputs":[{"internalType":"uint256[]","name":"num_group","type":"uint256[]"}],"name":"sum","outputs":[{"internalType":"uint256","name":"","type":"uint256"}],"stateMutability":"pure","type":"function"}],"evm":{"bytecode":{"linkReferences":{},"object":"608060405234801561001057600080fd5b5061134d806100206000396000f3fe608060405234801561001057600080fd5b50600436106100575760003560e01c80630194db8e1461005c578063769f204d1461008c57806379cd9055146100bd57806396caabb8146100ed578063a7c73fd81461011d575b600080fd5b61007660048036038101906100719190610c35565b61014d565b6040516100839190610c8d565b60405180910390f35b6100a660048036038101906100a19190610d5d565b6101a5565b6040516100b4929190610da6565b60405180910390f35b6100d760048036038101906100d29190610d5d565b6101c3565b6040516100e49190610c8d565b60405180910390f35b61010760048036038101906101029190610d5d565b61027d565b6040516101149190610e8d565b60405180910390f35b61013760048036038101906101329190610d5d565b6103a6565b6040516101449190610ff0565b60405180910390f35b6000806000905060005b835181101561019b5783818151811061017357610172611012565b5b6020026020010151826101869190611070565b91508080610193906110a4565b915050610157565b5080915050919050565b6000806101b1836104cb565b6101ba84610569565b91509150915091565b60008060009050600083905060005b81518110156102725760008183516101ea91906110ec565b9050600083838151811061020157610200611012565b5b602001015160f81c60f81b905060008160f81c9050600060308260ff1661022891906110ec565b905060018461023791906110ec565b600a6102439190611253565b8161024e919061129e565b876102599190611070565b965050505050808061026a906110a4565b9150506101d2565b508192505050919050565b6060600061028a8361064d565b905060006102cc6040518060400160405280600181526020017f0a0000000000000000000000000000000000000000000000000000000000000081525061064d565b9050600060016102e5838561067b90919063ffffffff16565b6102ef9190611070565b67ffffffffffffffff81111561030857610307610abc565b5b6040519080825280602002602001820160405280156103365781602001602082028036833780820191505090505b50905060005b815181101561039a5761036861036361035e858761072390919063ffffffff16565b61073d565b6101c3565b82828151811061037b5761037a611012565b5b6020026020010181815250508080610392906110a4565b91505061033c565b50809350505050919050565b606060006103b38361064d565b905060006103f56040518060400160405280600281526020017f0a0a00000000000000000000000000000000000000000000000000000000000081525061064d565b90506000600161040e838561067b90919063ffffffff16565b6104189190611070565b67ffffffffffffffff81111561043157610430610abc565b5b60405190808252806020026020018201604052801561046457816020015b606081526020019060019003908161044f5790505b50905060005b81518110156104bf5761048e610489848661072390919063ffffffff16565b61073d565b8282815181106104a1576104a0611012565b5b602002602001018190525080806104b7906110a4565b91505061046a565b50809350505050919050565b600080600090506000808451036104f8576040518060600160405280603781526020016112e16037913993505b6000610503856103a6565b905060005b815181101561055d5761053c61053783838151811061052a57610529611012565b5b602002602001015161027d565b61014d565b92508383111561054a578293505b8080610555906110a4565b915050610508565b50829350505050919050565b60008060009050600080600080865103610599576040518060600160405280603781526020016112e16037913995505b60006105a4876103a6565b905060005b8151811015610629576105dd6105d88383815181106105cb576105ca611012565b5b602002602001015161027d565b61014d565b9250858311156105f557849350859450829550610616565b8483111561060857849350829450610615565b83831115610614578293505b5b5b8080610621906110a4565b9150506105a9565b508284866106379190611070565b6106419190611070565b95505050505050919050565b610655610a78565b600060208301905060405180604001604052808451815260200182815250915050919050565b600080826000015161069f85600001518660200151866000015187602001516107b9565b6106a99190611070565b90505b836000015184602001516106c09190611070565b811161071c5781806106d1906110a4565b925050826000015161070b8560200151836106ec91906110ec565b86600001516106fb91906110ec565b83866000015187602001516107b9565b6107159190611070565b90506106ac565b5092915050565b61072b610a78565b610736838383610902565b5092915050565b60606000826000015167ffffffffffffffff81111561075f5761075e610abc565b5b6040519080825280601f01601f1916602001820160405280156107915781602001600182028036833780820191505090505b50905060006020820190506107af81856020015186600001516109cc565b8192505050919050565b60008084905060008685116108e9576020851161088c576000808611156108125760018660206107e991906110ec565b60086107f5919061129e565b60026108019190611253565b61080b91906110ec565b1960001b90505b60008186511690506000878a8a6108299190611070565b61083391906110ec565b905060008386511690505b82811461087e57818610610865578a8a6108589190611070565b96505050505050506108fa565b8580610870906110a4565b96505083865116905061083e565b8596505050505050506108fa565b60008585209050600091505b85886108a491906110ec565b82116108e757600086842090508082036108c457839450505050506108fa565b6001846108d19190611070565b93505081806108df906110a4565b925050610898565b505b86866108f59190611070565b925050505b949350505050565b61090a610a78565b600061092885600001518660200151866000015187602001516107b9565b9050846020015183602001818152505084602001518161094891906110ec565b836000018181525050846000015185602001516109659190611070565b810361097b5760008560000181815250506109c1565b8360000151836000015161098f9190611070565b856000018181516109a091906110ec565b915081815250508360000151816109b79190611070565b8560200181815250505b829150509392505050565b5b60208110610a0b57815183526020836109e69190611070565b92506020826109f59190611070565b9150602081610a0491906110ec565b90506109cd565b60007fffffffffffffffffffffffffffffffffffffffffffffffffffffffffffffffff90506000821115610a62576001826020610a4891906110ec565b610100610a559190611253565b610a5f91906110ec565b90505b8019835116818551168181178652505050505050565b604051806040016040528060008152602001600081525090565b6000604051905090565b600080fd5b600080fd5b600080fd5b6000601f19601f8301169050919050565b7f4e487b7100000000000000000000000000000000000000000000000000000000600052604160045260246000fd5b610af482610aab565b810181811067ffffffffffffffff82111715610b1357610b12610abc565b5b80604052505050565b6000610b26610a92565b9050610b328282610aeb565b919050565b600067ffffffffffffffff821115610b5257610b51610abc565b5b602082029050602081019050919050565b600080fd5b6000819050919050565b610b7b81610b68565b8114610b8657600080fd5b50565b600081359050610b9881610b72565b92915050565b6000610bb1610bac84610b37565b610b1c565b90508083825260208201905060208402830185811115610bd457610bd3610b63565b5b835b81811015610bfd5780610be98882610b89565b845260208401935050602081019050610bd6565b5050509392505050565b600082601f830112610c1c57610c1b610aa6565b5b8135610c2c848260208601610b9e565b91505092915050565b600060208284031215610c4b57610c4a610a9c565b5b600082013567ffffffffffffffff811115610c6957610c68610aa1565b5b610c7584828501610c07565b91505092915050565b610c8781610b68565b82525050565b6000602082019050610ca26000830184610c7e565b92915050565b600080fd5b600067ffffffffffffffff821115610cc857610cc7610abc565b5b610cd182610aab565b9050602081019050919050565b82818337600083830152505050565b6000610d00610cfb84610cad565b610b1c565b905082815260208101848484011115610d1c57610d1b610ca8565b5b610d27848285610cde565b509392505050565b600082601f830112610d4457610d43610aa6565b5b8135610d54848260208601610ced565b91505092915050565b600060208284031215610d7357610d72610a9c565b5b600082013567ffffffffffffffff811115610d9157610d90610aa1565b5b610d9d84828501610d2f565b91505092915050565b6000604082019050610dbb6000830185610c7e565b610dc86020830184610c7e565b9392505050565b600081519050919050565b600082825260208201905092915050565b6000819050602082019050919050565b610e0481610b68565b82525050565b6000610e168383610dfb565b60208301905092915050565b6000602082019050919050565b6000610e3a82610dcf565b610e448185610dda565b9350610e4f83610deb565b8060005b83811015610e80578151610e678882610e0a565b9750610e7283610e22565b925050600181019050610e53565b5085935050505092915050565b60006020820190508181036000830152610ea78184610e2f565b905092915050565b600081519050919050565b600082825260208201905092915050565b6000819050602082019050919050565b600081519050919050565b600082825260208201905092915050565b60005b83811015610f15578082015181840152602081019050610efa565b60008484015250505050565b6000610f2c82610edb565b610f368185610ee6565b9350610f46818560208601610ef7565b610f4f81610aab565b840191505092915050565b6000610f668383610f21565b905092915050565b6000602082019050919050565b6000610f8682610eaf565b610f908185610eba565b935083602082028501610fa285610ecb565b8060005b85811015610fde5784840389528151610fbf8582610f5a565b9450610fca83610f6e565b925060208a01995050600181019050610fa6565b50829750879550505050505092915050565b6000602082019050818103600083015261100a8184610f7b565b905092915050565b7f4e487b7100000000000000000000000000000000000000000000000000000000600052603260045260246000fd5b7f4e487b7100000000000000000000000000000000000000000000000000000000600052601160045260246000fd5b600061107b82610b68565b915061108683610b68565b925082820190508082111561109e5761109d611041565b5b92915050565b60006110af82610b68565b91507fffffffffffffffffffffffffffffffffffffffffffffffffffffffffffffffff82036110e1576110e0611041565b5b600182019050919050565b60006110f782610b68565b915061110283610b68565b925082820390508181111561111a57611119611041565b5b92915050565b60008160011c9050919050565b6000808291508390505b60018511156111775780860481111561115357611152611041565b5b60018516156111625780820291505b808102905061117085611120565b9450611137565b94509492505050565b600082611190576001905061124c565b8161119e576000905061124c565b81600181146111b457600281146111be576111ed565b600191505061124c565b60ff8411156111d0576111cf611041565b5b8360020a9150848211156111e7576111e6611041565b5b5061124c565b5060208310610133831016604e8410600b84101617156112225782820a90508381111561121d5761121c611041565b5b61124c565b61122f848484600161112d565b9250905081840481111561124657611245611041565b5b81810290505b9392505050565b600061125e82610b68565b915061126983610b68565b92506112967fffffffffffffffffffffffffffffffffffffffffffffffffffffffffffffffff8484611180565b905092915050565b60006112a982610b68565b91506112b483610b68565b92508282026112c281610b68565b915082820484148315176112d9576112d8611041565b5b509291505056fe313030300a323030300a333030300a0a343030300a0a353030300a363030300a0a373030300a383030300a393030300a0a31303030300aa2646970667358221220aad4478329db6838e7a1c1d09638e081f4f41d40ceded526e1e60e26eed5692564736f6c63430008110033","opcodes":"PUSH1 0x80 PUSH1 0x40 MSTORE CALLVALUE DUP1 ISZERO PUSH2 0x10 JUMPI PUSH1 0x0 DUP1 REVERT JUMPDEST POP PUSH2 0x134D DUP1 PUSH2 0x20 PUSH1 0x0 CODECOPY PUSH1 0x0 RETURN INVALID PUSH1 0x80 PUSH1 0x40 MSTORE CALLVALUE DUP1 ISZERO PUSH2 0x10 JUMPI PUSH1 0x0 DUP1 REVERT JUMPDEST POP PUSH1 0x4 CALLDATASIZE LT PUSH2 0x57 JUMPI PUSH1 0x0 CALLDATALOAD PUSH1 0xE0 SHR DUP1 PUSH4 0x194DB8E EQ PUSH2 0x5C JUMPI DUP1 PUSH4 0x769F204D EQ PUSH2 0x8C JUMPI DUP1 PUSH4 0x79CD9055 EQ PUSH2 0xBD JUMPI DUP1 PUSH4 0x96CAABB8 EQ PUSH2 0xED JUMPI DUP1 PUSH4 0xA7C73FD8 EQ PUSH2 0x11D JUMPI JUMPDEST PUSH1 0x0 DUP1 REVERT JUMPDEST PUSH2 0x76 PUSH1 0x4 DUP1 CALLDATASIZE SUB DUP2 ADD SWAP1 PUSH2 0x71 SWAP2 SWAP1 PUSH2 0xC35 JUMP JUMPDEST PUSH2 0x14D JUMP JUMPDEST PUSH1 0x40 MLOAD PUSH2 0x83 SWAP2 SWAP1 PUSH2 0xC8D JUMP JUMPDEST PUSH1 0x40 MLOAD DUP1 SWAP2 SUB SWAP1 RETURN JUMPDEST PUSH2 0xA6 PUSH1 0x4 DUP1 CALLDATASIZE SUB DUP2 ADD SWAP1 PUSH2 0xA1 SWAP2 SWAP1 PUSH2 0xD5D JUMP JUMPDEST PUSH2 0x1A5 JUMP JUMPDEST PUSH1 0x40 MLOAD PUSH2 0xB4 SWAP3 SWAP2 SWAP1 PUSH2 0xDA6 JUMP JUMPDEST PUSH1 0x40 MLOAD DUP1 SWAP2 SUB SWAP1 RETURN JUMPDEST PUSH2 0xD7 PUSH1 0x4 DUP1 CALLDATASIZE SUB DUP2 ADD SWAP1 PUSH2 0xD2 SWAP2 SWAP1 PUSH2 0xD5D JUMP JUMPDEST PUSH2 0x1C3 JUMP JUMPDEST PUSH1 0x40 MLOAD PUSH2 0xE4 SWAP2 SWAP1 PUSH2 0xC8D JUMP JUMPDEST PUSH1 0x40 MLOAD DUP1 SWAP2 SUB SWAP1 RETURN JUMPDEST PUSH2 0x107 PUSH1 0x4 DUP1 CALLDATASIZE SUB DUP2 ADD SWAP1 PUSH2 0x102 SWAP2 SWAP1 PUSH2 0xD5D JUMP JUMPDEST PUSH2 0x27D JUMP JUMPDEST PUSH1 0x40 MLOAD PUSH2 0x114 SWAP2 SWAP1 PUSH2 0xE8D JUMP JUMPDEST PUSH1 0x40 MLOAD DUP1 SWAP2 SUB SWAP1 RETURN JUMPDEST PUSH2 0x137 PUSH1 0x4 DUP1 CALLDATASIZE SUB DUP2 ADD SWAP1 PUSH2 0x132 SWAP2 SWAP1 PUSH2 0xD5D JUMP JUMPDEST PUSH2 0x3A6 JUMP JUMPDEST PUSH1 0x40 MLOAD PUSH2 0x144 SWAP2 SWAP1 PUSH2 0xFF0 JUMP JUMPDEST PUSH1 0x40 MLOAD DUP1 SWAP2 SUB SWAP1 RETURN JUMPDEST PUSH1 0x0 DUP1 PUSH1 0x0 SWAP1 POP PUSH1 0x0 JUMPDEST DUP4 MLOAD DUP2 LT ISZERO PUSH2 0x19B JUMPI DUP4 DUP2 DUP2 MLOAD DUP2 LT PUSH2 0x173 JUMPI PUSH2 0x172 PUSH2 0x1012 JUMP JUMPDEST JUMPDEST PUSH1 0x20 MUL PUSH1 0x20 ADD ADD MLOAD DUP3 PUSH2 0x186 SWAP2 SWAP1 PUSH2 0x1070 JUMP JUMPDEST SWAP2 POP DUP1 DUP1 PUSH2 0x193 SWAP1 PUSH2 0x10A4 JUMP JUMPDEST SWAP2 POP POP PUSH2 0x157 JUMP JUMPDEST POP DUP1 SWAP2 POP POP SWAP2 SWAP1 POP JUMP JUMPDEST PUSH1 0x0 DUP1 PUSH2 0x1B1 DUP4 PUSH2 0x4CB JUMP JUMPDEST PUSH2 0x1BA DUP5 PUSH2 0x569 JUMP JUMPDEST SWAP2 POP SWAP2 POP SWAP2 POP SWAP2 JUMP JUMPDEST PUSH1 0x0 DUP1 PUSH1 0x0 SWAP1 POP PUSH1 0x0 DUP4 SWAP1 POP PUSH1 0x0 JUMPDEST DUP2 MLOAD DUP2 LT ISZERO PUSH2 0x272 JUMPI PUSH1 0x0 DUP2 DUP4 MLOAD PUSH2 0x1EA SWAP2 SWAP1 PUSH2 0x10EC JUMP JUMPDEST SWAP1 POP PUSH1 0x0 DUP4 DUP4 DUP2 MLOAD DUP2 LT PUSH2 0x201 JUMPI PUSH2 0x200 PUSH2 0x1012 JUMP JUMPDEST JUMPDEST PUSH1 0x20 ADD ADD MLOAD PUSH1 0xF8 SHR PUSH1 0xF8 SHL SWAP1 POP PUSH1 0x0 DUP2 PUSH1 0xF8 SHR SWAP1 POP PUSH1 0x0 PUSH1 0x30 DUP3 PUSH1 0xFF AND PUSH2 0x228 SWAP2 SWAP1 PUSH2 0x10EC JUMP JUMPDEST SWAP1 POP PUSH1 0x1 DUP5 PUSH2 0x237 SWAP2 SWAP1 PUSH2 0x10EC JUMP JUMPDEST PUSH1 0xA PUSH2 0x243 SWAP2 SWAP1 PUSH2 0x1253 JUMP JUMPDEST DUP2 PUSH2 0x24E SWAP2 SWAP1 PUSH2 0x129E JUMP JUMPDEST DUP8 PUSH2 0x259 SWAP2 SWAP1 PUSH2 0x1070 JUMP JUMPDEST SWAP7 POP POP POP POP POP DUP1 DUP1 PUSH2 0x26A SWAP1 PUSH2 0x10A4 JUMP JUMPDEST SWAP2 POP POP PUSH2 0x1D2 JUMP JUMPDEST POP DUP2 SWAP3 POP POP POP SWAP2 SWAP1 POP JUMP JUMPDEST PUSH1 0x60 PUSH1 0x0 PUSH2 0x28A DUP4 PUSH2 0x64D JUMP JUMPDEST SWAP1 POP PUSH1 0x0 PUSH2 0x2CC PUSH1 0x40 MLOAD DUP1 PUSH1 0x40 ADD PUSH1 0x40 MSTORE DUP1 PUSH1 0x1 DUP2 MSTORE PUSH1 0x20 ADD PUSH32 0xA00000000000000000000000000000000000000000000000000000000000000 DUP2 MSTORE POP PUSH2 0x64D JUMP JUMPDEST SWAP1 POP PUSH1 0x0 PUSH1 0x1 PUSH2 0x2E5 DUP4 DUP6 PUSH2 0x67B SWAP1 SWAP2 SWAP1 PUSH4 0xFFFFFFFF AND JUMP JUMPDEST PUSH2 0x2EF SWAP2 SWAP1 PUSH2 0x1070 JUMP JUMPDEST PUSH8 0xFFFFFFFFFFFFFFFF DUP2 GT ISZERO PUSH2 0x308 JUMPI PUSH2 0x307 PUSH2 0xABC JUMP JUMPDEST JUMPDEST PUSH1 0x40 MLOAD SWAP1 DUP1 DUP3 MSTORE DUP1 PUSH1 0x20 MUL PUSH1 0x20 ADD DUP3 ADD PUSH1 0x40 MSTORE DUP1 ISZERO PUSH2 0x336 JUMPI DUP2 PUSH1 0x20 ADD PUSH1 0x20 DUP3 MUL DUP1 CALLDATASIZE DUP4 CALLDATACOPY DUP1 DUP3 ADD SWAP2 POP POP SWAP1 POP JUMPDEST POP SWAP1 POP PUSH1 0x0 JUMPDEST DUP2 MLOAD DUP2 LT ISZERO PUSH2 0x39A JUMPI PUSH2 0x368 PUSH2 0x363 PUSH2 0x35E DUP6 DUP8 PUSH2 0x723 SWAP1 SWAP2 SWAP1 PUSH4 0xFFFFFFFF AND JUMP JUMPDEST PUSH2 0x73D JUMP JUMPDEST PUSH2 0x1C3 JUMP JUMPDEST DUP3 DUP3 DUP2 MLOAD DUP2 LT PUSH2 0x37B JUMPI PUSH2 0x37A PUSH2 0x1012 JUMP JUMPDEST JUMPDEST PUSH1 0x20 MUL PUSH1 0x20 ADD ADD DUP2 DUP2 MSTORE POP POP DUP1 DUP1 PUSH2 0x392 SWAP1 PUSH2 0x10A4 JUMP JUMPDEST SWAP2 POP POP PUSH2 0x33C JUMP JUMPDEST POP DUP1 SWAP4 POP POP POP POP SWAP2 SWAP1 POP JUMP JUMPDEST PUSH1 0x60 PUSH1 0x0 PUSH2 0x3B3 DUP4 PUSH2 0x64D JUMP JUMPDEST SWAP1 POP PUSH1 0x0 PUSH2 0x3F5 PUSH1 0x40 MLOAD DUP1 PUSH1 0x40 ADD PUSH1 0x40 MSTORE DUP1 PUSH1 0x2 DUP2 MSTORE PUSH1 0x20 ADD PUSH32 0xA0A000000000000000000000000000000000000000000000000000000000000 DUP2 MSTORE POP PUSH2 0x64D JUMP JUMPDEST SWAP1 POP PUSH1 0x0 PUSH1 0x1 PUSH2 0x40E DUP4 DUP6 PUSH2 0x67B SWAP1 SWAP2 SWAP1 PUSH4 0xFFFFFFFF AND JUMP JUMPDEST PUSH2 0x418 SWAP2 SWAP1 PUSH2 0x1070 JUMP JUMPDEST PUSH8 0xFFFFFFFFFFFFFFFF DUP2 GT ISZERO PUSH2 0x431 JUMPI PUSH2 0x430 PUSH2 0xABC JUMP JUMPDEST JUMPDEST PUSH1 0x40 MLOAD SWAP1 DUP1 DUP3 MSTORE DUP1 PUSH1 0x20 MUL PUSH1 0x20 ADD DUP3 ADD PUSH1 0x40 MSTORE DUP1 ISZERO PUSH2 0x464 JUMPI DUP2 PUSH1 0x20 ADD JUMPDEST PUSH1 0x60 DUP2 MSTORE PUSH1 0x20 ADD SWAP1 PUSH1 0x1 SWAP1 SUB SWAP1 DUP2 PUSH2 0x44F JUMPI SWAP1 POP JUMPDEST POP SWAP1 POP PUSH1 0x0 JUMPDEST DUP2 MLOAD DUP2 LT ISZERO PUSH2 0x4BF JUMPI PUSH2 0x48E PUSH2 0x489 DUP5 DUP7 PUSH2 0x723 SWAP1 SWAP2 SWAP1 PUSH4 0xFFFFFFFF AND JUMP JUMPDEST PUSH2 0x73D JUMP JUMPDEST DUP3 DUP3 DUP2 MLOAD DUP2 LT PUSH2 0x4A1 JUMPI PUSH2 0x4A0 PUSH2 0x1012 JUMP JUMPDEST JUMPDEST PUSH1 0x20 MUL PUSH1 0x20 ADD ADD DUP2 SWAP1 MSTORE POP DUP1 DUP1 PUSH2 0x4B7 SWAP1 PUSH2 0x10A4 JUMP JUMPDEST SWAP2 POP POP PUSH2 0x46A JUMP JUMPDEST POP DUP1 SWAP4 POP POP POP POP SWAP2 SWAP1 POP JUMP JUMPDEST PUSH1 0x0 DUP1 PUSH1 0x0 SWAP1 POP PUSH1 0x0 DUP1 DUP5 MLOAD SUB PUSH2 0x4F8 JUMPI PUSH1 0x40 MLOAD DUP1 PUSH1 0x60 ADD PUSH1 0x40 MSTORE DUP1 PUSH1 0x37 DUP2 MSTORE PUSH1 0x20 ADD PUSH2 0x12E1 PUSH1 0x37 SWAP2 CODECOPY SWAP4 POP JUMPDEST PUSH1 0x0 PUSH2 0x503 DUP6 PUSH2 0x3A6 JUMP JUMPDEST SWAP1 POP PUSH1 0x0 JUMPDEST DUP2 MLOAD DUP2 LT ISZERO PUSH2 0x55D JUMPI PUSH2 0x53C PUSH2 0x537 DUP4 DUP4 DUP2 MLOAD DUP2 LT PUSH2 0x52A JUMPI PUSH2 0x529 PUSH2 0x1012 JUMP JUMPDEST JUMPDEST PUSH1 0x20 MUL PUSH1 0x20 ADD ADD MLOAD PUSH2 0x27D JUMP JUMPDEST PUSH2 0x14D JUMP JUMPDEST SWAP3 POP DUP4 DUP4 GT ISZERO PUSH2 0x54A JUMPI DUP3 SWAP4 POP JUMPDEST DUP1 DUP1 PUSH2 0x555 SWAP1 PUSH2 0x10A4 JUMP JUMPDEST SWAP2 POP POP PUSH2 0x508 JUMP JUMPDEST POP DUP3 SWAP4 POP POP POP POP SWAP2 SWAP1 POP JUMP JUMPDEST PUSH1 0x0 DUP1 PUSH1 0x0 SWAP1 POP PUSH1 0x0 DUP1 PUSH1 0x0 DUP1 DUP7 MLOAD SUB PUSH2 0x599 JUMPI PUSH1 0x40 MLOAD DUP1 PUSH1 0x60 ADD PUSH1 0x40 MSTORE DUP1 PUSH1 0x37 DUP2 MSTORE PUSH1 0x20 ADD PUSH2 0x12E1 PUSH1 0x37 SWAP2 CODECOPY SWAP6 POP JUMPDEST PUSH1 0x0 PUSH2 0x5A4 DUP8 PUSH2 0x3A6 JUMP JUMPDEST SWAP1 POP PUSH1 0x0 JUMPDEST DUP2 MLOAD DUP2 LT ISZERO PUSH2 0x629 JUMPI PUSH2 0x5DD PUSH2 0x5D8 DUP4 DUP4 DUP2 MLOAD DUP2 LT PUSH2 0x5CB JUMPI PUSH2 0x5CA PUSH2 0x1012 JUMP JUMPDEST JUMPDEST PUSH1 0x20 MUL PUSH1 0x20 ADD ADD MLOAD PUSH2 0x27D JUMP JUMPDEST PUSH2 0x14D JUMP JUMPDEST SWAP3 POP DUP6 DUP4 GT ISZERO PUSH2 0x5F5 JUMPI DUP5 SWAP4 POP DUP6 SWAP5 POP DUP3 SWAP6 POP PUSH2 0x616 JUMP JUMPDEST DUP5 DUP4 GT ISZERO PUSH2 0x608 JUMPI DUP5 SWAP4 POP DUP3 SWAP5 POP PUSH2 0x615 JUMP JUMPDEST DUP4 DUP4 GT ISZERO PUSH2 0x614 JUMPI DUP3 SWAP4 POP JUMPDEST JUMPDEST JUMPDEST DUP1 DUP1 PUSH2 0x621 SWAP1 PUSH2 0x10A4 JUMP JUMPDEST SWAP2 POP POP PUSH2 0x5A9 JUMP JUMPDEST POP DUP3 DUP5 DUP7 PUSH2 0x637 SWAP2 SWAP1 PUSH2 0x1070 JUMP JUMPDEST PUSH2 0x641 SWAP2 SWAP1 PUSH2 0x1070 JUMP JUMPDEST SWAP6 POP POP POP POP POP POP SWAP2 SWAP1 POP JUMP JUMPDEST PUSH2 0x655 PUSH2 0xA78 JUMP JUMPDEST PUSH1 0x0 PUSH1 0x20 DUP4 ADD SWAP1 POP PUSH1 0x40 MLOAD DUP1 PUSH1 0x40 ADD PUSH1 0x40 MSTORE DUP1 DUP5 MLOAD DUP2 MSTORE PUSH1 0x20 ADD DUP3 DUP2 MSTORE POP SWAP2 POP POP SWAP2 SWAP1 POP JUMP JUMPDEST PUSH1 0x0 DUP1 DUP3 PUSH1 0x0 ADD MLOAD PUSH2 0x69F DUP6 PUSH1 0x0 ADD MLOAD DUP7 PUSH1 0x20 ADD MLOAD DUP7 PUSH1 0x0 ADD MLOAD DUP8 PUSH1 0x20 ADD MLOAD PUSH2 0x7B9 JUMP JUMPDEST PUSH2 0x6A9 SWAP2 SWAP1 PUSH2 0x1070 JUMP JUMPDEST SWAP1 POP JUMPDEST DUP4 PUSH1 0x0 ADD MLOAD DUP5 PUSH1 0x20 ADD MLOAD PUSH2 0x6C0 SWAP2 SWAP1 PUSH2 0x1070 JUMP JUMPDEST DUP2 GT PUSH2 0x71C JUMPI DUP2 DUP1 PUSH2 0x6D1 SWAP1 PUSH2 0x10A4 JUMP JUMPDEST SWAP3 POP POP DUP3 PUSH1 0x0 ADD MLOAD PUSH2 0x70B DUP6 PUSH1 0x20 ADD MLOAD DUP4 PUSH2 0x6EC SWAP2 SWAP1 PUSH2 0x10EC JUMP JUMPDEST DUP7 PUSH1 0x0 ADD MLOAD PUSH2 0x6FB SWAP2 SWAP1 PUSH2 0x10EC JUMP JUMPDEST DUP4 DUP7 PUSH1 0x0 ADD MLOAD DUP8 PUSH1 0x20 ADD MLOAD PUSH2 0x7B9 JUMP JUMPDEST PUSH2 0x715 SWAP2 SWAP1 PUSH2 0x1070 JUMP JUMPDEST SWAP1 POP PUSH2 0x6AC JUMP JUMPDEST POP SWAP3 SWAP2 POP POP JUMP JUMPDEST PUSH2 0x72B PUSH2 0xA78 JUMP JUMPDEST PUSH2 0x736 DUP4 DUP4 DUP4 PUSH2 0x902 JUMP JUMPDEST POP SWAP3 SWAP2 POP POP JUMP JUMPDEST PUSH1 0x60 PUSH1 0x0 DUP3 PUSH1 0x0 ADD MLOAD PUSH8 0xFFFFFFFFFFFFFFFF DUP2 GT ISZERO PUSH2 0x75F JUMPI PUSH2 0x75E PUSH2 0xABC JUMP JUMPDEST JUMPDEST PUSH1 0x40 MLOAD SWAP1 DUP1 DUP3 MSTORE DUP1 PUSH1 0x1F ADD PUSH1 0x1F NOT AND PUSH1 0x20 ADD DUP3 ADD PUSH1 0x40 MSTORE DUP1 ISZERO PUSH2 0x791 JUMPI DUP2 PUSH1 0x20 ADD PUSH1 0x1 DUP3 MUL DUP1 CALLDATASIZE DUP4 CALLDATACOPY DUP1 DUP3 ADD SWAP2 POP POP SWAP1 POP JUMPDEST POP SWAP1 POP PUSH1 0x0 PUSH1 0x20 DUP3 ADD SWAP1 POP PUSH2 0x7AF DUP2 DUP6 PUSH1 0x20 ADD MLOAD DUP7 PUSH1 0x0 ADD MLOAD PUSH2 0x9CC JUMP JUMPDEST DUP2 SWAP3 POP POP POP SWAP2 SWAP1 POP JUMP JUMPDEST PUSH1 0x0 DUP1 DUP5 SWAP1 POP PUSH1 0x0 DUP7 DUP6 GT PUSH2 0x8E9 JUMPI PUSH1 0x20 DUP6 GT PUSH2 0x88C JUMPI PUSH1 0x0 DUP1 DUP7 GT ISZERO PUSH2 0x812 JUMPI PUSH1 0x1 DUP7 PUSH1 0x20 PUSH2 0x7E9 SWAP2 SWAP1 PUSH2 0x10EC JUMP JUMPDEST PUSH1 0x8 PUSH2 0x7F5 SWAP2 SWAP1 PUSH2 0x129E JUMP JUMPDEST PUSH1 0x2 PUSH2 0x801 SWAP2 SWAP1 PUSH2 0x1253 JUMP JUMPDEST PUSH2 0x80B SWAP2 SWAP1 PUSH2 0x10EC JUMP JUMPDEST NOT PUSH1 0x0 SHL SWAP1 POP JUMPDEST PUSH1 0x0 DUP2 DUP7 MLOAD AND SWAP1 POP PUSH1 0x0 DUP8 DUP11 DUP11 PUSH2 0x829 SWAP2 SWAP1 PUSH2 0x1070 JUMP JUMPDEST PUSH2 0x833 SWAP2 SWAP1 PUSH2 0x10EC JUMP JUMPDEST SWAP1 POP PUSH1 0x0 DUP4 DUP7 MLOAD AND SWAP1 POP JUMPDEST DUP3 DUP2 EQ PUSH2 0x87E JUMPI DUP2 DUP7 LT PUSH2 0x865 JUMPI DUP11 DUP11 PUSH2 0x858 SWAP2 SWAP1 PUSH2 0x1070 JUMP JUMPDEST SWAP7 POP POP POP POP POP POP POP PUSH2 0x8FA JUMP JUMPDEST DUP6 DUP1 PUSH2 0x870 SWAP1 PUSH2 0x10A4 JUMP JUMPDEST SWAP7 POP POP DUP4 DUP7 MLOAD AND SWAP1 POP PUSH2 0x83E JUMP JUMPDEST DUP6 SWAP7 POP POP POP POP POP POP POP PUSH2 0x8FA JUMP JUMPDEST PUSH1 0x0 DUP6 DUP6 KECCAK256 SWAP1 POP PUSH1 0x0 SWAP2 POP JUMPDEST DUP6 DUP9 PUSH2 0x8A4 SWAP2 SWAP1 PUSH2 0x10EC JUMP JUMPDEST DUP3 GT PUSH2 0x8E7 JUMPI PUSH1 0x0 DUP7 DUP5 KECCAK256 SWAP1 POP DUP1 DUP3 SUB PUSH2 0x8C4 JUMPI DUP4 SWAP5 POP POP POP POP POP PUSH2 0x8FA JUMP JUMPDEST PUSH1 0x1 DUP5 PUSH2 0x8D1 SWAP2 SWAP1 PUSH2 0x1070 JUMP JUMPDEST SWAP4 POP POP DUP2 DUP1 PUSH2 0x8DF SWAP1 PUSH2 0x10A4 JUMP JUMPDEST SWAP3 POP POP PUSH2 0x898 JUMP JUMPDEST POP JUMPDEST DUP7 DUP7 PUSH2 0x8F5 SWAP2 SWAP1 PUSH2 0x1070 JUMP JUMPDEST SWAP3 POP POP POP JUMPDEST SWAP5 SWAP4 POP POP POP POP JUMP JUMPDEST PUSH2 0x90A PUSH2 0xA78 JUMP JUMPDEST PUSH1 0x0 PUSH2 0x928 DUP6 PUSH1 0x0 ADD MLOAD DUP7 PUSH1 0x20 ADD MLOAD DUP7 PUSH1 0x0 ADD MLOAD DUP8 PUSH1 0x20 ADD MLOAD PUSH2 0x7B9 JUMP JUMPDEST SWAP1 POP DUP5 PUSH1 0x20 ADD MLOAD DUP4 PUSH1 0x20 ADD DUP2 DUP2 MSTORE POP POP DUP5 PUSH1 0x20 ADD MLOAD DUP2 PUSH2 0x948 SWAP2 SWAP1 PUSH2 0x10EC JUMP JUMPDEST DUP4 PUSH1 0x0 ADD DUP2 DUP2 MSTORE POP POP DUP5 PUSH1 0x0 ADD MLOAD DUP6 PUSH1 0x20 ADD MLOAD PUSH2 0x965 SWAP2 SWAP1 PUSH2 0x1070 JUMP JUMPDEST DUP2 SUB PUSH2 0x97B JUMPI PUSH1 0x0 DUP6 PUSH1 0x0 ADD DUP2 DUP2 MSTORE POP POP PUSH2 0x9C1 JUMP JUMPDEST DUP4 PUSH1 0x0 ADD MLOAD DUP4 PUSH1 0x0 ADD MLOAD PUSH2 0x98F SWAP2 SWAP1 PUSH2 0x1070 JUMP JUMPDEST DUP6 PUSH1 0x0 ADD DUP2 DUP2 MLOAD PUSH2 0x9A0 SWAP2 SWAP1 PUSH2 0x10EC JUMP JUMPDEST SWAP2 POP DUP2 DUP2 MSTORE POP POP DUP4 PUSH1 0x0 ADD MLOAD DUP2 PUSH2 0x9B7 SWAP2 SWAP1 PUSH2 0x1070 JUMP JUMPDEST DUP6 PUSH1 0x20 ADD DUP2 DUP2 MSTORE POP POP JUMPDEST DUP3 SWAP2 POP POP SWAP4 SWAP3 POP POP POP JUMP JUMPDEST JUMPDEST PUSH1 0x20 DUP2 LT PUSH2 0xA0B JUMPI DUP2 MLOAD DUP4 MSTORE PUSH1 0x20 DUP4 PUSH2 0x9E6 SWAP2 SWAP1 PUSH2 0x1070 JUMP JUMPDEST SWAP3 POP PUSH1 0x20 DUP3 PUSH2 0x9F5 SWAP2 SWAP1 PUSH2 0x1070 JUMP JUMPDEST SWAP2 POP PUSH1 0x20 DUP2 PUSH2 0xA04 SWAP2 SWAP1 PUSH2 0x10EC JUMP JUMPDEST SWAP1 POP PUSH2 0x9CD JUMP JUMPDEST PUSH1 0x0 PUSH32 0xFFFFFFFFFFFFFFFFFFFFFFFFFFFFFFFFFFFFFFFFFFFFFFFFFFFFFFFFFFFFFFFF SWAP1 POP PUSH1 0x0 DUP3 GT ISZERO PUSH2 0xA62 JUMPI PUSH1 0x1 DUP3 PUSH1 0x20 PUSH2 0xA48 SWAP2 SWAP1 PUSH2 0x10EC JUMP JUMPDEST PUSH2 0x100 PUSH2 0xA55 SWAP2 SWAP1 PUSH2 0x1253 JUMP JUMPDEST PUSH2 0xA5F SWAP2 SWAP1 PUSH2 0x10EC JUMP JUMPDEST SWAP1 POP JUMPDEST DUP1 NOT DUP4 MLOAD AND DUP2 DUP6 MLOAD AND DUP2 DUP2 OR DUP7 MSTORE POP POP POP POP POP POP JUMP JUMPDEST PUSH1 0x40 MLOAD DUP1 PUSH1 0x40 ADD PUSH1 0x40 MSTORE DUP1 PUSH1 0x0 DUP2 MSTORE PUSH1 0x20 ADD PUSH1 0x0 DUP2 MSTORE POP SWAP1 JUMP JUMPDEST PUSH1 0x0 PUSH1 0x40 MLOAD SWAP1 POP SWAP1 JUMP JUMPDEST PUSH1 0x0 DUP1 REVERT JUMPDEST PUSH1 0x0 DUP1 REVERT JUMPDEST PUSH1 0x0 DUP1 REVERT JUMPDEST PUSH1 0x0 PUSH1 0x1F NOT PUSH1 0x1F DUP4 ADD AND SWAP1 POP SWAP2 SWAP1 POP JUMP JUMPDEST PUSH32 0x4E487B7100000000000000000000000000000000000000000000000000000000 PUSH1 0x0 MSTORE PUSH1 0x41 PUSH1 0x4 MSTORE PUSH1 0x24 PUSH1 0x0 REVERT JUMPDEST PUSH2 0xAF4 DUP3 PUSH2 0xAAB JUMP JUMPDEST DUP2 ADD DUP2 DUP2 LT PUSH8 0xFFFFFFFFFFFFFFFF DUP3 GT OR ISZERO PUSH2 0xB13 JUMPI PUSH2 0xB12 PUSH2 0xABC JUMP JUMPDEST JUMPDEST DUP1 PUSH1 0x40 MSTORE POP POP POP JUMP JUMPDEST PUSH1 0x0 PUSH2 0xB26 PUSH2 0xA92 JUMP JUMPDEST SWAP1 POP PUSH2 0xB32 DUP3 DUP3 PUSH2 0xAEB JUMP JUMPDEST SWAP2 SWAP1 POP JUMP JUMPDEST PUSH1 0x0 PUSH8 0xFFFFFFFFFFFFFFFF DUP3 GT ISZERO PUSH2 0xB52 JUMPI PUSH2 0xB51 PUSH2 0xABC JUMP JUMPDEST JUMPDEST PUSH1 0x20 DUP3 MUL SWAP1 POP PUSH1 0x20 DUP2 ADD SWAP1 POP SWAP2 SWAP1 POP JUMP JUMPDEST PUSH1 0x0 DUP1 REVERT JUMPDEST PUSH1 0x0 DUP2 SWAP1 POP SWAP2 SWAP1 POP JUMP JUMPDEST PUSH2 0xB7B DUP2 PUSH2 0xB68 JUMP JUMPDEST DUP2 EQ PUSH2 0xB86 JUMPI PUSH1 0x0 DUP1 REVERT JUMPDEST POP JUMP JUMPDEST PUSH1 0x0 DUP2 CALLDATALOAD SWAP1 POP PUSH2 0xB98 DUP2 PUSH2 0xB72 JUMP JUMPDEST SWAP3 SWAP2 POP POP JUMP JUMPDEST PUSH1 0x0 PUSH2 0xBB1 PUSH2 0xBAC DUP5 PUSH2 0xB37 JUMP JUMPDEST PUSH2 0xB1C JUMP JUMPDEST SWAP1 POP DUP1 DUP4 DUP3 MSTORE PUSH1 0x20 DUP3 ADD SWAP1 POP PUSH1 0x20 DUP5 MUL DUP4 ADD DUP6 DUP2 GT ISZERO PUSH2 0xBD4 JUMPI PUSH2 0xBD3 PUSH2 0xB63 JUMP JUMPDEST JUMPDEST DUP4 JUMPDEST DUP2 DUP2 LT ISZERO PUSH2 0xBFD JUMPI DUP1 PUSH2 0xBE9 DUP9 DUP3 PUSH2 0xB89 JUMP JUMPDEST DUP5 MSTORE PUSH1 0x20 DUP5 ADD SWAP4 POP POP PUSH1 0x20 DUP2 ADD SWAP1 POP PUSH2 0xBD6 JUMP JUMPDEST POP POP POP SWAP4 SWAP3 POP POP POP JUMP JUMPDEST PUSH1 0x0 DUP3 PUSH1 0x1F DUP4 ADD SLT PUSH2 0xC1C JUMPI PUSH2 0xC1B PUSH2 0xAA6 JUMP JUMPDEST JUMPDEST DUP2 CALLDATALOAD PUSH2 0xC2C DUP5 DUP3 PUSH1 0x20 DUP7 ADD PUSH2 0xB9E JUMP JUMPDEST SWAP2 POP POP SWAP3 SWAP2 POP POP JUMP JUMPDEST PUSH1 0x0 PUSH1 0x20 DUP3 DUP5 SUB SLT ISZERO PUSH2 0xC4B JUMPI PUSH2 0xC4A PUSH2 0xA9C JUMP JUMPDEST JUMPDEST PUSH1 0x0 DUP3 ADD CALLDATALOAD PUSH8 0xFFFFFFFFFFFFFFFF DUP2 GT ISZERO PUSH2 0xC69 JUMPI PUSH2 0xC68 PUSH2 0xAA1 JUMP JUMPDEST JUMPDEST PUSH2 0xC75 DUP5 DUP3 DUP6 ADD PUSH2 0xC07 JUMP JUMPDEST SWAP2 POP POP SWAP3 SWAP2 POP POP JUMP JUMPDEST PUSH2 0xC87 DUP2 PUSH2 0xB68 JUMP JUMPDEST DUP3 MSTORE POP POP JUMP JUMPDEST PUSH1 0x0 PUSH1 0x20 DUP3 ADD SWAP1 POP PUSH2 0xCA2 PUSH1 0x0 DUP4 ADD DUP5 PUSH2 0xC7E JUMP JUMPDEST SWAP3 SWAP2 POP POP JUMP JUMPDEST PUSH1 0x0 DUP1 REVERT JUMPDEST PUSH1 0x0 PUSH8 0xFFFFFFFFFFFFFFFF DUP3 GT ISZERO PUSH2 0xCC8 JUMPI PUSH2 0xCC7 PUSH2 0xABC JUMP JUMPDEST JUMPDEST PUSH2 0xCD1 DUP3 PUSH2 0xAAB JUMP JUMPDEST SWAP1 POP PUSH1 0x20 DUP2 ADD SWAP1 POP SWAP2 SWAP1 POP JUMP JUMPDEST DUP3 DUP2 DUP4 CALLDATACOPY PUSH1 0x0 DUP4 DUP4 ADD MSTORE POP POP POP JUMP JUMPDEST PUSH1 0x0 PUSH2 0xD00 PUSH2 0xCFB DUP5 PUSH2 0xCAD JUMP JUMPDEST PUSH2 0xB1C JUMP JUMPDEST SWAP1 POP DUP3 DUP2 MSTORE PUSH1 0x20 DUP2 ADD DUP5 DUP5 DUP5 ADD GT ISZERO PUSH2 0xD1C JUMPI PUSH2 0xD1B PUSH2 0xCA8 JUMP JUMPDEST JUMPDEST PUSH2 0xD27 DUP5 DUP3 DUP6 PUSH2 0xCDE JUMP JUMPDEST POP SWAP4 SWAP3 POP POP POP JUMP JUMPDEST PUSH1 0x0 DUP3 PUSH1 0x1F DUP4 ADD SLT PUSH2 0xD44 JUMPI PUSH2 0xD43 PUSH2 0xAA6 JUMP JUMPDEST JUMPDEST DUP2 CALLDATALOAD PUSH2 0xD54 DUP5 DUP3 PUSH1 0x20 DUP7 ADD PUSH2 0xCED JUMP JUMPDEST SWAP2 POP POP SWAP3 SWAP2 POP POP JUMP JUMPDEST PUSH1 0x0 PUSH1 0x20 DUP3 DUP5 SUB SLT ISZERO PUSH2 0xD73 JUMPI PUSH2 0xD72 PUSH2 0xA9C JUMP JUMPDEST JUMPDEST PUSH1 0x0 DUP3 ADD CALLDATALOAD PUSH8 0xFFFFFFFFFFFFFFFF DUP2 GT ISZERO PUSH2 0xD91 JUMPI PUSH2 0xD90 PUSH2 0xAA1 JUMP JUMPDEST JUMPDEST PUSH2 0xD9D DUP5 DUP3 DUP6 ADD PUSH2 0xD2F JUMP JUMPDEST SWAP2 POP POP SWAP3 SWAP2 POP POP JUMP JUMPDEST PUSH1 0x0 PUSH1 0x40 DUP3 ADD SWAP1 POP PUSH2 0xDBB PUSH1 0x0 DUP4 ADD DUP6 PUSH2 0xC7E JUMP JUMPDEST PUSH2 0xDC8 PUSH1 0x20 DUP4 ADD DUP5 PUSH2 0xC7E JUMP JUMPDEST SWAP4 SWAP3 POP POP POP JUMP JUMPDEST PUSH1 0x0 DUP2 MLOAD SWAP1 POP SWAP2 SWAP1 POP JUMP JUMPDEST PUSH1 0x0 DUP3 DUP3 MSTORE PUSH1 0x20 DUP3 ADD SWAP1 POP SWAP3 SWAP2 POP POP JUMP JUMPDEST PUSH1 0x0 DUP2 SWAP1 POP PUSH1 0x20 DUP3 ADD SWAP1 POP SWAP2 SWAP1 POP JUMP JUMPDEST PUSH2 0xE04 DUP2 PUSH2 0xB68 JUMP JUMPDEST DUP3 MSTORE POP POP JUMP JUMPDEST PUSH1 0x0 PUSH2 0xE16 DUP4 DUP4 PUSH2 0xDFB JUMP JUMPDEST PUSH1 0x20 DUP4 ADD SWAP1 POP SWAP3 SWAP2 POP POP JUMP JUMPDEST PUSH1 0x0 PUSH1 0x20 DUP3 ADD SWAP1 POP SWAP2 SWAP1 POP JUMP JUMPDEST PUSH1 0x0 PUSH2 0xE3A DUP3 PUSH2 0xDCF JUMP JUMPDEST PUSH2 0xE44 DUP2 DUP6 PUSH2 0xDDA JUMP JUMPDEST SWAP4 POP PUSH2 0xE4F DUP4 PUSH2 0xDEB JUMP JUMPDEST DUP1 PUSH1 0x0 JUMPDEST DUP4 DUP2 LT ISZERO PUSH2 0xE80 JUMPI DUP2 MLOAD PUSH2 0xE67 DUP9 DUP3 PUSH2 0xE0A JUMP JUMPDEST SWAP8 POP PUSH2 0xE72 DUP4 PUSH2 0xE22 JUMP JUMPDEST SWAP3 POP POP PUSH1 0x1 DUP2 ADD SWAP1 POP PUSH2 0xE53 JUMP JUMPDEST POP DUP6 SWAP4 POP POP POP POP SWAP3 SWAP2 POP POP JUMP JUMPDEST PUSH1 0x0 PUSH1 0x20 DUP3 ADD SWAP1 POP DUP2 DUP2 SUB PUSH1 0x0 DUP4 ADD MSTORE PUSH2 0xEA7 DUP2 DUP5 PUSH2 0xE2F JUMP JUMPDEST SWAP1 POP SWAP3 SWAP2 POP POP JUMP JUMPDEST PUSH1 0x0 DUP2 MLOAD SWAP1 POP SWAP2 SWAP1 POP JUMP JUMPDEST PUSH1 0x0 DUP3 DUP3 MSTORE PUSH1 0x20 DUP3 ADD SWAP1 POP SWAP3 SWAP2 POP POP JUMP JUMPDEST PUSH1 0x0 DUP2 SWAP1 POP PUSH1 0x20 DUP3 ADD SWAP1 POP SWAP2 SWAP1 POP JUMP JUMPDEST PUSH1 0x0 DUP2 MLOAD SWAP1 POP SWAP2 SWAP1 POP JUMP JUMPDEST PUSH1 0x0 DUP3 DUP3 MSTORE PUSH1 0x20 DUP3 ADD SWAP1 POP SWAP3 SWAP2 POP POP JUMP JUMPDEST PUSH1 0x0 JUMPDEST DUP4 DUP2 LT ISZERO PUSH2 0xF15 JUMPI DUP1 DUP3 ADD MLOAD DUP2 DUP5 ADD MSTORE PUSH1 0x20 DUP2 ADD SWAP1 POP PUSH2 0xEFA JUMP JUMPDEST PUSH1 0x0 DUP5 DUP5 ADD MSTORE POP POP POP POP JUMP JUMPDEST PUSH1 0x0 PUSH2 0xF2C DUP3 PUSH2 0xEDB JUMP JUMPDEST PUSH2 0xF36 DUP2 DUP6 PUSH2 0xEE6 JUMP JUMPDEST SWAP4 POP PUSH2 0xF46 DUP2 DUP6 PUSH1 0x20 DUP7 ADD PUSH2 0xEF7 JUMP JUMPDEST PUSH2 0xF4F DUP2 PUSH2 0xAAB JUMP JUMPDEST DUP5 ADD SWAP2 POP POP SWAP3 SWAP2 POP POP JUMP JUMPDEST PUSH1 0x0 PUSH2 0xF66 DUP4 DUP4 PUSH2 0xF21 JUMP JUMPDEST SWAP1 POP SWAP3 SWAP2 POP POP JUMP JUMPDEST PUSH1 0x0 PUSH1 0x20 DUP3 ADD SWAP1 POP SWAP2 SWAP1 POP JUMP JUMPDEST PUSH1 0x0 PUSH2 0xF86 DUP3 PUSH2 0xEAF JUMP JUMPDEST PUSH2 0xF90 DUP2 DUP6 PUSH2 0xEBA JUMP JUMPDEST SWAP4 POP DUP4 PUSH1 0x20 DUP3 MUL DUP6 ADD PUSH2 0xFA2 DUP6 PUSH2 0xECB JUMP JUMPDEST DUP1 PUSH1 0x0 JUMPDEST DUP6 DUP2 LT ISZERO PUSH2 0xFDE JUMPI DUP5 DUP5 SUB DUP10 MSTORE DUP2 MLOAD PUSH2 0xFBF DUP6 DUP3 PUSH2 0xF5A JUMP JUMPDEST SWAP5 POP PUSH2 0xFCA DUP4 PUSH2 0xF6E JUMP JUMPDEST SWAP3 POP PUSH1 0x20 DUP11 ADD SWAP10 POP POP PUSH1 0x1 DUP2 ADD SWAP1 POP PUSH2 0xFA6 JUMP JUMPDEST POP DUP3 SWAP8 POP DUP8 SWAP6 POP POP POP POP POP POP SWAP3 SWAP2 POP POP JUMP JUMPDEST PUSH1 0x0 PUSH1 0x20 DUP3 ADD SWAP1 POP DUP2 DUP2 SUB PUSH1 0x0 DUP4 ADD MSTORE PUSH2 0x100A DUP2 DUP5 PUSH2 0xF7B JUMP JUMPDEST SWAP1 POP SWAP3 SWAP2 POP POP JUMP JUMPDEST PUSH32 0x4E487B7100000000000000000000000000000000000000000000000000000000 PUSH1 0x0 MSTORE PUSH1 0x32 PUSH1 0x4 MSTORE PUSH1 0x24 PUSH1 0x0 REVERT JUMPDEST PUSH32 0x4E487B7100000000000000000000000000000000000000000000000000000000 PUSH1 0x0 MSTORE PUSH1 0x11 PUSH1 0x4 MSTORE PUSH1 0x24 PUSH1 0x0 REVERT JUMPDEST PUSH1 0x0 PUSH2 0x107B DUP3 PUSH2 0xB68 JUMP JUMPDEST SWAP2 POP PUSH2 0x1086 DUP4 PUSH2 0xB68 JUMP JUMPDEST SWAP3 POP DUP3 DUP3 ADD SWAP1 POP DUP1 DUP3 GT ISZERO PUSH2 0x109E JUMPI PUSH2 0x109D PUSH2 0x1041 JUMP JUMPDEST JUMPDEST SWAP3 SWAP2 POP POP JUMP JUMPDEST PUSH1 0x0 PUSH2 0x10AF DUP3 PUSH2 0xB68 JUMP JUMPDEST SWAP2 POP PUSH32 0xFFFFFFFFFFFFFFFFFFFFFFFFFFFFFFFFFFFFFFFFFFFFFFFFFFFFFFFFFFFFFFFF DUP3 SUB PUSH2 0x10E1 JUMPI PUSH2 0x10E0 PUSH2 0x1041 JUMP JUMPDEST JUMPDEST PUSH1 0x1 DUP3 ADD SWAP1 POP SWAP2 SWAP1 POP JUMP JUMPDEST PUSH1 0x0 PUSH2 0x10F7 DUP3 PUSH2 0xB68 JUMP JUMPDEST SWAP2 POP PUSH2 0x1102 DUP4 PUSH2 0xB68 JUMP JUMPDEST SWAP3 POP DUP3 DUP3 SUB SWAP1 POP DUP2 DUP2 GT ISZERO PUSH2 0x111A JUMPI PUSH2 0x1119 PUSH2 0x1041 JUMP JUMPDEST JUMPDEST SWAP3 SWAP2 POP POP JUMP JUMPDEST PUSH1 0x0 DUP2 PUSH1 0x1 SHR SWAP1 POP SWAP2 SWAP1 POP JUMP JUMPDEST PUSH1 0x0 DUP1 DUP3 SWAP2 POP DUP4 SWAP1 POP JUMPDEST PUSH1 0x1 DUP6 GT ISZERO PUSH2 0x1177 JUMPI DUP1 DUP7 DIV DUP2 GT ISZERO PUSH2 0x1153 JUMPI PUSH2 0x1152 PUSH2 0x1041 JUMP JUMPDEST JUMPDEST PUSH1 0x1 DUP6 AND ISZERO PUSH2 0x1162 JUMPI DUP1 DUP3 MUL SWAP2 POP JUMPDEST DUP1 DUP2 MUL SWAP1 POP PUSH2 0x1170 DUP6 PUSH2 0x1120 JUMP JUMPDEST SWAP5 POP PUSH2 0x1137 JUMP JUMPDEST SWAP5 POP SWAP5 SWAP3 POP POP POP JUMP JUMPDEST PUSH1 0x0 DUP3 PUSH2 0x1190 JUMPI PUSH1 0x1 SWAP1 POP PUSH2 0x124C JUMP JUMPDEST DUP2 PUSH2 0x119E JUMPI PUSH1 0x0 SWAP1 POP PUSH2 0x124C JUMP JUMPDEST DUP2 PUSH1 0x1 DUP2 EQ PUSH2 0x11B4 JUMPI PUSH1 0x2 DUP2 EQ PUSH2 0x11BE JUMPI PUSH2 0x11ED JUMP JUMPDEST PUSH1 0x1 SWAP2 POP POP PUSH2 0x124C JUMP JUMPDEST PUSH1 0xFF DUP5 GT ISZERO PUSH2 0x11D0 JUMPI PUSH2 0x11CF PUSH2 0x1041 JUMP JUMPDEST JUMPDEST DUP4 PUSH1 0x2 EXP SWAP2 POP DUP5 DUP3 GT ISZERO PUSH2 0x11E7 JUMPI PUSH2 0x11E6 PUSH2 0x1041 JUMP JUMPDEST JUMPDEST POP PUSH2 0x124C JUMP JUMPDEST POP PUSH1 0x20 DUP4 LT PUSH2 0x133 DUP4 LT AND PUSH1 0x4E DUP5 LT PUSH1 0xB DUP5 LT AND OR ISZERO PUSH2 0x1222 JUMPI DUP3 DUP3 EXP SWAP1 POP DUP4 DUP2 GT ISZERO PUSH2 0x121D JUMPI PUSH2 0x121C PUSH2 0x1041 JUMP JUMPDEST JUMPDEST PUSH2 0x124C JUMP JUMPDEST PUSH2 0x122F DUP5 DUP5 DUP5 PUSH1 0x1 PUSH2 0x112D JUMP JUMPDEST SWAP3 POP SWAP1 POP DUP2 DUP5 DIV DUP2 GT ISZERO PUSH2 0x1246 JUMPI PUSH2 0x1245 PUSH2 0x1041 JUMP JUMPDEST JUMPDEST DUP2 DUP2 MUL SWAP1 POP JUMPDEST SWAP4 SWAP3 POP POP POP JUMP JUMPDEST PUSH1 0x0 PUSH2 0x125E DUP3 PUSH2 0xB68 JUMP JUMPDEST SWAP2 POP PUSH2 0x1269 DUP4 PUSH2 0xB68 JUMP JUMPDEST SWAP3 POP PUSH2 0x1296 PUSH32 0xFFFFFFFFFFFFFFFFFFFFFFFFFFFFFFFFFFFFFFFFFFFFFFFFFFFFFFFFFFFFFFFF DUP5 DUP5 PUSH2 0x1180 JUMP JUMPDEST SWAP1 POP SWAP3 SWAP2 POP POP JUMP JUMPDEST PUSH1 0x0 PUSH2 0x12A9 DUP3 PUSH2 0xB68 JUMP JUMPDEST SWAP2 POP PUSH2 0x12B4 DUP4 PUSH2 0xB68 JUMP JUMPDEST SWAP3 POP DUP3 DUP3 MUL PUSH2 0x12C2 DUP2 PUSH2 0xB68 JUMP JUMPDEST SWAP2 POP DUP3 DUP3 DIV DUP5 EQ DUP4 ISZERO OR PUSH2 0x12D9 JUMPI PUSH2 0x12D8 PUSH2 0x1041 JUMP JUMPDEST JUMPDEST POP SWAP3 SWAP2 POP POP JUMP INVALID BALANCE ADDRESS ADDRESS ADDRESS EXP ORIGIN ADDRESS ADDRESS ADDRESS EXP CALLER ADDRESS ADDRESS ADDRESS EXP EXP CALLVALUE ADDRESS ADDRESS ADDRESS EXP EXP CALLDATALOAD ADDRESS ADDRESS ADDRESS EXP CALLDATASIZE ADDRESS ADDRESS ADDRESS EXP EXP CALLDATACOPY ADDRESS ADDRESS ADDRESS EXP CODESIZE ADDRESS ADDRESS ADDRESS EXP CODECOPY ADDRESS ADDRESS ADDRESS EXP EXP BALANCE ADDRESS ADDRESS ADDRESS ADDRESS EXP LOG2 PUSH5 0x6970667358 0x22 SLT KECCAK256 0xAA 0xD4 SELFBALANCE DUP4 0x29 0xDB PUSH9 0x38E7A1C1D09638E081 DELEGATECALL DELEGATECALL SAR BLOCKHASH 0xCE 0xDE 0xD5 0x26 0xE1 0xE6 0xE 0x26 0xEE 0xD5 PUSH10 0x2564736F6C6343000811 STOP CALLER "},"methodIdentifiers":{"first_split(string)":"a7c73fd8","main(string)":"769f204d","smt(string)":"96caabb8","st2num(string)":"79cd9055","sum(uint256[])":"0194db8e"}}}}}