{"contracts/Day2.sol":{"Day2":{"abi":[{"inputs":[{"internalType":"string","name":"in_str","type":"string"}],"name":"calculate_score","outputs":[{"internalType":"uint256","name":"","type":"uint256"}],"stateMutability":"pure","type":"function"},{"inputs":[{"internalType":"string","name":"in_str","type":"string"}],"name":"calculate_score_p2","outputs":[{"internalType":"uint256","name":"","type":"uint256"}],"stateMutability":"pure","type":"function"},{"inputs":[{"internalType":"string","name":"in_str","type":"string"}],"name":"first_split","outputs":[{"internalType":"string[]","name":"","type":"string[]"}],"stateMutability":"pure","type":"function"},{"inputs":[{"internalType":"string","name":"input","type":"string"}],"name":"main","outputs":[{"internalType":"uint256","name":"","type":"uint256"},{"internalType":"uint256","name":"","type":"uint256"}],"stateMutability":"pure","type":"function"},{"inputs":[{"internalType":"string","name":"str_1","type":"string"},{"internalType":"string","name":"str_2","type":"string"}],"name":"str_cmp","outputs":[{"internalType":"bool","name":"","type":"bool"}],"stateMutability":"pure","type":"function"}],"evm":{"bytecode":{"linkReferences":{},"object":"608060405234801561001057600080fd5b5061153c806100206000396000f3fe608060405234801561001057600080fd5b50600436106100575760003560e01c806344b7f83c1461005c578063769f204d1461008c578063a1edea50146100bd578063a7c73fd8146100ed578063dd63aeda1461011d575b600080fd5b61007660048036038101906100719190610f2e565b61014d565b6040516100839190610fc1565b60405180910390f35b6100a660048036038101906100a19190610fdc565b6101b6565b6040516100b492919061103e565b60405180910390f35b6100d760048036038101906100d29190610fdc565b610216565b6040516100e49190611067565b60405180910390f35b61010760048036038101906101029190610fdc565b6104d7565b60405161011491906111c3565b60405180910390f35b61013760048036038101906101329190610fdc565b6105fc565b6040516101449190611067565b60405180910390f35b6000816040516020016101609190611221565b60405160208183030381529060405280519060200120836040516020016101879190611221565b60405160208183030381529060405280519060200120036101ab57600190506101b0565b600090505b92915050565b60008060008351036101fb576040518060400160405280600c81526020017f4120590a4220580a43205a0a000000000000000000000000000000000000000081525092505b610204836108bd565b61020d84610926565b91509150915091565b6000610257826040518060400160405280600381526020017f412058000000000000000000000000000000000000000000000000000000000081525061014d565b1561026557600490506104d2565b6102a4826040518060400160405280600381526020017f412059000000000000000000000000000000000000000000000000000000000081525061014d565b156102b257600890506104d2565b6102f1826040518060400160405280600381526020017f41205a000000000000000000000000000000000000000000000000000000000081525061014d565b156102ff57600390506104d2565b61033e826040518060400160405280600381526020017f422058000000000000000000000000000000000000000000000000000000000081525061014d565b1561034c57600190506104d2565b61038b826040518060400160405280600381526020017f422059000000000000000000000000000000000000000000000000000000000081525061014d565b1561039957600590506104d2565b6103d8826040518060400160405280600381526020017f42205a000000000000000000000000000000000000000000000000000000000081525061014d565b156103e657600990506104d2565b610425826040518060400160405280600381526020017f432058000000000000000000000000000000000000000000000000000000000081525061014d565b1561043357600790506104d2565b610472826040518060400160405280600381526020017f432059000000000000000000000000000000000000000000000000000000000081525061014d565b1561048057600290506104d2565b6104bf826040518060400160405280600381526020017f43205a000000000000000000000000000000000000000000000000000000000081525061014d565b156104cd57600690506104d2565b600090505b919050565b606060006104e48361098f565b905060006105266040518060400160405280600181526020017f0a0000000000000000000000000000000000000000000000000000000000000081525061098f565b90506000600161053f83856109bd90919063ffffffff16565b6105499190611267565b67ffffffffffffffff81111561056257610561610e03565b5b60405190808252806020026020018201604052801561059557816020015b60608152602001906001900390816105805790505b50905060005b81518110156105f0576105bf6105ba8486610a6590919063ffffffff16565b610a7f565b8282815181106105d2576105d161129b565b5b602002602001018190525080806105e8906112ca565b91505061059b565b50809350505050919050565b600061063d826040518060400160405280600381526020017f412058000000000000000000000000000000000000000000000000000000000081525061014d565b1561064b57600390506108b8565b61068a826040518060400160405280600381526020017f412059000000000000000000000000000000000000000000000000000000000081525061014d565b1561069857600490506108b8565b6106d7826040518060400160405280600381526020017f41205a000000000000000000000000000000000000000000000000000000000081525061014d565b156106e557600890506108b8565b610724826040518060400160405280600381526020017f422058000000000000000000000000000000000000000000000000000000000081525061014d565b1561073257600190506108b8565b610771826040518060400160405280600381526020017f422059000000000000000000000000000000000000000000000000000000000081525061014d565b1561077f57600590506108b8565b6107be826040518060400160405280600381526020017f42205a000000000000000000000000000000000000000000000000000000000081525061014d565b156107cc57600990506108b8565b61080b826040518060400160405280600381526020017f432058000000000000000000000000000000000000000000000000000000000081525061014d565b1561081957600290506108b8565b610858826040518060400160405280600381526020017f432059000000000000000000000000000000000000000000000000000000000081525061014d565b1561086657600690506108b8565b6108a5826040518060400160405280600381526020017f43205a000000000000000000000000000000000000000000000000000000000081525061014d565b156108b357600790506108b8565b600090505b919050565b6000806108c9836104d7565b90506000805b825181101561091b576108fb8382815181106108ee576108ed61129b565b5b6020026020010151610216565b826109069190611267565b91508080610913906112ca565b9150506108cf565b508092505050919050565b600080610932836104d7565b90506000805b8251811015610984576109648382815181106109575761095661129b565b5b60200260200101516105fc565b8261096f9190611267565b9150808061097c906112ca565b915050610938565b508092505050919050565b610997610dba565b600060208301905060405180604001604052808451815260200182815250915050919050565b60008082600001516109e18560000151866020015186600001518760200151610afb565b6109eb9190611267565b90505b83600001518460200151610a029190611267565b8111610a5e578180610a13906112ca565b9250508260000151610a4d856020015183610a2e9190611312565b8660000151610a3d9190611312565b8386600001518760200151610afb565b610a579190611267565b90506109ee565b5092915050565b610a6d610dba565b610a78838383610c44565b5092915050565b60606000826000015167ffffffffffffffff811115610aa157610aa0610e03565b5b6040519080825280601f01601f191660200182016040528015610ad35781602001600182028036833780820191505090505b5090506000602082019050610af18185602001518660000151610d0e565b8192505050919050565b6000808490506000868511610c2b5760208511610bce57600080861115610b54576001866020610b2b9190611312565b6008610b379190611346565b6002610b4391906114bb565b610b4d9190611312565b1960001b90505b60008186511690506000878a8a610b6b9190611267565b610b759190611312565b905060008386511690505b828114610bc057818610610ba7578a8a610b9a9190611267565b9650505050505050610c3c565b8580610bb2906112ca565b965050838651169050610b80565b859650505050505050610c3c565b60008585209050600091505b8588610be69190611312565b8211610c295760008684209050808203610c065783945050505050610c3c565b600184610c139190611267565b9350508180610c21906112ca565b925050610bda565b505b8686610c379190611267565b925050505b949350505050565b610c4c610dba565b6000610c6a8560000151866020015186600001518760200151610afb565b90508460200151836020018181525050846020015181610c8a9190611312565b83600001818152505084600001518560200151610ca79190611267565b8103610cbd576000856000018181525050610d03565b83600001518360000151610cd19190611267565b85600001818151610ce29190611312565b91508181525050836000015181610cf99190611267565b8560200181815250505b829150509392505050565b5b60208110610d4d5781518352602083610d289190611267565b9250602082610d379190611267565b9150602081610d469190611312565b9050610d0f565b60007fffffffffffffffffffffffffffffffffffffffffffffffffffffffffffffffff90506000821115610da4576001826020610d8a9190611312565b610100610d9791906114bb565b610da19190611312565b90505b8019835116818551168181178652505050505050565b604051806040016040528060008152602001600081525090565b6000604051905090565b600080fd5b600080fd5b600080fd5b600080fd5b6000601f19601f8301169050919050565b7f4e487b7100000000000000000000000000000000000000000000000000000000600052604160045260246000fd5b610e3b82610df2565b810181811067ffffffffffffffff82111715610e5a57610e59610e03565b5b80604052505050565b6000610e6d610dd4565b9050610e798282610e32565b919050565b600067ffffffffffffffff821115610e9957610e98610e03565b5b610ea282610df2565b9050602081019050919050565b82818337600083830152505050565b6000610ed1610ecc84610e7e565b610e63565b905082815260208101848484011115610eed57610eec610ded565b5b610ef8848285610eaf565b509392505050565b600082601f830112610f1557610f14610de8565b5b8135610f25848260208601610ebe565b91505092915050565b60008060408385031215610f4557610f44610dde565b5b600083013567ffffffffffffffff811115610f6357610f62610de3565b5b610f6f85828601610f00565b925050602083013567ffffffffffffffff811115610f9057610f8f610de3565b5b610f9c85828601610f00565b9150509250929050565b60008115159050919050565b610fbb81610fa6565b82525050565b6000602082019050610fd66000830184610fb2565b92915050565b600060208284031215610ff257610ff1610dde565b5b600082013567ffffffffffffffff8111156110105761100f610de3565b5b61101c84828501610f00565b91505092915050565b6000819050919050565b61103881611025565b82525050565b6000604082019050611053600083018561102f565b611060602083018461102f565b9392505050565b600060208201905061107c600083018461102f565b92915050565b600081519050919050565b600082825260208201905092915050565b6000819050602082019050919050565b600081519050919050565b600082825260208201905092915050565b60005b838110156110e85780820151818401526020810190506110cd565b60008484015250505050565b60006110ff826110ae565b61110981856110b9565b93506111198185602086016110ca565b61112281610df2565b840191505092915050565b600061113983836110f4565b905092915050565b6000602082019050919050565b600061115982611082565b611163818561108d565b9350836020820285016111758561109e565b8060005b858110156111b15784840389528151611192858261112d565b945061119d83611141565b925060208a01995050600181019050611179565b50829750879550505050505092915050565b600060208201905081810360008301526111dd818461114e565b905092915050565b600081905092915050565b60006111fb826110ae565b61120581856111e5565b93506112158185602086016110ca565b80840191505092915050565b600061122d82846111f0565b915081905092915050565b7f4e487b7100000000000000000000000000000000000000000000000000000000600052601160045260246000fd5b600061127282611025565b915061127d83611025565b925082820190508082111561129557611294611238565b5b92915050565b7f4e487b7100000000000000000000000000000000000000000000000000000000600052603260045260246000fd5b60006112d582611025565b91507fffffffffffffffffffffffffffffffffffffffffffffffffffffffffffffffff820361130757611306611238565b5b600182019050919050565b600061131d82611025565b915061132883611025565b92508282039050818111156113405761133f611238565b5b92915050565b600061135182611025565b915061135c83611025565b925082820261136a81611025565b9150828204841483151761138157611380611238565b5b5092915050565b60008160011c9050919050565b6000808291508390505b60018511156113df578086048111156113bb576113ba611238565b5b60018516156113ca5780820291505b80810290506113d885611388565b945061139f565b94509492505050565b6000826113f857600190506114b4565b8161140657600090506114b4565b816001811461141c576002811461142657611455565b60019150506114b4565b60ff84111561143857611437611238565b5b8360020a91508482111561144f5761144e611238565b5b506114b4565b5060208310610133831016604e8410600b841016171561148a5782820a90508381111561148557611484611238565b5b6114b4565b6114978484846001611395565b925090508184048111156114ae576114ad611238565b5b81810290505b9392505050565b60006114c682611025565b91506114d183611025565b92506114fe7fffffffffffffffffffffffffffffffffffffffffffffffffffffffffffffffff84846113e8565b90509291505056fea26469706673582212209aeab44554f9067555662faf65f886cbd4de4dcc851001838eb2ac71dc0aa52464736f6c63430008110033","opcodes":"PUSH1 0x80 PUSH1 0x40 MSTORE CALLVALUE DUP1 ISZERO PUSH2 0x10 JUMPI PUSH1 0x0 DUP1 REVERT JUMPDEST POP PUSH2 0x153C DUP1 PUSH2 0x20 PUSH1 0x0 CODECOPY PUSH1 0x0 RETURN INVALID PUSH1 0x80 PUSH1 0x40 MSTORE CALLVALUE DUP1 ISZERO PUSH2 0x10 JUMPI PUSH1 0x0 DUP1 REVERT JUMPDEST POP PUSH1 0x4 CALLDATASIZE LT PUSH2 0x57 JUMPI PUSH1 0x0 CALLDATALOAD PUSH1 0xE0 SHR DUP1 PUSH4 0x44B7F83C EQ PUSH2 0x5C JUMPI DUP1 PUSH4 0x769F204D EQ PUSH2 0x8C JUMPI DUP1 PUSH4 0xA1EDEA50 EQ PUSH2 0xBD JUMPI DUP1 PUSH4 0xA7C73FD8 EQ PUSH2 0xED JUMPI DUP1 PUSH4 0xDD63AEDA EQ PUSH2 0x11D JUMPI JUMPDEST PUSH1 0x0 DUP1 REVERT JUMPDEST PUSH2 0x76 PUSH1 0x4 DUP1 CALLDATASIZE SUB DUP2 ADD SWAP1 PUSH2 0x71 SWAP2 SWAP1 PUSH2 0xF2E JUMP JUMPDEST PUSH2 0x14D JUMP JUMPDEST PUSH1 0x40 MLOAD PUSH2 0x83 SWAP2 SWAP1 PUSH2 0xFC1 JUMP JUMPDEST PUSH1 0x40 MLOAD DUP1 SWAP2 SUB SWAP1 RETURN JUMPDEST PUSH2 0xA6 PUSH1 0x4 DUP1 CALLDATASIZE SUB DUP2 ADD SWAP1 PUSH2 0xA1 SWAP2 SWAP1 PUSH2 0xFDC JUMP JUMPDEST PUSH2 0x1B6 JUMP JUMPDEST PUSH1 0x40 MLOAD PUSH2 0xB4 SWAP3 SWAP2 SWAP1 PUSH2 0x103E JUMP JUMPDEST PUSH1 0x40 MLOAD DUP1 SWAP2 SUB SWAP1 RETURN JUMPDEST PUSH2 0xD7 PUSH1 0x4 DUP1 CALLDATASIZE SUB DUP2 ADD SWAP1 PUSH2 0xD2 SWAP2 SWAP1 PUSH2 0xFDC JUMP JUMPDEST PUSH2 0x216 JUMP JUMPDEST PUSH1 0x40 MLOAD PUSH2 0xE4 SWAP2 SWAP1 PUSH2 0x1067 JUMP JUMPDEST PUSH1 0x40 MLOAD DUP1 SWAP2 SUB SWAP1 RETURN JUMPDEST PUSH2 0x107 PUSH1 0x4 DUP1 CALLDATASIZE SUB DUP2 ADD SWAP1 PUSH2 0x102 SWAP2 SWAP1 PUSH2 0xFDC JUMP JUMPDEST PUSH2 0x4D7 JUMP JUMPDEST PUSH1 0x40 MLOAD PUSH2 0x114 SWAP2 SWAP1 PUSH2 0x11C3 JUMP JUMPDEST PUSH1 0x40 MLOAD DUP1 SWAP2 SUB SWAP1 RETURN JUMPDEST PUSH2 0x137 PUSH1 0x4 DUP1 CALLDATASIZE SUB DUP2 ADD SWAP1 PUSH2 0x132 SWAP2 SWAP1 PUSH2 0xFDC JUMP JUMPDEST PUSH2 0x5FC JUMP JUMPDEST PUSH1 0x40 MLOAD PUSH2 0x144 SWAP2 SWAP1 PUSH2 0x1067 JUMP JUMPDEST PUSH1 0x40 MLOAD DUP1 SWAP2 SUB SWAP1 RETURN JUMPDEST PUSH1 0x0 DUP2 PUSH1 0x40 MLOAD PUSH1 0x20 ADD PUSH2 0x160 SWAP2 SWAP1 PUSH2 0x1221 JUMP JUMPDEST PUSH1 0x40 MLOAD PUSH1 0x20 DUP2 DUP4 SUB SUB DUP2 MSTORE SWAP1 PUSH1 0x40 MSTORE DUP1 MLOAD SWAP1 PUSH1 0x20 ADD KECCAK256 DUP4 PUSH1 0x40 MLOAD PUSH1 0x20 ADD PUSH2 0x187 SWAP2 SWAP1 PUSH2 0x1221 JUMP JUMPDEST PUSH1 0x40 MLOAD PUSH1 0x20 DUP2 DUP4 SUB SUB DUP2 MSTORE SWAP1 PUSH1 0x40 MSTORE DUP1 MLOAD SWAP1 PUSH1 0x20 ADD KECCAK256 SUB PUSH2 0x1AB JUMPI PUSH1 0x1 SWAP1 POP PUSH2 0x1B0 JUMP JUMPDEST PUSH1 0x0 SWAP1 POP JUMPDEST SWAP3 SWAP2 POP POP JUMP JUMPDEST PUSH1 0x0 DUP1 PUSH1 0x0 DUP4 MLOAD SUB PUSH2 0x1FB JUMPI PUSH1 0x40 MLOAD DUP1 PUSH1 0x40 ADD PUSH1 0x40 MSTORE DUP1 PUSH1 0xC DUP2 MSTORE PUSH1 0x20 ADD PUSH32 0x4120590A4220580A43205A0A0000000000000000000000000000000000000000 DUP2 MSTORE POP SWAP3 POP JUMPDEST PUSH2 0x204 DUP4 PUSH2 0x8BD JUMP JUMPDEST PUSH2 0x20D DUP5 PUSH2 0x926 JUMP JUMPDEST SWAP2 POP SWAP2 POP SWAP2 POP SWAP2 JUMP JUMPDEST PUSH1 0x0 PUSH2 0x257 DUP3 PUSH1 0x40 MLOAD DUP1 PUSH1 0x40 ADD PUSH1 0x40 MSTORE DUP1 PUSH1 0x3 DUP2 MSTORE PUSH1 0x20 ADD PUSH32 0x4120580000000000000000000000000000000000000000000000000000000000 DUP2 MSTORE POP PUSH2 0x14D JUMP JUMPDEST ISZERO PUSH2 0x265 JUMPI PUSH1 0x4 SWAP1 POP PUSH2 0x4D2 JUMP JUMPDEST PUSH2 0x2A4 DUP3 PUSH1 0x40 MLOAD DUP1 PUSH1 0x40 ADD PUSH1 0x40 MSTORE DUP1 PUSH1 0x3 DUP2 MSTORE PUSH1 0x20 ADD PUSH32 0x4120590000000000000000000000000000000000000000000000000000000000 DUP2 MSTORE POP PUSH2 0x14D JUMP JUMPDEST ISZERO PUSH2 0x2B2 JUMPI PUSH1 0x8 SWAP1 POP PUSH2 0x4D2 JUMP JUMPDEST PUSH2 0x2F1 DUP3 PUSH1 0x40 MLOAD DUP1 PUSH1 0x40 ADD PUSH1 0x40 MSTORE DUP1 PUSH1 0x3 DUP2 MSTORE PUSH1 0x20 ADD PUSH32 0x41205A0000000000000000000000000000000000000000000000000000000000 DUP2 MSTORE POP PUSH2 0x14D JUMP JUMPDEST ISZERO PUSH2 0x2FF JUMPI PUSH1 0x3 SWAP1 POP PUSH2 0x4D2 JUMP JUMPDEST PUSH2 0x33E DUP3 PUSH1 0x40 MLOAD DUP1 PUSH1 0x40 ADD PUSH1 0x40 MSTORE DUP1 PUSH1 0x3 DUP2 MSTORE PUSH1 0x20 ADD PUSH32 0x4220580000000000000000000000000000000000000000000000000000000000 DUP2 MSTORE POP PUSH2 0x14D JUMP JUMPDEST ISZERO PUSH2 0x34C JUMPI PUSH1 0x1 SWAP1 POP PUSH2 0x4D2 JUMP JUMPDEST PUSH2 0x38B DUP3 PUSH1 0x40 MLOAD DUP1 PUSH1 0x40 ADD PUSH1 0x40 MSTORE DUP1 PUSH1 0x3 DUP2 MSTORE PUSH1 0x20 ADD PUSH32 0x4220590000000000000000000000000000000000000000000000000000000000 DUP2 MSTORE POP PUSH2 0x14D JUMP JUMPDEST ISZERO PUSH2 0x399 JUMPI PUSH1 0x5 SWAP1 POP PUSH2 0x4D2 JUMP JUMPDEST PUSH2 0x3D8 DUP3 PUSH1 0x40 MLOAD DUP1 PUSH1 0x40 ADD PUSH1 0x40 MSTORE DUP1 PUSH1 0x3 DUP2 MSTORE PUSH1 0x20 ADD PUSH32 0x42205A0000000000000000000000000000000000000000000000000000000000 DUP2 MSTORE POP PUSH2 0x14D JUMP JUMPDEST ISZERO PUSH2 0x3E6 JUMPI PUSH1 0x9 SWAP1 POP PUSH2 0x4D2 JUMP JUMPDEST PUSH2 0x425 DUP3 PUSH1 0x40 MLOAD DUP1 PUSH1 0x40 ADD PUSH1 0x40 MSTORE DUP1 PUSH1 0x3 DUP2 MSTORE PUSH1 0x20 ADD PUSH32 0x4320580000000000000000000000000000000000000000000000000000000000 DUP2 MSTORE POP PUSH2 0x14D JUMP JUMPDEST ISZERO PUSH2 0x433 JUMPI PUSH1 0x7 SWAP1 POP PUSH2 0x4D2 JUMP JUMPDEST PUSH2 0x472 DUP3 PUSH1 0x40 MLOAD DUP1 PUSH1 0x40 ADD PUSH1 0x40 MSTORE DUP1 PUSH1 0x3 DUP2 MSTORE PUSH1 0x20 ADD PUSH32 0x4320590000000000000000000000000000000000000000000000000000000000 DUP2 MSTORE POP PUSH2 0x14D JUMP JUMPDEST ISZERO PUSH2 0x480 JUMPI PUSH1 0x2 SWAP1 POP PUSH2 0x4D2 JUMP JUMPDEST PUSH2 0x4BF DUP3 PUSH1 0x40 MLOAD DUP1 PUSH1 0x40 ADD PUSH1 0x40 MSTORE DUP1 PUSH1 0x3 DUP2 MSTORE PUSH1 0x20 ADD PUSH32 0x43205A0000000000000000000000000000000000000000000000000000000000 DUP2 MSTORE POP PUSH2 0x14D JUMP JUMPDEST ISZERO PUSH2 0x4CD JUMPI PUSH1 0x6 SWAP1 POP PUSH2 0x4D2 JUMP JUMPDEST PUSH1 0x0 SWAP1 POP JUMPDEST SWAP2 SWAP1 POP JUMP JUMPDEST PUSH1 0x60 PUSH1 0x0 PUSH2 0x4E4 DUP4 PUSH2 0x98F JUMP JUMPDEST SWAP1 POP PUSH1 0x0 PUSH2 0x526 PUSH1 0x40 MLOAD DUP1 PUSH1 0x40 ADD PUSH1 0x40 MSTORE DUP1 PUSH1 0x1 DUP2 MSTORE PUSH1 0x20 ADD PUSH32 0xA00000000000000000000000000000000000000000000000000000000000000 DUP2 MSTORE POP PUSH2 0x98F JUMP JUMPDEST SWAP1 POP PUSH1 0x0 PUSH1 0x1 PUSH2 0x53F DUP4 DUP6 PUSH2 0x9BD SWAP1 SWAP2 SWAP1 PUSH4 0xFFFFFFFF AND JUMP JUMPDEST PUSH2 0x549 SWAP2 SWAP1 PUSH2 0x1267 JUMP JUMPDEST PUSH8 0xFFFFFFFFFFFFFFFF DUP2 GT ISZERO PUSH2 0x562 JUMPI PUSH2 0x561 PUSH2 0xE03 JUMP JUMPDEST JUMPDEST PUSH1 0x40 MLOAD SWAP1 DUP1 DUP3 MSTORE DUP1 PUSH1 0x20 MUL PUSH1 0x20 ADD DUP3 ADD PUSH1 0x40 MSTORE DUP1 ISZERO PUSH2 0x595 JUMPI DUP2 PUSH1 0x20 ADD JUMPDEST PUSH1 0x60 DUP2 MSTORE PUSH1 0x20 ADD SWAP1 PUSH1 0x1 SWAP1 SUB SWAP1 DUP2 PUSH2 0x580 JUMPI SWAP1 POP JUMPDEST POP SWAP1 POP PUSH1 0x0 JUMPDEST DUP2 MLOAD DUP2 LT ISZERO PUSH2 0x5F0 JUMPI PUSH2 0x5BF PUSH2 0x5BA DUP5 DUP7 PUSH2 0xA65 SWAP1 SWAP2 SWAP1 PUSH4 0xFFFFFFFF AND JUMP JUMPDEST PUSH2 0xA7F JUMP JUMPDEST DUP3 DUP3 DUP2 MLOAD DUP2 LT PUSH2 0x5D2 JUMPI PUSH2 0x5D1 PUSH2 0x129B JUMP JUMPDEST JUMPDEST PUSH1 0x20 MUL PUSH1 0x20 ADD ADD DUP2 SWAP1 MSTORE POP DUP1 DUP1 PUSH2 0x5E8 SWAP1 PUSH2 0x12CA JUMP JUMPDEST SWAP2 POP POP PUSH2 0x59B JUMP JUMPDEST POP DUP1 SWAP4 POP POP POP POP SWAP2 SWAP1 POP JUMP JUMPDEST PUSH1 0x0 PUSH2 0x63D DUP3 PUSH1 0x40 MLOAD DUP1 PUSH1 0x40 ADD PUSH1 0x40 MSTORE DUP1 PUSH1 0x3 DUP2 MSTORE PUSH1 0x20 ADD PUSH32 0x4120580000000000000000000000000000000000000000000000000000000000 DUP2 MSTORE POP PUSH2 0x14D JUMP JUMPDEST ISZERO PUSH2 0x64B JUMPI PUSH1 0x3 SWAP1 POP PUSH2 0x8B8 JUMP JUMPDEST PUSH2 0x68A DUP3 PUSH1 0x40 MLOAD DUP1 PUSH1 0x40 ADD PUSH1 0x40 MSTORE DUP1 PUSH1 0x3 DUP2 MSTORE PUSH1 0x20 ADD PUSH32 0x4120590000000000000000000000000000000000000000000000000000000000 DUP2 MSTORE POP PUSH2 0x14D JUMP JUMPDEST ISZERO PUSH2 0x698 JUMPI PUSH1 0x4 SWAP1 POP PUSH2 0x8B8 JUMP JUMPDEST PUSH2 0x6D7 DUP3 PUSH1 0x40 MLOAD DUP1 PUSH1 0x40 ADD PUSH1 0x40 MSTORE DUP1 PUSH1 0x3 DUP2 MSTORE PUSH1 0x20 ADD PUSH32 0x41205A0000000000000000000000000000000000000000000000000000000000 DUP2 MSTORE POP PUSH2 0x14D JUMP JUMPDEST ISZERO PUSH2 0x6E5 JUMPI PUSH1 0x8 SWAP1 POP PUSH2 0x8B8 JUMP JUMPDEST PUSH2 0x724 DUP3 PUSH1 0x40 MLOAD DUP1 PUSH1 0x40 ADD PUSH1 0x40 MSTORE DUP1 PUSH1 0x3 DUP2 MSTORE PUSH1 0x20 ADD PUSH32 0x4220580000000000000000000000000000000000000000000000000000000000 DUP2 MSTORE POP PUSH2 0x14D JUMP JUMPDEST ISZERO PUSH2 0x732 JUMPI PUSH1 0x1 SWAP1 POP PUSH2 0x8B8 JUMP JUMPDEST PUSH2 0x771 DUP3 PUSH1 0x40 MLOAD DUP1 PUSH1 0x40 ADD PUSH1 0x40 MSTORE DUP1 PUSH1 0x3 DUP2 MSTORE PUSH1 0x20 ADD PUSH32 0x4220590000000000000000000000000000000000000000000000000000000000 DUP2 MSTORE POP PUSH2 0x14D JUMP JUMPDEST ISZERO PUSH2 0x77F JUMPI PUSH1 0x5 SWAP1 POP PUSH2 0x8B8 JUMP JUMPDEST PUSH2 0x7BE DUP3 PUSH1 0x40 MLOAD DUP1 PUSH1 0x40 ADD PUSH1 0x40 MSTORE DUP1 PUSH1 0x3 DUP2 MSTORE PUSH1 0x20 ADD PUSH32 0x42205A0000000000000000000000000000000000000000000000000000000000 DUP2 MSTORE POP PUSH2 0x14D JUMP JUMPDEST ISZERO PUSH2 0x7CC JUMPI PUSH1 0x9 SWAP1 POP PUSH2 0x8B8 JUMP JUMPDEST PUSH2 0x80B DUP3 PUSH1 0x40 MLOAD DUP1 PUSH1 0x40 ADD PUSH1 0x40 MSTORE DUP1 PUSH1 0x3 DUP2 MSTORE PUSH1 0x20 ADD PUSH32 0x4320580000000000000000000000000000000000000000000000000000000000 DUP2 MSTORE POP PUSH2 0x14D JUMP JUMPDEST ISZERO PUSH2 0x819 JUMPI PUSH1 0x2 SWAP1 POP PUSH2 0x8B8 JUMP JUMPDEST PUSH2 0x858 DUP3 PUSH1 0x40 MLOAD DUP1 PUSH1 0x40 ADD PUSH1 0x40 MSTORE DUP1 PUSH1 0x3 DUP2 MSTORE PUSH1 0x20 ADD PUSH32 0x4320590000000000000000000000000000000000000000000000000000000000 DUP2 MSTORE POP PUSH2 0x14D JUMP JUMPDEST ISZERO PUSH2 0x866 JUMPI PUSH1 0x6 SWAP1 POP PUSH2 0x8B8 JUMP JUMPDEST PUSH2 0x8A5 DUP3 PUSH1 0x40 MLOAD DUP1 PUSH1 0x40 ADD PUSH1 0x40 MSTORE DUP1 PUSH1 0x3 DUP2 MSTORE PUSH1 0x20 ADD PUSH32 0x43205A0000000000000000000000000000000000000000000000000000000000 DUP2 MSTORE POP PUSH2 0x14D JUMP JUMPDEST ISZERO PUSH2 0x8B3 JUMPI PUSH1 0x7 SWAP1 POP PUSH2 0x8B8 JUMP JUMPDEST PUSH1 0x0 SWAP1 POP JUMPDEST SWAP2 SWAP1 POP JUMP JUMPDEST PUSH1 0x0 DUP1 PUSH2 0x8C9 DUP4 PUSH2 0x4D7 JUMP JUMPDEST SWAP1 POP PUSH1 0x0 DUP1 JUMPDEST DUP3 MLOAD DUP2 LT ISZERO PUSH2 0x91B JUMPI PUSH2 0x8FB DUP4 DUP3 DUP2 MLOAD DUP2 LT PUSH2 0x8EE JUMPI PUSH2 0x8ED PUSH2 0x129B JUMP JUMPDEST JUMPDEST PUSH1 0x20 MUL PUSH1 0x20 ADD ADD MLOAD PUSH2 0x216 JUMP JUMPDEST DUP3 PUSH2 0x906 SWAP2 SWAP1 PUSH2 0x1267 JUMP JUMPDEST SWAP2 POP DUP1 DUP1 PUSH2 0x913 SWAP1 PUSH2 0x12CA JUMP JUMPDEST SWAP2 POP POP PUSH2 0x8CF JUMP JUMPDEST POP DUP1 SWAP3 POP POP POP SWAP2 SWAP1 POP JUMP JUMPDEST PUSH1 0x0 DUP1 PUSH2 0x932 DUP4 PUSH2 0x4D7 JUMP JUMPDEST SWAP1 POP PUSH1 0x0 DUP1 JUMPDEST DUP3 MLOAD DUP2 LT ISZERO PUSH2 0x984 JUMPI PUSH2 0x964 DUP4 DUP3 DUP2 MLOAD DUP2 LT PUSH2 0x957 JUMPI PUSH2 0x956 PUSH2 0x129B JUMP JUMPDEST JUMPDEST PUSH1 0x20 MUL PUSH1 0x20 ADD ADD MLOAD PUSH2 0x5FC JUMP JUMPDEST DUP3 PUSH2 0x96F SWAP2 SWAP1 PUSH2 0x1267 JUMP JUMPDEST SWAP2 POP DUP1 DUP1 PUSH2 0x97C SWAP1 PUSH2 0x12CA JUMP JUMPDEST SWAP2 POP POP PUSH2 0x938 JUMP JUMPDEST POP DUP1 SWAP3 POP POP POP SWAP2 SWAP1 POP JUMP JUMPDEST PUSH2 0x997 PUSH2 0xDBA JUMP JUMPDEST PUSH1 0x0 PUSH1 0x20 DUP4 ADD SWAP1 POP PUSH1 0x40 MLOAD DUP1 PUSH1 0x40 ADD PUSH1 0x40 MSTORE DUP1 DUP5 MLOAD DUP2 MSTORE PUSH1 0x20 ADD DUP3 DUP2 MSTORE POP SWAP2 POP POP SWAP2 SWAP1 POP JUMP JUMPDEST PUSH1 0x0 DUP1 DUP3 PUSH1 0x0 ADD MLOAD PUSH2 0x9E1 DUP6 PUSH1 0x0 ADD MLOAD DUP7 PUSH1 0x20 ADD MLOAD DUP7 PUSH1 0x0 ADD MLOAD DUP8 PUSH1 0x20 ADD MLOAD PUSH2 0xAFB JUMP JUMPDEST PUSH2 0x9EB SWAP2 SWAP1 PUSH2 0x1267 JUMP JUMPDEST SWAP1 POP JUMPDEST DUP4 PUSH1 0x0 ADD MLOAD DUP5 PUSH1 0x20 ADD MLOAD PUSH2 0xA02 SWAP2 SWAP1 PUSH2 0x1267 JUMP JUMPDEST DUP2 GT PUSH2 0xA5E JUMPI DUP2 DUP1 PUSH2 0xA13 SWAP1 PUSH2 0x12CA JUMP JUMPDEST SWAP3 POP POP DUP3 PUSH1 0x0 ADD MLOAD PUSH2 0xA4D DUP6 PUSH1 0x20 ADD MLOAD DUP4 PUSH2 0xA2E SWAP2 SWAP1 PUSH2 0x1312 JUMP JUMPDEST DUP7 PUSH1 0x0 ADD MLOAD PUSH2 0xA3D SWAP2 SWAP1 PUSH2 0x1312 JUMP JUMPDEST DUP4 DUP7 PUSH1 0x0 ADD MLOAD DUP8 PUSH1 0x20 ADD MLOAD PUSH2 0xAFB JUMP JUMPDEST PUSH2 0xA57 SWAP2 SWAP1 PUSH2 0x1267 JUMP JUMPDEST SWAP1 POP PUSH2 0x9EE JUMP JUMPDEST POP SWAP3 SWAP2 POP POP JUMP JUMPDEST PUSH2 0xA6D PUSH2 0xDBA JUMP JUMPDEST PUSH2 0xA78 DUP4 DUP4 DUP4 PUSH2 0xC44 JUMP JUMPDEST POP SWAP3 SWAP2 POP POP JUMP JUMPDEST PUSH1 0x60 PUSH1 0x0 DUP3 PUSH1 0x0 ADD MLOAD PUSH8 0xFFFFFFFFFFFFFFFF DUP2 GT ISZERO PUSH2 0xAA1 JUMPI PUSH2 0xAA0 PUSH2 0xE03 JUMP JUMPDEST JUMPDEST PUSH1 0x40 MLOAD SWAP1 DUP1 DUP3 MSTORE DUP1 PUSH1 0x1F ADD PUSH1 0x1F NOT AND PUSH1 0x20 ADD DUP3 ADD PUSH1 0x40 MSTORE DUP1 ISZERO PUSH2 0xAD3 JUMPI DUP2 PUSH1 0x20 ADD PUSH1 0x1 DUP3 MUL DUP1 CALLDATASIZE DUP4 CALLDATACOPY DUP1 DUP3 ADD SWAP2 POP POP SWAP1 POP JUMPDEST POP SWAP1 POP PUSH1 0x0 PUSH1 0x20 DUP3 ADD SWAP1 POP PUSH2 0xAF1 DUP2 DUP6 PUSH1 0x20 ADD MLOAD DUP7 PUSH1 0x0 ADD MLOAD PUSH2 0xD0E JUMP JUMPDEST DUP2 SWAP3 POP POP POP SWAP2 SWAP1 POP JUMP JUMPDEST PUSH1 0x0 DUP1 DUP5 SWAP1 POP PUSH1 0x0 DUP7 DUP6 GT PUSH2 0xC2B JUMPI PUSH1 0x20 DUP6 GT PUSH2 0xBCE JUMPI PUSH1 0x0 DUP1 DUP7 GT ISZERO PUSH2 0xB54 JUMPI PUSH1 0x1 DUP7 PUSH1 0x20 PUSH2 0xB2B SWAP2 SWAP1 PUSH2 0x1312 JUMP JUMPDEST PUSH1 0x8 PUSH2 0xB37 SWAP2 SWAP1 PUSH2 0x1346 JUMP JUMPDEST PUSH1 0x2 PUSH2 0xB43 SWAP2 SWAP1 PUSH2 0x14BB JUMP JUMPDEST PUSH2 0xB4D SWAP2 SWAP1 PUSH2 0x1312 JUMP JUMPDEST NOT PUSH1 0x0 SHL SWAP1 POP JUMPDEST PUSH1 0x0 DUP2 DUP7 MLOAD AND SWAP1 POP PUSH1 0x0 DUP8 DUP11 DUP11 PUSH2 0xB6B SWAP2 SWAP1 PUSH2 0x1267 JUMP JUMPDEST PUSH2 0xB75 SWAP2 SWAP1 PUSH2 0x1312 JUMP JUMPDEST SWAP1 POP PUSH1 0x0 DUP4 DUP7 MLOAD AND SWAP1 POP JUMPDEST DUP3 DUP2 EQ PUSH2 0xBC0 JUMPI DUP2 DUP7 LT PUSH2 0xBA7 JUMPI DUP11 DUP11 PUSH2 0xB9A SWAP2 SWAP1 PUSH2 0x1267 JUMP JUMPDEST SWAP7 POP POP POP POP POP POP POP PUSH2 0xC3C JUMP JUMPDEST DUP6 DUP1 PUSH2 0xBB2 SWAP1 PUSH2 0x12CA JUMP JUMPDEST SWAP7 POP POP DUP4 DUP7 MLOAD AND SWAP1 POP PUSH2 0xB80 JUMP JUMPDEST DUP6 SWAP7 POP POP POP POP POP POP POP PUSH2 0xC3C JUMP JUMPDEST PUSH1 0x0 DUP6 DUP6 KECCAK256 SWAP1 POP PUSH1 0x0 SWAP2 POP JUMPDEST DUP6 DUP9 PUSH2 0xBE6 SWAP2 SWAP1 PUSH2 0x1312 JUMP JUMPDEST DUP3 GT PUSH2 0xC29 JUMPI PUSH1 0x0 DUP7 DUP5 KECCAK256 SWAP1 POP DUP1 DUP3 SUB PUSH2 0xC06 JUMPI DUP4 SWAP5 POP POP POP POP POP PUSH2 0xC3C JUMP JUMPDEST PUSH1 0x1 DUP5 PUSH2 0xC13 SWAP2 SWAP1 PUSH2 0x1267 JUMP JUMPDEST SWAP4 POP POP DUP2 DUP1 PUSH2 0xC21 SWAP1 PUSH2 0x12CA JUMP JUMPDEST SWAP3 POP POP PUSH2 0xBDA JUMP JUMPDEST POP JUMPDEST DUP7 DUP7 PUSH2 0xC37 SWAP2 SWAP1 PUSH2 0x1267 JUMP JUMPDEST SWAP3 POP POP POP JUMPDEST SWAP5 SWAP4 POP POP POP POP JUMP JUMPDEST PUSH2 0xC4C PUSH2 0xDBA JUMP JUMPDEST PUSH1 0x0 PUSH2 0xC6A DUP6 PUSH1 0x0 ADD MLOAD DUP7 PUSH1 0x20 ADD MLOAD DUP7 PUSH1 0x0 ADD MLOAD DUP8 PUSH1 0x20 ADD MLOAD PUSH2 0xAFB JUMP JUMPDEST SWAP1 POP DUP5 PUSH1 0x20 ADD MLOAD DUP4 PUSH1 0x20 ADD DUP2 DUP2 MSTORE POP POP DUP5 PUSH1 0x20 ADD MLOAD DUP2 PUSH2 0xC8A SWAP2 SWAP1 PUSH2 0x1312 JUMP JUMPDEST DUP4 PUSH1 0x0 ADD DUP2 DUP2 MSTORE POP POP DUP5 PUSH1 0x0 ADD MLOAD DUP6 PUSH1 0x20 ADD MLOAD PUSH2 0xCA7 SWAP2 SWAP1 PUSH2 0x1267 JUMP JUMPDEST DUP2 SUB PUSH2 0xCBD JUMPI PUSH1 0x0 DUP6 PUSH1 0x0 ADD DUP2 DUP2 MSTORE POP POP PUSH2 0xD03 JUMP JUMPDEST DUP4 PUSH1 0x0 ADD MLOAD DUP4 PUSH1 0x0 ADD MLOAD PUSH2 0xCD1 SWAP2 SWAP1 PUSH2 0x1267 JUMP JUMPDEST DUP6 PUSH1 0x0 ADD DUP2 DUP2 MLOAD PUSH2 0xCE2 SWAP2 SWAP1 PUSH2 0x1312 JUMP JUMPDEST SWAP2 POP DUP2 DUP2 MSTORE POP POP DUP4 PUSH1 0x0 ADD MLOAD DUP2 PUSH2 0xCF9 SWAP2 SWAP1 PUSH2 0x1267 JUMP JUMPDEST DUP6 PUSH1 0x20 ADD DUP2 DUP2 MSTORE POP POP JUMPDEST DUP3 SWAP2 POP POP SWAP4 SWAP3 POP POP POP JUMP JUMPDEST JUMPDEST PUSH1 0x20 DUP2 LT PUSH2 0xD4D JUMPI DUP2 MLOAD DUP4 MSTORE PUSH1 0x20 DUP4 PUSH2 0xD28 SWAP2 SWAP1 PUSH2 0x1267 JUMP JUMPDEST SWAP3 POP PUSH1 0x20 DUP3 PUSH2 0xD37 SWAP2 SWAP1 PUSH2 0x1267 JUMP JUMPDEST SWAP2 POP PUSH1 0x20 DUP2 PUSH2 0xD46 SWAP2 SWAP1 PUSH2 0x1312 JUMP JUMPDEST SWAP1 POP PUSH2 0xD0F JUMP JUMPDEST PUSH1 0x0 PUSH32 0xFFFFFFFFFFFFFFFFFFFFFFFFFFFFFFFFFFFFFFFFFFFFFFFFFFFFFFFFFFFFFFFF SWAP1 POP PUSH1 0x0 DUP3 GT ISZERO PUSH2 0xDA4 JUMPI PUSH1 0x1 DUP3 PUSH1 0x20 PUSH2 0xD8A SWAP2 SWAP1 PUSH2 0x1312 JUMP JUMPDEST PUSH2 0x100 PUSH2 0xD97 SWAP2 SWAP1 PUSH2 0x14BB JUMP JUMPDEST PUSH2 0xDA1 SWAP2 SWAP1 PUSH2 0x1312 JUMP JUMPDEST SWAP1 POP JUMPDEST DUP1 NOT DUP4 MLOAD AND DUP2 DUP6 MLOAD AND DUP2 DUP2 OR DUP7 MSTORE POP POP POP POP POP POP JUMP JUMPDEST PUSH1 0x40 MLOAD DUP1 PUSH1 0x40 ADD PUSH1 0x40 MSTORE DUP1 PUSH1 0x0 DUP2 MSTORE PUSH1 0x20 ADD PUSH1 0x0 DUP2 MSTORE POP SWAP1 JUMP JUMPDEST PUSH1 0x0 PUSH1 0x40 MLOAD SWAP1 POP SWAP1 JUMP JUMPDEST PUSH1 0x0 DUP1 REVERT JUMPDEST PUSH1 0x0 DUP1 REVERT JUMPDEST PUSH1 0x0 DUP1 REVERT JUMPDEST PUSH1 0x0 DUP1 REVERT JUMPDEST PUSH1 0x0 PUSH1 0x1F NOT PUSH1 0x1F DUP4 ADD AND SWAP1 POP SWAP2 SWAP1 POP JUMP JUMPDEST PUSH32 0x4E487B7100000000000000000000000000000000000000000000000000000000 PUSH1 0x0 MSTORE PUSH1 0x41 PUSH1 0x4 MSTORE PUSH1 0x24 PUSH1 0x0 REVERT JUMPDEST PUSH2 0xE3B DUP3 PUSH2 0xDF2 JUMP JUMPDEST DUP2 ADD DUP2 DUP2 LT PUSH8 0xFFFFFFFFFFFFFFFF DUP3 GT OR ISZERO PUSH2 0xE5A JUMPI PUSH2 0xE59 PUSH2 0xE03 JUMP JUMPDEST JUMPDEST DUP1 PUSH1 0x40 MSTORE POP POP POP JUMP JUMPDEST PUSH1 0x0 PUSH2 0xE6D PUSH2 0xDD4 JUMP JUMPDEST SWAP1 POP PUSH2 0xE79 DUP3 DUP3 PUSH2 0xE32 JUMP JUMPDEST SWAP2 SWAP1 POP JUMP JUMPDEST PUSH1 0x0 PUSH8 0xFFFFFFFFFFFFFFFF DUP3 GT ISZERO PUSH2 0xE99 JUMPI PUSH2 0xE98 PUSH2 0xE03 JUMP JUMPDEST JUMPDEST PUSH2 0xEA2 DUP3 PUSH2 0xDF2 JUMP JUMPDEST SWAP1 POP PUSH1 0x20 DUP2 ADD SWAP1 POP SWAP2 SWAP1 POP JUMP JUMPDEST DUP3 DUP2 DUP4 CALLDATACOPY PUSH1 0x0 DUP4 DUP4 ADD MSTORE POP POP POP JUMP JUMPDEST PUSH1 0x0 PUSH2 0xED1 PUSH2 0xECC DUP5 PUSH2 0xE7E JUMP JUMPDEST PUSH2 0xE63 JUMP JUMPDEST SWAP1 POP DUP3 DUP2 MSTORE PUSH1 0x20 DUP2 ADD DUP5 DUP5 DUP5 ADD GT ISZERO PUSH2 0xEED JUMPI PUSH2 0xEEC PUSH2 0xDED JUMP JUMPDEST JUMPDEST PUSH2 0xEF8 DUP5 DUP3 DUP6 PUSH2 0xEAF JUMP JUMPDEST POP SWAP4 SWAP3 POP POP POP JUMP JUMPDEST PUSH1 0x0 DUP3 PUSH1 0x1F DUP4 ADD SLT PUSH2 0xF15 JUMPI PUSH2 0xF14 PUSH2 0xDE8 JUMP JUMPDEST JUMPDEST DUP2 CALLDATALOAD PUSH2 0xF25 DUP5 DUP3 PUSH1 0x20 DUP7 ADD PUSH2 0xEBE JUMP JUMPDEST SWAP2 POP POP SWAP3 SWAP2 POP POP JUMP JUMPDEST PUSH1 0x0 DUP1 PUSH1 0x40 DUP4 DUP6 SUB SLT ISZERO PUSH2 0xF45 JUMPI PUSH2 0xF44 PUSH2 0xDDE JUMP JUMPDEST JUMPDEST PUSH1 0x0 DUP4 ADD CALLDATALOAD PUSH8 0xFFFFFFFFFFFFFFFF DUP2 GT ISZERO PUSH2 0xF63 JUMPI PUSH2 0xF62 PUSH2 0xDE3 JUMP JUMPDEST JUMPDEST PUSH2 0xF6F DUP6 DUP3 DUP7 ADD PUSH2 0xF00 JUMP JUMPDEST SWAP3 POP POP PUSH1 0x20 DUP4 ADD CALLDATALOAD PUSH8 0xFFFFFFFFFFFFFFFF DUP2 GT ISZERO PUSH2 0xF90 JUMPI PUSH2 0xF8F PUSH2 0xDE3 JUMP JUMPDEST JUMPDEST PUSH2 0xF9C DUP6 DUP3 DUP7 ADD PUSH2 0xF00 JUMP JUMPDEST SWAP2 POP POP SWAP3 POP SWAP3 SWAP1 POP JUMP JUMPDEST PUSH1 0x0 DUP2 ISZERO ISZERO SWAP1 POP SWAP2 SWAP1 POP JUMP JUMPDEST PUSH2 0xFBB DUP2 PUSH2 0xFA6 JUMP JUMPDEST DUP3 MSTORE POP POP JUMP JUMPDEST PUSH1 0x0 PUSH1 0x20 DUP3 ADD SWAP1 POP PUSH2 0xFD6 PUSH1 0x0 DUP4 ADD DUP5 PUSH2 0xFB2 JUMP JUMPDEST SWAP3 SWAP2 POP POP JUMP JUMPDEST PUSH1 0x0 PUSH1 0x20 DUP3 DUP5 SUB SLT ISZERO PUSH2 0xFF2 JUMPI PUSH2 0xFF1 PUSH2 0xDDE JUMP JUMPDEST JUMPDEST PUSH1 0x0 DUP3 ADD CALLDATALOAD PUSH8 0xFFFFFFFFFFFFFFFF DUP2 GT ISZERO PUSH2 0x1010 JUMPI PUSH2 0x100F PUSH2 0xDE3 JUMP JUMPDEST JUMPDEST PUSH2 0x101C DUP5 DUP3 DUP6 ADD PUSH2 0xF00 JUMP JUMPDEST SWAP2 POP POP SWAP3 SWAP2 POP POP JUMP JUMPDEST PUSH1 0x0 DUP2 SWAP1 POP SWAP2 SWAP1 POP JUMP JUMPDEST PUSH2 0x1038 DUP2 PUSH2 0x1025 JUMP JUMPDEST DUP3 MSTORE POP POP JUMP JUMPDEST PUSH1 0x0 PUSH1 0x40 DUP3 ADD SWAP1 POP PUSH2 0x1053 PUSH1 0x0 DUP4 ADD DUP6 PUSH2 0x102F JUMP JUMPDEST PUSH2 0x1060 PUSH1 0x20 DUP4 ADD DUP5 PUSH2 0x102F JUMP JUMPDEST SWAP4 SWAP3 POP POP POP JUMP JUMPDEST PUSH1 0x0 PUSH1 0x20 DUP3 ADD SWAP1 POP PUSH2 0x107C PUSH1 0x0 DUP4 ADD DUP5 PUSH2 0x102F JUMP JUMPDEST SWAP3 SWAP2 POP POP JUMP JUMPDEST PUSH1 0x0 DUP2 MLOAD SWAP1 POP SWAP2 SWAP1 POP JUMP JUMPDEST PUSH1 0x0 DUP3 DUP3 MSTORE PUSH1 0x20 DUP3 ADD SWAP1 POP SWAP3 SWAP2 POP POP JUMP JUMPDEST PUSH1 0x0 DUP2 SWAP1 POP PUSH1 0x20 DUP3 ADD SWAP1 POP SWAP2 SWAP1 POP JUMP JUMPDEST PUSH1 0x0 DUP2 MLOAD SWAP1 POP SWAP2 SWAP1 POP JUMP JUMPDEST PUSH1 0x0 DUP3 DUP3 MSTORE PUSH1 0x20 DUP3 ADD SWAP1 POP SWAP3 SWAP2 POP POP JUMP JUMPDEST PUSH1 0x0 JUMPDEST DUP4 DUP2 LT ISZERO PUSH2 0x10E8 JUMPI DUP1 DUP3 ADD MLOAD DUP2 DUP5 ADD MSTORE PUSH1 0x20 DUP2 ADD SWAP1 POP PUSH2 0x10CD JUMP JUMPDEST PUSH1 0x0 DUP5 DUP5 ADD MSTORE POP POP POP POP JUMP JUMPDEST PUSH1 0x0 PUSH2 0x10FF DUP3 PUSH2 0x10AE JUMP JUMPDEST PUSH2 0x1109 DUP2 DUP6 PUSH2 0x10B9 JUMP JUMPDEST SWAP4 POP PUSH2 0x1119 DUP2 DUP6 PUSH1 0x20 DUP7 ADD PUSH2 0x10CA JUMP JUMPDEST PUSH2 0x1122 DUP2 PUSH2 0xDF2 JUMP JUMPDEST DUP5 ADD SWAP2 POP POP SWAP3 SWAP2 POP POP JUMP JUMPDEST PUSH1 0x0 PUSH2 0x1139 DUP4 DUP4 PUSH2 0x10F4 JUMP JUMPDEST SWAP1 POP SWAP3 SWAP2 POP POP JUMP JUMPDEST PUSH1 0x0 PUSH1 0x20 DUP3 ADD SWAP1 POP SWAP2 SWAP1 POP JUMP JUMPDEST PUSH1 0x0 PUSH2 0x1159 DUP3 PUSH2 0x1082 JUMP JUMPDEST PUSH2 0x1163 DUP2 DUP6 PUSH2 0x108D JUMP JUMPDEST SWAP4 POP DUP4 PUSH1 0x20 DUP3 MUL DUP6 ADD PUSH2 0x1175 DUP6 PUSH2 0x109E JUMP JUMPDEST DUP1 PUSH1 0x0 JUMPDEST DUP6 DUP2 LT ISZERO PUSH2 0x11B1 JUMPI DUP5 DUP5 SUB DUP10 MSTORE DUP2 MLOAD PUSH2 0x1192 DUP6 DUP3 PUSH2 0x112D JUMP JUMPDEST SWAP5 POP PUSH2 0x119D DUP4 PUSH2 0x1141 JUMP JUMPDEST SWAP3 POP PUSH1 0x20 DUP11 ADD SWAP10 POP POP PUSH1 0x1 DUP2 ADD SWAP1 POP PUSH2 0x1179 JUMP JUMPDEST POP DUP3 SWAP8 POP DUP8 SWAP6 POP POP POP POP POP POP SWAP3 SWAP2 POP POP JUMP JUMPDEST PUSH1 0x0 PUSH1 0x20 DUP3 ADD SWAP1 POP DUP2 DUP2 SUB PUSH1 0x0 DUP4 ADD MSTORE PUSH2 0x11DD DUP2 DUP5 PUSH2 0x114E JUMP JUMPDEST SWAP1 POP SWAP3 SWAP2 POP POP JUMP JUMPDEST PUSH1 0x0 DUP2 SWAP1 POP SWAP3 SWAP2 POP POP JUMP JUMPDEST PUSH1 0x0 PUSH2 0x11FB DUP3 PUSH2 0x10AE JUMP JUMPDEST PUSH2 0x1205 DUP2 DUP6 PUSH2 0x11E5 JUMP JUMPDEST SWAP4 POP PUSH2 0x1215 DUP2 DUP6 PUSH1 0x20 DUP7 ADD PUSH2 0x10CA JUMP JUMPDEST DUP1 DUP5 ADD SWAP2 POP POP SWAP3 SWAP2 POP POP JUMP JUMPDEST PUSH1 0x0 PUSH2 0x122D DUP3 DUP5 PUSH2 0x11F0 JUMP JUMPDEST SWAP2 POP DUP2 SWAP1 POP SWAP3 SWAP2 POP POP JUMP JUMPDEST PUSH32 0x4E487B7100000000000000000000000000000000000000000000000000000000 PUSH1 0x0 MSTORE PUSH1 0x11 PUSH1 0x4 MSTORE PUSH1 0x24 PUSH1 0x0 REVERT JUMPDEST PUSH1 0x0 PUSH2 0x1272 DUP3 PUSH2 0x1025 JUMP JUMPDEST SWAP2 POP PUSH2 0x127D DUP4 PUSH2 0x1025 JUMP JUMPDEST SWAP3 POP DUP3 DUP3 ADD SWAP1 POP DUP1 DUP3 GT ISZERO PUSH2 0x1295 JUMPI PUSH2 0x1294 PUSH2 0x1238 JUMP JUMPDEST JUMPDEST SWAP3 SWAP2 POP POP JUMP JUMPDEST PUSH32 0x4E487B7100000000000000000000000000000000000000000000000000000000 PUSH1 0x0 MSTORE PUSH1 0x32 PUSH1 0x4 MSTORE PUSH1 0x24 PUSH1 0x0 REVERT JUMPDEST PUSH1 0x0 PUSH2 0x12D5 DUP3 PUSH2 0x1025 JUMP JUMPDEST SWAP2 POP PUSH32 0xFFFFFFFFFFFFFFFFFFFFFFFFFFFFFFFFFFFFFFFFFFFFFFFFFFFFFFFFFFFFFFFF DUP3 SUB PUSH2 0x1307 JUMPI PUSH2 0x1306 PUSH2 0x1238 JUMP JUMPDEST JUMPDEST PUSH1 0x1 DUP3 ADD SWAP1 POP SWAP2 SWAP1 POP JUMP JUMPDEST PUSH1 0x0 PUSH2 0x131D DUP3 PUSH2 0x1025 JUMP JUMPDEST SWAP2 POP PUSH2 0x1328 DUP4 PUSH2 0x1025 JUMP JUMPDEST SWAP3 POP DUP3 DUP3 SUB SWAP1 POP DUP2 DUP2 GT ISZERO PUSH2 0x1340 JUMPI PUSH2 0x133F PUSH2 0x1238 JUMP JUMPDEST JUMPDEST SWAP3 SWAP2 POP POP JUMP JUMPDEST PUSH1 0x0 PUSH2 0x1351 DUP3 PUSH2 0x1025 JUMP JUMPDEST SWAP2 POP PUSH2 0x135C DUP4 PUSH2 0x1025 JUMP JUMPDEST SWAP3 POP DUP3 DUP3 MUL PUSH2 0x136A DUP2 PUSH2 0x1025 JUMP JUMPDEST SWAP2 POP DUP3 DUP3 DIV DUP5 EQ DUP4 ISZERO OR PUSH2 0x1381 JUMPI PUSH2 0x1380 PUSH2 0x1238 JUMP JUMPDEST JUMPDEST POP SWAP3 SWAP2 POP POP JUMP JUMPDEST PUSH1 0x0 DUP2 PUSH1 0x1 SHR SWAP1 POP SWAP2 SWAP1 POP JUMP JUMPDEST PUSH1 0x0 DUP1 DUP3 SWAP2 POP DUP4 SWAP1 POP JUMPDEST PUSH1 0x1 DUP6 GT ISZERO PUSH2 0x13DF JUMPI DUP1 DUP7 DIV DUP2 GT ISZERO PUSH2 0x13BB JUMPI PUSH2 0x13BA PUSH2 0x1238 JUMP JUMPDEST JUMPDEST PUSH1 0x1 DUP6 AND ISZERO PUSH2 0x13CA JUMPI DUP1 DUP3 MUL SWAP2 POP JUMPDEST DUP1 DUP2 MUL SWAP1 POP PUSH2 0x13D8 DUP6 PUSH2 0x1388 JUMP JUMPDEST SWAP5 POP PUSH2 0x139F JUMP JUMPDEST SWAP5 POP SWAP5 SWAP3 POP POP POP JUMP JUMPDEST PUSH1 0x0 DUP3 PUSH2 0x13F8 JUMPI PUSH1 0x1 SWAP1 POP PUSH2 0x14B4 JUMP JUMPDEST DUP2 PUSH2 0x1406 JUMPI PUSH1 0x0 SWAP1 POP PUSH2 0x14B4 JUMP JUMPDEST DUP2 PUSH1 0x1 DUP2 EQ PUSH2 0x141C JUMPI PUSH1 0x2 DUP2 EQ PUSH2 0x1426 JUMPI PUSH2 0x1455 JUMP JUMPDEST PUSH1 0x1 SWAP2 POP POP PUSH2 0x14B4 JUMP JUMPDEST PUSH1 0xFF DUP5 GT ISZERO PUSH2 0x1438 JUMPI PUSH2 0x1437 PUSH2 0x1238 JUMP JUMPDEST JUMPDEST DUP4 PUSH1 0x2 EXP SWAP2 POP DUP5 DUP3 GT ISZERO PUSH2 0x144F JUMPI PUSH2 0x144E PUSH2 0x1238 JUMP JUMPDEST JUMPDEST POP PUSH2 0x14B4 JUMP JUMPDEST POP PUSH1 0x20 DUP4 LT PUSH2 0x133 DUP4 LT AND PUSH1 0x4E DUP5 LT PUSH1 0xB DUP5 LT AND OR ISZERO PUSH2 0x148A JUMPI DUP3 DUP3 EXP SWAP1 POP DUP4 DUP2 GT ISZERO PUSH2 0x1485 JUMPI PUSH2 0x1484 PUSH2 0x1238 JUMP JUMPDEST JUMPDEST PUSH2 0x14B4 JUMP JUMPDEST PUSH2 0x1497 DUP5 DUP5 DUP5 PUSH1 0x1 PUSH2 0x1395 JUMP JUMPDEST SWAP3 POP SWAP1 POP DUP2 DUP5 DIV DUP2 GT ISZERO PUSH2 0x14AE JUMPI PUSH2 0x14AD PUSH2 0x1238 JUMP JUMPDEST JUMPDEST DUP2 DUP2 MUL SWAP1 POP JUMPDEST SWAP4 SWAP3 POP POP POP JUMP JUMPDEST PUSH1 0x0 PUSH2 0x14C6 DUP3 PUSH2 0x1025 JUMP JUMPDEST SWAP2 POP PUSH2 0x14D1 DUP4 PUSH2 0x1025 JUMP JUMPDEST SWAP3 POP PUSH2 0x14FE PUSH32 0xFFFFFFFFFFFFFFFFFFFFFFFFFFFFFFFFFFFFFFFFFFFFFFFFFFFFFFFFFFFFFFFF DUP5 DUP5 PUSH2 0x13E8 JUMP JUMPDEST SWAP1 POP SWAP3 SWAP2 POP POP JUMP INVALID LOG2 PUSH5 0x6970667358 0x22 SLT KECCAK256 SWAP11 0xEA 0xB4 GASLIMIT SLOAD 0xF9 MOD PUSH22 0x55662FAF65F886CBD4DE4DCC851001838EB2AC71DC0A 0xA5 0x24 PUSH5 0x736F6C6343 STOP ADDMOD GT STOP CALLER "},"methodIdentifiers":{"calculate_score(string)":"a1edea50","calculate_score_p2(string)":"dd63aeda","first_split(string)":"a7c73fd8","main(string)":"769f204d","str_cmp(string,string)":"44b7f83c"}}}}}