{
  "_format": "hh-sol-artifact-1",
  "contractName": "Day3",
  "sourceName": "contracts/Day3.sol",
  "abi": [
    {
      "inputs": [
        {
          "internalType": "bytes1",
          "name": "char",
          "type": "bytes1"
        }
      ],
      "name": "calculate_priority",
      "outputs": [
        {
          "internalType": "uint256",
          "name": "",
          "type": "uint256"
        }
      ],
      "stateMutability": "pure",
      "type": "function"
    },
    {
      "inputs": [
        {
          "internalType": "string",
          "name": "elf1",
          "type": "string"
        },
        {
          "internalType": "string",
          "name": "elf2",
          "type": "string"
        },
        {
          "internalType": "string",
          "name": "elf3",
          "type": "string"
        }
      ],
      "name": "find_badge",
      "outputs": [
        {
          "internalType": "bytes1",
          "name": "",
          "type": "bytes1"
        }
      ],
      "stateMutability": "pure",
      "type": "function"
    },
    {
      "inputs": [
        {
          "internalType": "string",
          "name": "input",
          "type": "string"
        }
      ],
      "name": "find_dup",
      "outputs": [
        {
          "internalType": "bytes1",
          "name": "",
          "type": "bytes1"
        }
      ],
      "stateMutability": "pure",
      "type": "function"
    },
    {
      "inputs": [
        {
          "internalType": "string",
          "name": "input",
          "type": "string"
        }
      ],
      "name": "main",
      "outputs": [
        {
          "internalType": "uint256",
          "name": "",
          "type": "uint256"
        },
        {
          "internalType": "uint256",
          "name": "",
          "type": "uint256"
        }
      ],
      "stateMutability": "pure",
      "type": "function"
    },
    {
      "inputs": [
        {
          "internalType": "string",
          "name": "input",
          "type": "string"
        }
      ],
      "name": "p1",
      "outputs": [
        {
          "internalType": "uint256",
          "name": "",
          "type": "uint256"
        }
      ],
      "stateMutability": "pure",
      "type": "function"
    },
    {
      "inputs": [
        {
          "internalType": "string",
          "name": "input",
          "type": "string"
        }
      ],
      "name": "p2",
      "outputs": [
        {
          "internalType": "uint256",
          "name": "",
          "type": "uint256"
        }
      ],
      "stateMutability": "pure",
      "type": "function"
    },
    {
      "inputs": [
        {
          "internalType": "string",
          "name": "in_str",
          "type": "string"
        }
      ],
      "name": "split_lines",
      "outputs": [
        {
          "internalType": "string[]",
          "name": "",
          "type": "string[]"
        }
      ],
      "stateMutability": "pure",
      "type": "function"
    }
  ],
  "bytecode": "0x608060405234801561001057600080fd5b506115d5806100206000396000f3fe608060405234801561001057600080fd5b506004361061007d5760003560e01c80636a7534fc1161005b5780636a7534fc14610112578063769f204d1461014257806376b7e2c3146101735780639f6064e2146101a35761007d565b806311fcd048146100825780633edb318f146100b2578063519fd1bc146100e2575b600080fd5b61009c60048036038101906100979190610e7d565b6101d3565b6040516100a99190611007565b60405180910390f35b6100cc60048036038101906100c79190611081565b6102f8565b6040516100d991906110c7565b60405180910390f35b6100fc60048036038101906100f79190610e7d565b610392565b60405161010991906110f1565b60405180910390f35b61012c60048036038101906101279190610e7d565b61059b565b60405161013991906110c7565b60405180910390f35b61015c60048036038101906101579190610e7d565b610675565b60405161016a92919061110c565b60405180910390f35b61018d60048036038101906101889190610e7d565b6106b8565b60405161019a91906110c7565b60405180910390f35b6101bd60048036038101906101b89190611135565b610737565b6040516101ca91906110f1565b60405180910390f35b606060006101e0836108de565b905060006102226040518060400160405280600181526020017f0a000000000000000000000000000000000000000000000000000000000000008152506108de565b90506000600161023b838561090c90919063ffffffff16565b610245919061120b565b67ffffffffffffffff81111561025e5761025d610d52565b5b60405190808252806020026020018201604052801561029157816020015b606081526020019060019003908161027c5790505b50905060005b81518110156102ec576102bb6102b684866109b490919063ffffffff16565b6109ce565b8282815181106102ce576102cd61123f565b5b602002602001018190525080806102e49061126e565b915050610297565b50809350505050919050565b6000606160f81b827effffffffffffffffffffffffffffffffffffffffffffffffffffffffffffff1916106103415760608260f81c60ff1661033a91906112b6565b905061038d565b604160f81b827effffffffffffffffffffffffffffffffffffffffffffffffffffffffffffff1916106103885760268260f81c60ff1661038191906112b6565b905061038d565b600090505b919050565b600080600283516103a39190611319565b905060008167ffffffffffffffff8111156103c1576103c0610d52565b5b6040519080825280602002602001820160405280156103ef5781602001602082028036833780820191505090505b50905060005b600285516104039190611319565b8110156104a05784818151811061041d5761041c61123f565b5b602001015160f81c60f81b82828151811061043b5761043a61123f565b5b60200260200101907effffffffffffffffffffffffffffffffffffffffffffffffffffffffffffff191690817effffffffffffffffffffffffffffffffffffffffffffffffffffffffffffff19168152505080806104989061126e565b9150506103f5565b5060008290505b845181101561058b5760005b8251811015610577578582815181106104cf576104ce61123f565b5b602001015160f81c60f81b7effffffffffffffffffffffffffffffffffffffffffffffffffffffffffffff191683828151811061050f5761050e61123f565b5b60200260200101517effffffffffffffffffffffffffffffffffffffffffffffffffffffffffffff191603610564578281815181106105515761055061123f565b5b6020026020010151945050505050610596565b808061056f9061126e565b9150506104b3565b5080806105839061126e565b9150506104a7565b50600060f81b925050505b919050565b6000806000905060006105ad846101d3565b9050600080600090505b600283516105c591906112b6565b8110156106695761063d8382815181106105e2576105e161123f565b5b6020026020010151846001846105f8919061120b565b815181106106095761060861123f565b5b60200260200101518560028561061f919061120b565b815181106106305761062f61123f565b5b6020026020010151610737565b9150610648826102f8565b84610653919061120b565b9350600381610662919061120b565b90506105b7565b50829350505050919050565b600080600083510361069d576040518060c001604052806095815260200161150b6095913992505b6106a6836106b8565b6106af8461059b565b91509150915091565b6000806000905060006106ca846101d3565b9050600080600090505b825181101561072b576107008382815181106106f3576106f261123f565b5b6020026020010151610392565b915061070b826102f8565b84610716919061120b565b935080806107239061126e565b9150506106d4565b50829350505050919050565b600080600090505b84518110156108ce5760005b84518110156108ba578481815181106107675761076661123f565b5b602001015160f81c60f81b7effffffffffffffffffffffffffffffffffffffffffffffffffffffffffffff19168683815181106107a7576107a661123f565b5b602001015160f81c60f81b7effffffffffffffffffffffffffffffffffffffffffffffffffffffffffffff1916036108a75760005b84518110156108a5578481815181106107f8576107f761123f565b5b602001015160f81c60f81b7effffffffffffffffffffffffffffffffffffffffffffffffffffffffffffff19168784815181106108385761083761123f565b5b602001015160f81c60f81b7effffffffffffffffffffffffffffffffffffffffffffffffffffffffffffff1916036108925786838151811061087d5761087c61123f565b5b602001015160f81c60f81b93505050506108d7565b808061089d9061126e565b9150506107dc565b505b80806108b29061126e565b91505061074b565b5080806108c69061126e565b91505061073f565b50600060f81b90505b9392505050565b6108e6610d09565b600060208301905060405180604001604052808451815260200182815250915050919050565b60008082600001516109308560000151866020015186600001518760200151610a4a565b61093a919061120b565b90505b83600001518460200151610951919061120b565b81116109ad5781806109629061126e565b925050826000015161099c85602001518361097d91906112b6565b866000015161098c91906112b6565b8386600001518760200151610a4a565b6109a6919061120b565b905061093d565b5092915050565b6109bc610d09565b6109c7838383610b93565b5092915050565b60606000826000015167ffffffffffffffff8111156109f0576109ef610d52565b5b6040519080825280601f01601f191660200182016040528015610a225781602001600182028036833780820191505090505b5090506000602082019050610a408185602001518660000151610c5d565b8192505050919050565b6000808490506000868511610b7a5760208511610b1d57600080861115610aa3576001866020610a7a91906112b6565b6008610a86919061134a565b6002610a9291906114bf565b610a9c91906112b6565b1960001b90505b60008186511690506000878a8a610aba919061120b565b610ac491906112b6565b905060008386511690505b828114610b0f57818610610af6578a8a610ae9919061120b565b9650505050505050610b8b565b8580610b019061126e565b965050838651169050610acf565b859650505050505050610b8b565b60008585209050600091505b8588610b3591906112b6565b8211610b785760008684209050808203610b555783945050505050610b8b565b600184610b62919061120b565b9350508180610b709061126e565b925050610b29565b505b8686610b86919061120b565b925050505b949350505050565b610b9b610d09565b6000610bb98560000151866020015186600001518760200151610a4a565b90508460200151836020018181525050846020015181610bd991906112b6565b83600001818152505084600001518560200151610bf6919061120b565b8103610c0c576000856000018181525050610c52565b83600001518360000151610c20919061120b565b85600001818151610c3191906112b6565b91508181525050836000015181610c48919061120b565b8560200181815250505b829150509392505050565b5b60208110610c9c5781518352602083610c77919061120b565b9250602082610c86919061120b565b9150602081610c9591906112b6565b9050610c5e565b60007fffffffffffffffffffffffffffffffffffffffffffffffffffffffffffffffff90506000821115610cf3576001826020610cd991906112b6565b610100610ce691906114bf565b610cf091906112b6565b90505b8019835116818551168181178652505050505050565b604051806040016040528060008152602001600081525090565b6000604051905090565b600080fd5b600080fd5b600080fd5b600080fd5b6000601f19601f8301169050919050565b7f4e487b7100000000000000000000000000000000000000000000000000000000600052604160045260246000fd5b610d8a82610d41565b810181811067ffffffffffffffff82111715610da957610da8610d52565b5b80604052505050565b6000610dbc610d23565b9050610dc88282610d81565b919050565b600067ffffffffffffffff821115610de857610de7610d52565b5b610df182610d41565b9050602081019050919050565b82818337600083830152505050565b6000610e20610e1b84610dcd565b610db2565b905082815260208101848484011115610e3c57610e3b610d3c565b5b610e47848285610dfe565b509392505050565b600082601f830112610e6457610e63610d37565b5b8135610e74848260208601610e0d565b91505092915050565b600060208284031215610e9357610e92610d2d565b5b600082013567ffffffffffffffff811115610eb157610eb0610d32565b5b610ebd84828501610e4f565b91505092915050565b600081519050919050565b600082825260208201905092915050565b6000819050602082019050919050565b600081519050919050565b600082825260208201905092915050565b60005b83811015610f2c578082015181840152602081019050610f11565b60008484015250505050565b6000610f4382610ef2565b610f4d8185610efd565b9350610f5d818560208601610f0e565b610f6681610d41565b840191505092915050565b6000610f7d8383610f38565b905092915050565b6000602082019050919050565b6000610f9d82610ec6565b610fa78185610ed1565b935083602082028501610fb985610ee2565b8060005b85811015610ff55784840389528151610fd68582610f71565b9450610fe183610f85565b925060208a01995050600181019050610fbd565b50829750879550505050505092915050565b600060208201905081810360008301526110218184610f92565b905092915050565b60007fff0000000000000000000000000000000000000000000000000000000000000082169050919050565b61105e81611029565b811461106957600080fd5b50565b60008135905061107b81611055565b92915050565b60006020828403121561109757611096610d2d565b5b60006110a58482850161106c565b91505092915050565b6000819050919050565b6110c1816110ae565b82525050565b60006020820190506110dc60008301846110b8565b92915050565b6110eb81611029565b82525050565b600060208201905061110660008301846110e2565b92915050565b600060408201905061112160008301856110b8565b61112e60208301846110b8565b9392505050565b60008060006060848603121561114e5761114d610d2d565b5b600084013567ffffffffffffffff81111561116c5761116b610d32565b5b61117886828701610e4f565b935050602084013567ffffffffffffffff81111561119957611198610d32565b5b6111a586828701610e4f565b925050604084013567ffffffffffffffff8111156111c6576111c5610d32565b5b6111d286828701610e4f565b9150509250925092565b7f4e487b7100000000000000000000000000000000000000000000000000000000600052601160045260246000fd5b6000611216826110ae565b9150611221836110ae565b9250828201905080821115611239576112386111dc565b5b92915050565b7f4e487b7100000000000000000000000000000000000000000000000000000000600052603260045260246000fd5b6000611279826110ae565b91507fffffffffffffffffffffffffffffffffffffffffffffffffffffffffffffffff82036112ab576112aa6111dc565b5b600182019050919050565b60006112c1826110ae565b91506112cc836110ae565b92508282039050818111156112e4576112e36111dc565b5b92915050565b7f4e487b7100000000000000000000000000000000000000000000000000000000600052601260045260246000fd5b6000611324826110ae565b915061132f836110ae565b92508261133f5761133e6112ea565b5b828204905092915050565b6000611355826110ae565b9150611360836110ae565b925082820261136e816110ae565b91508282048414831517611385576113846111dc565b5b5092915050565b60008160011c9050919050565b6000808291508390505b60018511156113e3578086048111156113bf576113be6111dc565b5b60018516156113ce5780820291505b80810290506113dc8561138c565b94506113a3565b94509492505050565b6000826113fc57600190506114b8565b8161140a57600090506114b8565b8160018114611420576002811461142a57611459565b60019150506114b8565b60ff84111561143c5761143b6111dc565b5b8360020a915084821115611453576114526111dc565b5b506114b8565b5060208310610133831016604e8410600b841016171561148e5782820a905083811115611489576114886111dc565b5b6114b8565b61149b8484846001611399565b925090508184048111156114b2576114b16111dc565b5b81810290505b9392505050565b60006114ca826110ae565b91506114d5836110ae565b92506115027fffffffffffffffffffffffffffffffffffffffffffffffffffffffffffffffff84846113ec565b90509291505056fe764a7277705774774a675772686373464d4d6646466846700a6a7148524e71526a717a6a47444c474c7273464d66465a53724c72465a73534c0a506d6d647a715072567650777754574277670a774d71764c4d5a4868484d76774c486a6276636a6e6e53426e765451466e0a7474674a7452474a516374545a745a540a43725a734a7350505a73477a7777734c774c6d70774d4477a264697066735822122000a2df7661403dc03605829e8449747b8f3a838c77d9710c7c6b2da79998421664736f6c63430008110033",
  "linkReferences": {},
  "deployedLinkReferences": {}
}