{
	"Users/kyle/projects/aoc2022/contracts/Day3.sol": {
		"Day3": {
			"abi": [
				{
					"inputs": [
						{
							"internalType": "bytes1",
							"name": "char",
							"type": "bytes1"
						}
					],
					"name": "calculate_priority",
					"outputs": [
						{
							"internalType": "uint256",
							"name": "",
							"type": "uint256"
						}
					],
					"stateMutability": "pure",
					"type": "function"
				},
				{
					"inputs": [
						{
							"internalType": "string",
							"name": "elf1",
							"type": "string"
						},
						{
							"internalType": "string",
							"name": "elf2",
							"type": "string"
						},
						{
							"internalType": "string",
							"name": "elf3",
							"type": "string"
						}
					],
					"name": "find_badge",
					"outputs": [
						{
							"internalType": "bytes1",
							"name": "",
							"type": "bytes1"
						}
					],
					"stateMutability": "pure",
					"type": "function"
				},
				{
					"inputs": [
						{
							"internalType": "string",
							"name": "input",
							"type": "string"
						}
					],
					"name": "find_dup",
					"outputs": [
						{
							"internalType": "bytes1",
							"name": "",
							"type": "bytes1"
						}
					],
					"stateMutability": "pure",
					"type": "function"
				},
				{
					"inputs": [
						{
							"internalType": "string",
							"name": "input",
							"type": "string"
						}
					],
					"name": "main",
					"outputs": [
						{
							"internalType": "uint256",
							"name": "",
							"type": "uint256"
						},
						{
							"internalType": "uint256",
							"name": "",
							"type": "uint256"
						}
					],
					"stateMutability": "pure",
					"type": "function"
				},
				{
					"inputs": [
						{
							"internalType": "string",
							"name": "input",
							"type": "string"
						}
					],
					"name": "p1",
					"outputs": [
						{
							"internalType": "uint256",
							"name": "",
							"type": "uint256"
						}
					],
					"stateMutability": "pure",
					"type": "function"
				},
				{
					"inputs": [
						{
							"internalType": "string",
							"name": "input",
							"type": "string"
						}
					],
					"name": "p2",
					"outputs": [
						{
							"internalType": "uint256",
							"name": "",
							"type": "uint256"
						}
					],
					"stateMutability": "pure",
					"type": "function"
				},
				{
					"inputs": [
						{
							"internalType": "string",
							"name": "in_str",
							"type": "string"
						}
					],
					"name": "split_lines",
					"outputs": [
						{
							"internalType": "string[]",
							"name": "",
							"type": "string[]"
						}
					],
					"stateMutability": "pure",
					"type": "function"
				}
			],
			"devdoc": {
				"kind": "dev",
				"methods": {},
				"version": 1
			},
			"evm": {
				"assembly": "    /* \"Users/kyle/projects/aoc2022/contracts/Day3.sol\":83:3469  contract Day3 {... */\n  mstore(0x40, 0x80)\n  callvalue\n  dup1\n  iszero\n  tag_1\n  jumpi\n  0x00\n  dup1\n  revert\ntag_1:\n  pop\n  dataSize(sub_0)\n  dup1\n  dataOffset(sub_0)\n  0x00\n  codecopy\n  0x00\n  return\nstop\n\nsub_0: assembly {\n        /* \"Users/kyle/projects/aoc2022/contracts/Day3.sol\":83:3469  contract Day3 {... */\n      mstore(0x40, 0x80)\n      callvalue\n      dup1\n      iszero\n      tag_1\n      jumpi\n      0x00\n      dup1\n      revert\n    tag_1:\n      pop\n      jumpi(tag_2, lt(calldatasize, 0x04))\n      shr(0xe0, calldataload(0x00))\n      dup1\n      0x6a7534fc\n      gt\n      tag_10\n      jumpi\n      dup1\n      0x6a7534fc\n      eq\n      tag_6\n      jumpi\n      dup1\n      0x769f204d\n      eq\n      tag_7\n      jumpi\n      dup1\n      0x76b7e2c3\n      eq\n      tag_8\n      jumpi\n      dup1\n      0x9f6064e2\n      eq\n      tag_9\n      jumpi\n      jump(tag_2)\n    tag_10:\n      dup1\n      0x11fcd048\n      eq\n      tag_3\n      jumpi\n      dup1\n      0x3edb318f\n      eq\n      tag_4\n      jumpi\n      dup1\n      0x519fd1bc\n      eq\n      tag_5\n      jumpi\n    tag_2:\n      0x00\n      dup1\n      revert\n        /* \"Users/kyle/projects/aoc2022/contracts/Day3.sol\":1090:1713  function split_lines(string memory in_str) public pure returns (string[] memory) {                                               ... */\n    tag_3:\n      tag_11\n      0x04\n      dup1\n      calldatasize\n      sub\n      dup2\n      add\n      swap1\n      tag_12\n      swap2\n      swap1\n      tag_13\n      jump\t// in\n    tag_12:\n      tag_14\n      jump\t// in\n    tag_11:\n      mload(0x40)\n      tag_15\n      swap2\n      swap1\n      tag_16\n      jump\t// in\n    tag_15:\n      mload(0x40)\n      dup1\n      swap2\n      sub\n      swap1\n      return\n        /* \"Users/kyle/projects/aoc2022/contracts/Day3.sol\":129:395  function calculate_priority(bytes1 char) public pure returns (uint) {... */\n    tag_4:\n      tag_17\n      0x04\n      dup1\n      calldatasize\n      sub\n      dup2\n      add\n      swap1\n      tag_18\n      swap2\n      swap1\n      tag_19\n      jump\t// in\n    tag_18:\n      tag_20\n      jump\t// in\n    tag_17:\n      mload(0x40)\n      tag_21\n      swap2\n      swap1\n      tag_22\n      jump\t// in\n    tag_21:\n      mload(0x40)\n      dup1\n      swap2\n      sub\n      swap1\n      return\n        /* \"Users/kyle/projects/aoc2022/contracts/Day3.sol\":398:1084  function find_dup(string memory input) public pure returns (bytes1) {... */\n    tag_5:\n      tag_23\n      0x04\n      dup1\n      calldatasize\n      sub\n      dup2\n      add\n      swap1\n      tag_24\n      swap2\n      swap1\n      tag_13\n      jump\t// in\n    tag_24:\n      tag_25\n      jump\t// in\n    tag_23:\n      mload(0x40)\n      tag_26\n      swap2\n      swap1\n      tag_27\n      jump\t// in\n    tag_26:\n      mload(0x40)\n      dup1\n      swap2\n      sub\n      swap1\n      return\n        /* \"Users/kyle/projects/aoc2022/contracts/Day3.sol\":2698:3121  function p2(string memory input) public pure returns (uint) {... */\n    tag_6:\n      tag_28\n      0x04\n      dup1\n      calldatasize\n      sub\n      dup2\n      add\n      swap1\n      tag_29\n      swap2\n      swap1\n      tag_13\n      jump\t// in\n    tag_29:\n      tag_30\n      jump\t// in\n    tag_28:\n      mload(0x40)\n      tag_31\n      swap2\n      swap1\n      tag_22\n      jump\t// in\n    tag_31:\n      mload(0x40)\n      dup1\n      swap2\n      sub\n      swap1\n      return\n        /* \"Users/kyle/projects/aoc2022/contracts/Day3.sol\":3125:3467  function main(string memory input) external pure returns (uint, uint) {... */\n    tag_7:\n      tag_32\n      0x04\n      dup1\n      calldatasize\n      sub\n      dup2\n      add\n      swap1\n      tag_33\n      swap2\n      swap1\n      tag_13\n      jump\t// in\n    tag_33:\n      tag_34\n      jump\t// in\n    tag_32:\n      mload(0x40)\n      tag_35\n      swap3\n      swap2\n      swap1\n      tag_36\n      jump\t// in\n    tag_35:\n      mload(0x40)\n      dup1\n      swap2\n      sub\n      swap1\n      return\n        /* \"Users/kyle/projects/aoc2022/contracts/Day3.sol\":2305:2692  function p1(string memory input) public pure returns (uint) {... */\n    tag_8:\n      tag_37\n      0x04\n      dup1\n      calldatasize\n      sub\n      dup2\n      add\n      swap1\n      tag_38\n      swap2\n      swap1\n      tag_13\n      jump\t// in\n    tag_38:\n      tag_39\n      jump\t// in\n    tag_37:\n      mload(0x40)\n      tag_40\n      swap2\n      swap1\n      tag_22\n      jump\t// in\n    tag_40:\n      mload(0x40)\n      dup1\n      swap2\n      sub\n      swap1\n      return\n        /* \"Users/kyle/projects/aoc2022/contracts/Day3.sol\":1719:2299  function find_badge(string memory elf1, string memory elf2, string memory elf3) public pure returns (bytes1) {... */\n    tag_9:\n      tag_41\n      0x04\n      dup1\n      calldatasize\n      sub\n      dup2\n      add\n      swap1\n      tag_42\n      swap2\n      swap1\n      tag_43\n      jump\t// in\n    tag_42:\n      tag_44\n      jump\t// in\n    tag_41:\n      mload(0x40)\n      tag_45\n      swap2\n      swap1\n      tag_27\n      jump\t// in\n    tag_45:\n      mload(0x40)\n      dup1\n      swap2\n      sub\n      swap1\n      return\n        /* \"Users/kyle/projects/aoc2022/contracts/Day3.sol\":1090:1713  function split_lines(string memory in_str) public pure returns (string[] memory) {                                               ... */\n    tag_14:\n        /* \"Users/kyle/projects/aoc2022/contracts/Day3.sol\":1154:1169  string[] memory */\n      0x60\n        /* \"Users/kyle/projects/aoc2022/contracts/Day3.sol\":1228:1250  strings.slice memory s */\n      0x00\n        /* \"Users/kyle/projects/aoc2022/contracts/Day3.sol\":1253:1269  in_str.toSlice() */\n      tag_47\n        /* \"Users/kyle/projects/aoc2022/contracts/Day3.sol\":1253:1259  in_str */\n      dup4\n        /* \"Users/kyle/projects/aoc2022/contracts/Day3.sol\":1253:1267  in_str.toSlice */\n      tag_48\n        /* \"Users/kyle/projects/aoc2022/contracts/Day3.sol\":1253:1269  in_str.toSlice() */\n      jump\t// in\n    tag_47:\n        /* \"Users/kyle/projects/aoc2022/contracts/Day3.sol\":1228:1269  strings.slice memory s = in_str.toSlice() */\n      swap1\n      pop\n        /* \"Users/kyle/projects/aoc2022/contracts/Day3.sol\":1295:1321  strings.slice memory delim */\n      0x00\n        /* \"Users/kyle/projects/aoc2022/contracts/Day3.sol\":1324:1338  \"\\n\".toSlice() */\n      tag_49\n        /* \"Users/kyle/projects/aoc2022/contracts/Day3.sol\":1324:1336  \"\\n\".toSlice */\n      mload(0x40)\n      dup1\n      0x40\n      add\n      0x40\n      mstore\n      dup1\n      0x01\n      dup2\n      mstore\n      0x20\n      add\n      0x0a00000000000000000000000000000000000000000000000000000000000000\n      dup2\n      mstore\n      pop\n      tag_48\n        /* \"Users/kyle/projects/aoc2022/contracts/Day3.sol\":1324:1338  \"\\n\".toSlice() */\n      jump\t// in\n    tag_49:\n        /* \"Users/kyle/projects/aoc2022/contracts/Day3.sol\":1295:1338  strings.slice memory delim = \"\\n\".toSlice() */\n      swap1\n      pop\n        /* \"Users/kyle/projects/aoc2022/contracts/Day3.sol\":1376:1397  string[] memory parts */\n      0x00\n        /* \"Users/kyle/projects/aoc2022/contracts/Day3.sol\":1428:1429  1 */\n      0x01\n        /* \"Users/kyle/projects/aoc2022/contracts/Day3.sol\":1413:1427  s.count(delim) */\n      tag_50\n        /* \"Users/kyle/projects/aoc2022/contracts/Day3.sol\":1421:1426  delim */\n      dup4\n        /* \"Users/kyle/projects/aoc2022/contracts/Day3.sol\":1413:1414  s */\n      dup6\n        /* \"Users/kyle/projects/aoc2022/contracts/Day3.sol\":1413:1420  s.count */\n      tag_51\n      swap1\n        /* \"Users/kyle/projects/aoc2022/contracts/Day3.sol\":1413:1427  s.count(delim) */\n      swap2\n      swap1\n      0xffffffff\n      and\n      jump\t// in\n    tag_50:\n        /* \"Users/kyle/projects/aoc2022/contracts/Day3.sol\":1413:1429  s.count(delim)+1 */\n      tag_52\n      swap2\n      swap1\n      tag_53\n      jump\t// in\n    tag_52:\n        /* \"Users/kyle/projects/aoc2022/contracts/Day3.sol\":1400:1430  new string[](s.count(delim)+1) */\n      0xffffffffffffffff\n      dup2\n      gt\n      iszero\n      tag_54\n      jumpi\n      tag_55\n      tag_56\n      jump\t// in\n    tag_55:\n    tag_54:\n      mload(0x40)\n      swap1\n      dup1\n      dup3\n      mstore\n      dup1\n      0x20\n      mul\n      0x20\n      add\n      dup3\n      add\n      0x40\n      mstore\n      dup1\n      iszero\n      tag_57\n      jumpi\n      dup2\n      0x20\n      add\n    tag_58:\n      0x60\n      dup2\n      mstore\n      0x20\n      add\n      swap1\n      0x01\n      swap1\n      sub\n      swap1\n      dup2\n      tag_58\n      jumpi\n      swap1\n      pop\n    tag_57:\n      pop\n        /* \"Users/kyle/projects/aoc2022/contracts/Day3.sol\":1376:1430  string[] memory parts = new string[](s.count(delim)+1) */\n      swap1\n      pop\n        /* \"Users/kyle/projects/aoc2022/contracts/Day3.sol\":1463:1469  uint i */\n      0x00\n        /* \"Users/kyle/projects/aoc2022/contracts/Day3.sol\":1458:1619  for (uint i = 0; i < parts.length; i++) {                              ... */\n    tag_59:\n        /* \"Users/kyle/projects/aoc2022/contracts/Day3.sol\":1479:1484  parts */\n      dup2\n        /* \"Users/kyle/projects/aoc2022/contracts/Day3.sol\":1479:1491  parts.length */\n      mload\n        /* \"Users/kyle/projects/aoc2022/contracts/Day3.sol\":1475:1476  i */\n      dup2\n        /* \"Users/kyle/projects/aoc2022/contracts/Day3.sol\":1475:1491  i < parts.length */\n      lt\n        /* \"Users/kyle/projects/aoc2022/contracts/Day3.sol\":1458:1619  for (uint i = 0; i < parts.length; i++) {                              ... */\n      iszero\n      tag_60\n      jumpi\n        /* \"Users/kyle/projects/aoc2022/contracts/Day3.sol\":1552:1577  s.split(delim).toString() */\n      tag_62\n        /* \"Users/kyle/projects/aoc2022/contracts/Day3.sol\":1552:1566  s.split(delim) */\n      tag_63\n        /* \"Users/kyle/projects/aoc2022/contracts/Day3.sol\":1560:1565  delim */\n      dup5\n        /* \"Users/kyle/projects/aoc2022/contracts/Day3.sol\":1552:1553  s */\n      dup7\n        /* \"Users/kyle/projects/aoc2022/contracts/Day3.sol\":1552:1559  s.split */\n      tag_64\n      swap1\n        /* \"Users/kyle/projects/aoc2022/contracts/Day3.sol\":1552:1566  s.split(delim) */\n      swap2\n      swap1\n      0xffffffff\n      and\n      jump\t// in\n    tag_63:\n        /* \"Users/kyle/projects/aoc2022/contracts/Day3.sol\":1552:1575  s.split(delim).toString */\n      tag_65\n        /* \"Users/kyle/projects/aoc2022/contracts/Day3.sol\":1552:1577  s.split(delim).toString() */\n      jump\t// in\n    tag_62:\n        /* \"Users/kyle/projects/aoc2022/contracts/Day3.sol\":1541:1546  parts */\n      dup3\n        /* \"Users/kyle/projects/aoc2022/contracts/Day3.sol\":1547:1548  i */\n      dup3\n        /* \"Users/kyle/projects/aoc2022/contracts/Day3.sol\":1541:1549  parts[i] */\n      dup2\n      mload\n      dup2\n      lt\n      tag_66\n      jumpi\n      tag_67\n      tag_68\n      jump\t// in\n    tag_67:\n    tag_66:\n      0x20\n      mul\n      0x20\n      add\n      add\n        /* \"Users/kyle/projects/aoc2022/contracts/Day3.sol\":1541:1577  parts[i] = s.split(delim).toString() */\n      dup2\n      swap1\n      mstore\n      pop\n        /* \"Users/kyle/projects/aoc2022/contracts/Day3.sol\":1493:1496  i++ */\n      dup1\n      dup1\n      tag_69\n      swap1\n      tag_70\n      jump\t// in\n    tag_69:\n      swap2\n      pop\n      pop\n        /* \"Users/kyle/projects/aoc2022/contracts/Day3.sol\":1458:1619  for (uint i = 0; i < parts.length; i++) {                              ... */\n      jump(tag_59)\n    tag_60:\n      pop\n        /* \"Users/kyle/projects/aoc2022/contracts/Day3.sol\":1635:1640  parts */\n      dup1\n        /* \"Users/kyle/projects/aoc2022/contracts/Day3.sol\":1628:1640  return parts */\n      swap4\n      pop\n      pop\n      pop\n      pop\n        /* \"Users/kyle/projects/aoc2022/contracts/Day3.sol\":1090:1713  function split_lines(string memory in_str) public pure returns (string[] memory) {                                               ... */\n      swap2\n      swap1\n      pop\n      jump\t// out\n        /* \"Users/kyle/projects/aoc2022/contracts/Day3.sol\":129:395  function calculate_priority(bytes1 char) public pure returns (uint) {... */\n    tag_20:\n        /* \"Users/kyle/projects/aoc2022/contracts/Day3.sol\":191:195  uint */\n      0x00\n        /* \"Users/kyle/projects/aoc2022/contracts/Day3.sol\":219:223  0x61 */\n      0x61\n        /* \"Users/kyle/projects/aoc2022/contracts/Day3.sol\":211:223  char >= 0x61 */\n      0xf8\n      shl\n        /* \"Users/kyle/projects/aoc2022/contracts/Day3.sol\":211:215  char */\n      dup3\n        /* \"Users/kyle/projects/aoc2022/contracts/Day3.sol\":211:223  char >= 0x61 */\n      not(0xffffffffffffffffffffffffffffffffffffffffffffffffffffffffffffff)\n      and\n      lt\n        /* \"Users/kyle/projects/aoc2022/contracts/Day3.sol\":207:389  if (char >= 0x61) {... */\n      tag_72\n      jumpi\n        /* \"Users/kyle/projects/aoc2022/contracts/Day3.sol\":264:266  96 */\n      0x60\n        /* \"Users/kyle/projects/aoc2022/contracts/Day3.sol\":257:261  char */\n      dup3\n        /* \"Users/kyle/projects/aoc2022/contracts/Day3.sol\":251:262  uint8(char) */\n      0xf8\n      shr\n        /* \"Users/kyle/projects/aoc2022/contracts/Day3.sol\":246:263  uint(uint8(char)) */\n      0xff\n      and\n        /* \"Users/kyle/projects/aoc2022/contracts/Day3.sol\":246:266  uint(uint8(char))-96 */\n      tag_73\n      swap2\n      swap1\n      tag_74\n      jump\t// in\n    tag_73:\n        /* \"Users/kyle/projects/aoc2022/contracts/Day3.sol\":239:266  return uint(uint8(char))-96 */\n      swap1\n      pop\n      jump(tag_71)\n        /* \"Users/kyle/projects/aoc2022/contracts/Day3.sol\":207:389  if (char >= 0x61) {... */\n    tag_72:\n        /* \"Users/kyle/projects/aoc2022/contracts/Day3.sol\":295:299  0x41 */\n      0x41\n        /* \"Users/kyle/projects/aoc2022/contracts/Day3.sol\":287:299  char >= 0x41 */\n      0xf8\n      shl\n        /* \"Users/kyle/projects/aoc2022/contracts/Day3.sol\":287:291  char */\n      dup3\n        /* \"Users/kyle/projects/aoc2022/contracts/Day3.sol\":287:299  char >= 0x41 */\n      not(0xffffffffffffffffffffffffffffffffffffffffffffffffffffffffffffff)\n      and\n      lt\n        /* \"Users/kyle/projects/aoc2022/contracts/Day3.sol\":283:389  if (char >= 0x41) {... */\n      tag_76\n      jumpi\n        /* \"Users/kyle/projects/aoc2022/contracts/Day3.sol\":340:342  38 */\n      0x26\n        /* \"Users/kyle/projects/aoc2022/contracts/Day3.sol\":333:337  char */\n      dup3\n        /* \"Users/kyle/projects/aoc2022/contracts/Day3.sol\":327:338  uint8(char) */\n      0xf8\n      shr\n        /* \"Users/kyle/projects/aoc2022/contracts/Day3.sol\":322:339  uint(uint8(char)) */\n      0xff\n      and\n        /* \"Users/kyle/projects/aoc2022/contracts/Day3.sol\":322:342  uint(uint8(char))-38 */\n      tag_77\n      swap2\n      swap1\n      tag_74\n      jump\t// in\n    tag_77:\n        /* \"Users/kyle/projects/aoc2022/contracts/Day3.sol\":315:342  return uint(uint8(char))-38 */\n      swap1\n      pop\n      jump(tag_71)\n        /* \"Users/kyle/projects/aoc2022/contracts/Day3.sol\":283:389  if (char >= 0x41) {... */\n    tag_76:\n        /* \"Users/kyle/projects/aoc2022/contracts/Day3.sol\":377:378  0 */\n      0x00\n        /* \"Users/kyle/projects/aoc2022/contracts/Day3.sol\":370:378  return 0 */\n      swap1\n      pop\n        /* \"Users/kyle/projects/aoc2022/contracts/Day3.sol\":129:395  function calculate_priority(bytes1 char) public pure returns (uint) {... */\n    tag_71:\n      swap2\n      swap1\n      pop\n      jump\t// out\n        /* \"Users/kyle/projects/aoc2022/contracts/Day3.sol\":398:1084  function find_dup(string memory input) public pure returns (bytes1) {... */\n    tag_25:\n        /* \"Users/kyle/projects/aoc2022/contracts/Day3.sol\":458:464  bytes1 */\n      0x00\n        /* \"Users/kyle/projects/aoc2022/contracts/Day3.sol\":554:567  uint half_len */\n      dup1\n        /* \"Users/kyle/projects/aoc2022/contracts/Day3.sol\":590:591  2 */\n      0x02\n        /* \"Users/kyle/projects/aoc2022/contracts/Day3.sol\":576:581  input */\n      dup4\n        /* \"Users/kyle/projects/aoc2022/contracts/Day3.sol\":570:589  bytes(input).length */\n      mload\n        /* \"Users/kyle/projects/aoc2022/contracts/Day3.sol\":570:591  bytes(input).length/2 */\n      tag_80\n      swap2\n      swap1\n      tag_81\n      jump\t// in\n    tag_80:\n        /* \"Users/kyle/projects/aoc2022/contracts/Day3.sol\":554:591  uint half_len = bytes(input).length/2 */\n      swap1\n      pop\n        /* \"Users/kyle/projects/aoc2022/contracts/Day3.sol\":601:627  bytes1[] memory seen_items */\n      0x00\n        /* \"Users/kyle/projects/aoc2022/contracts/Day3.sol\":643:651  half_len */\n      dup2\n        /* \"Users/kyle/projects/aoc2022/contracts/Day3.sol\":630:652  new bytes1[](half_len) */\n      0xffffffffffffffff\n      dup2\n      gt\n      iszero\n      tag_82\n      jumpi\n      tag_83\n      tag_56\n      jump\t// in\n    tag_83:\n    tag_82:\n      mload(0x40)\n      swap1\n      dup1\n      dup3\n      mstore\n      dup1\n      0x20\n      mul\n      0x20\n      add\n      dup3\n      add\n      0x40\n      mstore\n      dup1\n      iszero\n      tag_84\n      jumpi\n      dup2\n      0x20\n      add\n      0x20\n      dup3\n      mul\n      dup1\n      calldatasize\n      dup4\n      calldatacopy\n      dup1\n      dup3\n      add\n      swap2\n      pop\n      pop\n      swap1\n      pop\n    tag_84:\n      pop\n        /* \"Users/kyle/projects/aoc2022/contracts/Day3.sol\":601:652  bytes1[] memory seen_items = new bytes1[](half_len) */\n      swap1\n      pop\n        /* \"Users/kyle/projects/aoc2022/contracts/Day3.sol\":661:667  uint i */\n      0x00\n        /* \"Users/kyle/projects/aoc2022/contracts/Day3.sol\":656:748  for (uint i = 0; i < (bytes(input).length/2); i++) {... */\n    tag_85:\n        /* \"Users/kyle/projects/aoc2022/contracts/Day3.sol\":698:699  2 */\n      0x02\n        /* \"Users/kyle/projects/aoc2022/contracts/Day3.sol\":684:689  input */\n      dup6\n        /* \"Users/kyle/projects/aoc2022/contracts/Day3.sol\":678:697  bytes(input).length */\n      mload\n        /* \"Users/kyle/projects/aoc2022/contracts/Day3.sol\":678:699  bytes(input).length/2 */\n      tag_88\n      swap2\n      swap1\n      tag_81\n      jump\t// in\n    tag_88:\n        /* \"Users/kyle/projects/aoc2022/contracts/Day3.sol\":673:674  i */\n      dup2\n        /* \"Users/kyle/projects/aoc2022/contracts/Day3.sol\":673:700  i < (bytes(input).length/2) */\n      lt\n        /* \"Users/kyle/projects/aoc2022/contracts/Day3.sol\":656:748  for (uint i = 0; i < (bytes(input).length/2); i++) {... */\n      iszero\n      tag_86\n      jumpi\n        /* \"Users/kyle/projects/aoc2022/contracts/Day3.sol\":734:739  input */\n      dup5\n        /* \"Users/kyle/projects/aoc2022/contracts/Day3.sol\":741:742  i */\n      dup2\n        /* \"Users/kyle/projects/aoc2022/contracts/Day3.sol\":728:743  bytes(input)[i] */\n      dup2\n      mload\n      dup2\n      lt\n      tag_89\n      jumpi\n      tag_90\n      tag_68\n      jump\t// in\n    tag_90:\n    tag_89:\n      0x20\n      add\n      add\n      mload\n      0xf8\n      shr\n      0xf8\n      shl\n        /* \"Users/kyle/projects/aoc2022/contracts/Day3.sol\":712:722  seen_items */\n      dup3\n        /* \"Users/kyle/projects/aoc2022/contracts/Day3.sol\":723:724  i */\n      dup3\n        /* \"Users/kyle/projects/aoc2022/contracts/Day3.sol\":712:725  seen_items[i] */\n      dup2\n      mload\n      dup2\n      lt\n      tag_91\n      jumpi\n      tag_92\n      tag_68\n      jump\t// in\n    tag_92:\n    tag_91:\n      0x20\n      mul\n      0x20\n      add\n      add\n        /* \"Users/kyle/projects/aoc2022/contracts/Day3.sol\":712:743  seen_items[i] = bytes(input)[i] */\n      swap1\n      not(0xffffffffffffffffffffffffffffffffffffffffffffffffffffffffffffff)\n      and\n      swap1\n      dup2\n      not(0xffffffffffffffffffffffffffffffffffffffffffffffffffffffffffffff)\n      and\n      dup2\n      mstore\n      pop\n      pop\n        /* \"Users/kyle/projects/aoc2022/contracts/Day3.sol\":702:705  i++ */\n      dup1\n      dup1\n      tag_93\n      swap1\n      tag_70\n      jump\t// in\n    tag_93:\n      swap2\n      pop\n      pop\n        /* \"Users/kyle/projects/aoc2022/contracts/Day3.sol\":656:748  for (uint i = 0; i < (bytes(input).length/2); i++) {... */\n      jump(tag_85)\n    tag_86:\n      pop\n        /* \"Users/kyle/projects/aoc2022/contracts/Day3.sol\":818:824  uint i */\n      0x00\n        /* \"Users/kyle/projects/aoc2022/contracts/Day3.sol\":828:836  half_len */\n      dup3\n        /* \"Users/kyle/projects/aoc2022/contracts/Day3.sol\":818:837  uint i = (half_len) */\n      swap1\n      pop\n        /* \"Users/kyle/projects/aoc2022/contracts/Day3.sol\":813:1063  for (uint i = (half_len); i < bytes(input).length; i++) {... */\n    tag_94:\n        /* \"Users/kyle/projects/aoc2022/contracts/Day3.sol\":849:854  input */\n      dup5\n        /* \"Users/kyle/projects/aoc2022/contracts/Day3.sol\":843:862  bytes(input).length */\n      mload\n        /* \"Users/kyle/projects/aoc2022/contracts/Day3.sol\":839:840  i */\n      dup2\n        /* \"Users/kyle/projects/aoc2022/contracts/Day3.sol\":839:862  i < bytes(input).length */\n      lt\n        /* \"Users/kyle/projects/aoc2022/contracts/Day3.sol\":813:1063  for (uint i = (half_len); i < bytes(input).length; i++) {... */\n      iszero\n      tag_95\n      jumpi\n        /* \"Users/kyle/projects/aoc2022/contracts/Day3.sol\":888:894  uint j */\n      0x00\n        /* \"Users/kyle/projects/aoc2022/contracts/Day3.sol\":883:1059  for (uint j = 0; j < seen_items.length; j++) {... */\n    tag_97:\n        /* \"Users/kyle/projects/aoc2022/contracts/Day3.sol\":904:914  seen_items */\n      dup3\n        /* \"Users/kyle/projects/aoc2022/contracts/Day3.sol\":904:921  seen_items.length */\n      mload\n        /* \"Users/kyle/projects/aoc2022/contracts/Day3.sol\":900:901  j */\n      dup2\n        /* \"Users/kyle/projects/aoc2022/contracts/Day3.sol\":900:921  j < seen_items.length */\n      lt\n        /* \"Users/kyle/projects/aoc2022/contracts/Day3.sol\":883:1059  for (uint j = 0; j < seen_items.length; j++) {... */\n      iszero\n      tag_98\n      jumpi\n        /* \"Users/kyle/projects/aoc2022/contracts/Day3.sol\":973:978  input */\n      dup6\n        /* \"Users/kyle/projects/aoc2022/contracts/Day3.sol\":980:981  i */\n      dup3\n        /* \"Users/kyle/projects/aoc2022/contracts/Day3.sol\":967:982  bytes(input)[i] */\n      dup2\n      mload\n      dup2\n      lt\n      tag_100\n      jumpi\n      tag_101\n      tag_68\n      jump\t// in\n    tag_101:\n    tag_100:\n      0x20\n      add\n      add\n      mload\n      0xf8\n      shr\n      0xf8\n      shl\n        /* \"Users/kyle/projects/aoc2022/contracts/Day3.sol\":950:982  seen_items[j] == bytes(input)[i] */\n      not(0xffffffffffffffffffffffffffffffffffffffffffffffffffffffffffffff)\n      and\n        /* \"Users/kyle/projects/aoc2022/contracts/Day3.sol\":950:960  seen_items */\n      dup4\n        /* \"Users/kyle/projects/aoc2022/contracts/Day3.sol\":961:962  j */\n      dup3\n        /* \"Users/kyle/projects/aoc2022/contracts/Day3.sol\":950:963  seen_items[j] */\n      dup2\n      mload\n      dup2\n      lt\n      tag_102\n      jumpi\n      tag_103\n      tag_68\n      jump\t// in\n    tag_103:\n    tag_102:\n      0x20\n      mul\n      0x20\n      add\n      add\n      mload\n        /* \"Users/kyle/projects/aoc2022/contracts/Day3.sol\":950:982  seen_items[j] == bytes(input)[i] */\n      not(0xffffffffffffffffffffffffffffffffffffffffffffffffffffffffffffff)\n      and\n      sub\n        /* \"Users/kyle/projects/aoc2022/contracts/Day3.sol\":946:1045  if (seen_items[j] == bytes(input)[i]) {... */\n      tag_104\n      jumpi\n        /* \"Users/kyle/projects/aoc2022/contracts/Day3.sol\":1013:1023  seen_items */\n      dup3\n        /* \"Users/kyle/projects/aoc2022/contracts/Day3.sol\":1024:1025  j */\n      dup2\n        /* \"Users/kyle/projects/aoc2022/contracts/Day3.sol\":1013:1026  seen_items[j] */\n      dup2\n      mload\n      dup2\n      lt\n      tag_105\n      jumpi\n      tag_106\n      tag_68\n      jump\t// in\n    tag_106:\n    tag_105:\n      0x20\n      mul\n      0x20\n      add\n      add\n      mload\n        /* \"Users/kyle/projects/aoc2022/contracts/Day3.sol\":1006:1026  return seen_items[j] */\n      swap5\n      pop\n      pop\n      pop\n      pop\n      pop\n      jump(tag_79)\n        /* \"Users/kyle/projects/aoc2022/contracts/Day3.sol\":946:1045  if (seen_items[j] == bytes(input)[i]) {... */\n    tag_104:\n        /* \"Users/kyle/projects/aoc2022/contracts/Day3.sol\":923:926  j++ */\n      dup1\n      dup1\n      tag_107\n      swap1\n      tag_70\n      jump\t// in\n    tag_107:\n      swap2\n      pop\n      pop\n        /* \"Users/kyle/projects/aoc2022/contracts/Day3.sol\":883:1059  for (uint j = 0; j < seen_items.length; j++) {... */\n      jump(tag_97)\n    tag_98:\n      pop\n        /* \"Users/kyle/projects/aoc2022/contracts/Day3.sol\":864:867  i++ */\n      dup1\n      dup1\n      tag_108\n      swap1\n      tag_70\n      jump\t// in\n    tag_108:\n      swap2\n      pop\n      pop\n        /* \"Users/kyle/projects/aoc2022/contracts/Day3.sol\":813:1063  for (uint i = (half_len); i < bytes(input).length; i++) {... */\n      jump(tag_94)\n    tag_95:\n      pop\n        /* \"Users/kyle/projects/aoc2022/contracts/Day3.sol\":1079:1080  0 */\n      0x00\n        /* \"Users/kyle/projects/aoc2022/contracts/Day3.sol\":1072:1080  return 0 */\n      0xf8\n      shl\n      swap3\n      pop\n      pop\n      pop\n        /* \"Users/kyle/projects/aoc2022/contracts/Day3.sol\":398:1084  function find_dup(string memory input) public pure returns (bytes1) {... */\n    tag_79:\n      swap2\n      swap1\n      pop\n      jump\t// out\n        /* \"Users/kyle/projects/aoc2022/contracts/Day3.sol\":2698:3121  function p2(string memory input) public pure returns (uint) {... */\n    tag_30:\n        /* \"Users/kyle/projects/aoc2022/contracts/Day3.sol\":2752:2756  uint */\n      0x00\n        /* \"Users/kyle/projects/aoc2022/contracts/Day3.sol\":2768:2787  uint total_priority */\n      dup1\n        /* \"Users/kyle/projects/aoc2022/contracts/Day3.sol\":2790:2791  0 */\n      0x00\n        /* \"Users/kyle/projects/aoc2022/contracts/Day3.sol\":2768:2791  uint total_priority = 0 */\n      swap1\n      pop\n        /* \"Users/kyle/projects/aoc2022/contracts/Day3.sol\":2801:2822  string[] memory lines */\n      0x00\n        /* \"Users/kyle/projects/aoc2022/contracts/Day3.sol\":2825:2843  split_lines(input) */\n      tag_110\n        /* \"Users/kyle/projects/aoc2022/contracts/Day3.sol\":2837:2842  input */\n      dup5\n        /* \"Users/kyle/projects/aoc2022/contracts/Day3.sol\":2825:2836  split_lines */\n      tag_14\n        /* \"Users/kyle/projects/aoc2022/contracts/Day3.sol\":2825:2843  split_lines(input) */\n      jump\t// in\n    tag_110:\n        /* \"Users/kyle/projects/aoc2022/contracts/Day3.sol\":2801:2843  string[] memory lines = split_lines(input) */\n      swap1\n      pop\n        /* \"Users/kyle/projects/aoc2022/contracts/Day3.sol\":2853:2865  bytes1 badge */\n      0x00\n        /* \"Users/kyle/projects/aoc2022/contracts/Day3.sol\":2881:2887  uint i */\n      dup1\n        /* \"Users/kyle/projects/aoc2022/contracts/Day3.sol\":2890:2891  0 */\n      0x00\n        /* \"Users/kyle/projects/aoc2022/contracts/Day3.sol\":2881:2891  uint i = 0 */\n      swap1\n      pop\n        /* \"Users/kyle/projects/aoc2022/contracts/Day3.sol\":2876:3083  for (uint i = 0; i < lines.length-2; i=i+3) {  ... */\n    tag_111:\n        /* \"Users/kyle/projects/aoc2022/contracts/Day3.sol\":2910:2911  2 */\n      0x02\n        /* \"Users/kyle/projects/aoc2022/contracts/Day3.sol\":2897:2902  lines */\n      dup4\n        /* \"Users/kyle/projects/aoc2022/contracts/Day3.sol\":2897:2909  lines.length */\n      mload\n        /* \"Users/kyle/projects/aoc2022/contracts/Day3.sol\":2897:2911  lines.length-2 */\n      tag_114\n      swap2\n      swap1\n      tag_74\n      jump\t// in\n    tag_114:\n        /* \"Users/kyle/projects/aoc2022/contracts/Day3.sol\":2893:2894  i */\n      dup2\n        /* \"Users/kyle/projects/aoc2022/contracts/Day3.sol\":2893:2911  i < lines.length-2 */\n      lt\n        /* \"Users/kyle/projects/aoc2022/contracts/Day3.sol\":2876:3083  for (uint i = 0; i < lines.length-2; i=i+3) {  ... */\n      iszero\n      tag_112\n      jumpi\n        /* \"Users/kyle/projects/aoc2022/contracts/Day3.sol\":2944:2988  find_badge(lines[i], lines[i+1], lines[i+2]) */\n      tag_115\n        /* \"Users/kyle/projects/aoc2022/contracts/Day3.sol\":2955:2960  lines */\n      dup4\n        /* \"Users/kyle/projects/aoc2022/contracts/Day3.sol\":2961:2962  i */\n      dup3\n        /* \"Users/kyle/projects/aoc2022/contracts/Day3.sol\":2955:2963  lines[i] */\n      dup2\n      mload\n      dup2\n      lt\n      tag_116\n      jumpi\n      tag_117\n      tag_68\n      jump\t// in\n    tag_117:\n    tag_116:\n      0x20\n      mul\n      0x20\n      add\n      add\n      mload\n        /* \"Users/kyle/projects/aoc2022/contracts/Day3.sol\":2965:2970  lines */\n      dup5\n        /* \"Users/kyle/projects/aoc2022/contracts/Day3.sol\":2973:2974  1 */\n      0x01\n        /* \"Users/kyle/projects/aoc2022/contracts/Day3.sol\":2971:2972  i */\n      dup5\n        /* \"Users/kyle/projects/aoc2022/contracts/Day3.sol\":2971:2974  i+1 */\n      tag_118\n      swap2\n      swap1\n      tag_53\n      jump\t// in\n    tag_118:\n        /* \"Users/kyle/projects/aoc2022/contracts/Day3.sol\":2965:2975  lines[i+1] */\n      dup2\n      mload\n      dup2\n      lt\n      tag_119\n      jumpi\n      tag_120\n      tag_68\n      jump\t// in\n    tag_120:\n    tag_119:\n      0x20\n      mul\n      0x20\n      add\n      add\n      mload\n        /* \"Users/kyle/projects/aoc2022/contracts/Day3.sol\":2977:2982  lines */\n      dup6\n        /* \"Users/kyle/projects/aoc2022/contracts/Day3.sol\":2985:2986  2 */\n      0x02\n        /* \"Users/kyle/projects/aoc2022/contracts/Day3.sol\":2983:2984  i */\n      dup6\n        /* \"Users/kyle/projects/aoc2022/contracts/Day3.sol\":2983:2986  i+2 */\n      tag_121\n      swap2\n      swap1\n      tag_53\n      jump\t// in\n    tag_121:\n        /* \"Users/kyle/projects/aoc2022/contracts/Day3.sol\":2977:2987  lines[i+2] */\n      dup2\n      mload\n      dup2\n      lt\n      tag_122\n      jumpi\n      tag_123\n      tag_68\n      jump\t// in\n    tag_123:\n    tag_122:\n      0x20\n      mul\n      0x20\n      add\n      add\n      mload\n        /* \"Users/kyle/projects/aoc2022/contracts/Day3.sol\":2944:2954  find_badge */\n      tag_44\n        /* \"Users/kyle/projects/aoc2022/contracts/Day3.sol\":2944:2988  find_badge(lines[i], lines[i+1], lines[i+2]) */\n      jump\t// in\n    tag_115:\n        /* \"Users/kyle/projects/aoc2022/contracts/Day3.sol\":2936:2988  badge = find_badge(lines[i], lines[i+1], lines[i+2]) */\n      swap2\n      pop\n        /* \"Users/kyle/projects/aoc2022/contracts/Day3.sol\":3020:3045  calculate_priority(badge) */\n      tag_124\n        /* \"Users/kyle/projects/aoc2022/contracts/Day3.sol\":3039:3044  badge */\n      dup3\n        /* \"Users/kyle/projects/aoc2022/contracts/Day3.sol\":3020:3038  calculate_priority */\n      tag_20\n        /* \"Users/kyle/projects/aoc2022/contracts/Day3.sol\":3020:3045  calculate_priority(badge) */\n      jump\t// in\n    tag_124:\n        /* \"Users/kyle/projects/aoc2022/contracts/Day3.sol\":3002:3045  total_priority += calculate_priority(badge) */\n      dup5\n      tag_125\n      swap2\n      swap1\n      tag_53\n      jump\t// in\n    tag_125:\n      swap4\n      pop\n        /* \"Users/kyle/projects/aoc2022/contracts/Day3.sol\":2917:2918  3 */\n      0x03\n        /* \"Users/kyle/projects/aoc2022/contracts/Day3.sol\":2915:2916  i */\n      dup2\n        /* \"Users/kyle/projects/aoc2022/contracts/Day3.sol\":2915:2918  i+3 */\n      tag_126\n      swap2\n      swap1\n      tag_53\n      jump\t// in\n    tag_126:\n        /* \"Users/kyle/projects/aoc2022/contracts/Day3.sol\":2913:2918  i=i+3 */\n      swap1\n      pop\n        /* \"Users/kyle/projects/aoc2022/contracts/Day3.sol\":2876:3083  for (uint i = 0; i < lines.length-2; i=i+3) {  ... */\n      jump(tag_111)\n    tag_112:\n      pop\n        /* \"Users/kyle/projects/aoc2022/contracts/Day3.sol\":3100:3114  total_priority */\n      dup3\n        /* \"Users/kyle/projects/aoc2022/contracts/Day3.sol\":3093:3114  return total_priority */\n      swap4\n      pop\n      pop\n      pop\n      pop\n        /* \"Users/kyle/projects/aoc2022/contracts/Day3.sol\":2698:3121  function p2(string memory input) public pure returns (uint) {... */\n      swap2\n      swap1\n      pop\n      jump\t// out\n        /* \"Users/kyle/projects/aoc2022/contracts/Day3.sol\":3125:3467  function main(string memory input) external pure returns (uint, uint) {... */\n    tag_34:\n        /* \"Users/kyle/projects/aoc2022/contracts/Day3.sol\":3183:3187  uint */\n      0x00\n        /* \"Users/kyle/projects/aoc2022/contracts/Day3.sol\":3189:3193  uint */\n      dup1\n        /* \"Users/kyle/projects/aoc2022/contracts/Day3.sol\":3232:3233  0 */\n      0x00\n        /* \"Users/kyle/projects/aoc2022/contracts/Day3.sol\":3215:3220  input */\n      dup4\n        /* \"Users/kyle/projects/aoc2022/contracts/Day3.sol\":3209:3228  bytes(input).length */\n      mload\n        /* \"Users/kyle/projects/aoc2022/contracts/Day3.sol\":3209:3233  bytes(input).length == 0 */\n      sub\n        /* \"Users/kyle/projects/aoc2022/contracts/Day3.sol\":3205:3424  if (bytes(input).length == 0) {... */\n      tag_128\n      jumpi\n        /* \"Users/kyle/projects/aoc2022/contracts/Day3.sol\":3249:3413  input = \"vJrwpWtwJgWrhcsFMMfFFhFp\\njqHRNqRjqzjGDLGLrsFMfFZSrLrFZsSL\\nPmmdzqPrVvPwwTWBwg\\nwMqvLMZHhHMvwLHjbvcjnnSBnvTQFn\\nttgJtRGJQctTZtZT\\nCrZsJsPPZsGzwwsLwLmpwMDw\" */\n      mload(0x40)\n      dup1\n      0xc0\n      add\n      0x40\n      mstore\n      dup1\n      0x95\n      dup2\n      mstore\n      0x20\n      add\n      data_283b6da5c4efcac3f53ff418b3ec025f9a6bda1ff40c384293814d4353515a56\n      0x95\n      swap2\n      codecopy\n      swap3\n      pop\n        /* \"Users/kyle/projects/aoc2022/contracts/Day3.sol\":3205:3424  if (bytes(input).length == 0) {... */\n    tag_128:\n        /* \"Users/kyle/projects/aoc2022/contracts/Day3.sol\":3442:3451  p1(input) */\n      tag_129\n        /* \"Users/kyle/projects/aoc2022/contracts/Day3.sol\":3445:3450  input */\n      dup4\n        /* \"Users/kyle/projects/aoc2022/contracts/Day3.sol\":3442:3444  p1 */\n      tag_39\n        /* \"Users/kyle/projects/aoc2022/contracts/Day3.sol\":3442:3451  p1(input) */\n      jump\t// in\n    tag_129:\n        /* \"Users/kyle/projects/aoc2022/contracts/Day3.sol\":3453:3462  p2(input) */\n      tag_130\n        /* \"Users/kyle/projects/aoc2022/contracts/Day3.sol\":3456:3461  input */\n      dup5\n        /* \"Users/kyle/projects/aoc2022/contracts/Day3.sol\":3453:3455  p2 */\n      tag_30\n        /* \"Users/kyle/projects/aoc2022/contracts/Day3.sol\":3453:3462  p2(input) */\n      jump\t// in\n    tag_130:\n        /* \"Users/kyle/projects/aoc2022/contracts/Day3.sol\":3434:3463  return (p1(input), p2(input)) */\n      swap2\n      pop\n      swap2\n      pop\n        /* \"Users/kyle/projects/aoc2022/contracts/Day3.sol\":3125:3467  function main(string memory input) external pure returns (uint, uint) {... */\n      swap2\n      pop\n      swap2\n      jump\t// out\n        /* \"Users/kyle/projects/aoc2022/contracts/Day3.sol\":2305:2692  function p1(string memory input) public pure returns (uint) {... */\n    tag_39:\n        /* \"Users/kyle/projects/aoc2022/contracts/Day3.sol\":2359:2363  uint */\n      0x00\n        /* \"Users/kyle/projects/aoc2022/contracts/Day3.sol\":2375:2394  uint total_priority */\n      dup1\n        /* \"Users/kyle/projects/aoc2022/contracts/Day3.sol\":2397:2398  0 */\n      0x00\n        /* \"Users/kyle/projects/aoc2022/contracts/Day3.sol\":2375:2398  uint total_priority = 0 */\n      swap1\n      pop\n        /* \"Users/kyle/projects/aoc2022/contracts/Day3.sol\":2408:2429  string[] memory lines */\n      0x00\n        /* \"Users/kyle/projects/aoc2022/contracts/Day3.sol\":2432:2450  split_lines(input) */\n      tag_132\n        /* \"Users/kyle/projects/aoc2022/contracts/Day3.sol\":2444:2449  input */\n      dup5\n        /* \"Users/kyle/projects/aoc2022/contracts/Day3.sol\":2432:2443  split_lines */\n      tag_14\n        /* \"Users/kyle/projects/aoc2022/contracts/Day3.sol\":2432:2450  split_lines(input) */\n      jump\t// in\n    tag_132:\n        /* \"Users/kyle/projects/aoc2022/contracts/Day3.sol\":2408:2450  string[] memory lines = split_lines(input) */\n      swap1\n      pop\n        /* \"Users/kyle/projects/aoc2022/contracts/Day3.sol\":2460:2470  bytes1 dup */\n      0x00\n        /* \"Users/kyle/projects/aoc2022/contracts/Day3.sol\":2486:2492  uint i */\n      dup1\n        /* \"Users/kyle/projects/aoc2022/contracts/Day3.sol\":2495:2496  0 */\n      0x00\n        /* \"Users/kyle/projects/aoc2022/contracts/Day3.sol\":2486:2496  uint i = 0 */\n      swap1\n      pop\n        /* \"Users/kyle/projects/aoc2022/contracts/Day3.sol\":2481:2654  for (uint i = 0; i < lines.length; i++) {  ... */\n    tag_133:\n        /* \"Users/kyle/projects/aoc2022/contracts/Day3.sol\":2502:2507  lines */\n      dup3\n        /* \"Users/kyle/projects/aoc2022/contracts/Day3.sol\":2502:2514  lines.length */\n      mload\n        /* \"Users/kyle/projects/aoc2022/contracts/Day3.sol\":2498:2499  i */\n      dup2\n        /* \"Users/kyle/projects/aoc2022/contracts/Day3.sol\":2498:2514  i < lines.length */\n      lt\n        /* \"Users/kyle/projects/aoc2022/contracts/Day3.sol\":2481:2654  for (uint i = 0; i < lines.length; i++) {  ... */\n      iszero\n      tag_134\n      jumpi\n        /* \"Users/kyle/projects/aoc2022/contracts/Day3.sol\":2543:2561  find_dup(lines[i]) */\n      tag_136\n        /* \"Users/kyle/projects/aoc2022/contracts/Day3.sol\":2552:2557  lines */\n      dup4\n        /* \"Users/kyle/projects/aoc2022/contracts/Day3.sol\":2558:2559  i */\n      dup3\n        /* \"Users/kyle/projects/aoc2022/contracts/Day3.sol\":2552:2560  lines[i] */\n      dup2\n      mload\n      dup2\n      lt\n      tag_137\n      jumpi\n      tag_138\n      tag_68\n      jump\t// in\n    tag_138:\n    tag_137:\n      0x20\n      mul\n      0x20\n      add\n      add\n      mload\n        /* \"Users/kyle/projects/aoc2022/contracts/Day3.sol\":2543:2551  find_dup */\n      tag_25\n        /* \"Users/kyle/projects/aoc2022/contracts/Day3.sol\":2543:2561  find_dup(lines[i]) */\n      jump\t// in\n    tag_136:\n        /* \"Users/kyle/projects/aoc2022/contracts/Day3.sol\":2537:2561  dup = find_dup(lines[i]) */\n      swap2\n      pop\n        /* \"Users/kyle/projects/aoc2022/contracts/Day3.sol\":2593:2616  calculate_priority(dup) */\n      tag_139\n        /* \"Users/kyle/projects/aoc2022/contracts/Day3.sol\":2612:2615  dup */\n      dup3\n        /* \"Users/kyle/projects/aoc2022/contracts/Day3.sol\":2593:2611  calculate_priority */\n      tag_20\n        /* \"Users/kyle/projects/aoc2022/contracts/Day3.sol\":2593:2616  calculate_priority(dup) */\n      jump\t// in\n    tag_139:\n        /* \"Users/kyle/projects/aoc2022/contracts/Day3.sol\":2575:2616  total_priority += calculate_priority(dup) */\n      dup5\n      tag_140\n      swap2\n      swap1\n      tag_53\n      jump\t// in\n    tag_140:\n      swap4\n      pop\n        /* \"Users/kyle/projects/aoc2022/contracts/Day3.sol\":2516:2519  i++ */\n      dup1\n      dup1\n      tag_141\n      swap1\n      tag_70\n      jump\t// in\n    tag_141:\n      swap2\n      pop\n      pop\n        /* \"Users/kyle/projects/aoc2022/contracts/Day3.sol\":2481:2654  for (uint i = 0; i < lines.length; i++) {  ... */\n      jump(tag_133)\n    tag_134:\n      pop\n        /* \"Users/kyle/projects/aoc2022/contracts/Day3.sol\":2671:2685  total_priority */\n      dup3\n        /* \"Users/kyle/projects/aoc2022/contracts/Day3.sol\":2664:2685  return total_priority */\n      swap4\n      pop\n      pop\n      pop\n      pop\n        /* \"Users/kyle/projects/aoc2022/contracts/Day3.sol\":2305:2692  function p1(string memory input) public pure returns (uint) {... */\n      swap2\n      swap1\n      pop\n      jump\t// out\n        /* \"Users/kyle/projects/aoc2022/contracts/Day3.sol\":1719:2299  function find_badge(string memory elf1, string memory elf2, string memory elf3) public pure returns (bytes1) {... */\n    tag_44:\n        /* \"Users/kyle/projects/aoc2022/contracts/Day3.sol\":1820:1826  bytes1 */\n      0x00\n        /* \"Users/kyle/projects/aoc2022/contracts/Day3.sol\":1843:1849  uint i */\n      dup1\n        /* \"Users/kyle/projects/aoc2022/contracts/Day3.sol\":1852:1853  0 */\n      0x00\n        /* \"Users/kyle/projects/aoc2022/contracts/Day3.sol\":1843:1853  uint i = 0 */\n      swap1\n      pop\n        /* \"Users/kyle/projects/aoc2022/contracts/Day3.sol\":1838:2275  for (uint i = 0; i < bytes(elf1).length; i++) {... */\n    tag_143:\n        /* \"Users/kyle/projects/aoc2022/contracts/Day3.sol\":1865:1869  elf1 */\n      dup5\n        /* \"Users/kyle/projects/aoc2022/contracts/Day3.sol\":1859:1877  bytes(elf1).length */\n      mload\n        /* \"Users/kyle/projects/aoc2022/contracts/Day3.sol\":1855:1856  i */\n      dup2\n        /* \"Users/kyle/projects/aoc2022/contracts/Day3.sol\":1855:1877  i < bytes(elf1).length */\n      lt\n        /* \"Users/kyle/projects/aoc2022/contracts/Day3.sol\":1838:2275  for (uint i = 0; i < bytes(elf1).length; i++) {... */\n      iszero\n      tag_144\n      jumpi\n        /* \"Users/kyle/projects/aoc2022/contracts/Day3.sol\":1903:1909  uint j */\n      0x00\n        /* \"Users/kyle/projects/aoc2022/contracts/Day3.sol\":1898:2265  for (uint j = 0; j < bytes(elf2).length; j++) {... */\n    tag_146:\n        /* \"Users/kyle/projects/aoc2022/contracts/Day3.sol\":1925:1929  elf2 */\n      dup5\n        /* \"Users/kyle/projects/aoc2022/contracts/Day3.sol\":1919:1937  bytes(elf2).length */\n      mload\n        /* \"Users/kyle/projects/aoc2022/contracts/Day3.sol\":1915:1916  j */\n      dup2\n        /* \"Users/kyle/projects/aoc2022/contracts/Day3.sol\":1915:1937  j < bytes(elf2).length */\n      lt\n        /* \"Users/kyle/projects/aoc2022/contracts/Day3.sol\":1898:2265  for (uint j = 0; j < bytes(elf2).length; j++) {... */\n      iszero\n      tag_147\n      jumpi\n        /* \"Users/kyle/projects/aoc2022/contracts/Day3.sol\":1990:1994  elf2 */\n      dup5\n        /* \"Users/kyle/projects/aoc2022/contracts/Day3.sol\":1996:1997  j */\n      dup2\n        /* \"Users/kyle/projects/aoc2022/contracts/Day3.sol\":1984:1998  bytes(elf2)[j] */\n      dup2\n      mload\n      dup2\n      lt\n      tag_149\n      jumpi\n      tag_150\n      tag_68\n      jump\t// in\n    tag_150:\n    tag_149:\n      0x20\n      add\n      add\n      mload\n      0xf8\n      shr\n      0xf8\n      shl\n        /* \"Users/kyle/projects/aoc2022/contracts/Day3.sol\":1966:1998  bytes(elf1)[i] == bytes(elf2)[j] */\n      not(0xffffffffffffffffffffffffffffffffffffffffffffffffffffffffffffff)\n      and\n        /* \"Users/kyle/projects/aoc2022/contracts/Day3.sol\":1972:1976  elf1 */\n      dup7\n        /* \"Users/kyle/projects/aoc2022/contracts/Day3.sol\":1978:1979  i */\n      dup4\n        /* \"Users/kyle/projects/aoc2022/contracts/Day3.sol\":1966:1980  bytes(elf1)[i] */\n      dup2\n      mload\n      dup2\n      lt\n      tag_151\n      jumpi\n      tag_152\n      tag_68\n      jump\t// in\n    tag_152:\n    tag_151:\n      0x20\n      add\n      add\n      mload\n      0xf8\n      shr\n      0xf8\n      shl\n        /* \"Users/kyle/projects/aoc2022/contracts/Day3.sol\":1966:1998  bytes(elf1)[i] == bytes(elf2)[j] */\n      not(0xffffffffffffffffffffffffffffffffffffffffffffffffffffffffffffff)\n      and\n      sub\n        /* \"Users/kyle/projects/aoc2022/contracts/Day3.sol\":1962:2251  if (bytes(elf1)[i] == bytes(elf2)[j]) {... */\n      tag_153\n      jumpi\n        /* \"Users/kyle/projects/aoc2022/contracts/Day3.sol\":2027:2033  uint k */\n      0x00\n        /* \"Users/kyle/projects/aoc2022/contracts/Day3.sol\":2022:2233  for (uint k = 0; k < bytes(elf3).length; k++) {... */\n    tag_154:\n        /* \"Users/kyle/projects/aoc2022/contracts/Day3.sol\":2049:2053  elf3 */\n      dup5\n        /* \"Users/kyle/projects/aoc2022/contracts/Day3.sol\":2043:2061  bytes(elf3).length */\n      mload\n        /* \"Users/kyle/projects/aoc2022/contracts/Day3.sol\":2039:2040  k */\n      dup2\n        /* \"Users/kyle/projects/aoc2022/contracts/Day3.sol\":2039:2061  k < bytes(elf3).length */\n      lt\n        /* \"Users/kyle/projects/aoc2022/contracts/Day3.sol\":2022:2233  for (uint k = 0; k < bytes(elf3).length; k++) {... */\n      iszero\n      tag_155\n      jumpi\n        /* \"Users/kyle/projects/aoc2022/contracts/Day3.sol\":2122:2126  elf3 */\n      dup5\n        /* \"Users/kyle/projects/aoc2022/contracts/Day3.sol\":2128:2129  k */\n      dup2\n        /* \"Users/kyle/projects/aoc2022/contracts/Day3.sol\":2116:2130  bytes(elf3)[k] */\n      dup2\n      mload\n      dup2\n      lt\n      tag_157\n      jumpi\n      tag_158\n      tag_68\n      jump\t// in\n    tag_158:\n    tag_157:\n      0x20\n      add\n      add\n      mload\n      0xf8\n      shr\n      0xf8\n      shl\n        /* \"Users/kyle/projects/aoc2022/contracts/Day3.sol\":2098:2130  bytes(elf1)[i] == bytes(elf3)[k] */\n      not(0xffffffffffffffffffffffffffffffffffffffffffffffffffffffffffffff)\n      and\n        /* \"Users/kyle/projects/aoc2022/contracts/Day3.sol\":2104:2108  elf1 */\n      dup8\n        /* \"Users/kyle/projects/aoc2022/contracts/Day3.sol\":2110:2111  i */\n      dup5\n        /* \"Users/kyle/projects/aoc2022/contracts/Day3.sol\":2098:2112  bytes(elf1)[i] */\n      dup2\n      mload\n      dup2\n      lt\n      tag_159\n      jumpi\n      tag_160\n      tag_68\n      jump\t// in\n    tag_160:\n    tag_159:\n      0x20\n      add\n      add\n      mload\n      0xf8\n      shr\n      0xf8\n      shl\n        /* \"Users/kyle/projects/aoc2022/contracts/Day3.sol\":2098:2130  bytes(elf1)[i] == bytes(elf3)[k] */\n      not(0xffffffffffffffffffffffffffffffffffffffffffffffffffffffffffffff)\n      and\n      sub\n        /* \"Users/kyle/projects/aoc2022/contracts/Day3.sol\":2094:2210  if (bytes(elf1)[i] == bytes(elf3)[k]) {... */\n      tag_161\n      jumpi\n        /* \"Users/kyle/projects/aoc2022/contracts/Day3.sol\":2175:2179  elf1 */\n      dup7\n        /* \"Users/kyle/projects/aoc2022/contracts/Day3.sol\":2181:2182  i */\n      dup4\n        /* \"Users/kyle/projects/aoc2022/contracts/Day3.sol\":2169:2183  bytes(elf1)[i] */\n      dup2\n      mload\n      dup2\n      lt\n      tag_162\n      jumpi\n      tag_163\n      tag_68\n      jump\t// in\n    tag_163:\n    tag_162:\n      0x20\n      add\n      add\n      mload\n      0xf8\n      shr\n      0xf8\n      shl\n        /* \"Users/kyle/projects/aoc2022/contracts/Day3.sol\":2162:2183  return bytes(elf1)[i] */\n      swap4\n      pop\n      pop\n      pop\n      pop\n      jump(tag_142)\n        /* \"Users/kyle/projects/aoc2022/contracts/Day3.sol\":2094:2210  if (bytes(elf1)[i] == bytes(elf3)[k]) {... */\n    tag_161:\n        /* \"Users/kyle/projects/aoc2022/contracts/Day3.sol\":2063:2066  k++ */\n      dup1\n      dup1\n      tag_164\n      swap1\n      tag_70\n      jump\t// in\n    tag_164:\n      swap2\n      pop\n      pop\n        /* \"Users/kyle/projects/aoc2022/contracts/Day3.sol\":2022:2233  for (uint k = 0; k < bytes(elf3).length; k++) {... */\n      jump(tag_154)\n    tag_155:\n      pop\n        /* \"Users/kyle/projects/aoc2022/contracts/Day3.sol\":1962:2251  if (bytes(elf1)[i] == bytes(elf2)[j]) {... */\n    tag_153:\n        /* \"Users/kyle/projects/aoc2022/contracts/Day3.sol\":1939:1942  j++ */\n      dup1\n      dup1\n      tag_165\n      swap1\n      tag_70\n      jump\t// in\n    tag_165:\n      swap2\n      pop\n      pop\n        /* \"Users/kyle/projects/aoc2022/contracts/Day3.sol\":1898:2265  for (uint j = 0; j < bytes(elf2).length; j++) {... */\n      jump(tag_146)\n    tag_147:\n      pop\n        /* \"Users/kyle/projects/aoc2022/contracts/Day3.sol\":1879:1882  i++ */\n      dup1\n      dup1\n      tag_166\n      swap1\n      tag_70\n      jump\t// in\n    tag_166:\n      swap2\n      pop\n      pop\n        /* \"Users/kyle/projects/aoc2022/contracts/Day3.sol\":1838:2275  for (uint i = 0; i < bytes(elf1).length; i++) {... */\n      jump(tag_143)\n    tag_144:\n      pop\n        /* \"Users/kyle/projects/aoc2022/contracts/Day3.sol\":2291:2292  0 */\n      0x00\n        /* \"Users/kyle/projects/aoc2022/contracts/Day3.sol\":2284:2292  return 0 */\n      0xf8\n      shl\n      swap1\n      pop\n        /* \"Users/kyle/projects/aoc2022/contracts/Day3.sol\":1719:2299  function find_badge(string memory elf1, string memory elf2, string memory elf3) public pure returns (bytes1) {... */\n    tag_142:\n      swap4\n      swap3\n      pop\n      pop\n      pop\n      jump\t// out\n        /* \"Users/kyle/projects/aoc2022/contracts/strings.sol\":2904:3114  function toSlice(string memory self) internal pure returns (slice memory) {... */\n    tag_48:\n        /* \"Users/kyle/projects/aoc2022/contracts/strings.sol\":2964:2976  slice memory */\n      tag_167\n      tag_168\n      jump\t// in\n    tag_167:\n        /* \"Users/kyle/projects/aoc2022/contracts/strings.sol\":2988:2996  uint ptr */\n      0x00\n        /* \"Users/kyle/projects/aoc2022/contracts/strings.sol\":3046:3050  0x20 */\n      0x20\n        /* \"Users/kyle/projects/aoc2022/contracts/strings.sol\":3040:3044  self */\n      dup4\n        /* \"Users/kyle/projects/aoc2022/contracts/strings.sol\":3036:3051  add(self, 0x20) */\n      add\n        /* \"Users/kyle/projects/aoc2022/contracts/strings.sol\":3029:3051  ptr := add(self, 0x20) */\n      swap1\n      pop\n        /* \"Users/kyle/projects/aoc2022/contracts/strings.sol\":3077:3107  slice(bytes(self).length, ptr) */\n      mload(0x40)\n      dup1\n      0x40\n      add\n      0x40\n      mstore\n      dup1\n        /* \"Users/kyle/projects/aoc2022/contracts/strings.sol\":3089:3093  self */\n      dup5\n        /* \"Users/kyle/projects/aoc2022/contracts/strings.sol\":3083:3101  bytes(self).length */\n      mload\n        /* \"Users/kyle/projects/aoc2022/contracts/strings.sol\":3077:3107  slice(bytes(self).length, ptr) */\n      dup2\n      mstore\n      0x20\n      add\n        /* \"Users/kyle/projects/aoc2022/contracts/strings.sol\":3103:3106  ptr */\n      dup3\n        /* \"Users/kyle/projects/aoc2022/contracts/strings.sol\":3077:3107  slice(bytes(self).length, ptr) */\n      dup2\n      mstore\n      pop\n        /* \"Users/kyle/projects/aoc2022/contracts/strings.sol\":3070:3107  return slice(bytes(self).length, ptr) */\n      swap2\n      pop\n      pop\n        /* \"Users/kyle/projects/aoc2022/contracts/strings.sol\":2904:3114  function toSlice(string memory self) internal pure returns (slice memory) {... */\n      swap2\n      swap1\n      pop\n      jump\t// out\n        /* \"Users/kyle/projects/aoc2022/contracts/strings.sol\":23194:23558  function count(slice memory self, slice memory needle) internal pure returns (uint cnt) {... */\n    tag_51:\n        /* \"Users/kyle/projects/aoc2022/contracts/strings.sol\":23272:23280  uint cnt */\n      0x00\n        /* \"Users/kyle/projects/aoc2022/contracts/strings.sol\":23292:23300  uint ptr */\n      dup1\n        /* \"Users/kyle/projects/aoc2022/contracts/strings.sol\":23361:23367  needle */\n      dup3\n        /* \"Users/kyle/projects/aoc2022/contracts/strings.sol\":23361:23372  needle._len */\n      0x00\n      add\n      mload\n        /* \"Users/kyle/projects/aoc2022/contracts/strings.sol\":23303:23358  findPtr(self._len, self._ptr, needle._len, needle._ptr) */\n      tag_171\n        /* \"Users/kyle/projects/aoc2022/contracts/strings.sol\":23311:23315  self */\n      dup6\n        /* \"Users/kyle/projects/aoc2022/contracts/strings.sol\":23311:23320  self._len */\n      0x00\n      add\n      mload\n        /* \"Users/kyle/projects/aoc2022/contracts/strings.sol\":23322:23326  self */\n      dup7\n        /* \"Users/kyle/projects/aoc2022/contracts/strings.sol\":23322:23331  self._ptr */\n      0x20\n      add\n      mload\n        /* \"Users/kyle/projects/aoc2022/contracts/strings.sol\":23333:23339  needle */\n      dup7\n        /* \"Users/kyle/projects/aoc2022/contracts/strings.sol\":23333:23344  needle._len */\n      0x00\n      add\n      mload\n        /* \"Users/kyle/projects/aoc2022/contracts/strings.sol\":23346:23352  needle */\n      dup8\n        /* \"Users/kyle/projects/aoc2022/contracts/strings.sol\":23346:23357  needle._ptr */\n      0x20\n      add\n      mload\n        /* \"Users/kyle/projects/aoc2022/contracts/strings.sol\":23303:23310  findPtr */\n      tag_172\n        /* \"Users/kyle/projects/aoc2022/contracts/strings.sol\":23303:23358  findPtr(self._len, self._ptr, needle._len, needle._ptr) */\n      jump\t// in\n    tag_171:\n        /* \"Users/kyle/projects/aoc2022/contracts/strings.sol\":23303:23372  findPtr(self._len, self._ptr, needle._len, needle._ptr) + needle._len */\n      tag_173\n      swap2\n      swap1\n      tag_53\n      jump\t// in\n    tag_173:\n        /* \"Users/kyle/projects/aoc2022/contracts/strings.sol\":23292:23372  uint ptr = findPtr(self._len, self._ptr, needle._len, needle._ptr) + needle._len */\n      swap1\n      pop\n        /* \"Users/kyle/projects/aoc2022/contracts/strings.sol\":23382:23552  while (ptr <= self._ptr + self._len) {... */\n    tag_174:\n        /* \"Users/kyle/projects/aoc2022/contracts/strings.sol\":23408:23412  self */\n      dup4\n        /* \"Users/kyle/projects/aoc2022/contracts/strings.sol\":23408:23417  self._len */\n      0x00\n      add\n      mload\n        /* \"Users/kyle/projects/aoc2022/contracts/strings.sol\":23396:23400  self */\n      dup5\n        /* \"Users/kyle/projects/aoc2022/contracts/strings.sol\":23396:23405  self._ptr */\n      0x20\n      add\n      mload\n        /* \"Users/kyle/projects/aoc2022/contracts/strings.sol\":23396:23417  self._ptr + self._len */\n      tag_176\n      swap2\n      swap1\n      tag_53\n      jump\t// in\n    tag_176:\n        /* \"Users/kyle/projects/aoc2022/contracts/strings.sol\":23389:23392  ptr */\n      dup2\n        /* \"Users/kyle/projects/aoc2022/contracts/strings.sol\":23389:23417  ptr <= self._ptr + self._len */\n      gt\n        /* \"Users/kyle/projects/aoc2022/contracts/strings.sol\":23382:23552  while (ptr <= self._ptr + self._len) {... */\n      tag_175\n      jumpi\n        /* \"Users/kyle/projects/aoc2022/contracts/strings.sol\":23433:23438  cnt++ */\n      dup2\n      dup1\n      tag_177\n      swap1\n      tag_70\n      jump\t// in\n    tag_177:\n      swap3\n      pop\n      pop\n        /* \"Users/kyle/projects/aoc2022/contracts/strings.sol\":23530:23536  needle */\n      dup3\n        /* \"Users/kyle/projects/aoc2022/contracts/strings.sol\":23530:23541  needle._len */\n      0x00\n      add\n      mload\n        /* \"Users/kyle/projects/aoc2022/contracts/strings.sol\":23458:23527  findPtr(self._len - (ptr - self._ptr), ptr, needle._len, needle._ptr) */\n      tag_178\n        /* \"Users/kyle/projects/aoc2022/contracts/strings.sol\":23485:23489  self */\n      dup6\n        /* \"Users/kyle/projects/aoc2022/contracts/strings.sol\":23485:23494  self._ptr */\n      0x20\n      add\n      mload\n        /* \"Users/kyle/projects/aoc2022/contracts/strings.sol\":23479:23482  ptr */\n      dup4\n        /* \"Users/kyle/projects/aoc2022/contracts/strings.sol\":23479:23494  ptr - self._ptr */\n      tag_179\n      swap2\n      swap1\n      tag_74\n      jump\t// in\n    tag_179:\n        /* \"Users/kyle/projects/aoc2022/contracts/strings.sol\":23466:23470  self */\n      dup7\n        /* \"Users/kyle/projects/aoc2022/contracts/strings.sol\":23466:23475  self._len */\n      0x00\n      add\n      mload\n        /* \"Users/kyle/projects/aoc2022/contracts/strings.sol\":23466:23495  self._len - (ptr - self._ptr) */\n      tag_180\n      swap2\n      swap1\n      tag_74\n      jump\t// in\n    tag_180:\n        /* \"Users/kyle/projects/aoc2022/contracts/strings.sol\":23497:23500  ptr */\n      dup4\n        /* \"Users/kyle/projects/aoc2022/contracts/strings.sol\":23502:23508  needle */\n      dup7\n        /* \"Users/kyle/projects/aoc2022/contracts/strings.sol\":23502:23513  needle._len */\n      0x00\n      add\n      mload\n        /* \"Users/kyle/projects/aoc2022/contracts/strings.sol\":23515:23521  needle */\n      dup8\n        /* \"Users/kyle/projects/aoc2022/contracts/strings.sol\":23515:23526  needle._ptr */\n      0x20\n      add\n      mload\n        /* \"Users/kyle/projects/aoc2022/contracts/strings.sol\":23458:23465  findPtr */\n      tag_172\n        /* \"Users/kyle/projects/aoc2022/contracts/strings.sol\":23458:23527  findPtr(self._len - (ptr - self._ptr), ptr, needle._len, needle._ptr) */\n      jump\t// in\n    tag_178:\n        /* \"Users/kyle/projects/aoc2022/contracts/strings.sol\":23458:23541  findPtr(self._len - (ptr - self._ptr), ptr, needle._len, needle._ptr) + needle._len */\n      tag_181\n      swap2\n      swap1\n      tag_53\n      jump\t// in\n    tag_181:\n        /* \"Users/kyle/projects/aoc2022/contracts/strings.sol\":23452:23541  ptr = findPtr(self._len - (ptr - self._ptr), ptr, needle._len, needle._ptr) + needle._len */\n      swap1\n      pop\n        /* \"Users/kyle/projects/aoc2022/contracts/strings.sol\":23382:23552  while (ptr <= self._ptr + self._len) {... */\n      jump(tag_174)\n    tag_175:\n        /* \"Users/kyle/projects/aoc2022/contracts/strings.sol\":23282:23558  {... */\n      pop\n        /* \"Users/kyle/projects/aoc2022/contracts/strings.sol\":23194:23558  function count(slice memory self, slice memory needle) internal pure returns (uint cnt) {... */\n      swap3\n      swap2\n      pop\n      pop\n      jump\t// out\n        /* \"Users/kyle/projects/aoc2022/contracts/strings.sol\":21208:21349  function split(slice memory self, slice memory needle) internal pure returns (slice memory token) {... */\n    tag_64:\n        /* \"Users/kyle/projects/aoc2022/contracts/strings.sol\":21286:21304  slice memory token */\n      tag_182\n      tag_168\n      jump\t// in\n    tag_182:\n        /* \"Users/kyle/projects/aoc2022/contracts/strings.sol\":21316:21342  split(self, needle, token) */\n      tag_184\n        /* \"Users/kyle/projects/aoc2022/contracts/strings.sol\":21322:21326  self */\n      dup4\n        /* \"Users/kyle/projects/aoc2022/contracts/strings.sol\":21328:21334  needle */\n      dup4\n        /* \"Users/kyle/projects/aoc2022/contracts/strings.sol\":21336:21341  token */\n      dup4\n        /* \"Users/kyle/projects/aoc2022/contracts/strings.sol\":21316:21321  split */\n      tag_185\n        /* \"Users/kyle/projects/aoc2022/contracts/strings.sol\":21316:21342  split(self, needle, token) */\n      jump\t// in\n    tag_184:\n      pop\n        /* \"Users/kyle/projects/aoc2022/contracts/strings.sol\":21208:21349  function split(slice memory self, slice memory needle) internal pure returns (slice memory token) {... */\n      swap3\n      swap2\n      pop\n      pop\n      jump\t// out\n        /* \"Users/kyle/projects/aoc2022/contracts/strings.sol\":5286:5551  function toString(slice memory self) internal pure returns (string memory) {... */\n    tag_65:\n        /* \"Users/kyle/projects/aoc2022/contracts/strings.sol\":5346:5359  string memory */\n      0x60\n        /* \"Users/kyle/projects/aoc2022/contracts/strings.sol\":5371:5388  string memory ret */\n      0x00\n        /* \"Users/kyle/projects/aoc2022/contracts/strings.sol\":5402:5406  self */\n      dup3\n        /* \"Users/kyle/projects/aoc2022/contracts/strings.sol\":5402:5411  self._len */\n      0x00\n      add\n      mload\n        /* \"Users/kyle/projects/aoc2022/contracts/strings.sol\":5391:5412  new string(self._len) */\n      0xffffffffffffffff\n      dup2\n      gt\n      iszero\n      tag_187\n      jumpi\n      tag_188\n      tag_56\n      jump\t// in\n    tag_188:\n    tag_187:\n      mload(0x40)\n      swap1\n      dup1\n      dup3\n      mstore\n      dup1\n      0x1f\n      add\n      not(0x1f)\n      and\n      0x20\n      add\n      dup3\n      add\n      0x40\n      mstore\n      dup1\n      iszero\n      tag_189\n      jumpi\n      dup2\n      0x20\n      add\n      0x01\n      dup3\n      mul\n      dup1\n      calldatasize\n      dup4\n      calldatacopy\n      dup1\n      dup3\n      add\n      swap2\n      pop\n      pop\n      swap1\n      pop\n    tag_189:\n      pop\n        /* \"Users/kyle/projects/aoc2022/contracts/strings.sol\":5371:5412  string memory ret = new string(self._len) */\n      swap1\n      pop\n        /* \"Users/kyle/projects/aoc2022/contracts/strings.sol\":5422:5433  uint retptr */\n      0x00\n        /* \"Users/kyle/projects/aoc2022/contracts/strings.sol\":5473:5475  32 */\n      0x20\n        /* \"Users/kyle/projects/aoc2022/contracts/strings.sol\":5468:5471  ret */\n      dup3\n        /* \"Users/kyle/projects/aoc2022/contracts/strings.sol\":5464:5476  add(ret, 32) */\n      add\n        /* \"Users/kyle/projects/aoc2022/contracts/strings.sol\":5454:5476  retptr := add(ret, 32) */\n      swap1\n      pop\n        /* \"Users/kyle/projects/aoc2022/contracts/strings.sol\":5488:5524  memcpy(retptr, self._ptr, self._len) */\n      tag_190\n        /* \"Users/kyle/projects/aoc2022/contracts/strings.sol\":5495:5501  retptr */\n      dup2\n        /* \"Users/kyle/projects/aoc2022/contracts/strings.sol\":5503:5507  self */\n      dup6\n        /* \"Users/kyle/projects/aoc2022/contracts/strings.sol\":5503:5512  self._ptr */\n      0x20\n      add\n      mload\n        /* \"Users/kyle/projects/aoc2022/contracts/strings.sol\":5514:5518  self */\n      dup7\n        /* \"Users/kyle/projects/aoc2022/contracts/strings.sol\":5514:5523  self._len */\n      0x00\n      add\n      mload\n        /* \"Users/kyle/projects/aoc2022/contracts/strings.sol\":5488:5494  memcpy */\n      tag_191\n        /* \"Users/kyle/projects/aoc2022/contracts/strings.sol\":5488:5524  memcpy(retptr, self._ptr, self._len) */\n      jump\t// in\n    tag_190:\n        /* \"Users/kyle/projects/aoc2022/contracts/strings.sol\":5541:5544  ret */\n      dup2\n        /* \"Users/kyle/projects/aoc2022/contracts/strings.sol\":5534:5544  return ret */\n      swap3\n      pop\n      pop\n      pop\n        /* \"Users/kyle/projects/aoc2022/contracts/strings.sol\":5286:5551  function toString(slice memory self) internal pure returns (string memory) {... */\n      swap2\n      swap1\n      pop\n      jump\t// out\n        /* \"Users/kyle/projects/aoc2022/contracts/strings.sol\":15477:16930  function findPtr(uint selflen, uint selfptr, uint needlelen, uint needleptr) private pure returns (uint) {... */\n    tag_172:\n        /* \"Users/kyle/projects/aoc2022/contracts/strings.sol\":15576:15580  uint */\n      0x00\n        /* \"Users/kyle/projects/aoc2022/contracts/strings.sol\":15592:15600  uint ptr */\n      dup1\n        /* \"Users/kyle/projects/aoc2022/contracts/strings.sol\":15603:15610  selfptr */\n      dup5\n        /* \"Users/kyle/projects/aoc2022/contracts/strings.sol\":15592:15610  uint ptr = selfptr */\n      swap1\n      pop\n        /* \"Users/kyle/projects/aoc2022/contracts/strings.sol\":15620:15628  uint idx */\n      0x00\n        /* \"Users/kyle/projects/aoc2022/contracts/strings.sol\":15656:15663  selflen */\n      dup7\n        /* \"Users/kyle/projects/aoc2022/contracts/strings.sol\":15643:15652  needlelen */\n      dup6\n        /* \"Users/kyle/projects/aoc2022/contracts/strings.sol\":15643:15663  needlelen <= selflen */\n      gt\n        /* \"Users/kyle/projects/aoc2022/contracts/strings.sol\":15639:16890  if (needlelen <= selflen) {... */\n      tag_193\n      jumpi\n        /* \"Users/kyle/projects/aoc2022/contracts/strings.sol\":15696:15698  32 */\n      0x20\n        /* \"Users/kyle/projects/aoc2022/contracts/strings.sol\":15683:15692  needlelen */\n      dup6\n        /* \"Users/kyle/projects/aoc2022/contracts/strings.sol\":15683:15698  needlelen <= 32 */\n      gt\n        /* \"Users/kyle/projects/aoc2022/contracts/strings.sol\":15679:16880  if (needlelen <= 32) {... */\n      tag_194\n      jumpi\n        /* \"Users/kyle/projects/aoc2022/contracts/strings.sol\":15718:15730  bytes32 mask */\n      0x00\n        /* \"Users/kyle/projects/aoc2022/contracts/strings.sol\":15764:15765  0 */\n      dup1\n        /* \"Users/kyle/projects/aoc2022/contracts/strings.sol\":15752:15761  needlelen */\n      dup7\n        /* \"Users/kyle/projects/aoc2022/contracts/strings.sol\":15752:15765  needlelen > 0 */\n      gt\n        /* \"Users/kyle/projects/aoc2022/contracts/strings.sol\":15748:15858  if (needlelen > 0) {... */\n      iszero\n      tag_195\n      jumpi\n        /* \"Users/kyle/projects/aoc2022/contracts/strings.sol\":15836:15837  1 */\n      0x01\n        /* \"Users/kyle/projects/aoc2022/contracts/strings.sol\":15822:15831  needlelen */\n      dup7\n        /* \"Users/kyle/projects/aoc2022/contracts/strings.sol\":15817:15819  32 */\n      0x20\n        /* \"Users/kyle/projects/aoc2022/contracts/strings.sol\":15817:15831  32 - needlelen */\n      tag_196\n      swap2\n      swap1\n      tag_74\n      jump\t// in\n    tag_196:\n        /* \"Users/kyle/projects/aoc2022/contracts/strings.sol\":15812:15813  8 */\n      0x08\n        /* \"Users/kyle/projects/aoc2022/contracts/strings.sol\":15812:15832  8 * (32 - needlelen) */\n      tag_197\n      swap2\n      swap1\n      tag_198\n      jump\t// in\n    tag_197:\n        /* \"Users/kyle/projects/aoc2022/contracts/strings.sol\":15806:15807  2 */\n      0x02\n        /* \"Users/kyle/projects/aoc2022/contracts/strings.sol\":15806:15833  2 ** (8 * (32 - needlelen)) */\n      tag_199\n      swap2\n      swap1\n      tag_200\n      jump\t// in\n    tag_199:\n        /* \"Users/kyle/projects/aoc2022/contracts/strings.sol\":15806:15837  2 ** (8 * (32 - needlelen)) - 1 */\n      tag_201\n      swap2\n      swap1\n      tag_74\n      jump\t// in\n    tag_201:\n        /* \"Users/kyle/projects/aoc2022/contracts/strings.sol\":15804:15838  ~(2 ** (8 * (32 - needlelen)) - 1) */\n      not\n        /* \"Users/kyle/projects/aoc2022/contracts/strings.sol\":15796:15839  bytes32(~(2 ** (8 * (32 - needlelen)) - 1)) */\n      0x00\n      shl\n        /* \"Users/kyle/projects/aoc2022/contracts/strings.sol\":15789:15839  mask = bytes32(~(2 ** (8 * (32 - needlelen)) - 1)) */\n      swap1\n      pop\n        /* \"Users/kyle/projects/aoc2022/contracts/strings.sol\":15748:15858  if (needlelen > 0) {... */\n    tag_195:\n        /* \"Users/kyle/projects/aoc2022/contracts/strings.sol\":15876:15894  bytes32 needledata */\n      0x00\n        /* \"Users/kyle/projects/aoc2022/contracts/strings.sol\":15959:15963  mask */\n      dup2\n        /* \"Users/kyle/projects/aoc2022/contracts/strings.sol\":15947:15956  needleptr */\n      dup7\n        /* \"Users/kyle/projects/aoc2022/contracts/strings.sol\":15941:15957  mload(needleptr) */\n      mload\n        /* \"Users/kyle/projects/aoc2022/contracts/strings.sol\":15937:15964  and(mload(needleptr), mask) */\n      and\n        /* \"Users/kyle/projects/aoc2022/contracts/strings.sol\":15923:15964  needledata := and(mload(needleptr), mask) */\n      swap1\n      pop\n        /* \"Users/kyle/projects/aoc2022/contracts/strings.sol\":15984:15992  uint end */\n      0x00\n        /* \"Users/kyle/projects/aoc2022/contracts/strings.sol\":16015:16024  needlelen */\n      dup8\n        /* \"Users/kyle/projects/aoc2022/contracts/strings.sol\":16005:16012  selflen */\n      dup11\n        /* \"Users/kyle/projects/aoc2022/contracts/strings.sol\":15995:16002  selfptr */\n      dup11\n        /* \"Users/kyle/projects/aoc2022/contracts/strings.sol\":15995:16012  selfptr + selflen */\n      tag_202\n      swap2\n      swap1\n      tag_53\n      jump\t// in\n    tag_202:\n        /* \"Users/kyle/projects/aoc2022/contracts/strings.sol\":15995:16024  selfptr + selflen - needlelen */\n      tag_203\n      swap2\n      swap1\n      tag_74\n      jump\t// in\n    tag_203:\n        /* \"Users/kyle/projects/aoc2022/contracts/strings.sol\":15984:16024  uint end = selfptr + selflen - needlelen */\n      swap1\n      pop\n        /* \"Users/kyle/projects/aoc2022/contracts/strings.sol\":16042:16057  bytes32 ptrdata */\n      0x00\n        /* \"Users/kyle/projects/aoc2022/contracts/strings.sol\":16113:16117  mask */\n      dup4\n        /* \"Users/kyle/projects/aoc2022/contracts/strings.sol\":16107:16110  ptr */\n      dup7\n        /* \"Users/kyle/projects/aoc2022/contracts/strings.sol\":16101:16111  mload(ptr) */\n      mload\n        /* \"Users/kyle/projects/aoc2022/contracts/strings.sol\":16097:16118  and(mload(ptr), mask) */\n      and\n        /* \"Users/kyle/projects/aoc2022/contracts/strings.sol\":16086:16118  ptrdata := and(mload(ptr), mask) */\n      swap1\n      pop\n        /* \"Users/kyle/projects/aoc2022/contracts/strings.sol\":16138:16366  while (ptrdata != needledata) {... */\n    tag_204:\n        /* \"Users/kyle/projects/aoc2022/contracts/strings.sol\":16156:16166  needledata */\n      dup3\n        /* \"Users/kyle/projects/aoc2022/contracts/strings.sol\":16145:16152  ptrdata */\n      dup2\n        /* \"Users/kyle/projects/aoc2022/contracts/strings.sol\":16145:16166  ptrdata != needledata */\n      eq\n        /* \"Users/kyle/projects/aoc2022/contracts/strings.sol\":16138:16366  while (ptrdata != needledata) {... */\n      tag_205\n      jumpi\n        /* \"Users/kyle/projects/aoc2022/contracts/strings.sol\":16201:16204  end */\n      dup2\n        /* \"Users/kyle/projects/aoc2022/contracts/strings.sol\":16194:16197  ptr */\n      dup7\n        /* \"Users/kyle/projects/aoc2022/contracts/strings.sol\":16194:16204  ptr >= end */\n      lt\n        /* \"Users/kyle/projects/aoc2022/contracts/strings.sol\":16190:16254  if (ptr >= end)... */\n      tag_206\n      jumpi\n        /* \"Users/kyle/projects/aoc2022/contracts/strings.sol\":16247:16254  selflen */\n      dup11\n        /* \"Users/kyle/projects/aoc2022/contracts/strings.sol\":16237:16244  selfptr */\n      dup11\n        /* \"Users/kyle/projects/aoc2022/contracts/strings.sol\":16237:16254  selfptr + selflen */\n      tag_207\n      swap2\n      swap1\n      tag_53\n      jump\t// in\n    tag_207:\n        /* \"Users/kyle/projects/aoc2022/contracts/strings.sol\":16230:16254  return selfptr + selflen */\n      swap7\n      pop\n      pop\n      pop\n      pop\n      pop\n      pop\n      pop\n      jump(tag_192)\n        /* \"Users/kyle/projects/aoc2022/contracts/strings.sol\":16190:16254  if (ptr >= end)... */\n    tag_206:\n        /* \"Users/kyle/projects/aoc2022/contracts/strings.sol\":16276:16281  ptr++ */\n      dup6\n      dup1\n      tag_208\n      swap1\n      tag_70\n      jump\t// in\n    tag_208:\n      swap7\n      pop\n      pop\n        /* \"Users/kyle/projects/aoc2022/contracts/strings.sol\":16341:16345  mask */\n      dup4\n        /* \"Users/kyle/projects/aoc2022/contracts/strings.sol\":16335:16338  ptr */\n      dup7\n        /* \"Users/kyle/projects/aoc2022/contracts/strings.sol\":16329:16339  mload(ptr) */\n      mload\n        /* \"Users/kyle/projects/aoc2022/contracts/strings.sol\":16325:16346  and(mload(ptr), mask) */\n      and\n        /* \"Users/kyle/projects/aoc2022/contracts/strings.sol\":16314:16346  ptrdata := and(mload(ptr), mask) */\n      swap1\n      pop\n        /* \"Users/kyle/projects/aoc2022/contracts/strings.sol\":16138:16366  while (ptrdata != needledata) {... */\n      jump(tag_204)\n    tag_205:\n        /* \"Users/kyle/projects/aoc2022/contracts/strings.sol\":16390:16393  ptr */\n      dup6\n        /* \"Users/kyle/projects/aoc2022/contracts/strings.sol\":16383:16393  return ptr */\n      swap7\n      pop\n      pop\n      pop\n      pop\n      pop\n      pop\n      pop\n      jump(tag_192)\n        /* \"Users/kyle/projects/aoc2022/contracts/strings.sol\":15679:16880  if (needlelen <= 32) {... */\n    tag_194:\n        /* \"Users/kyle/projects/aoc2022/contracts/strings.sol\":16481:16493  bytes32 hash */\n      0x00\n        /* \"Users/kyle/projects/aoc2022/contracts/strings.sol\":16551:16560  needlelen */\n      dup6\n        /* \"Users/kyle/projects/aoc2022/contracts/strings.sol\":16540:16549  needleptr */\n      dup6\n        /* \"Users/kyle/projects/aoc2022/contracts/strings.sol\":16530:16561  keccak256(needleptr, needlelen) */\n      keccak256\n        /* \"Users/kyle/projects/aoc2022/contracts/strings.sol\":16522:16561  hash := keccak256(needleptr, needlelen) */\n      swap1\n      pop\n        /* \"Users/kyle/projects/aoc2022/contracts/strings.sol\":16592:16593  0 */\n      0x00\n        /* \"Users/kyle/projects/aoc2022/contracts/strings.sol\":16586:16593  idx = 0 */\n      swap2\n      pop\n        /* \"Users/kyle/projects/aoc2022/contracts/strings.sol\":16581:16866  for (idx = 0; idx <= selflen - needlelen; idx++) {... */\n    tag_210:\n        /* \"Users/kyle/projects/aoc2022/contracts/strings.sol\":16612:16621  needlelen */\n      dup6\n        /* \"Users/kyle/projects/aoc2022/contracts/strings.sol\":16602:16609  selflen */\n      dup9\n        /* \"Users/kyle/projects/aoc2022/contracts/strings.sol\":16602:16621  selflen - needlelen */\n      tag_213\n      swap2\n      swap1\n      tag_74\n      jump\t// in\n    tag_213:\n        /* \"Users/kyle/projects/aoc2022/contracts/strings.sol\":16595:16598  idx */\n      dup3\n        /* \"Users/kyle/projects/aoc2022/contracts/strings.sol\":16595:16621  idx <= selflen - needlelen */\n      gt\n        /* \"Users/kyle/projects/aoc2022/contracts/strings.sol\":16581:16866  for (idx = 0; idx <= selflen - needlelen; idx++) {... */\n      tag_211\n      jumpi\n        /* \"Users/kyle/projects/aoc2022/contracts/strings.sol\":16652:16668  bytes32 testHash */\n      0x00\n        /* \"Users/kyle/projects/aoc2022/contracts/strings.sol\":16728:16737  needlelen */\n      dup7\n        /* \"Users/kyle/projects/aoc2022/contracts/strings.sol\":16723:16726  ptr */\n      dup5\n        /* \"Users/kyle/projects/aoc2022/contracts/strings.sol\":16713:16738  keccak256(ptr, needlelen) */\n      keccak256\n        /* \"Users/kyle/projects/aoc2022/contracts/strings.sol\":16701:16738  testHash := keccak256(ptr, needlelen) */\n      swap1\n      pop\n        /* \"Users/kyle/projects/aoc2022/contracts/strings.sol\":16773:16781  testHash */\n      dup1\n        /* \"Users/kyle/projects/aoc2022/contracts/strings.sol\":16765:16769  hash */\n      dup3\n        /* \"Users/kyle/projects/aoc2022/contracts/strings.sol\":16765:16781  hash == testHash */\n      sub\n        /* \"Users/kyle/projects/aoc2022/contracts/strings.sol\":16761:16817  if (hash == testHash)... */\n      tag_214\n      jumpi\n        /* \"Users/kyle/projects/aoc2022/contracts/strings.sol\":16814:16817  ptr */\n      dup4\n        /* \"Users/kyle/projects/aoc2022/contracts/strings.sol\":16807:16817  return ptr */\n      swap5\n      pop\n      pop\n      pop\n      pop\n      pop\n      jump(tag_192)\n        /* \"Users/kyle/projects/aoc2022/contracts/strings.sol\":16761:16817  if (hash == testHash)... */\n    tag_214:\n        /* \"Users/kyle/projects/aoc2022/contracts/strings.sol\":16846:16847  1 */\n      0x01\n        /* \"Users/kyle/projects/aoc2022/contracts/strings.sol\":16839:16847  ptr += 1 */\n      dup5\n      tag_215\n      swap2\n      swap1\n      tag_53\n      jump\t// in\n    tag_215:\n      swap4\n      pop\n        /* \"Users/kyle/projects/aoc2022/contracts/strings.sol\":16630:16866  {... */\n      pop\n        /* \"Users/kyle/projects/aoc2022/contracts/strings.sol\":16623:16628  idx++ */\n      dup2\n      dup1\n      tag_216\n      swap1\n      tag_70\n      jump\t// in\n    tag_216:\n      swap3\n      pop\n      pop\n        /* \"Users/kyle/projects/aoc2022/contracts/strings.sol\":16581:16866  for (idx = 0; idx <= selflen - needlelen; idx++) {... */\n      jump(tag_210)\n    tag_211:\n        /* \"Users/kyle/projects/aoc2022/contracts/strings.sol\":16414:16880  {... */\n      pop\n        /* \"Users/kyle/projects/aoc2022/contracts/strings.sol\":15639:16890  if (needlelen <= selflen) {... */\n    tag_193:\n        /* \"Users/kyle/projects/aoc2022/contracts/strings.sol\":16916:16923  selflen */\n      dup7\n        /* \"Users/kyle/projects/aoc2022/contracts/strings.sol\":16906:16913  selfptr */\n      dup7\n        /* \"Users/kyle/projects/aoc2022/contracts/strings.sol\":16906:16923  selfptr + selflen */\n      tag_217\n      swap2\n      swap1\n      tag_53\n      jump\t// in\n    tag_217:\n        /* \"Users/kyle/projects/aoc2022/contracts/strings.sol\":16899:16923  return selfptr + selflen */\n      swap3\n      pop\n      pop\n      pop\n        /* \"Users/kyle/projects/aoc2022/contracts/strings.sol\":15477:16930  function findPtr(uint selflen, uint selfptr, uint needlelen, uint needleptr) private pure returns (uint) {... */\n    tag_192:\n      swap5\n      swap4\n      pop\n      pop\n      pop\n      pop\n      jump\t// out\n        /* \"Users/kyle/projects/aoc2022/contracts/strings.sol\":20233:20737  function split(slice memory self, slice memory needle, slice memory token) internal pure returns (slice memory) {... */\n    tag_185:\n        /* \"Users/kyle/projects/aoc2022/contracts/strings.sol\":20331:20343  slice memory */\n      tag_218\n      tag_168\n      jump\t// in\n    tag_218:\n        /* \"Users/kyle/projects/aoc2022/contracts/strings.sol\":20355:20363  uint ptr */\n      0x00\n        /* \"Users/kyle/projects/aoc2022/contracts/strings.sol\":20366:20421  findPtr(self._len, self._ptr, needle._len, needle._ptr) */\n      tag_220\n        /* \"Users/kyle/projects/aoc2022/contracts/strings.sol\":20374:20378  self */\n      dup6\n        /* \"Users/kyle/projects/aoc2022/contracts/strings.sol\":20374:20383  self._len */\n      0x00\n      add\n      mload\n        /* \"Users/kyle/projects/aoc2022/contracts/strings.sol\":20385:20389  self */\n      dup7\n        /* \"Users/kyle/projects/aoc2022/contracts/strings.sol\":20385:20394  self._ptr */\n      0x20\n      add\n      mload\n        /* \"Users/kyle/projects/aoc2022/contracts/strings.sol\":20396:20402  needle */\n      dup7\n        /* \"Users/kyle/projects/aoc2022/contracts/strings.sol\":20396:20407  needle._len */\n      0x00\n      add\n      mload\n        /* \"Users/kyle/projects/aoc2022/contracts/strings.sol\":20409:20415  needle */\n      dup8\n        /* \"Users/kyle/projects/aoc2022/contracts/strings.sol\":20409:20420  needle._ptr */\n      0x20\n      add\n      mload\n        /* \"Users/kyle/projects/aoc2022/contracts/strings.sol\":20366:20373  findPtr */\n      tag_172\n        /* \"Users/kyle/projects/aoc2022/contracts/strings.sol\":20366:20421  findPtr(self._len, self._ptr, needle._len, needle._ptr) */\n      jump\t// in\n    tag_220:\n        /* \"Users/kyle/projects/aoc2022/contracts/strings.sol\":20355:20421  uint ptr = findPtr(self._len, self._ptr, needle._len, needle._ptr) */\n      swap1\n      pop\n        /* \"Users/kyle/projects/aoc2022/contracts/strings.sol\":20444:20448  self */\n      dup5\n        /* \"Users/kyle/projects/aoc2022/contracts/strings.sol\":20444:20453  self._ptr */\n      0x20\n      add\n      mload\n        /* \"Users/kyle/projects/aoc2022/contracts/strings.sol\":20431:20436  token */\n      dup4\n        /* \"Users/kyle/projects/aoc2022/contracts/strings.sol\":20431:20441  token._ptr */\n      0x20\n      add\n        /* \"Users/kyle/projects/aoc2022/contracts/strings.sol\":20431:20453  token._ptr = self._ptr */\n      dup2\n      dup2\n      mstore\n      pop\n      pop\n        /* \"Users/kyle/projects/aoc2022/contracts/strings.sol\":20482:20486  self */\n      dup5\n        /* \"Users/kyle/projects/aoc2022/contracts/strings.sol\":20482:20491  self._ptr */\n      0x20\n      add\n      mload\n        /* \"Users/kyle/projects/aoc2022/contracts/strings.sol\":20476:20479  ptr */\n      dup2\n        /* \"Users/kyle/projects/aoc2022/contracts/strings.sol\":20476:20491  ptr - self._ptr */\n      tag_221\n      swap2\n      swap1\n      tag_74\n      jump\t// in\n    tag_221:\n        /* \"Users/kyle/projects/aoc2022/contracts/strings.sol\":20463:20468  token */\n      dup4\n        /* \"Users/kyle/projects/aoc2022/contracts/strings.sol\":20463:20473  token._len */\n      0x00\n      add\n        /* \"Users/kyle/projects/aoc2022/contracts/strings.sol\":20463:20491  token._len = ptr - self._ptr */\n      dup2\n      dup2\n      mstore\n      pop\n      pop\n        /* \"Users/kyle/projects/aoc2022/contracts/strings.sol\":20524:20528  self */\n      dup5\n        /* \"Users/kyle/projects/aoc2022/contracts/strings.sol\":20524:20533  self._len */\n      0x00\n      add\n      mload\n        /* \"Users/kyle/projects/aoc2022/contracts/strings.sol\":20512:20516  self */\n      dup6\n        /* \"Users/kyle/projects/aoc2022/contracts/strings.sol\":20512:20521  self._ptr */\n      0x20\n      add\n      mload\n        /* \"Users/kyle/projects/aoc2022/contracts/strings.sol\":20512:20533  self._ptr + self._len */\n      tag_222\n      swap2\n      swap1\n      tag_53\n      jump\t// in\n    tag_222:\n        /* \"Users/kyle/projects/aoc2022/contracts/strings.sol\":20505:20508  ptr */\n      dup2\n        /* \"Users/kyle/projects/aoc2022/contracts/strings.sol\":20505:20533  ptr == self._ptr + self._len */\n      sub\n        /* \"Users/kyle/projects/aoc2022/contracts/strings.sol\":20501:20709  if (ptr == self._ptr + self._len) {... */\n      tag_223\n      jumpi\n        /* \"Users/kyle/projects/aoc2022/contracts/strings.sol\":20586:20587  0 */\n      0x00\n        /* \"Users/kyle/projects/aoc2022/contracts/strings.sol\":20574:20578  self */\n      dup6\n        /* \"Users/kyle/projects/aoc2022/contracts/strings.sol\":20574:20583  self._len */\n      0x00\n      add\n        /* \"Users/kyle/projects/aoc2022/contracts/strings.sol\":20574:20587  self._len = 0 */\n      dup2\n      dup2\n      mstore\n      pop\n      pop\n        /* \"Users/kyle/projects/aoc2022/contracts/strings.sol\":20501:20709  if (ptr == self._ptr + self._len) {... */\n      jump(tag_224)\n    tag_223:\n        /* \"Users/kyle/projects/aoc2022/contracts/strings.sol\":20644:20650  needle */\n      dup4\n        /* \"Users/kyle/projects/aoc2022/contracts/strings.sol\":20644:20655  needle._len */\n      0x00\n      add\n      mload\n        /* \"Users/kyle/projects/aoc2022/contracts/strings.sol\":20631:20636  token */\n      dup4\n        /* \"Users/kyle/projects/aoc2022/contracts/strings.sol\":20631:20641  token._len */\n      0x00\n      add\n      mload\n        /* \"Users/kyle/projects/aoc2022/contracts/strings.sol\":20631:20655  token._len + needle._len */\n      tag_225\n      swap2\n      swap1\n      tag_53\n      jump\t// in\n    tag_225:\n        /* \"Users/kyle/projects/aoc2022/contracts/strings.sol\":20618:20622  self */\n      dup6\n        /* \"Users/kyle/projects/aoc2022/contracts/strings.sol\":20618:20627  self._len */\n      0x00\n      add\n        /* \"Users/kyle/projects/aoc2022/contracts/strings.sol\":20618:20655  self._len -= token._len + needle._len */\n      dup2\n      dup2\n      mload\n      tag_226\n      swap2\n      swap1\n      tag_74\n      jump\t// in\n    tag_226:\n      swap2\n      pop\n      dup2\n      dup2\n      mstore\n      pop\n      pop\n        /* \"Users/kyle/projects/aoc2022/contracts/strings.sol\":20687:20693  needle */\n      dup4\n        /* \"Users/kyle/projects/aoc2022/contracts/strings.sol\":20687:20698  needle._len */\n      0x00\n      add\n      mload\n        /* \"Users/kyle/projects/aoc2022/contracts/strings.sol\":20681:20684  ptr */\n      dup2\n        /* \"Users/kyle/projects/aoc2022/contracts/strings.sol\":20681:20698  ptr + needle._len */\n      tag_227\n      swap2\n      swap1\n      tag_53\n      jump\t// in\n    tag_227:\n        /* \"Users/kyle/projects/aoc2022/contracts/strings.sol\":20669:20673  self */\n      dup6\n        /* \"Users/kyle/projects/aoc2022/contracts/strings.sol\":20669:20678  self._ptr */\n      0x20\n      add\n        /* \"Users/kyle/projects/aoc2022/contracts/strings.sol\":20669:20698  self._ptr = ptr + needle._len */\n      dup2\n      dup2\n      mstore\n      pop\n      pop\n        /* \"Users/kyle/projects/aoc2022/contracts/strings.sol\":20501:20709  if (ptr == self._ptr + self._len) {... */\n    tag_224:\n        /* \"Users/kyle/projects/aoc2022/contracts/strings.sol\":20725:20730  token */\n      dup3\n        /* \"Users/kyle/projects/aoc2022/contracts/strings.sol\":20718:20730  return token */\n      swap2\n      pop\n      pop\n        /* \"Users/kyle/projects/aoc2022/contracts/strings.sol\":20233:20737  function split(slice memory self, slice memory needle, slice memory token) internal pure returns (slice memory) {... */\n      swap4\n      swap3\n      pop\n      pop\n      pop\n      jump\t// out\n        /* \"Users/kyle/projects/aoc2022/contracts/strings.sol\":2088:2704  function memcpy(uint dest, uint src, uint len) private pure {... */\n    tag_191:\n        /* \"Users/kyle/projects/aoc2022/contracts/strings.sol\":2208:2372  for(; len >= 32; len -= 32) {... */\n    tag_229:\n        /* \"Users/kyle/projects/aoc2022/contracts/strings.sol\":2221:2223  32 */\n      0x20\n        /* \"Users/kyle/projects/aoc2022/contracts/strings.sol\":2214:2217  len */\n      dup2\n        /* \"Users/kyle/projects/aoc2022/contracts/strings.sol\":2214:2223  len >= 32 */\n      lt\n        /* \"Users/kyle/projects/aoc2022/contracts/strings.sol\":2208:2372  for(; len >= 32; len -= 32) {... */\n      tag_230\n      jumpi\n        /* \"Users/kyle/projects/aoc2022/contracts/strings.sol\":2296:2299  src */\n      dup2\n        /* \"Users/kyle/projects/aoc2022/contracts/strings.sol\":2290:2300  mload(src) */\n      mload\n        /* \"Users/kyle/projects/aoc2022/contracts/strings.sol\":2284:2288  dest */\n      dup4\n        /* \"Users/kyle/projects/aoc2022/contracts/strings.sol\":2277:2301  mstore(dest, mload(src)) */\n      mstore\n        /* \"Users/kyle/projects/aoc2022/contracts/strings.sol\":2336:2338  32 */\n      0x20\n        /* \"Users/kyle/projects/aoc2022/contracts/strings.sol\":2328:2338  dest += 32 */\n      dup4\n      tag_232\n      swap2\n      swap1\n      tag_53\n      jump\t// in\n    tag_232:\n      swap3\n      pop\n        /* \"Users/kyle/projects/aoc2022/contracts/strings.sol\":2359:2361  32 */\n      0x20\n        /* \"Users/kyle/projects/aoc2022/contracts/strings.sol\":2352:2361  src += 32 */\n      dup3\n      tag_233\n      swap2\n      swap1\n      tag_53\n      jump\t// in\n    tag_233:\n      swap2\n      pop\n        /* \"Users/kyle/projects/aoc2022/contracts/strings.sol\":2232:2234  32 */\n      0x20\n        /* \"Users/kyle/projects/aoc2022/contracts/strings.sol\":2225:2234  len -= 32 */\n      dup2\n      tag_234\n      swap2\n      swap1\n      tag_74\n      jump\t// in\n    tag_234:\n      swap1\n      pop\n        /* \"Users/kyle/projects/aoc2022/contracts/strings.sol\":2208:2372  for(; len >= 32; len -= 32) {... */\n      jump(tag_229)\n    tag_230:\n        /* \"Users/kyle/projects/aoc2022/contracts/strings.sol\":2414:2423  uint mask */\n      0x00\n        /* \"Users/kyle/projects/aoc2022/contracts/strings.sol\":2426:2440  type(uint).max */\n      0xffffffffffffffffffffffffffffffffffffffffffffffffffffffffffffffff\n        /* \"Users/kyle/projects/aoc2022/contracts/strings.sol\":2414:2440  uint mask = type(uint).max */\n      swap1\n      pop\n        /* \"Users/kyle/projects/aoc2022/contracts/strings.sol\":2460:2461  0 */\n      0x00\n        /* \"Users/kyle/projects/aoc2022/contracts/strings.sol\":2454:2457  len */\n      dup3\n        /* \"Users/kyle/projects/aoc2022/contracts/strings.sol\":2454:2461  len > 0 */\n      gt\n        /* \"Users/kyle/projects/aoc2022/contracts/strings.sol\":2450:2516  if (len > 0) {... */\n      iszero\n      tag_235\n      jumpi\n        /* \"Users/kyle/projects/aoc2022/contracts/strings.sol\":2504:2505  1 */\n      0x01\n        /* \"Users/kyle/projects/aoc2022/contracts/strings.sol\":2497:2500  len */\n      dup3\n        /* \"Users/kyle/projects/aoc2022/contracts/strings.sol\":2492:2494  32 */\n      0x20\n        /* \"Users/kyle/projects/aoc2022/contracts/strings.sol\":2492:2500  32 - len */\n      tag_236\n      swap2\n      swap1\n      tag_74\n      jump\t// in\n    tag_236:\n        /* \"Users/kyle/projects/aoc2022/contracts/strings.sol\":2484:2487  256 */\n      0x0100\n        /* \"Users/kyle/projects/aoc2022/contracts/strings.sol\":2484:2501  256 ** (32 - len) */\n      tag_237\n      swap2\n      swap1\n      tag_200\n      jump\t// in\n    tag_237:\n        /* \"Users/kyle/projects/aoc2022/contracts/strings.sol\":2484:2505  256 ** (32 - len) - 1 */\n      tag_238\n      swap2\n      swap1\n      tag_74\n      jump\t// in\n    tag_238:\n        /* \"Users/kyle/projects/aoc2022/contracts/strings.sol\":2477:2505  mask = 256 ** (32 - len) - 1 */\n      swap1\n      pop\n        /* \"Users/kyle/projects/aoc2022/contracts/strings.sol\":2450:2516  if (len > 0) {... */\n    tag_235:\n        /* \"Users/kyle/projects/aoc2022/contracts/strings.sol\":2583:2587  mask */\n      dup1\n        /* \"Users/kyle/projects/aoc2022/contracts/strings.sol\":2579:2588  not(mask) */\n      not\n        /* \"Users/kyle/projects/aoc2022/contracts/strings.sol\":2573:2576  src */\n      dup4\n        /* \"Users/kyle/projects/aoc2022/contracts/strings.sol\":2567:2577  mload(src) */\n      mload\n        /* \"Users/kyle/projects/aoc2022/contracts/strings.sol\":2563:2589  and(mload(src), not(mask)) */\n      and\n        /* \"Users/kyle/projects/aoc2022/contracts/strings.sol\":2635:2639  mask */\n      dup2\n        /* \"Users/kyle/projects/aoc2022/contracts/strings.sol\":2628:2632  dest */\n      dup6\n        /* \"Users/kyle/projects/aoc2022/contracts/strings.sol\":2622:2633  mload(dest) */\n      mload\n        /* \"Users/kyle/projects/aoc2022/contracts/strings.sol\":2618:2640  and(mload(dest), mask) */\n      and\n        /* \"Users/kyle/projects/aoc2022/contracts/strings.sol\":2679:2686  srcpart */\n      dup2\n        /* \"Users/kyle/projects/aoc2022/contracts/strings.sol\":2669:2677  destpart */\n      dup2\n        /* \"Users/kyle/projects/aoc2022/contracts/strings.sol\":2666:2687  or(destpart, srcpart) */\n      or\n        /* \"Users/kyle/projects/aoc2022/contracts/strings.sol\":2660:2664  dest */\n      dup7\n        /* \"Users/kyle/projects/aoc2022/contracts/strings.sol\":2653:2688  mstore(dest, or(destpart, srcpart)) */\n      mstore\n        /* \"Users/kyle/projects/aoc2022/contracts/strings.sol\":2534:2698  {... */\n      pop\n      pop\n      pop\n        /* \"Users/kyle/projects/aoc2022/contracts/strings.sol\":2088:2704  function memcpy(uint dest, uint src, uint len) private pure {... */\n      pop\n      pop\n      pop\n      jump\t// out\n    tag_168:\n      mload(0x40)\n      dup1\n      0x40\n      add\n      0x40\n      mstore\n      dup1\n      0x00\n      dup2\n      mstore\n      0x20\n      add\n      0x00\n      dup2\n      mstore\n      pop\n      swap1\n      jump\t// out\n        /* \"#utility.yul\":7:82   */\n    tag_239:\n        /* \"#utility.yul\":40:46   */\n      0x00\n        /* \"#utility.yul\":73:75   */\n      0x40\n        /* \"#utility.yul\":67:76   */\n      mload\n        /* \"#utility.yul\":57:76   */\n      swap1\n      pop\n        /* \"#utility.yul\":7:82   */\n      swap1\n      jump\t// out\n        /* \"#utility.yul\":88:205   */\n    tag_240:\n        /* \"#utility.yul\":197:198   */\n      0x00\n        /* \"#utility.yul\":194:195   */\n      dup1\n        /* \"#utility.yul\":187:199   */\n      revert\n        /* \"#utility.yul\":211:328   */\n    tag_241:\n        /* \"#utility.yul\":320:321   */\n      0x00\n        /* \"#utility.yul\":317:318   */\n      dup1\n        /* \"#utility.yul\":310:322   */\n      revert\n        /* \"#utility.yul\":334:451   */\n    tag_242:\n        /* \"#utility.yul\":443:444   */\n      0x00\n        /* \"#utility.yul\":440:441   */\n      dup1\n        /* \"#utility.yul\":433:445   */\n      revert\n        /* \"#utility.yul\":457:574   */\n    tag_243:\n        /* \"#utility.yul\":566:567   */\n      0x00\n        /* \"#utility.yul\":563:564   */\n      dup1\n        /* \"#utility.yul\":556:568   */\n      revert\n        /* \"#utility.yul\":580:682   */\n    tag_244:\n        /* \"#utility.yul\":621:627   */\n      0x00\n        /* \"#utility.yul\":672:674   */\n      0x1f\n        /* \"#utility.yul\":668:675   */\n      not\n        /* \"#utility.yul\":663:665   */\n      0x1f\n        /* \"#utility.yul\":656:661   */\n      dup4\n        /* \"#utility.yul\":652:666   */\n      add\n        /* \"#utility.yul\":648:676   */\n      and\n        /* \"#utility.yul\":638:676   */\n      swap1\n      pop\n        /* \"#utility.yul\":580:682   */\n      swap2\n      swap1\n      pop\n      jump\t// out\n        /* \"#utility.yul\":688:868   */\n    tag_56:\n        /* \"#utility.yul\":736:813   */\n      0x4e487b7100000000000000000000000000000000000000000000000000000000\n        /* \"#utility.yul\":733:734   */\n      0x00\n        /* \"#utility.yul\":726:814   */\n      mstore\n        /* \"#utility.yul\":833:837   */\n      0x41\n        /* \"#utility.yul\":830:831   */\n      0x04\n        /* \"#utility.yul\":823:838   */\n      mstore\n        /* \"#utility.yul\":857:861   */\n      0x24\n        /* \"#utility.yul\":854:855   */\n      0x00\n        /* \"#utility.yul\":847:862   */\n      revert\n        /* \"#utility.yul\":874:1155   */\n    tag_245:\n        /* \"#utility.yul\":957:984   */\n      tag_281\n        /* \"#utility.yul\":979:983   */\n      dup3\n        /* \"#utility.yul\":957:984   */\n      tag_244\n      jump\t// in\n    tag_281:\n        /* \"#utility.yul\":949:955   */\n      dup2\n        /* \"#utility.yul\":945:985   */\n      add\n        /* \"#utility.yul\":1087:1093   */\n      dup2\n        /* \"#utility.yul\":1075:1085   */\n      dup2\n        /* \"#utility.yul\":1072:1094   */\n      lt\n        /* \"#utility.yul\":1051:1069   */\n      0xffffffffffffffff\n        /* \"#utility.yul\":1039:1049   */\n      dup3\n        /* \"#utility.yul\":1036:1070   */\n      gt\n        /* \"#utility.yul\":1033:1095   */\n      or\n        /* \"#utility.yul\":1030:1118   */\n      iszero\n      tag_282\n      jumpi\n        /* \"#utility.yul\":1098:1116   */\n      tag_283\n      tag_56\n      jump\t// in\n    tag_283:\n        /* \"#utility.yul\":1030:1118   */\n    tag_282:\n        /* \"#utility.yul\":1138:1148   */\n      dup1\n        /* \"#utility.yul\":1134:1136   */\n      0x40\n        /* \"#utility.yul\":1127:1149   */\n      mstore\n        /* \"#utility.yul\":917:1155   */\n      pop\n        /* \"#utility.yul\":874:1155   */\n      pop\n      pop\n      jump\t// out\n        /* \"#utility.yul\":1161:1290   */\n    tag_246:\n        /* \"#utility.yul\":1195:1201   */\n      0x00\n        /* \"#utility.yul\":1222:1242   */\n      tag_285\n      tag_239\n      jump\t// in\n    tag_285:\n        /* \"#utility.yul\":1212:1242   */\n      swap1\n      pop\n        /* \"#utility.yul\":1251:1284   */\n      tag_286\n        /* \"#utility.yul\":1279:1283   */\n      dup3\n        /* \"#utility.yul\":1271:1277   */\n      dup3\n        /* \"#utility.yul\":1251:1284   */\n      tag_245\n      jump\t// in\n    tag_286:\n        /* \"#utility.yul\":1161:1290   */\n      swap2\n      swap1\n      pop\n      jump\t// out\n        /* \"#utility.yul\":1296:1604   */\n    tag_247:\n        /* \"#utility.yul\":1358:1362   */\n      0x00\n        /* \"#utility.yul\":1448:1466   */\n      0xffffffffffffffff\n        /* \"#utility.yul\":1440:1446   */\n      dup3\n        /* \"#utility.yul\":1437:1467   */\n      gt\n        /* \"#utility.yul\":1434:1490   */\n      iszero\n      tag_288\n      jumpi\n        /* \"#utility.yul\":1470:1488   */\n      tag_289\n      tag_56\n      jump\t// in\n    tag_289:\n        /* \"#utility.yul\":1434:1490   */\n    tag_288:\n        /* \"#utility.yul\":1508:1537   */\n      tag_290\n        /* \"#utility.yul\":1530:1536   */\n      dup3\n        /* \"#utility.yul\":1508:1537   */\n      tag_244\n      jump\t// in\n    tag_290:\n        /* \"#utility.yul\":1500:1537   */\n      swap1\n      pop\n        /* \"#utility.yul\":1592:1596   */\n      0x20\n        /* \"#utility.yul\":1586:1590   */\n      dup2\n        /* \"#utility.yul\":1582:1597   */\n      add\n        /* \"#utility.yul\":1574:1597   */\n      swap1\n      pop\n        /* \"#utility.yul\":1296:1604   */\n      swap2\n      swap1\n      pop\n      jump\t// out\n        /* \"#utility.yul\":1610:1756   */\n    tag_248:\n        /* \"#utility.yul\":1707:1713   */\n      dup3\n        /* \"#utility.yul\":1702:1705   */\n      dup2\n        /* \"#utility.yul\":1697:1700   */\n      dup4\n        /* \"#utility.yul\":1684:1714   */\n      calldatacopy\n        /* \"#utility.yul\":1748:1749   */\n      0x00\n        /* \"#utility.yul\":1739:1745   */\n      dup4\n        /* \"#utility.yul\":1734:1737   */\n      dup4\n        /* \"#utility.yul\":1730:1746   */\n      add\n        /* \"#utility.yul\":1723:1750   */\n      mstore\n        /* \"#utility.yul\":1610:1756   */\n      pop\n      pop\n      pop\n      jump\t// out\n        /* \"#utility.yul\":1762:2187   */\n    tag_249:\n        /* \"#utility.yul\":1840:1845   */\n      0x00\n        /* \"#utility.yul\":1865:1931   */\n      tag_293\n        /* \"#utility.yul\":1881:1930   */\n      tag_294\n        /* \"#utility.yul\":1923:1929   */\n      dup5\n        /* \"#utility.yul\":1881:1930   */\n      tag_247\n      jump\t// in\n    tag_294:\n        /* \"#utility.yul\":1865:1931   */\n      tag_246\n      jump\t// in\n    tag_293:\n        /* \"#utility.yul\":1856:1931   */\n      swap1\n      pop\n        /* \"#utility.yul\":1954:1960   */\n      dup3\n        /* \"#utility.yul\":1947:1952   */\n      dup2\n        /* \"#utility.yul\":1940:1961   */\n      mstore\n        /* \"#utility.yul\":1992:1996   */\n      0x20\n        /* \"#utility.yul\":1985:1990   */\n      dup2\n        /* \"#utility.yul\":1981:1997   */\n      add\n        /* \"#utility.yul\":2030:2033   */\n      dup5\n        /* \"#utility.yul\":2021:2027   */\n      dup5\n        /* \"#utility.yul\":2016:2019   */\n      dup5\n        /* \"#utility.yul\":2012:2028   */\n      add\n        /* \"#utility.yul\":2009:2034   */\n      gt\n        /* \"#utility.yul\":2006:2118   */\n      iszero\n      tag_295\n      jumpi\n        /* \"#utility.yul\":2037:2116   */\n      tag_296\n      tag_243\n      jump\t// in\n    tag_296:\n        /* \"#utility.yul\":2006:2118   */\n    tag_295:\n        /* \"#utility.yul\":2127:2181   */\n      tag_297\n        /* \"#utility.yul\":2174:2180   */\n      dup5\n        /* \"#utility.yul\":2169:2172   */\n      dup3\n        /* \"#utility.yul\":2164:2167   */\n      dup6\n        /* \"#utility.yul\":2127:2181   */\n      tag_248\n      jump\t// in\n    tag_297:\n        /* \"#utility.yul\":1846:2187   */\n      pop\n        /* \"#utility.yul\":1762:2187   */\n      swap4\n      swap3\n      pop\n      pop\n      pop\n      jump\t// out\n        /* \"#utility.yul\":2207:2547   */\n    tag_250:\n        /* \"#utility.yul\":2263:2268   */\n      0x00\n        /* \"#utility.yul\":2312:2315   */\n      dup3\n        /* \"#utility.yul\":2305:2309   */\n      0x1f\n        /* \"#utility.yul\":2297:2303   */\n      dup4\n        /* \"#utility.yul\":2293:2310   */\n      add\n        /* \"#utility.yul\":2289:2316   */\n      slt\n        /* \"#utility.yul\":2279:2401   */\n      tag_299\n      jumpi\n        /* \"#utility.yul\":2320:2399   */\n      tag_300\n      tag_242\n      jump\t// in\n    tag_300:\n        /* \"#utility.yul\":2279:2401   */\n    tag_299:\n        /* \"#utility.yul\":2437:2443   */\n      dup2\n        /* \"#utility.yul\":2424:2444   */\n      calldataload\n        /* \"#utility.yul\":2462:2541   */\n      tag_301\n        /* \"#utility.yul\":2537:2540   */\n      dup5\n        /* \"#utility.yul\":2529:2535   */\n      dup3\n        /* \"#utility.yul\":2522:2526   */\n      0x20\n        /* \"#utility.yul\":2514:2520   */\n      dup7\n        /* \"#utility.yul\":2510:2527   */\n      add\n        /* \"#utility.yul\":2462:2541   */\n      tag_249\n      jump\t// in\n    tag_301:\n        /* \"#utility.yul\":2453:2541   */\n      swap2\n      pop\n        /* \"#utility.yul\":2269:2547   */\n      pop\n        /* \"#utility.yul\":2207:2547   */\n      swap3\n      swap2\n      pop\n      pop\n      jump\t// out\n        /* \"#utility.yul\":2553:3062   */\n    tag_13:\n        /* \"#utility.yul\":2622:2628   */\n      0x00\n        /* \"#utility.yul\":2671:2673   */\n      0x20\n        /* \"#utility.yul\":2659:2668   */\n      dup3\n        /* \"#utility.yul\":2650:2657   */\n      dup5\n        /* \"#utility.yul\":2646:2669   */\n      sub\n        /* \"#utility.yul\":2642:2674   */\n      slt\n        /* \"#utility.yul\":2639:2758   */\n      iszero\n      tag_303\n      jumpi\n        /* \"#utility.yul\":2677:2756   */\n      tag_304\n      tag_240\n      jump\t// in\n    tag_304:\n        /* \"#utility.yul\":2639:2758   */\n    tag_303:\n        /* \"#utility.yul\":2825:2826   */\n      0x00\n        /* \"#utility.yul\":2814:2823   */\n      dup3\n        /* \"#utility.yul\":2810:2827   */\n      add\n        /* \"#utility.yul\":2797:2828   */\n      calldataload\n        /* \"#utility.yul\":2855:2873   */\n      0xffffffffffffffff\n        /* \"#utility.yul\":2847:2853   */\n      dup2\n        /* \"#utility.yul\":2844:2874   */\n      gt\n        /* \"#utility.yul\":2841:2958   */\n      iszero\n      tag_305\n      jumpi\n        /* \"#utility.yul\":2877:2956   */\n      tag_306\n      tag_241\n      jump\t// in\n    tag_306:\n        /* \"#utility.yul\":2841:2958   */\n    tag_305:\n        /* \"#utility.yul\":2982:3045   */\n      tag_307\n        /* \"#utility.yul\":3037:3044   */\n      dup5\n        /* \"#utility.yul\":3028:3034   */\n      dup3\n        /* \"#utility.yul\":3017:3026   */\n      dup6\n        /* \"#utility.yul\":3013:3035   */\n      add\n        /* \"#utility.yul\":2982:3045   */\n      tag_250\n      jump\t// in\n    tag_307:\n        /* \"#utility.yul\":2972:3045   */\n      swap2\n      pop\n        /* \"#utility.yul\":2768:3055   */\n      pop\n        /* \"#utility.yul\":2553:3062   */\n      swap3\n      swap2\n      pop\n      pop\n      jump\t// out\n        /* \"#utility.yul\":3068:3192   */\n    tag_251:\n        /* \"#utility.yul\":3145:3151   */\n      0x00\n        /* \"#utility.yul\":3179:3184   */\n      dup2\n        /* \"#utility.yul\":3173:3185   */\n      mload\n        /* \"#utility.yul\":3163:3185   */\n      swap1\n      pop\n        /* \"#utility.yul\":3068:3192   */\n      swap2\n      swap1\n      pop\n      jump\t// out\n        /* \"#utility.yul\":3198:3392   */\n    tag_252:\n        /* \"#utility.yul\":3307:3318   */\n      0x00\n        /* \"#utility.yul\":3341:3347   */\n      dup3\n        /* \"#utility.yul\":3336:3339   */\n      dup3\n        /* \"#utility.yul\":3329:3348   */\n      mstore\n        /* \"#utility.yul\":3381:3385   */\n      0x20\n        /* \"#utility.yul\":3376:3379   */\n      dup3\n        /* \"#utility.yul\":3372:3386   */\n      add\n        /* \"#utility.yul\":3357:3386   */\n      swap1\n      pop\n        /* \"#utility.yul\":3198:3392   */\n      swap3\n      swap2\n      pop\n      pop\n      jump\t// out\n        /* \"#utility.yul\":3398:3540   */\n    tag_253:\n        /* \"#utility.yul\":3475:3479   */\n      0x00\n        /* \"#utility.yul\":3498:3501   */\n      dup2\n        /* \"#utility.yul\":3490:3501   */\n      swap1\n      pop\n        /* \"#utility.yul\":3528:3532   */\n      0x20\n        /* \"#utility.yul\":3523:3526   */\n      dup3\n        /* \"#utility.yul\":3519:3533   */\n      add\n        /* \"#utility.yul\":3511:3533   */\n      swap1\n      pop\n        /* \"#utility.yul\":3398:3540   */\n      swap2\n      swap1\n      pop\n      jump\t// out\n        /* \"#utility.yul\":3546:3645   */\n    tag_254:\n        /* \"#utility.yul\":3598:3604   */\n      0x00\n        /* \"#utility.yul\":3632:3637   */\n      dup2\n        /* \"#utility.yul\":3626:3638   */\n      mload\n        /* \"#utility.yul\":3616:3638   */\n      swap1\n      pop\n        /* \"#utility.yul\":3546:3645   */\n      swap2\n      swap1\n      pop\n      jump\t// out\n        /* \"#utility.yul\":3651:3810   */\n    tag_255:\n        /* \"#utility.yul\":3725:3736   */\n      0x00\n        /* \"#utility.yul\":3759:3765   */\n      dup3\n        /* \"#utility.yul\":3754:3757   */\n      dup3\n        /* \"#utility.yul\":3747:3766   */\n      mstore\n        /* \"#utility.yul\":3799:3803   */\n      0x20\n        /* \"#utility.yul\":3794:3797   */\n      dup3\n        /* \"#utility.yul\":3790:3804   */\n      add\n        /* \"#utility.yul\":3775:3804   */\n      swap1\n      pop\n        /* \"#utility.yul\":3651:3810   */\n      swap3\n      swap2\n      pop\n      pop\n      jump\t// out\n        /* \"#utility.yul\":3816:4062   */\n    tag_256:\n        /* \"#utility.yul\":3897:3898   */\n      0x00\n        /* \"#utility.yul\":3907:4020   */\n    tag_314:\n        /* \"#utility.yul\":3921:3927   */\n      dup4\n        /* \"#utility.yul\":3918:3919   */\n      dup2\n        /* \"#utility.yul\":3915:3928   */\n      lt\n        /* \"#utility.yul\":3907:4020   */\n      iszero\n      tag_316\n      jumpi\n        /* \"#utility.yul\":4006:4007   */\n      dup1\n        /* \"#utility.yul\":4001:4004   */\n      dup3\n        /* \"#utility.yul\":3997:4008   */\n      add\n        /* \"#utility.yul\":3991:4009   */\n      mload\n        /* \"#utility.yul\":3987:3988   */\n      dup2\n        /* \"#utility.yul\":3982:3985   */\n      dup5\n        /* \"#utility.yul\":3978:3989   */\n      add\n        /* \"#utility.yul\":3971:4010   */\n      mstore\n        /* \"#utility.yul\":3943:3945   */\n      0x20\n        /* \"#utility.yul\":3940:3941   */\n      dup2\n        /* \"#utility.yul\":3936:3946   */\n      add\n        /* \"#utility.yul\":3931:3946   */\n      swap1\n      pop\n        /* \"#utility.yul\":3907:4020   */\n      jump(tag_314)\n    tag_316:\n        /* \"#utility.yul\":4054:4055   */\n      0x00\n        /* \"#utility.yul\":4045:4051   */\n      dup5\n        /* \"#utility.yul\":4040:4043   */\n      dup5\n        /* \"#utility.yul\":4036:4052   */\n      add\n        /* \"#utility.yul\":4029:4056   */\n      mstore\n        /* \"#utility.yul\":3878:4062   */\n      pop\n        /* \"#utility.yul\":3816:4062   */\n      pop\n      pop\n      pop\n      jump\t// out\n        /* \"#utility.yul\":4068:4425   */\n    tag_257:\n        /* \"#utility.yul\":4146:4149   */\n      0x00\n        /* \"#utility.yul\":4174:4213   */\n      tag_318\n        /* \"#utility.yul\":4207:4212   */\n      dup3\n        /* \"#utility.yul\":4174:4213   */\n      tag_254\n      jump\t// in\n    tag_318:\n        /* \"#utility.yul\":4229:4290   */\n      tag_319\n        /* \"#utility.yul\":4283:4289   */\n      dup2\n        /* \"#utility.yul\":4278:4281   */\n      dup6\n        /* \"#utility.yul\":4229:4290   */\n      tag_255\n      jump\t// in\n    tag_319:\n        /* \"#utility.yul\":4222:4290   */\n      swap4\n      pop\n        /* \"#utility.yul\":4299:4364   */\n      tag_320\n        /* \"#utility.yul\":4357:4363   */\n      dup2\n        /* \"#utility.yul\":4352:4355   */\n      dup6\n        /* \"#utility.yul\":4345:4349   */\n      0x20\n        /* \"#utility.yul\":4338:4343   */\n      dup7\n        /* \"#utility.yul\":4334:4350   */\n      add\n        /* \"#utility.yul\":4299:4364   */\n      tag_256\n      jump\t// in\n    tag_320:\n        /* \"#utility.yul\":4389:4418   */\n      tag_321\n        /* \"#utility.yul\":4411:4417   */\n      dup2\n        /* \"#utility.yul\":4389:4418   */\n      tag_244\n      jump\t// in\n    tag_321:\n        /* \"#utility.yul\":4384:4387   */\n      dup5\n        /* \"#utility.yul\":4380:4419   */\n      add\n        /* \"#utility.yul\":4373:4419   */\n      swap2\n      pop\n        /* \"#utility.yul\":4150:4425   */\n      pop\n        /* \"#utility.yul\":4068:4425   */\n      swap3\n      swap2\n      pop\n      pop\n      jump\t// out\n        /* \"#utility.yul\":4431:4627   */\n    tag_258:\n        /* \"#utility.yul\":4520:4530   */\n      0x00\n        /* \"#utility.yul\":4555:4621   */\n      tag_323\n        /* \"#utility.yul\":4617:4620   */\n      dup4\n        /* \"#utility.yul\":4609:4615   */\n      dup4\n        /* \"#utility.yul\":4555:4621   */\n      tag_257\n      jump\t// in\n    tag_323:\n        /* \"#utility.yul\":4541:4621   */\n      swap1\n      pop\n        /* \"#utility.yul\":4431:4627   */\n      swap3\n      swap2\n      pop\n      pop\n      jump\t// out\n        /* \"#utility.yul\":4633:4756   */\n    tag_259:\n        /* \"#utility.yul\":4713:4717   */\n      0x00\n        /* \"#utility.yul\":4745:4749   */\n      0x20\n        /* \"#utility.yul\":4740:4743   */\n      dup3\n        /* \"#utility.yul\":4736:4750   */\n      add\n        /* \"#utility.yul\":4728:4750   */\n      swap1\n      pop\n        /* \"#utility.yul\":4633:4756   */\n      swap2\n      swap1\n      pop\n      jump\t// out\n        /* \"#utility.yul\":4790:5781   */\n    tag_260:\n        /* \"#utility.yul\":4929:4932   */\n      0x00\n        /* \"#utility.yul\":4958:5022   */\n      tag_326\n        /* \"#utility.yul\":5016:5021   */\n      dup3\n        /* \"#utility.yul\":4958:5022   */\n      tag_251\n      jump\t// in\n    tag_326:\n        /* \"#utility.yul\":5038:5134   */\n      tag_327\n        /* \"#utility.yul\":5127:5133   */\n      dup2\n        /* \"#utility.yul\":5122:5125   */\n      dup6\n        /* \"#utility.yul\":5038:5134   */\n      tag_252\n      jump\t// in\n    tag_327:\n        /* \"#utility.yul\":5031:5134   */\n      swap4\n      pop\n        /* \"#utility.yul\":5160:5163   */\n      dup4\n        /* \"#utility.yul\":5205:5209   */\n      0x20\n        /* \"#utility.yul\":5197:5203   */\n      dup3\n        /* \"#utility.yul\":5193:5210   */\n      mul\n        /* \"#utility.yul\":5188:5191   */\n      dup6\n        /* \"#utility.yul\":5184:5211   */\n      add\n        /* \"#utility.yul\":5235:5301   */\n      tag_328\n        /* \"#utility.yul\":5295:5300   */\n      dup6\n        /* \"#utility.yul\":5235:5301   */\n      tag_253\n      jump\t// in\n    tag_328:\n        /* \"#utility.yul\":5324:5331   */\n      dup1\n        /* \"#utility.yul\":5355:5356   */\n      0x00\n        /* \"#utility.yul\":5340:5736   */\n    tag_329:\n        /* \"#utility.yul\":5365:5371   */\n      dup6\n        /* \"#utility.yul\":5362:5363   */\n      dup2\n        /* \"#utility.yul\":5359:5372   */\n      lt\n        /* \"#utility.yul\":5340:5736   */\n      iszero\n      tag_331\n      jumpi\n        /* \"#utility.yul\":5436:5445   */\n      dup5\n        /* \"#utility.yul\":5430:5434   */\n      dup5\n        /* \"#utility.yul\":5426:5446   */\n      sub\n        /* \"#utility.yul\":5421:5424   */\n      dup10\n        /* \"#utility.yul\":5414:5447   */\n      mstore\n        /* \"#utility.yul\":5487:5493   */\n      dup2\n        /* \"#utility.yul\":5481:5494   */\n      mload\n        /* \"#utility.yul\":5515:5599   */\n      tag_332\n        /* \"#utility.yul\":5594:5598   */\n      dup6\n        /* \"#utility.yul\":5579:5592   */\n      dup3\n        /* \"#utility.yul\":5515:5599   */\n      tag_258\n      jump\t// in\n    tag_332:\n        /* \"#utility.yul\":5507:5599   */\n      swap5\n      pop\n        /* \"#utility.yul\":5622:5692   */\n      tag_333\n        /* \"#utility.yul\":5685:5691   */\n      dup4\n        /* \"#utility.yul\":5622:5692   */\n      tag_259\n      jump\t// in\n    tag_333:\n        /* \"#utility.yul\":5612:5692   */\n      swap3\n      pop\n        /* \"#utility.yul\":5721:5725   */\n      0x20\n        /* \"#utility.yul\":5716:5719   */\n      dup11\n        /* \"#utility.yul\":5712:5726   */\n      add\n        /* \"#utility.yul\":5705:5726   */\n      swap10\n      pop\n        /* \"#utility.yul\":5400:5736   */\n      pop\n        /* \"#utility.yul\":5387:5388   */\n      0x01\n        /* \"#utility.yul\":5384:5385   */\n      dup2\n        /* \"#utility.yul\":5380:5389   */\n      add\n        /* \"#utility.yul\":5375:5389   */\n      swap1\n      pop\n        /* \"#utility.yul\":5340:5736   */\n      jump(tag_329)\n    tag_331:\n        /* \"#utility.yul\":5344:5358   */\n      pop\n        /* \"#utility.yul\":5752:5756   */\n      dup3\n        /* \"#utility.yul\":5745:5756   */\n      swap8\n      pop\n        /* \"#utility.yul\":5772:5775   */\n      dup8\n        /* \"#utility.yul\":5765:5775   */\n      swap6\n      pop\n        /* \"#utility.yul\":4934:5781   */\n      pop\n      pop\n      pop\n      pop\n      pop\n        /* \"#utility.yul\":4790:5781   */\n      swap3\n      swap2\n      pop\n      pop\n      jump\t// out\n        /* \"#utility.yul\":5787:6200   */\n    tag_16:\n        /* \"#utility.yul\":5950:5954   */\n      0x00\n        /* \"#utility.yul\":5988:5990   */\n      0x20\n        /* \"#utility.yul\":5977:5986   */\n      dup3\n        /* \"#utility.yul\":5973:5991   */\n      add\n        /* \"#utility.yul\":5965:5991   */\n      swap1\n      pop\n        /* \"#utility.yul\":6037:6046   */\n      dup2\n        /* \"#utility.yul\":6031:6035   */\n      dup2\n        /* \"#utility.yul\":6027:6047   */\n      sub\n        /* \"#utility.yul\":6023:6024   */\n      0x00\n        /* \"#utility.yul\":6012:6021   */\n      dup4\n        /* \"#utility.yul\":6008:6025   */\n      add\n        /* \"#utility.yul\":6001:6048   */\n      mstore\n        /* \"#utility.yul\":6065:6193   */\n      tag_335\n        /* \"#utility.yul\":6188:6192   */\n      dup2\n        /* \"#utility.yul\":6179:6185   */\n      dup5\n        /* \"#utility.yul\":6065:6193   */\n      tag_260\n      jump\t// in\n    tag_335:\n        /* \"#utility.yul\":6057:6193   */\n      swap1\n      pop\n        /* \"#utility.yul\":5787:6200   */\n      swap3\n      swap2\n      pop\n      pop\n      jump\t// out\n        /* \"#utility.yul\":6206:6355   */\n    tag_261:\n        /* \"#utility.yul\":6242:6249   */\n      0x00\n        /* \"#utility.yul\":6282:6348   */\n      0xff00000000000000000000000000000000000000000000000000000000000000\n        /* \"#utility.yul\":6275:6280   */\n      dup3\n        /* \"#utility.yul\":6271:6349   */\n      and\n        /* \"#utility.yul\":6260:6349   */\n      swap1\n      pop\n        /* \"#utility.yul\":6206:6355   */\n      swap2\n      swap1\n      pop\n      jump\t// out\n        /* \"#utility.yul\":6361:6481   */\n    tag_262:\n        /* \"#utility.yul\":6433:6456   */\n      tag_338\n        /* \"#utility.yul\":6450:6455   */\n      dup2\n        /* \"#utility.yul\":6433:6456   */\n      tag_261\n      jump\t// in\n    tag_338:\n        /* \"#utility.yul\":6426:6431   */\n      dup2\n        /* \"#utility.yul\":6423:6457   */\n      eq\n        /* \"#utility.yul\":6413:6475   */\n      tag_339\n      jumpi\n        /* \"#utility.yul\":6471:6472   */\n      0x00\n        /* \"#utility.yul\":6468:6469   */\n      dup1\n        /* \"#utility.yul\":6461:6473   */\n      revert\n        /* \"#utility.yul\":6413:6475   */\n    tag_339:\n        /* \"#utility.yul\":6361:6481   */\n      pop\n      jump\t// out\n        /* \"#utility.yul\":6487:6624   */\n    tag_263:\n        /* \"#utility.yul\":6532:6537   */\n      0x00\n        /* \"#utility.yul\":6570:6576   */\n      dup2\n        /* \"#utility.yul\":6557:6577   */\n      calldataload\n        /* \"#utility.yul\":6548:6577   */\n      swap1\n      pop\n        /* \"#utility.yul\":6586:6618   */\n      tag_341\n        /* \"#utility.yul\":6612:6617   */\n      dup2\n        /* \"#utility.yul\":6586:6618   */\n      tag_262\n      jump\t// in\n    tag_341:\n        /* \"#utility.yul\":6487:6624   */\n      swap3\n      swap2\n      pop\n      pop\n      jump\t// out\n        /* \"#utility.yul\":6630:6957   */\n    tag_19:\n        /* \"#utility.yul\":6688:6694   */\n      0x00\n        /* \"#utility.yul\":6737:6739   */\n      0x20\n        /* \"#utility.yul\":6725:6734   */\n      dup3\n        /* \"#utility.yul\":6716:6723   */\n      dup5\n        /* \"#utility.yul\":6712:6735   */\n      sub\n        /* \"#utility.yul\":6708:6740   */\n      slt\n        /* \"#utility.yul\":6705:6824   */\n      iszero\n      tag_343\n      jumpi\n        /* \"#utility.yul\":6743:6822   */\n      tag_344\n      tag_240\n      jump\t// in\n    tag_344:\n        /* \"#utility.yul\":6705:6824   */\n    tag_343:\n        /* \"#utility.yul\":6863:6864   */\n      0x00\n        /* \"#utility.yul\":6888:6940   */\n      tag_345\n        /* \"#utility.yul\":6932:6939   */\n      dup5\n        /* \"#utility.yul\":6923:6929   */\n      dup3\n        /* \"#utility.yul\":6912:6921   */\n      dup6\n        /* \"#utility.yul\":6908:6930   */\n      add\n        /* \"#utility.yul\":6888:6940   */\n      tag_263\n      jump\t// in\n    tag_345:\n        /* \"#utility.yul\":6878:6940   */\n      swap2\n      pop\n        /* \"#utility.yul\":6834:6950   */\n      pop\n        /* \"#utility.yul\":6630:6957   */\n      swap3\n      swap2\n      pop\n      pop\n      jump\t// out\n        /* \"#utility.yul\":6963:7040   */\n    tag_264:\n        /* \"#utility.yul\":7000:7007   */\n      0x00\n        /* \"#utility.yul\":7029:7034   */\n      dup2\n        /* \"#utility.yul\":7018:7034   */\n      swap1\n      pop\n        /* \"#utility.yul\":6963:7040   */\n      swap2\n      swap1\n      pop\n      jump\t// out\n        /* \"#utility.yul\":7046:7164   */\n    tag_265:\n        /* \"#utility.yul\":7133:7157   */\n      tag_348\n        /* \"#utility.yul\":7151:7156   */\n      dup2\n        /* \"#utility.yul\":7133:7157   */\n      tag_264\n      jump\t// in\n    tag_348:\n        /* \"#utility.yul\":7128:7131   */\n      dup3\n        /* \"#utility.yul\":7121:7158   */\n      mstore\n        /* \"#utility.yul\":7046:7164   */\n      pop\n      pop\n      jump\t// out\n        /* \"#utility.yul\":7170:7392   */\n    tag_22:\n        /* \"#utility.yul\":7263:7267   */\n      0x00\n        /* \"#utility.yul\":7301:7303   */\n      0x20\n        /* \"#utility.yul\":7290:7299   */\n      dup3\n        /* \"#utility.yul\":7286:7304   */\n      add\n        /* \"#utility.yul\":7278:7304   */\n      swap1\n      pop\n        /* \"#utility.yul\":7314:7385   */\n      tag_350\n        /* \"#utility.yul\":7382:7383   */\n      0x00\n        /* \"#utility.yul\":7371:7380   */\n      dup4\n        /* \"#utility.yul\":7367:7384   */\n      add\n        /* \"#utility.yul\":7358:7364   */\n      dup5\n        /* \"#utility.yul\":7314:7385   */\n      tag_265\n      jump\t// in\n    tag_350:\n        /* \"#utility.yul\":7170:7392   */\n      swap3\n      swap2\n      pop\n      pop\n      jump\t// out\n        /* \"#utility.yul\":7398:7513   */\n    tag_266:\n        /* \"#utility.yul\":7483:7506   */\n      tag_352\n        /* \"#utility.yul\":7500:7505   */\n      dup2\n        /* \"#utility.yul\":7483:7506   */\n      tag_261\n      jump\t// in\n    tag_352:\n        /* \"#utility.yul\":7478:7481   */\n      dup3\n        /* \"#utility.yul\":7471:7507   */\n      mstore\n        /* \"#utility.yul\":7398:7513   */\n      pop\n      pop\n      jump\t// out\n        /* \"#utility.yul\":7519:7737   */\n    tag_27:\n        /* \"#utility.yul\":7610:7614   */\n      0x00\n        /* \"#utility.yul\":7648:7650   */\n      0x20\n        /* \"#utility.yul\":7637:7646   */\n      dup3\n        /* \"#utility.yul\":7633:7651   */\n      add\n        /* \"#utility.yul\":7625:7651   */\n      swap1\n      pop\n        /* \"#utility.yul\":7661:7730   */\n      tag_354\n        /* \"#utility.yul\":7727:7728   */\n      0x00\n        /* \"#utility.yul\":7716:7725   */\n      dup4\n        /* \"#utility.yul\":7712:7729   */\n      add\n        /* \"#utility.yul\":7703:7709   */\n      dup5\n        /* \"#utility.yul\":7661:7730   */\n      tag_266\n      jump\t// in\n    tag_354:\n        /* \"#utility.yul\":7519:7737   */\n      swap3\n      swap2\n      pop\n      pop\n      jump\t// out\n        /* \"#utility.yul\":7743:8075   */\n    tag_36:\n        /* \"#utility.yul\":7864:7868   */\n      0x00\n        /* \"#utility.yul\":7902:7904   */\n      0x40\n        /* \"#utility.yul\":7891:7900   */\n      dup3\n        /* \"#utility.yul\":7887:7905   */\n      add\n        /* \"#utility.yul\":7879:7905   */\n      swap1\n      pop\n        /* \"#utility.yul\":7915:7986   */\n      tag_356\n        /* \"#utility.yul\":7983:7984   */\n      0x00\n        /* \"#utility.yul\":7972:7981   */\n      dup4\n        /* \"#utility.yul\":7968:7985   */\n      add\n        /* \"#utility.yul\":7959:7965   */\n      dup6\n        /* \"#utility.yul\":7915:7986   */\n      tag_265\n      jump\t// in\n    tag_356:\n        /* \"#utility.yul\":7996:8068   */\n      tag_357\n        /* \"#utility.yul\":8064:8066   */\n      0x20\n        /* \"#utility.yul\":8053:8062   */\n      dup4\n        /* \"#utility.yul\":8049:8067   */\n      add\n        /* \"#utility.yul\":8040:8046   */\n      dup5\n        /* \"#utility.yul\":7996:8068   */\n      tag_265\n      jump\t// in\n    tag_357:\n        /* \"#utility.yul\":7743:8075   */\n      swap4\n      swap3\n      pop\n      pop\n      pop\n      jump\t// out\n        /* \"#utility.yul\":8081:9240   */\n    tag_43:\n        /* \"#utility.yul\":8188:8194   */\n      0x00\n        /* \"#utility.yul\":8196:8202   */\n      dup1\n        /* \"#utility.yul\":8204:8210   */\n      0x00\n        /* \"#utility.yul\":8253:8255   */\n      0x60\n        /* \"#utility.yul\":8241:8250   */\n      dup5\n        /* \"#utility.yul\":8232:8239   */\n      dup7\n        /* \"#utility.yul\":8228:8251   */\n      sub\n        /* \"#utility.yul\":8224:8256   */\n      slt\n        /* \"#utility.yul\":8221:8340   */\n      iszero\n      tag_359\n      jumpi\n        /* \"#utility.yul\":8259:8338   */\n      tag_360\n      tag_240\n      jump\t// in\n    tag_360:\n        /* \"#utility.yul\":8221:8340   */\n    tag_359:\n        /* \"#utility.yul\":8407:8408   */\n      0x00\n        /* \"#utility.yul\":8396:8405   */\n      dup5\n        /* \"#utility.yul\":8392:8409   */\n      add\n        /* \"#utility.yul\":8379:8410   */\n      calldataload\n        /* \"#utility.yul\":8437:8455   */\n      0xffffffffffffffff\n        /* \"#utility.yul\":8429:8435   */\n      dup2\n        /* \"#utility.yul\":8426:8456   */\n      gt\n        /* \"#utility.yul\":8423:8540   */\n      iszero\n      tag_361\n      jumpi\n        /* \"#utility.yul\":8459:8538   */\n      tag_362\n      tag_241\n      jump\t// in\n    tag_362:\n        /* \"#utility.yul\":8423:8540   */\n    tag_361:\n        /* \"#utility.yul\":8564:8627   */\n      tag_363\n        /* \"#utility.yul\":8619:8626   */\n      dup7\n        /* \"#utility.yul\":8610:8616   */\n      dup3\n        /* \"#utility.yul\":8599:8608   */\n      dup8\n        /* \"#utility.yul\":8595:8617   */\n      add\n        /* \"#utility.yul\":8564:8627   */\n      tag_250\n      jump\t// in\n    tag_363:\n        /* \"#utility.yul\":8554:8627   */\n      swap4\n      pop\n        /* \"#utility.yul\":8350:8637   */\n      pop\n        /* \"#utility.yul\":8704:8706   */\n      0x20\n        /* \"#utility.yul\":8693:8702   */\n      dup5\n        /* \"#utility.yul\":8689:8707   */\n      add\n        /* \"#utility.yul\":8676:8708   */\n      calldataload\n        /* \"#utility.yul\":8735:8753   */\n      0xffffffffffffffff\n        /* \"#utility.yul\":8727:8733   */\n      dup2\n        /* \"#utility.yul\":8724:8754   */\n      gt\n        /* \"#utility.yul\":8721:8838   */\n      iszero\n      tag_364\n      jumpi\n        /* \"#utility.yul\":8757:8836   */\n      tag_365\n      tag_241\n      jump\t// in\n    tag_365:\n        /* \"#utility.yul\":8721:8838   */\n    tag_364:\n        /* \"#utility.yul\":8862:8925   */\n      tag_366\n        /* \"#utility.yul\":8917:8924   */\n      dup7\n        /* \"#utility.yul\":8908:8914   */\n      dup3\n        /* \"#utility.yul\":8897:8906   */\n      dup8\n        /* \"#utility.yul\":8893:8915   */\n      add\n        /* \"#utility.yul\":8862:8925   */\n      tag_250\n      jump\t// in\n    tag_366:\n        /* \"#utility.yul\":8852:8925   */\n      swap3\n      pop\n        /* \"#utility.yul\":8647:8935   */\n      pop\n        /* \"#utility.yul\":9002:9004   */\n      0x40\n        /* \"#utility.yul\":8991:9000   */\n      dup5\n        /* \"#utility.yul\":8987:9005   */\n      add\n        /* \"#utility.yul\":8974:9006   */\n      calldataload\n        /* \"#utility.yul\":9033:9051   */\n      0xffffffffffffffff\n        /* \"#utility.yul\":9025:9031   */\n      dup2\n        /* \"#utility.yul\":9022:9052   */\n      gt\n        /* \"#utility.yul\":9019:9136   */\n      iszero\n      tag_367\n      jumpi\n        /* \"#utility.yul\":9055:9134   */\n      tag_368\n      tag_241\n      jump\t// in\n    tag_368:\n        /* \"#utility.yul\":9019:9136   */\n    tag_367:\n        /* \"#utility.yul\":9160:9223   */\n      tag_369\n        /* \"#utility.yul\":9215:9222   */\n      dup7\n        /* \"#utility.yul\":9206:9212   */\n      dup3\n        /* \"#utility.yul\":9195:9204   */\n      dup8\n        /* \"#utility.yul\":9191:9213   */\n      add\n        /* \"#utility.yul\":9160:9223   */\n      tag_250\n      jump\t// in\n    tag_369:\n        /* \"#utility.yul\":9150:9223   */\n      swap2\n      pop\n        /* \"#utility.yul\":8945:9233   */\n      pop\n        /* \"#utility.yul\":8081:9240   */\n      swap3\n      pop\n      swap3\n      pop\n      swap3\n      jump\t// out\n        /* \"#utility.yul\":9246:9426   */\n    tag_267:\n        /* \"#utility.yul\":9294:9371   */\n      0x4e487b7100000000000000000000000000000000000000000000000000000000\n        /* \"#utility.yul\":9291:9292   */\n      0x00\n        /* \"#utility.yul\":9284:9372   */\n      mstore\n        /* \"#utility.yul\":9391:9395   */\n      0x11\n        /* \"#utility.yul\":9388:9389   */\n      0x04\n        /* \"#utility.yul\":9381:9396   */\n      mstore\n        /* \"#utility.yul\":9415:9419   */\n      0x24\n        /* \"#utility.yul\":9412:9413   */\n      0x00\n        /* \"#utility.yul\":9405:9420   */\n      revert\n        /* \"#utility.yul\":9432:9623   */\n    tag_53:\n        /* \"#utility.yul\":9472:9475   */\n      0x00\n        /* \"#utility.yul\":9491:9511   */\n      tag_372\n        /* \"#utility.yul\":9509:9510   */\n      dup3\n        /* \"#utility.yul\":9491:9511   */\n      tag_264\n      jump\t// in\n    tag_372:\n        /* \"#utility.yul\":9486:9511   */\n      swap2\n      pop\n        /* \"#utility.yul\":9525:9545   */\n      tag_373\n        /* \"#utility.yul\":9543:9544   */\n      dup4\n        /* \"#utility.yul\":9525:9545   */\n      tag_264\n      jump\t// in\n    tag_373:\n        /* \"#utility.yul\":9520:9545   */\n      swap3\n      pop\n        /* \"#utility.yul\":9568:9569   */\n      dup3\n        /* \"#utility.yul\":9565:9566   */\n      dup3\n        /* \"#utility.yul\":9561:9570   */\n      add\n        /* \"#utility.yul\":9554:9570   */\n      swap1\n      pop\n        /* \"#utility.yul\":9589:9592   */\n      dup1\n        /* \"#utility.yul\":9586:9587   */\n      dup3\n        /* \"#utility.yul\":9583:9593   */\n      gt\n        /* \"#utility.yul\":9580:9616   */\n      iszero\n      tag_374\n      jumpi\n        /* \"#utility.yul\":9596:9614   */\n      tag_375\n      tag_267\n      jump\t// in\n    tag_375:\n        /* \"#utility.yul\":9580:9616   */\n    tag_374:\n        /* \"#utility.yul\":9432:9623   */\n      swap3\n      swap2\n      pop\n      pop\n      jump\t// out\n        /* \"#utility.yul\":9629:9809   */\n    tag_68:\n        /* \"#utility.yul\":9677:9754   */\n      0x4e487b7100000000000000000000000000000000000000000000000000000000\n        /* \"#utility.yul\":9674:9675   */\n      0x00\n        /* \"#utility.yul\":9667:9755   */\n      mstore\n        /* \"#utility.yul\":9774:9778   */\n      0x32\n        /* \"#utility.yul\":9771:9772   */\n      0x04\n        /* \"#utility.yul\":9764:9779   */\n      mstore\n        /* \"#utility.yul\":9798:9802   */\n      0x24\n        /* \"#utility.yul\":9795:9796   */\n      0x00\n        /* \"#utility.yul\":9788:9803   */\n      revert\n        /* \"#utility.yul\":9815:10048   */\n    tag_70:\n        /* \"#utility.yul\":9854:9857   */\n      0x00\n        /* \"#utility.yul\":9877:9901   */\n      tag_378\n        /* \"#utility.yul\":9895:9900   */\n      dup3\n        /* \"#utility.yul\":9877:9901   */\n      tag_264\n      jump\t// in\n    tag_378:\n        /* \"#utility.yul\":9868:9901   */\n      swap2\n      pop\n        /* \"#utility.yul\":9923:9989   */\n      0xffffffffffffffffffffffffffffffffffffffffffffffffffffffffffffffff\n        /* \"#utility.yul\":9916:9921   */\n      dup3\n        /* \"#utility.yul\":9913:9990   */\n      sub\n        /* \"#utility.yul\":9910:10013   */\n      tag_379\n      jumpi\n        /* \"#utility.yul\":9993:10011   */\n      tag_380\n      tag_267\n      jump\t// in\n    tag_380:\n        /* \"#utility.yul\":9910:10013   */\n    tag_379:\n        /* \"#utility.yul\":10040:10041   */\n      0x01\n        /* \"#utility.yul\":10033:10038   */\n      dup3\n        /* \"#utility.yul\":10029:10042   */\n      add\n        /* \"#utility.yul\":10022:10042   */\n      swap1\n      pop\n        /* \"#utility.yul\":9815:10048   */\n      swap2\n      swap1\n      pop\n      jump\t// out\n        /* \"#utility.yul\":10054:10248   */\n    tag_74:\n        /* \"#utility.yul\":10094:10098   */\n      0x00\n        /* \"#utility.yul\":10114:10134   */\n      tag_382\n        /* \"#utility.yul\":10132:10133   */\n      dup3\n        /* \"#utility.yul\":10114:10134   */\n      tag_264\n      jump\t// in\n    tag_382:\n        /* \"#utility.yul\":10109:10134   */\n      swap2\n      pop\n        /* \"#utility.yul\":10148:10168   */\n      tag_383\n        /* \"#utility.yul\":10166:10167   */\n      dup4\n        /* \"#utility.yul\":10148:10168   */\n      tag_264\n      jump\t// in\n    tag_383:\n        /* \"#utility.yul\":10143:10168   */\n      swap3\n      pop\n        /* \"#utility.yul\":10192:10193   */\n      dup3\n        /* \"#utility.yul\":10189:10190   */\n      dup3\n        /* \"#utility.yul\":10185:10194   */\n      sub\n        /* \"#utility.yul\":10177:10194   */\n      swap1\n      pop\n        /* \"#utility.yul\":10216:10217   */\n      dup2\n        /* \"#utility.yul\":10210:10214   */\n      dup2\n        /* \"#utility.yul\":10207:10218   */\n      gt\n        /* \"#utility.yul\":10204:10241   */\n      iszero\n      tag_384\n      jumpi\n        /* \"#utility.yul\":10221:10239   */\n      tag_385\n      tag_267\n      jump\t// in\n    tag_385:\n        /* \"#utility.yul\":10204:10241   */\n    tag_384:\n        /* \"#utility.yul\":10054:10248   */\n      swap3\n      swap2\n      pop\n      pop\n      jump\t// out\n        /* \"#utility.yul\":10254:10434   */\n    tag_268:\n        /* \"#utility.yul\":10302:10379   */\n      0x4e487b7100000000000000000000000000000000000000000000000000000000\n        /* \"#utility.yul\":10299:10300   */\n      0x00\n        /* \"#utility.yul\":10292:10380   */\n      mstore\n        /* \"#utility.yul\":10399:10403   */\n      0x12\n        /* \"#utility.yul\":10396:10397   */\n      0x04\n        /* \"#utility.yul\":10389:10404   */\n      mstore\n        /* \"#utility.yul\":10423:10427   */\n      0x24\n        /* \"#utility.yul\":10420:10421   */\n      0x00\n        /* \"#utility.yul\":10413:10428   */\n      revert\n        /* \"#utility.yul\":10440:10625   */\n    tag_81:\n        /* \"#utility.yul\":10480:10481   */\n      0x00\n        /* \"#utility.yul\":10497:10517   */\n      tag_388\n        /* \"#utility.yul\":10515:10516   */\n      dup3\n        /* \"#utility.yul\":10497:10517   */\n      tag_264\n      jump\t// in\n    tag_388:\n        /* \"#utility.yul\":10492:10517   */\n      swap2\n      pop\n        /* \"#utility.yul\":10531:10551   */\n      tag_389\n        /* \"#utility.yul\":10549:10550   */\n      dup4\n        /* \"#utility.yul\":10531:10551   */\n      tag_264\n      jump\t// in\n    tag_389:\n        /* \"#utility.yul\":10526:10551   */\n      swap3\n      pop\n        /* \"#utility.yul\":10570:10571   */\n      dup3\n        /* \"#utility.yul\":10560:10595   */\n      tag_390\n      jumpi\n        /* \"#utility.yul\":10575:10593   */\n      tag_391\n      tag_268\n      jump\t// in\n    tag_391:\n        /* \"#utility.yul\":10560:10595   */\n    tag_390:\n        /* \"#utility.yul\":10617:10618   */\n      dup3\n        /* \"#utility.yul\":10614:10615   */\n      dup3\n        /* \"#utility.yul\":10610:10619   */\n      div\n        /* \"#utility.yul\":10605:10619   */\n      swap1\n      pop\n        /* \"#utility.yul\":10440:10625   */\n      swap3\n      swap2\n      pop\n      pop\n      jump\t// out\n        /* \"#utility.yul\":10631:11041   */\n    tag_198:\n        /* \"#utility.yul\":10671:10678   */\n      0x00\n        /* \"#utility.yul\":10694:10714   */\n      tag_393\n        /* \"#utility.yul\":10712:10713   */\n      dup3\n        /* \"#utility.yul\":10694:10714   */\n      tag_264\n      jump\t// in\n    tag_393:\n        /* \"#utility.yul\":10689:10714   */\n      swap2\n      pop\n        /* \"#utility.yul\":10728:10748   */\n      tag_394\n        /* \"#utility.yul\":10746:10747   */\n      dup4\n        /* \"#utility.yul\":10728:10748   */\n      tag_264\n      jump\t// in\n    tag_394:\n        /* \"#utility.yul\":10723:10748   */\n      swap3\n      pop\n        /* \"#utility.yul\":10783:10784   */\n      dup3\n        /* \"#utility.yul\":10780:10781   */\n      dup3\n        /* \"#utility.yul\":10776:10785   */\n      mul\n        /* \"#utility.yul\":10805:10835   */\n      tag_395\n        /* \"#utility.yul\":10823:10834   */\n      dup2\n        /* \"#utility.yul\":10805:10835   */\n      tag_264\n      jump\t// in\n    tag_395:\n        /* \"#utility.yul\":10794:10835   */\n      swap2\n      pop\n        /* \"#utility.yul\":10984:10985   */\n      dup3\n        /* \"#utility.yul\":10975:10982   */\n      dup3\n        /* \"#utility.yul\":10971:10986   */\n      div\n        /* \"#utility.yul\":10968:10969   */\n      dup5\n        /* \"#utility.yul\":10965:10987   */\n      eq\n        /* \"#utility.yul\":10945:10946   */\n      dup4\n        /* \"#utility.yul\":10938:10947   */\n      iszero\n        /* \"#utility.yul\":10918:11001   */\n      or\n        /* \"#utility.yul\":10895:11034   */\n      tag_396\n      jumpi\n        /* \"#utility.yul\":11014:11032   */\n      tag_397\n      tag_267\n      jump\t// in\n    tag_397:\n        /* \"#utility.yul\":10895:11034   */\n    tag_396:\n        /* \"#utility.yul\":10679:11041   */\n      pop\n        /* \"#utility.yul\":10631:11041   */\n      swap3\n      swap2\n      pop\n      pop\n      jump\t// out\n        /* \"#utility.yul\":11047:11149   */\n    tag_269:\n        /* \"#utility.yul\":11089:11097   */\n      0x00\n        /* \"#utility.yul\":11136:11141   */\n      dup2\n        /* \"#utility.yul\":11133:11134   */\n      0x01\n        /* \"#utility.yul\":11129:11142   */\n      shr\n        /* \"#utility.yul\":11108:11142   */\n      swap1\n      pop\n        /* \"#utility.yul\":11047:11149   */\n      swap2\n      swap1\n      pop\n      jump\t// out\n        /* \"#utility.yul\":11155:12003   */\n    tag_270:\n        /* \"#utility.yul\":11216:11221   */\n      0x00\n        /* \"#utility.yul\":11223:11227   */\n      dup1\n        /* \"#utility.yul\":11247:11253   */\n      dup3\n        /* \"#utility.yul\":11238:11253   */\n      swap2\n      pop\n        /* \"#utility.yul\":11271:11276   */\n      dup4\n        /* \"#utility.yul\":11262:11276   */\n      swap1\n      pop\n        /* \"#utility.yul\":11285:11997   */\n    tag_400:\n        /* \"#utility.yul\":11306:11307   */\n      0x01\n        /* \"#utility.yul\":11296:11304   */\n      dup6\n        /* \"#utility.yul\":11293:11308   */\n      gt\n        /* \"#utility.yul\":11285:11997   */\n      iszero\n      tag_402\n      jumpi\n        /* \"#utility.yul\":11401:11405   */\n      dup1\n        /* \"#utility.yul\":11396:11399   */\n      dup7\n        /* \"#utility.yul\":11392:11406   */\n      div\n        /* \"#utility.yul\":11386:11390   */\n      dup2\n        /* \"#utility.yul\":11383:11407   */\n      gt\n        /* \"#utility.yul\":11380:11430   */\n      iszero\n      tag_403\n      jumpi\n        /* \"#utility.yul\":11410:11428   */\n      tag_404\n      tag_267\n      jump\t// in\n    tag_404:\n        /* \"#utility.yul\":11380:11430   */\n    tag_403:\n        /* \"#utility.yul\":11460:11461   */\n      0x01\n        /* \"#utility.yul\":11450:11458   */\n      dup6\n        /* \"#utility.yul\":11446:11462   */\n      and\n        /* \"#utility.yul\":11443:11894   */\n      iszero\n      tag_405\n      jumpi\n        /* \"#utility.yul\":11875:11879   */\n      dup1\n        /* \"#utility.yul\":11868:11873   */\n      dup3\n        /* \"#utility.yul\":11864:11880   */\n      mul\n        /* \"#utility.yul\":11855:11880   */\n      swap2\n      pop\n        /* \"#utility.yul\":11443:11894   */\n    tag_405:\n        /* \"#utility.yul\":11925:11929   */\n      dup1\n        /* \"#utility.yul\":11919:11923   */\n      dup2\n        /* \"#utility.yul\":11915:11930   */\n      mul\n        /* \"#utility.yul\":11907:11930   */\n      swap1\n      pop\n        /* \"#utility.yul\":11955:11987   */\n      tag_406\n        /* \"#utility.yul\":11978:11986   */\n      dup6\n        /* \"#utility.yul\":11955:11987   */\n      tag_269\n      jump\t// in\n    tag_406:\n        /* \"#utility.yul\":11943:11987   */\n      swap5\n      pop\n        /* \"#utility.yul\":11285:11997   */\n      jump(tag_400)\n    tag_402:\n        /* \"#utility.yul\":11155:12003   */\n      swap5\n      pop\n      swap5\n      swap3\n      pop\n      pop\n      pop\n      jump\t// out\n        /* \"#utility.yul\":12009:13082   */\n    tag_271:\n        /* \"#utility.yul\":12063:12068   */\n      0x00\n        /* \"#utility.yul\":12254:12262   */\n      dup3\n        /* \"#utility.yul\":12244:12284   */\n      tag_408\n      jumpi\n        /* \"#utility.yul\":12275:12276   */\n      0x01\n        /* \"#utility.yul\":12266:12276   */\n      swap1\n      pop\n        /* \"#utility.yul\":12277:12282   */\n      jump(tag_407)\n        /* \"#utility.yul\":12244:12284   */\n    tag_408:\n        /* \"#utility.yul\":12303:12307   */\n      dup2\n        /* \"#utility.yul\":12293:12329   */\n      tag_409\n      jumpi\n        /* \"#utility.yul\":12320:12321   */\n      0x00\n        /* \"#utility.yul\":12311:12321   */\n      swap1\n      pop\n        /* \"#utility.yul\":12322:12327   */\n      jump(tag_407)\n        /* \"#utility.yul\":12293:12329   */\n    tag_409:\n        /* \"#utility.yul\":12389:12393   */\n      dup2\n        /* \"#utility.yul\":12437:12438   */\n      0x01\n        /* \"#utility.yul\":12432:12459   */\n      dup2\n      eq\n      tag_411\n      jumpi\n        /* \"#utility.yul\":12473:12474   */\n      0x02\n        /* \"#utility.yul\":12468:12659   */\n      dup2\n      eq\n      tag_412\n      jumpi\n        /* \"#utility.yul\":12382:12659   */\n      jump(tag_410)\n        /* \"#utility.yul\":12432:12459   */\n    tag_411:\n        /* \"#utility.yul\":12450:12451   */\n      0x01\n        /* \"#utility.yul\":12441:12451   */\n      swap2\n      pop\n        /* \"#utility.yul\":12452:12457   */\n      pop\n      jump(tag_407)\n        /* \"#utility.yul\":12468:12659   */\n    tag_412:\n        /* \"#utility.yul\":12513:12516   */\n      0xff\n        /* \"#utility.yul\":12503:12511   */\n      dup5\n        /* \"#utility.yul\":12500:12517   */\n      gt\n        /* \"#utility.yul\":12497:12540   */\n      iszero\n      tag_413\n      jumpi\n        /* \"#utility.yul\":12520:12538   */\n      tag_414\n      tag_267\n      jump\t// in\n    tag_414:\n        /* \"#utility.yul\":12497:12540   */\n    tag_413:\n        /* \"#utility.yul\":12569:12577   */\n      dup4\n        /* \"#utility.yul\":12566:12567   */\n      0x02\n        /* \"#utility.yul\":12562:12578   */\n      exp\n        /* \"#utility.yul\":12553:12578   */\n      swap2\n      pop\n        /* \"#utility.yul\":12604:12607   */\n      dup5\n        /* \"#utility.yul\":12597:12602   */\n      dup3\n        /* \"#utility.yul\":12594:12608   */\n      gt\n        /* \"#utility.yul\":12591:12631   */\n      iszero\n      tag_415\n      jumpi\n        /* \"#utility.yul\":12611:12629   */\n      tag_416\n      tag_267\n      jump\t// in\n    tag_416:\n        /* \"#utility.yul\":12591:12631   */\n    tag_415:\n        /* \"#utility.yul\":12644:12649   */\n      pop\n      jump(tag_407)\n        /* \"#utility.yul\":12382:12659   */\n    tag_410:\n      pop\n        /* \"#utility.yul\":12768:12770   */\n      0x20\n        /* \"#utility.yul\":12758:12766   */\n      dup4\n        /* \"#utility.yul\":12755:12771   */\n      lt\n        /* \"#utility.yul\":12749:12752   */\n      0x0133\n        /* \"#utility.yul\":12743:12747   */\n      dup4\n        /* \"#utility.yul\":12740:12753   */\n      lt\n        /* \"#utility.yul\":12736:12772   */\n      and\n        /* \"#utility.yul\":12718:12720   */\n      0x4e\n        /* \"#utility.yul\":12708:12716   */\n      dup5\n        /* \"#utility.yul\":12705:12721   */\n      lt\n        /* \"#utility.yul\":12700:12702   */\n      0x0b\n        /* \"#utility.yul\":12694:12698   */\n      dup5\n        /* \"#utility.yul\":12691:12703   */\n      lt\n        /* \"#utility.yul\":12687:12722   */\n      and\n        /* \"#utility.yul\":12671:12782   */\n      or\n        /* \"#utility.yul\":12668:12914   */\n      iszero\n      tag_417\n      jumpi\n        /* \"#utility.yul\":12824:12832   */\n      dup3\n        /* \"#utility.yul\":12818:12822   */\n      dup3\n        /* \"#utility.yul\":12814:12833   */\n      exp\n        /* \"#utility.yul\":12805:12833   */\n      swap1\n      pop\n        /* \"#utility.yul\":12859:12862   */\n      dup4\n        /* \"#utility.yul\":12852:12857   */\n      dup2\n        /* \"#utility.yul\":12849:12863   */\n      gt\n        /* \"#utility.yul\":12846:12886   */\n      iszero\n      tag_418\n      jumpi\n        /* \"#utility.yul\":12866:12884   */\n      tag_419\n      tag_267\n      jump\t// in\n    tag_419:\n        /* \"#utility.yul\":12846:12886   */\n    tag_418:\n        /* \"#utility.yul\":12899:12904   */\n      jump(tag_407)\n        /* \"#utility.yul\":12668:12914   */\n    tag_417:\n        /* \"#utility.yul\":12939:12981   */\n      tag_420\n        /* \"#utility.yul\":12977:12980   */\n      dup5\n        /* \"#utility.yul\":12967:12975   */\n      dup5\n        /* \"#utility.yul\":12961:12965   */\n      dup5\n        /* \"#utility.yul\":12958:12959   */\n      0x01\n        /* \"#utility.yul\":12939:12981   */\n      tag_270\n      jump\t// in\n    tag_420:\n        /* \"#utility.yul\":12924:12981   */\n      swap3\n      pop\n      swap1\n      pop\n        /* \"#utility.yul\":13013:13017   */\n      dup2\n        /* \"#utility.yul\":13008:13011   */\n      dup5\n        /* \"#utility.yul\":13004:13018   */\n      div\n        /* \"#utility.yul\":12997:13002   */\n      dup2\n        /* \"#utility.yul\":12994:13019   */\n      gt\n        /* \"#utility.yul\":12991:13042   */\n      iszero\n      tag_421\n      jumpi\n        /* \"#utility.yul\":13022:13040   */\n      tag_422\n      tag_267\n      jump\t// in\n    tag_422:\n        /* \"#utility.yul\":12991:13042   */\n    tag_421:\n        /* \"#utility.yul\":13071:13075   */\n      dup2\n        /* \"#utility.yul\":13064:13069   */\n      dup2\n        /* \"#utility.yul\":13060:13076   */\n      mul\n        /* \"#utility.yul\":13051:13076   */\n      swap1\n      pop\n        /* \"#utility.yul\":12009:13082   */\n    tag_407:\n      swap4\n      swap3\n      pop\n      pop\n      pop\n      jump\t// out\n        /* \"#utility.yul\":13088:13373   */\n    tag_200:\n        /* \"#utility.yul\":13148:13153   */\n      0x00\n        /* \"#utility.yul\":13172:13195   */\n      tag_424\n        /* \"#utility.yul\":13190:13194   */\n      dup3\n        /* \"#utility.yul\":13172:13195   */\n      tag_264\n      jump\t// in\n    tag_424:\n        /* \"#utility.yul\":13164:13195   */\n      swap2\n      pop\n        /* \"#utility.yul\":13216:13243   */\n      tag_425\n        /* \"#utility.yul\":13234:13242   */\n      dup4\n        /* \"#utility.yul\":13216:13243   */\n      tag_264\n      jump\t// in\n    tag_425:\n        /* \"#utility.yul\":13204:13243   */\n      swap3\n      pop\n        /* \"#utility.yul\":13262:13366   */\n      tag_426\n        /* \"#utility.yul\":13299:13365   */\n      0xffffffffffffffffffffffffffffffffffffffffffffffffffffffffffffffff\n        /* \"#utility.yul\":13289:13297   */\n      dup5\n        /* \"#utility.yul\":13283:13287   */\n      dup5\n        /* \"#utility.yul\":13262:13366   */\n      tag_271\n      jump\t// in\n    tag_426:\n        /* \"#utility.yul\":13253:13366   */\n      swap1\n      pop\n        /* \"#utility.yul\":13088:13373   */\n      swap3\n      swap2\n      pop\n      pop\n      jump\t// out\n    stop\n    data_283b6da5c4efcac3f53ff418b3ec025f9a6bda1ff40c384293814d4353515a56 764a7277705774774a675772686373464d4d6646466846700a6a7148524e71526a717a6a47444c474c7273464d66465a53724c72465a73534c0a506d6d647a715072567650777754574277670a774d71764c4d5a4868484d76774c486a6276636a6e6e53426e765451466e0a7474674a7452474a516374545a745a540a43725a734a7350505a73477a7777734c774c6d70774d4477\n\n    auxdata: 0xa26469706673582212202ae9f26c49ad9f675f73a51c9f9039870bbb11bebb69e129ea0345c2b082047464736f6c63430008110033\n}\n",
				"bytecode": {
					"linkReferences": {},
					"object": "608060405234801561001057600080fd5b506115d5806100206000396000f3fe608060405234801561001057600080fd5b506004361061007d5760003560e01c80636a7534fc1161005b5780636a7534fc14610112578063769f204d1461014257806376b7e2c3146101735780639f6064e2146101a35761007d565b806311fcd048146100825780633edb318f146100b2578063519fd1bc146100e2575b600080fd5b61009c60048036038101906100979190610e7d565b6101d3565b6040516100a99190611007565b60405180910390f35b6100cc60048036038101906100c79190611081565b6102f8565b6040516100d991906110c7565b60405180910390f35b6100fc60048036038101906100f79190610e7d565b610392565b60405161010991906110f1565b60405180910390f35b61012c60048036038101906101279190610e7d565b61059b565b60405161013991906110c7565b60405180910390f35b61015c60048036038101906101579190610e7d565b610675565b60405161016a92919061110c565b60405180910390f35b61018d60048036038101906101889190610e7d565b6106b8565b60405161019a91906110c7565b60405180910390f35b6101bd60048036038101906101b89190611135565b610737565b6040516101ca91906110f1565b60405180910390f35b606060006101e0836108de565b905060006102226040518060400160405280600181526020017f0a000000000000000000000000000000000000000000000000000000000000008152506108de565b90506000600161023b838561090c90919063ffffffff16565b610245919061120b565b67ffffffffffffffff81111561025e5761025d610d52565b5b60405190808252806020026020018201604052801561029157816020015b606081526020019060019003908161027c5790505b50905060005b81518110156102ec576102bb6102b684866109b490919063ffffffff16565b6109ce565b8282815181106102ce576102cd61123f565b5b602002602001018190525080806102e49061126e565b915050610297565b50809350505050919050565b6000606160f81b827effffffffffffffffffffffffffffffffffffffffffffffffffffffffffffff1916106103415760608260f81c60ff1661033a91906112b6565b905061038d565b604160f81b827effffffffffffffffffffffffffffffffffffffffffffffffffffffffffffff1916106103885760268260f81c60ff1661038191906112b6565b905061038d565b600090505b919050565b600080600283516103a39190611319565b905060008167ffffffffffffffff8111156103c1576103c0610d52565b5b6040519080825280602002602001820160405280156103ef5781602001602082028036833780820191505090505b50905060005b600285516104039190611319565b8110156104a05784818151811061041d5761041c61123f565b5b602001015160f81c60f81b82828151811061043b5761043a61123f565b5b60200260200101907effffffffffffffffffffffffffffffffffffffffffffffffffffffffffffff191690817effffffffffffffffffffffffffffffffffffffffffffffffffffffffffffff19168152505080806104989061126e565b9150506103f5565b5060008290505b845181101561058b5760005b8251811015610577578582815181106104cf576104ce61123f565b5b602001015160f81c60f81b7effffffffffffffffffffffffffffffffffffffffffffffffffffffffffffff191683828151811061050f5761050e61123f565b5b60200260200101517effffffffffffffffffffffffffffffffffffffffffffffffffffffffffffff191603610564578281815181106105515761055061123f565b5b6020026020010151945050505050610596565b808061056f9061126e565b9150506104b3565b5080806105839061126e565b9150506104a7565b50600060f81b925050505b919050565b6000806000905060006105ad846101d3565b9050600080600090505b600283516105c591906112b6565b8110156106695761063d8382815181106105e2576105e161123f565b5b6020026020010151846001846105f8919061120b565b815181106106095761060861123f565b5b60200260200101518560028561061f919061120b565b815181106106305761062f61123f565b5b6020026020010151610737565b9150610648826102f8565b84610653919061120b565b9350600381610662919061120b565b90506105b7565b50829350505050919050565b600080600083510361069d576040518060c001604052806095815260200161150b6095913992505b6106a6836106b8565b6106af8461059b565b91509150915091565b6000806000905060006106ca846101d3565b9050600080600090505b825181101561072b576107008382815181106106f3576106f261123f565b5b6020026020010151610392565b915061070b826102f8565b84610716919061120b565b935080806107239061126e565b9150506106d4565b50829350505050919050565b600080600090505b84518110156108ce5760005b84518110156108ba578481815181106107675761076661123f565b5b602001015160f81c60f81b7effffffffffffffffffffffffffffffffffffffffffffffffffffffffffffff19168683815181106107a7576107a661123f565b5b602001015160f81c60f81b7effffffffffffffffffffffffffffffffffffffffffffffffffffffffffffff1916036108a75760005b84518110156108a5578481815181106107f8576107f761123f565b5b602001015160f81c60f81b7effffffffffffffffffffffffffffffffffffffffffffffffffffffffffffff19168784815181106108385761083761123f565b5b602001015160f81c60f81b7effffffffffffffffffffffffffffffffffffffffffffffffffffffffffffff1916036108925786838151811061087d5761087c61123f565b5b602001015160f81c60f81b93505050506108d7565b808061089d9061126e565b9150506107dc565b505b80806108b29061126e565b91505061074b565b5080806108c69061126e565b91505061073f565b50600060f81b90505b9392505050565b6108e6610d09565b600060208301905060405180604001604052808451815260200182815250915050919050565b60008082600001516109308560000151866020015186600001518760200151610a4a565b61093a919061120b565b90505b83600001518460200151610951919061120b565b81116109ad5781806109629061126e565b925050826000015161099c85602001518361097d91906112b6565b866000015161098c91906112b6565b8386600001518760200151610a4a565b6109a6919061120b565b905061093d565b5092915050565b6109bc610d09565b6109c7838383610b93565b5092915050565b60606000826000015167ffffffffffffffff8111156109f0576109ef610d52565b5b6040519080825280601f01601f191660200182016040528015610a225781602001600182028036833780820191505090505b5090506000602082019050610a408185602001518660000151610c5d565b8192505050919050565b6000808490506000868511610b7a5760208511610b1d57600080861115610aa3576001866020610a7a91906112b6565b6008610a86919061134a565b6002610a9291906114bf565b610a9c91906112b6565b1960001b90505b60008186511690506000878a8a610aba919061120b565b610ac491906112b6565b905060008386511690505b828114610b0f57818610610af6578a8a610ae9919061120b565b9650505050505050610b8b565b8580610b019061126e565b965050838651169050610acf565b859650505050505050610b8b565b60008585209050600091505b8588610b3591906112b6565b8211610b785760008684209050808203610b555783945050505050610b8b565b600184610b62919061120b565b9350508180610b709061126e565b925050610b29565b505b8686610b86919061120b565b925050505b949350505050565b610b9b610d09565b6000610bb98560000151866020015186600001518760200151610a4a565b90508460200151836020018181525050846020015181610bd991906112b6565b83600001818152505084600001518560200151610bf6919061120b565b8103610c0c576000856000018181525050610c52565b83600001518360000151610c20919061120b565b85600001818151610c3191906112b6565b91508181525050836000015181610c48919061120b565b8560200181815250505b829150509392505050565b5b60208110610c9c5781518352602083610c77919061120b565b9250602082610c86919061120b565b9150602081610c9591906112b6565b9050610c5e565b60007fffffffffffffffffffffffffffffffffffffffffffffffffffffffffffffffff90506000821115610cf3576001826020610cd991906112b6565b610100610ce691906114bf565b610cf091906112b6565b90505b8019835116818551168181178652505050505050565b604051806040016040528060008152602001600081525090565b6000604051905090565b600080fd5b600080fd5b600080fd5b600080fd5b6000601f19601f8301169050919050565b7f4e487b7100000000000000000000000000000000000000000000000000000000600052604160045260246000fd5b610d8a82610d41565b810181811067ffffffffffffffff82111715610da957610da8610d52565b5b80604052505050565b6000610dbc610d23565b9050610dc88282610d81565b919050565b600067ffffffffffffffff821115610de857610de7610d52565b5b610df182610d41565b9050602081019050919050565b82818337600083830152505050565b6000610e20610e1b84610dcd565b610db2565b905082815260208101848484011115610e3c57610e3b610d3c565b5b610e47848285610dfe565b509392505050565b600082601f830112610e6457610e63610d37565b5b8135610e74848260208601610e0d565b91505092915050565b600060208284031215610e9357610e92610d2d565b5b600082013567ffffffffffffffff811115610eb157610eb0610d32565b5b610ebd84828501610e4f565b91505092915050565b600081519050919050565b600082825260208201905092915050565b6000819050602082019050919050565b600081519050919050565b600082825260208201905092915050565b60005b83811015610f2c578082015181840152602081019050610f11565b60008484015250505050565b6000610f4382610ef2565b610f4d8185610efd565b9350610f5d818560208601610f0e565b610f6681610d41565b840191505092915050565b6000610f7d8383610f38565b905092915050565b6000602082019050919050565b6000610f9d82610ec6565b610fa78185610ed1565b935083602082028501610fb985610ee2565b8060005b85811015610ff55784840389528151610fd68582610f71565b9450610fe183610f85565b925060208a01995050600181019050610fbd565b50829750879550505050505092915050565b600060208201905081810360008301526110218184610f92565b905092915050565b60007fff0000000000000000000000000000000000000000000000000000000000000082169050919050565b61105e81611029565b811461106957600080fd5b50565b60008135905061107b81611055565b92915050565b60006020828403121561109757611096610d2d565b5b60006110a58482850161106c565b91505092915050565b6000819050919050565b6110c1816110ae565b82525050565b60006020820190506110dc60008301846110b8565b92915050565b6110eb81611029565b82525050565b600060208201905061110660008301846110e2565b92915050565b600060408201905061112160008301856110b8565b61112e60208301846110b8565b9392505050565b60008060006060848603121561114e5761114d610d2d565b5b600084013567ffffffffffffffff81111561116c5761116b610d32565b5b61117886828701610e4f565b935050602084013567ffffffffffffffff81111561119957611198610d32565b5b6111a586828701610e4f565b925050604084013567ffffffffffffffff8111156111c6576111c5610d32565b5b6111d286828701610e4f565b9150509250925092565b7f4e487b7100000000000000000000000000000000000000000000000000000000600052601160045260246000fd5b6000611216826110ae565b9150611221836110ae565b9250828201905080821115611239576112386111dc565b5b92915050565b7f4e487b7100000000000000000000000000000000000000000000000000000000600052603260045260246000fd5b6000611279826110ae565b91507fffffffffffffffffffffffffffffffffffffffffffffffffffffffffffffffff82036112ab576112aa6111dc565b5b600182019050919050565b60006112c1826110ae565b91506112cc836110ae565b92508282039050818111156112e4576112e36111dc565b5b92915050565b7f4e487b7100000000000000000000000000000000000000000000000000000000600052601260045260246000fd5b6000611324826110ae565b915061132f836110ae565b92508261133f5761133e6112ea565b5b828204905092915050565b6000611355826110ae565b9150611360836110ae565b925082820261136e816110ae565b91508282048414831517611385576113846111dc565b5b5092915050565b60008160011c9050919050565b6000808291508390505b60018511156113e3578086048111156113bf576113be6111dc565b5b60018516156113ce5780820291505b80810290506113dc8561138c565b94506113a3565b94509492505050565b6000826113fc57600190506114b8565b8161140a57600090506114b8565b8160018114611420576002811461142a57611459565b60019150506114b8565b60ff84111561143c5761143b6111dc565b5b8360020a915084821115611453576114526111dc565b5b506114b8565b5060208310610133831016604e8410600b841016171561148e5782820a905083811115611489576114886111dc565b5b6114b8565b61149b8484846001611399565b925090508184048111156114b2576114b16111dc565b5b81810290505b9392505050565b60006114ca826110ae565b91506114d5836110ae565b92506115027fffffffffffffffffffffffffffffffffffffffffffffffffffffffffffffffff84846113ec565b90509291505056fe764a7277705774774a675772686373464d4d6646466846700a6a7148524e71526a717a6a47444c474c7273464d66465a53724c72465a73534c0a506d6d647a715072567650777754574277670a774d71764c4d5a4868484d76774c486a6276636a6e6e53426e765451466e0a7474674a7452474a516374545a745a540a43725a734a7350505a73477a7777734c774c6d70774d4477a26469706673582212202ae9f26c49ad9f675f73a51c9f9039870bbb11bebb69e129ea0345c2b082047464736f6c63430008110033",
					"opcodes": "PUSH1 0x80 PUSH1 0x40 MSTORE CALLVALUE DUP1 ISZERO PUSH2 0x10 JUMPI PUSH1 0x0 DUP1 REVERT JUMPDEST POP PUSH2 0x15D5 DUP1 PUSH2 0x20 PUSH1 0x0 CODECOPY PUSH1 0x0 RETURN INVALID PUSH1 0x80 PUSH1 0x40 MSTORE CALLVALUE DUP1 ISZERO PUSH2 0x10 JUMPI PUSH1 0x0 DUP1 REVERT JUMPDEST POP PUSH1 0x4 CALLDATASIZE LT PUSH2 0x7D JUMPI PUSH1 0x0 CALLDATALOAD PUSH1 0xE0 SHR DUP1 PUSH4 0x6A7534FC GT PUSH2 0x5B JUMPI DUP1 PUSH4 0x6A7534FC EQ PUSH2 0x112 JUMPI DUP1 PUSH4 0x769F204D EQ PUSH2 0x142 JUMPI DUP1 PUSH4 0x76B7E2C3 EQ PUSH2 0x173 JUMPI DUP1 PUSH4 0x9F6064E2 EQ PUSH2 0x1A3 JUMPI PUSH2 0x7D JUMP JUMPDEST DUP1 PUSH4 0x11FCD048 EQ PUSH2 0x82 JUMPI DUP1 PUSH4 0x3EDB318F EQ PUSH2 0xB2 JUMPI DUP1 PUSH4 0x519FD1BC EQ PUSH2 0xE2 JUMPI JUMPDEST PUSH1 0x0 DUP1 REVERT JUMPDEST PUSH2 0x9C PUSH1 0x4 DUP1 CALLDATASIZE SUB DUP2 ADD SWAP1 PUSH2 0x97 SWAP2 SWAP1 PUSH2 0xE7D JUMP JUMPDEST PUSH2 0x1D3 JUMP JUMPDEST PUSH1 0x40 MLOAD PUSH2 0xA9 SWAP2 SWAP1 PUSH2 0x1007 JUMP JUMPDEST PUSH1 0x40 MLOAD DUP1 SWAP2 SUB SWAP1 RETURN JUMPDEST PUSH2 0xCC PUSH1 0x4 DUP1 CALLDATASIZE SUB DUP2 ADD SWAP1 PUSH2 0xC7 SWAP2 SWAP1 PUSH2 0x1081 JUMP JUMPDEST PUSH2 0x2F8 JUMP JUMPDEST PUSH1 0x40 MLOAD PUSH2 0xD9 SWAP2 SWAP1 PUSH2 0x10C7 JUMP JUMPDEST PUSH1 0x40 MLOAD DUP1 SWAP2 SUB SWAP1 RETURN JUMPDEST PUSH2 0xFC PUSH1 0x4 DUP1 CALLDATASIZE SUB DUP2 ADD SWAP1 PUSH2 0xF7 SWAP2 SWAP1 PUSH2 0xE7D JUMP JUMPDEST PUSH2 0x392 JUMP JUMPDEST PUSH1 0x40 MLOAD PUSH2 0x109 SWAP2 SWAP1 PUSH2 0x10F1 JUMP JUMPDEST PUSH1 0x40 MLOAD DUP1 SWAP2 SUB SWAP1 RETURN JUMPDEST PUSH2 0x12C PUSH1 0x4 DUP1 CALLDATASIZE SUB DUP2 ADD SWAP1 PUSH2 0x127 SWAP2 SWAP1 PUSH2 0xE7D JUMP JUMPDEST PUSH2 0x59B JUMP JUMPDEST PUSH1 0x40 MLOAD PUSH2 0x139 SWAP2 SWAP1 PUSH2 0x10C7 JUMP JUMPDEST PUSH1 0x40 MLOAD DUP1 SWAP2 SUB SWAP1 RETURN JUMPDEST PUSH2 0x15C PUSH1 0x4 DUP1 CALLDATASIZE SUB DUP2 ADD SWAP1 PUSH2 0x157 SWAP2 SWAP1 PUSH2 0xE7D JUMP JUMPDEST PUSH2 0x675 JUMP JUMPDEST PUSH1 0x40 MLOAD PUSH2 0x16A SWAP3 SWAP2 SWAP1 PUSH2 0x110C JUMP JUMPDEST PUSH1 0x40 MLOAD DUP1 SWAP2 SUB SWAP1 RETURN JUMPDEST PUSH2 0x18D PUSH1 0x4 DUP1 CALLDATASIZE SUB DUP2 ADD SWAP1 PUSH2 0x188 SWAP2 SWAP1 PUSH2 0xE7D JUMP JUMPDEST PUSH2 0x6B8 JUMP JUMPDEST PUSH1 0x40 MLOAD PUSH2 0x19A SWAP2 SWAP1 PUSH2 0x10C7 JUMP JUMPDEST PUSH1 0x40 MLOAD DUP1 SWAP2 SUB SWAP1 RETURN JUMPDEST PUSH2 0x1BD PUSH1 0x4 DUP1 CALLDATASIZE SUB DUP2 ADD SWAP1 PUSH2 0x1B8 SWAP2 SWAP1 PUSH2 0x1135 JUMP JUMPDEST PUSH2 0x737 JUMP JUMPDEST PUSH1 0x40 MLOAD PUSH2 0x1CA SWAP2 SWAP1 PUSH2 0x10F1 JUMP JUMPDEST PUSH1 0x40 MLOAD DUP1 SWAP2 SUB SWAP1 RETURN JUMPDEST PUSH1 0x60 PUSH1 0x0 PUSH2 0x1E0 DUP4 PUSH2 0x8DE JUMP JUMPDEST SWAP1 POP PUSH1 0x0 PUSH2 0x222 PUSH1 0x40 MLOAD DUP1 PUSH1 0x40 ADD PUSH1 0x40 MSTORE DUP1 PUSH1 0x1 DUP2 MSTORE PUSH1 0x20 ADD PUSH32 0xA00000000000000000000000000000000000000000000000000000000000000 DUP2 MSTORE POP PUSH2 0x8DE JUMP JUMPDEST SWAP1 POP PUSH1 0x0 PUSH1 0x1 PUSH2 0x23B DUP4 DUP6 PUSH2 0x90C SWAP1 SWAP2 SWAP1 PUSH4 0xFFFFFFFF AND JUMP JUMPDEST PUSH2 0x245 SWAP2 SWAP1 PUSH2 0x120B JUMP JUMPDEST PUSH8 0xFFFFFFFFFFFFFFFF DUP2 GT ISZERO PUSH2 0x25E JUMPI PUSH2 0x25D PUSH2 0xD52 JUMP JUMPDEST JUMPDEST PUSH1 0x40 MLOAD SWAP1 DUP1 DUP3 MSTORE DUP1 PUSH1 0x20 MUL PUSH1 0x20 ADD DUP3 ADD PUSH1 0x40 MSTORE DUP1 ISZERO PUSH2 0x291 JUMPI DUP2 PUSH1 0x20 ADD JUMPDEST PUSH1 0x60 DUP2 MSTORE PUSH1 0x20 ADD SWAP1 PUSH1 0x1 SWAP1 SUB SWAP1 DUP2 PUSH2 0x27C JUMPI SWAP1 POP JUMPDEST POP SWAP1 POP PUSH1 0x0 JUMPDEST DUP2 MLOAD DUP2 LT ISZERO PUSH2 0x2EC JUMPI PUSH2 0x2BB PUSH2 0x2B6 DUP5 DUP7 PUSH2 0x9B4 SWAP1 SWAP2 SWAP1 PUSH4 0xFFFFFFFF AND JUMP JUMPDEST PUSH2 0x9CE JUMP JUMPDEST DUP3 DUP3 DUP2 MLOAD DUP2 LT PUSH2 0x2CE JUMPI PUSH2 0x2CD PUSH2 0x123F JUMP JUMPDEST JUMPDEST PUSH1 0x20 MUL PUSH1 0x20 ADD ADD DUP2 SWAP1 MSTORE POP DUP1 DUP1 PUSH2 0x2E4 SWAP1 PUSH2 0x126E JUMP JUMPDEST SWAP2 POP POP PUSH2 0x297 JUMP JUMPDEST POP DUP1 SWAP4 POP POP POP POP SWAP2 SWAP1 POP JUMP JUMPDEST PUSH1 0x0 PUSH1 0x61 PUSH1 0xF8 SHL DUP3 PUSH31 0xFFFFFFFFFFFFFFFFFFFFFFFFFFFFFFFFFFFFFFFFFFFFFFFFFFFFFFFFFFFFFF NOT AND LT PUSH2 0x341 JUMPI PUSH1 0x60 DUP3 PUSH1 0xF8 SHR PUSH1 0xFF AND PUSH2 0x33A SWAP2 SWAP1 PUSH2 0x12B6 JUMP JUMPDEST SWAP1 POP PUSH2 0x38D JUMP JUMPDEST PUSH1 0x41 PUSH1 0xF8 SHL DUP3 PUSH31 0xFFFFFFFFFFFFFFFFFFFFFFFFFFFFFFFFFFFFFFFFFFFFFFFFFFFFFFFFFFFFFF NOT AND LT PUSH2 0x388 JUMPI PUSH1 0x26 DUP3 PUSH1 0xF8 SHR PUSH1 0xFF AND PUSH2 0x381 SWAP2 SWAP1 PUSH2 0x12B6 JUMP JUMPDEST SWAP1 POP PUSH2 0x38D JUMP JUMPDEST PUSH1 0x0 SWAP1 POP JUMPDEST SWAP2 SWAP1 POP JUMP JUMPDEST PUSH1 0x0 DUP1 PUSH1 0x2 DUP4 MLOAD PUSH2 0x3A3 SWAP2 SWAP1 PUSH2 0x1319 JUMP JUMPDEST SWAP1 POP PUSH1 0x0 DUP2 PUSH8 0xFFFFFFFFFFFFFFFF DUP2 GT ISZERO PUSH2 0x3C1 JUMPI PUSH2 0x3C0 PUSH2 0xD52 JUMP JUMPDEST JUMPDEST PUSH1 0x40 MLOAD SWAP1 DUP1 DUP3 MSTORE DUP1 PUSH1 0x20 MUL PUSH1 0x20 ADD DUP3 ADD PUSH1 0x40 MSTORE DUP1 ISZERO PUSH2 0x3EF JUMPI DUP2 PUSH1 0x20 ADD PUSH1 0x20 DUP3 MUL DUP1 CALLDATASIZE DUP4 CALLDATACOPY DUP1 DUP3 ADD SWAP2 POP POP SWAP1 POP JUMPDEST POP SWAP1 POP PUSH1 0x0 JUMPDEST PUSH1 0x2 DUP6 MLOAD PUSH2 0x403 SWAP2 SWAP1 PUSH2 0x1319 JUMP JUMPDEST DUP2 LT ISZERO PUSH2 0x4A0 JUMPI DUP5 DUP2 DUP2 MLOAD DUP2 LT PUSH2 0x41D JUMPI PUSH2 0x41C PUSH2 0x123F JUMP JUMPDEST JUMPDEST PUSH1 0x20 ADD ADD MLOAD PUSH1 0xF8 SHR PUSH1 0xF8 SHL DUP3 DUP3 DUP2 MLOAD DUP2 LT PUSH2 0x43B JUMPI PUSH2 0x43A PUSH2 0x123F JUMP JUMPDEST JUMPDEST PUSH1 0x20 MUL PUSH1 0x20 ADD ADD SWAP1 PUSH31 0xFFFFFFFFFFFFFFFFFFFFFFFFFFFFFFFFFFFFFFFFFFFFFFFFFFFFFFFFFFFFFF NOT AND SWAP1 DUP2 PUSH31 0xFFFFFFFFFFFFFFFFFFFFFFFFFFFFFFFFFFFFFFFFFFFFFFFFFFFFFFFFFFFFFF NOT AND DUP2 MSTORE POP POP DUP1 DUP1 PUSH2 0x498 SWAP1 PUSH2 0x126E JUMP JUMPDEST SWAP2 POP POP PUSH2 0x3F5 JUMP JUMPDEST POP PUSH1 0x0 DUP3 SWAP1 POP JUMPDEST DUP5 MLOAD DUP2 LT ISZERO PUSH2 0x58B JUMPI PUSH1 0x0 JUMPDEST DUP3 MLOAD DUP2 LT ISZERO PUSH2 0x577 JUMPI DUP6 DUP3 DUP2 MLOAD DUP2 LT PUSH2 0x4CF JUMPI PUSH2 0x4CE PUSH2 0x123F JUMP JUMPDEST JUMPDEST PUSH1 0x20 ADD ADD MLOAD PUSH1 0xF8 SHR PUSH1 0xF8 SHL PUSH31 0xFFFFFFFFFFFFFFFFFFFFFFFFFFFFFFFFFFFFFFFFFFFFFFFFFFFFFFFFFFFFFF NOT AND DUP4 DUP3 DUP2 MLOAD DUP2 LT PUSH2 0x50F JUMPI PUSH2 0x50E PUSH2 0x123F JUMP JUMPDEST JUMPDEST PUSH1 0x20 MUL PUSH1 0x20 ADD ADD MLOAD PUSH31 0xFFFFFFFFFFFFFFFFFFFFFFFFFFFFFFFFFFFFFFFFFFFFFFFFFFFFFFFFFFFFFF NOT AND SUB PUSH2 0x564 JUMPI DUP3 DUP2 DUP2 MLOAD DUP2 LT PUSH2 0x551 JUMPI PUSH2 0x550 PUSH2 0x123F JUMP JUMPDEST JUMPDEST PUSH1 0x20 MUL PUSH1 0x20 ADD ADD MLOAD SWAP5 POP POP POP POP POP PUSH2 0x596 JUMP JUMPDEST DUP1 DUP1 PUSH2 0x56F SWAP1 PUSH2 0x126E JUMP JUMPDEST SWAP2 POP POP PUSH2 0x4B3 JUMP JUMPDEST POP DUP1 DUP1 PUSH2 0x583 SWAP1 PUSH2 0x126E JUMP JUMPDEST SWAP2 POP POP PUSH2 0x4A7 JUMP JUMPDEST POP PUSH1 0x0 PUSH1 0xF8 SHL SWAP3 POP POP POP JUMPDEST SWAP2 SWAP1 POP JUMP JUMPDEST PUSH1 0x0 DUP1 PUSH1 0x0 SWAP1 POP PUSH1 0x0 PUSH2 0x5AD DUP5 PUSH2 0x1D3 JUMP JUMPDEST SWAP1 POP PUSH1 0x0 DUP1 PUSH1 0x0 SWAP1 POP JUMPDEST PUSH1 0x2 DUP4 MLOAD PUSH2 0x5C5 SWAP2 SWAP1 PUSH2 0x12B6 JUMP JUMPDEST DUP2 LT ISZERO PUSH2 0x669 JUMPI PUSH2 0x63D DUP4 DUP3 DUP2 MLOAD DUP2 LT PUSH2 0x5E2 JUMPI PUSH2 0x5E1 PUSH2 0x123F JUMP JUMPDEST JUMPDEST PUSH1 0x20 MUL PUSH1 0x20 ADD ADD MLOAD DUP5 PUSH1 0x1 DUP5 PUSH2 0x5F8 SWAP2 SWAP1 PUSH2 0x120B JUMP JUMPDEST DUP2 MLOAD DUP2 LT PUSH2 0x609 JUMPI PUSH2 0x608 PUSH2 0x123F JUMP JUMPDEST JUMPDEST PUSH1 0x20 MUL PUSH1 0x20 ADD ADD MLOAD DUP6 PUSH1 0x2 DUP6 PUSH2 0x61F SWAP2 SWAP1 PUSH2 0x120B JUMP JUMPDEST DUP2 MLOAD DUP2 LT PUSH2 0x630 JUMPI PUSH2 0x62F PUSH2 0x123F JUMP JUMPDEST JUMPDEST PUSH1 0x20 MUL PUSH1 0x20 ADD ADD MLOAD PUSH2 0x737 JUMP JUMPDEST SWAP2 POP PUSH2 0x648 DUP3 PUSH2 0x2F8 JUMP JUMPDEST DUP5 PUSH2 0x653 SWAP2 SWAP1 PUSH2 0x120B JUMP JUMPDEST SWAP4 POP PUSH1 0x3 DUP2 PUSH2 0x662 SWAP2 SWAP1 PUSH2 0x120B JUMP JUMPDEST SWAP1 POP PUSH2 0x5B7 JUMP JUMPDEST POP DUP3 SWAP4 POP POP POP POP SWAP2 SWAP1 POP JUMP JUMPDEST PUSH1 0x0 DUP1 PUSH1 0x0 DUP4 MLOAD SUB PUSH2 0x69D JUMPI PUSH1 0x40 MLOAD DUP1 PUSH1 0xC0 ADD PUSH1 0x40 MSTORE DUP1 PUSH1 0x95 DUP2 MSTORE PUSH1 0x20 ADD PUSH2 0x150B PUSH1 0x95 SWAP2 CODECOPY SWAP3 POP JUMPDEST PUSH2 0x6A6 DUP4 PUSH2 0x6B8 JUMP JUMPDEST PUSH2 0x6AF DUP5 PUSH2 0x59B JUMP JUMPDEST SWAP2 POP SWAP2 POP SWAP2 POP SWAP2 JUMP JUMPDEST PUSH1 0x0 DUP1 PUSH1 0x0 SWAP1 POP PUSH1 0x0 PUSH2 0x6CA DUP5 PUSH2 0x1D3 JUMP JUMPDEST SWAP1 POP PUSH1 0x0 DUP1 PUSH1 0x0 SWAP1 POP JUMPDEST DUP3 MLOAD DUP2 LT ISZERO PUSH2 0x72B JUMPI PUSH2 0x700 DUP4 DUP3 DUP2 MLOAD DUP2 LT PUSH2 0x6F3 JUMPI PUSH2 0x6F2 PUSH2 0x123F JUMP JUMPDEST JUMPDEST PUSH1 0x20 MUL PUSH1 0x20 ADD ADD MLOAD PUSH2 0x392 JUMP JUMPDEST SWAP2 POP PUSH2 0x70B DUP3 PUSH2 0x2F8 JUMP JUMPDEST DUP5 PUSH2 0x716 SWAP2 SWAP1 PUSH2 0x120B JUMP JUMPDEST SWAP4 POP DUP1 DUP1 PUSH2 0x723 SWAP1 PUSH2 0x126E JUMP JUMPDEST SWAP2 POP POP PUSH2 0x6D4 JUMP JUMPDEST POP DUP3 SWAP4 POP POP POP POP SWAP2 SWAP1 POP JUMP JUMPDEST PUSH1 0x0 DUP1 PUSH1 0x0 SWAP1 POP JUMPDEST DUP5 MLOAD DUP2 LT ISZERO PUSH2 0x8CE JUMPI PUSH1 0x0 JUMPDEST DUP5 MLOAD DUP2 LT ISZERO PUSH2 0x8BA JUMPI DUP5 DUP2 DUP2 MLOAD DUP2 LT PUSH2 0x767 JUMPI PUSH2 0x766 PUSH2 0x123F JUMP JUMPDEST JUMPDEST PUSH1 0x20 ADD ADD MLOAD PUSH1 0xF8 SHR PUSH1 0xF8 SHL PUSH31 0xFFFFFFFFFFFFFFFFFFFFFFFFFFFFFFFFFFFFFFFFFFFFFFFFFFFFFFFFFFFFFF NOT AND DUP7 DUP4 DUP2 MLOAD DUP2 LT PUSH2 0x7A7 JUMPI PUSH2 0x7A6 PUSH2 0x123F JUMP JUMPDEST JUMPDEST PUSH1 0x20 ADD ADD MLOAD PUSH1 0xF8 SHR PUSH1 0xF8 SHL PUSH31 0xFFFFFFFFFFFFFFFFFFFFFFFFFFFFFFFFFFFFFFFFFFFFFFFFFFFFFFFFFFFFFF NOT AND SUB PUSH2 0x8A7 JUMPI PUSH1 0x0 JUMPDEST DUP5 MLOAD DUP2 LT ISZERO PUSH2 0x8A5 JUMPI DUP5 DUP2 DUP2 MLOAD DUP2 LT PUSH2 0x7F8 JUMPI PUSH2 0x7F7 PUSH2 0x123F JUMP JUMPDEST JUMPDEST PUSH1 0x20 ADD ADD MLOAD PUSH1 0xF8 SHR PUSH1 0xF8 SHL PUSH31 0xFFFFFFFFFFFFFFFFFFFFFFFFFFFFFFFFFFFFFFFFFFFFFFFFFFFFFFFFFFFFFF NOT AND DUP8 DUP5 DUP2 MLOAD DUP2 LT PUSH2 0x838 JUMPI PUSH2 0x837 PUSH2 0x123F JUMP JUMPDEST JUMPDEST PUSH1 0x20 ADD ADD MLOAD PUSH1 0xF8 SHR PUSH1 0xF8 SHL PUSH31 0xFFFFFFFFFFFFFFFFFFFFFFFFFFFFFFFFFFFFFFFFFFFFFFFFFFFFFFFFFFFFFF NOT AND SUB PUSH2 0x892 JUMPI DUP7 DUP4 DUP2 MLOAD DUP2 LT PUSH2 0x87D JUMPI PUSH2 0x87C PUSH2 0x123F JUMP JUMPDEST JUMPDEST PUSH1 0x20 ADD ADD MLOAD PUSH1 0xF8 SHR PUSH1 0xF8 SHL SWAP4 POP POP POP POP PUSH2 0x8D7 JUMP JUMPDEST DUP1 DUP1 PUSH2 0x89D SWAP1 PUSH2 0x126E JUMP JUMPDEST SWAP2 POP POP PUSH2 0x7DC JUMP JUMPDEST POP JUMPDEST DUP1 DUP1 PUSH2 0x8B2 SWAP1 PUSH2 0x126E JUMP JUMPDEST SWAP2 POP POP PUSH2 0x74B JUMP JUMPDEST POP DUP1 DUP1 PUSH2 0x8C6 SWAP1 PUSH2 0x126E JUMP JUMPDEST SWAP2 POP POP PUSH2 0x73F JUMP JUMPDEST POP PUSH1 0x0 PUSH1 0xF8 SHL SWAP1 POP JUMPDEST SWAP4 SWAP3 POP POP POP JUMP JUMPDEST PUSH2 0x8E6 PUSH2 0xD09 JUMP JUMPDEST PUSH1 0x0 PUSH1 0x20 DUP4 ADD SWAP1 POP PUSH1 0x40 MLOAD DUP1 PUSH1 0x40 ADD PUSH1 0x40 MSTORE DUP1 DUP5 MLOAD DUP2 MSTORE PUSH1 0x20 ADD DUP3 DUP2 MSTORE POP SWAP2 POP POP SWAP2 SWAP1 POP JUMP JUMPDEST PUSH1 0x0 DUP1 DUP3 PUSH1 0x0 ADD MLOAD PUSH2 0x930 DUP6 PUSH1 0x0 ADD MLOAD DUP7 PUSH1 0x20 ADD MLOAD DUP7 PUSH1 0x0 ADD MLOAD DUP8 PUSH1 0x20 ADD MLOAD PUSH2 0xA4A JUMP JUMPDEST PUSH2 0x93A SWAP2 SWAP1 PUSH2 0x120B JUMP JUMPDEST SWAP1 POP JUMPDEST DUP4 PUSH1 0x0 ADD MLOAD DUP5 PUSH1 0x20 ADD MLOAD PUSH2 0x951 SWAP2 SWAP1 PUSH2 0x120B JUMP JUMPDEST DUP2 GT PUSH2 0x9AD JUMPI DUP2 DUP1 PUSH2 0x962 SWAP1 PUSH2 0x126E JUMP JUMPDEST SWAP3 POP POP DUP3 PUSH1 0x0 ADD MLOAD PUSH2 0x99C DUP6 PUSH1 0x20 ADD MLOAD DUP4 PUSH2 0x97D SWAP2 SWAP1 PUSH2 0x12B6 JUMP JUMPDEST DUP7 PUSH1 0x0 ADD MLOAD PUSH2 0x98C SWAP2 SWAP1 PUSH2 0x12B6 JUMP JUMPDEST DUP4 DUP7 PUSH1 0x0 ADD MLOAD DUP8 PUSH1 0x20 ADD MLOAD PUSH2 0xA4A JUMP JUMPDEST PUSH2 0x9A6 SWAP2 SWAP1 PUSH2 0x120B JUMP JUMPDEST SWAP1 POP PUSH2 0x93D JUMP JUMPDEST POP SWAP3 SWAP2 POP POP JUMP JUMPDEST PUSH2 0x9BC PUSH2 0xD09 JUMP JUMPDEST PUSH2 0x9C7 DUP4 DUP4 DUP4 PUSH2 0xB93 JUMP JUMPDEST POP SWAP3 SWAP2 POP POP JUMP JUMPDEST PUSH1 0x60 PUSH1 0x0 DUP3 PUSH1 0x0 ADD MLOAD PUSH8 0xFFFFFFFFFFFFFFFF DUP2 GT ISZERO PUSH2 0x9F0 JUMPI PUSH2 0x9EF PUSH2 0xD52 JUMP JUMPDEST JUMPDEST PUSH1 0x40 MLOAD SWAP1 DUP1 DUP3 MSTORE DUP1 PUSH1 0x1F ADD PUSH1 0x1F NOT AND PUSH1 0x20 ADD DUP3 ADD PUSH1 0x40 MSTORE DUP1 ISZERO PUSH2 0xA22 JUMPI DUP2 PUSH1 0x20 ADD PUSH1 0x1 DUP3 MUL DUP1 CALLDATASIZE DUP4 CALLDATACOPY DUP1 DUP3 ADD SWAP2 POP POP SWAP1 POP JUMPDEST POP SWAP1 POP PUSH1 0x0 PUSH1 0x20 DUP3 ADD SWAP1 POP PUSH2 0xA40 DUP2 DUP6 PUSH1 0x20 ADD MLOAD DUP7 PUSH1 0x0 ADD MLOAD PUSH2 0xC5D JUMP JUMPDEST DUP2 SWAP3 POP POP POP SWAP2 SWAP1 POP JUMP JUMPDEST PUSH1 0x0 DUP1 DUP5 SWAP1 POP PUSH1 0x0 DUP7 DUP6 GT PUSH2 0xB7A JUMPI PUSH1 0x20 DUP6 GT PUSH2 0xB1D JUMPI PUSH1 0x0 DUP1 DUP7 GT ISZERO PUSH2 0xAA3 JUMPI PUSH1 0x1 DUP7 PUSH1 0x20 PUSH2 0xA7A SWAP2 SWAP1 PUSH2 0x12B6 JUMP JUMPDEST PUSH1 0x8 PUSH2 0xA86 SWAP2 SWAP1 PUSH2 0x134A JUMP JUMPDEST PUSH1 0x2 PUSH2 0xA92 SWAP2 SWAP1 PUSH2 0x14BF JUMP JUMPDEST PUSH2 0xA9C SWAP2 SWAP1 PUSH2 0x12B6 JUMP JUMPDEST NOT PUSH1 0x0 SHL SWAP1 POP JUMPDEST PUSH1 0x0 DUP2 DUP7 MLOAD AND SWAP1 POP PUSH1 0x0 DUP8 DUP11 DUP11 PUSH2 0xABA SWAP2 SWAP1 PUSH2 0x120B JUMP JUMPDEST PUSH2 0xAC4 SWAP2 SWAP1 PUSH2 0x12B6 JUMP JUMPDEST SWAP1 POP PUSH1 0x0 DUP4 DUP7 MLOAD AND SWAP1 POP JUMPDEST DUP3 DUP2 EQ PUSH2 0xB0F JUMPI DUP2 DUP7 LT PUSH2 0xAF6 JUMPI DUP11 DUP11 PUSH2 0xAE9 SWAP2 SWAP1 PUSH2 0x120B JUMP JUMPDEST SWAP7 POP POP POP POP POP POP POP PUSH2 0xB8B JUMP JUMPDEST DUP6 DUP1 PUSH2 0xB01 SWAP1 PUSH2 0x126E JUMP JUMPDEST SWAP7 POP POP DUP4 DUP7 MLOAD AND SWAP1 POP PUSH2 0xACF JUMP JUMPDEST DUP6 SWAP7 POP POP POP POP POP POP POP PUSH2 0xB8B JUMP JUMPDEST PUSH1 0x0 DUP6 DUP6 KECCAK256 SWAP1 POP PUSH1 0x0 SWAP2 POP JUMPDEST DUP6 DUP9 PUSH2 0xB35 SWAP2 SWAP1 PUSH2 0x12B6 JUMP JUMPDEST DUP3 GT PUSH2 0xB78 JUMPI PUSH1 0x0 DUP7 DUP5 KECCAK256 SWAP1 POP DUP1 DUP3 SUB PUSH2 0xB55 JUMPI DUP4 SWAP5 POP POP POP POP POP PUSH2 0xB8B JUMP JUMPDEST PUSH1 0x1 DUP5 PUSH2 0xB62 SWAP2 SWAP1 PUSH2 0x120B JUMP JUMPDEST SWAP4 POP POP DUP2 DUP1 PUSH2 0xB70 SWAP1 PUSH2 0x126E JUMP JUMPDEST SWAP3 POP POP PUSH2 0xB29 JUMP JUMPDEST POP JUMPDEST DUP7 DUP7 PUSH2 0xB86 SWAP2 SWAP1 PUSH2 0x120B JUMP JUMPDEST SWAP3 POP POP POP JUMPDEST SWAP5 SWAP4 POP POP POP POP JUMP JUMPDEST PUSH2 0xB9B PUSH2 0xD09 JUMP JUMPDEST PUSH1 0x0 PUSH2 0xBB9 DUP6 PUSH1 0x0 ADD MLOAD DUP7 PUSH1 0x20 ADD MLOAD DUP7 PUSH1 0x0 ADD MLOAD DUP8 PUSH1 0x20 ADD MLOAD PUSH2 0xA4A JUMP JUMPDEST SWAP1 POP DUP5 PUSH1 0x20 ADD MLOAD DUP4 PUSH1 0x20 ADD DUP2 DUP2 MSTORE POP POP DUP5 PUSH1 0x20 ADD MLOAD DUP2 PUSH2 0xBD9 SWAP2 SWAP1 PUSH2 0x12B6 JUMP JUMPDEST DUP4 PUSH1 0x0 ADD DUP2 DUP2 MSTORE POP POP DUP5 PUSH1 0x0 ADD MLOAD DUP6 PUSH1 0x20 ADD MLOAD PUSH2 0xBF6 SWAP2 SWAP1 PUSH2 0x120B JUMP JUMPDEST DUP2 SUB PUSH2 0xC0C JUMPI PUSH1 0x0 DUP6 PUSH1 0x0 ADD DUP2 DUP2 MSTORE POP POP PUSH2 0xC52 JUMP JUMPDEST DUP4 PUSH1 0x0 ADD MLOAD DUP4 PUSH1 0x0 ADD MLOAD PUSH2 0xC20 SWAP2 SWAP1 PUSH2 0x120B JUMP JUMPDEST DUP6 PUSH1 0x0 ADD DUP2 DUP2 MLOAD PUSH2 0xC31 SWAP2 SWAP1 PUSH2 0x12B6 JUMP JUMPDEST SWAP2 POP DUP2 DUP2 MSTORE POP POP DUP4 PUSH1 0x0 ADD MLOAD DUP2 PUSH2 0xC48 SWAP2 SWAP1 PUSH2 0x120B JUMP JUMPDEST DUP6 PUSH1 0x20 ADD DUP2 DUP2 MSTORE POP POP JUMPDEST DUP3 SWAP2 POP POP SWAP4 SWAP3 POP POP POP JUMP JUMPDEST JUMPDEST PUSH1 0x20 DUP2 LT PUSH2 0xC9C JUMPI DUP2 MLOAD DUP4 MSTORE PUSH1 0x20 DUP4 PUSH2 0xC77 SWAP2 SWAP1 PUSH2 0x120B JUMP JUMPDEST SWAP3 POP PUSH1 0x20 DUP3 PUSH2 0xC86 SWAP2 SWAP1 PUSH2 0x120B JUMP JUMPDEST SWAP2 POP PUSH1 0x20 DUP2 PUSH2 0xC95 SWAP2 SWAP1 PUSH2 0x12B6 JUMP JUMPDEST SWAP1 POP PUSH2 0xC5E JUMP JUMPDEST PUSH1 0x0 PUSH32 0xFFFFFFFFFFFFFFFFFFFFFFFFFFFFFFFFFFFFFFFFFFFFFFFFFFFFFFFFFFFFFFFF SWAP1 POP PUSH1 0x0 DUP3 GT ISZERO PUSH2 0xCF3 JUMPI PUSH1 0x1 DUP3 PUSH1 0x20 PUSH2 0xCD9 SWAP2 SWAP1 PUSH2 0x12B6 JUMP JUMPDEST PUSH2 0x100 PUSH2 0xCE6 SWAP2 SWAP1 PUSH2 0x14BF JUMP JUMPDEST PUSH2 0xCF0 SWAP2 SWAP1 PUSH2 0x12B6 JUMP JUMPDEST SWAP1 POP JUMPDEST DUP1 NOT DUP4 MLOAD AND DUP2 DUP6 MLOAD AND DUP2 DUP2 OR DUP7 MSTORE POP POP POP POP POP POP JUMP JUMPDEST PUSH1 0x40 MLOAD DUP1 PUSH1 0x40 ADD PUSH1 0x40 MSTORE DUP1 PUSH1 0x0 DUP2 MSTORE PUSH1 0x20 ADD PUSH1 0x0 DUP2 MSTORE POP SWAP1 JUMP JUMPDEST PUSH1 0x0 PUSH1 0x40 MLOAD SWAP1 POP SWAP1 JUMP JUMPDEST PUSH1 0x0 DUP1 REVERT JUMPDEST PUSH1 0x0 DUP1 REVERT JUMPDEST PUSH1 0x0 DUP1 REVERT JUMPDEST PUSH1 0x0 DUP1 REVERT JUMPDEST PUSH1 0x0 PUSH1 0x1F NOT PUSH1 0x1F DUP4 ADD AND SWAP1 POP SWAP2 SWAP1 POP JUMP JUMPDEST PUSH32 0x4E487B7100000000000000000000000000000000000000000000000000000000 PUSH1 0x0 MSTORE PUSH1 0x41 PUSH1 0x4 MSTORE PUSH1 0x24 PUSH1 0x0 REVERT JUMPDEST PUSH2 0xD8A DUP3 PUSH2 0xD41 JUMP JUMPDEST DUP2 ADD DUP2 DUP2 LT PUSH8 0xFFFFFFFFFFFFFFFF DUP3 GT OR ISZERO PUSH2 0xDA9 JUMPI PUSH2 0xDA8 PUSH2 0xD52 JUMP JUMPDEST JUMPDEST DUP1 PUSH1 0x40 MSTORE POP POP POP JUMP JUMPDEST PUSH1 0x0 PUSH2 0xDBC PUSH2 0xD23 JUMP JUMPDEST SWAP1 POP PUSH2 0xDC8 DUP3 DUP3 PUSH2 0xD81 JUMP JUMPDEST SWAP2 SWAP1 POP JUMP JUMPDEST PUSH1 0x0 PUSH8 0xFFFFFFFFFFFFFFFF DUP3 GT ISZERO PUSH2 0xDE8 JUMPI PUSH2 0xDE7 PUSH2 0xD52 JUMP JUMPDEST JUMPDEST PUSH2 0xDF1 DUP3 PUSH2 0xD41 JUMP JUMPDEST SWAP1 POP PUSH1 0x20 DUP2 ADD SWAP1 POP SWAP2 SWAP1 POP JUMP JUMPDEST DUP3 DUP2 DUP4 CALLDATACOPY PUSH1 0x0 DUP4 DUP4 ADD MSTORE POP POP POP JUMP JUMPDEST PUSH1 0x0 PUSH2 0xE20 PUSH2 0xE1B DUP5 PUSH2 0xDCD JUMP JUMPDEST PUSH2 0xDB2 JUMP JUMPDEST SWAP1 POP DUP3 DUP2 MSTORE PUSH1 0x20 DUP2 ADD DUP5 DUP5 DUP5 ADD GT ISZERO PUSH2 0xE3C JUMPI PUSH2 0xE3B PUSH2 0xD3C JUMP JUMPDEST JUMPDEST PUSH2 0xE47 DUP5 DUP3 DUP6 PUSH2 0xDFE JUMP JUMPDEST POP SWAP4 SWAP3 POP POP POP JUMP JUMPDEST PUSH1 0x0 DUP3 PUSH1 0x1F DUP4 ADD SLT PUSH2 0xE64 JUMPI PUSH2 0xE63 PUSH2 0xD37 JUMP JUMPDEST JUMPDEST DUP2 CALLDATALOAD PUSH2 0xE74 DUP5 DUP3 PUSH1 0x20 DUP7 ADD PUSH2 0xE0D JUMP JUMPDEST SWAP2 POP POP SWAP3 SWAP2 POP POP JUMP JUMPDEST PUSH1 0x0 PUSH1 0x20 DUP3 DUP5 SUB SLT ISZERO PUSH2 0xE93 JUMPI PUSH2 0xE92 PUSH2 0xD2D JUMP JUMPDEST JUMPDEST PUSH1 0x0 DUP3 ADD CALLDATALOAD PUSH8 0xFFFFFFFFFFFFFFFF DUP2 GT ISZERO PUSH2 0xEB1 JUMPI PUSH2 0xEB0 PUSH2 0xD32 JUMP JUMPDEST JUMPDEST PUSH2 0xEBD DUP5 DUP3 DUP6 ADD PUSH2 0xE4F JUMP JUMPDEST SWAP2 POP POP SWAP3 SWAP2 POP POP JUMP JUMPDEST PUSH1 0x0 DUP2 MLOAD SWAP1 POP SWAP2 SWAP1 POP JUMP JUMPDEST PUSH1 0x0 DUP3 DUP3 MSTORE PUSH1 0x20 DUP3 ADD SWAP1 POP SWAP3 SWAP2 POP POP JUMP JUMPDEST PUSH1 0x0 DUP2 SWAP1 POP PUSH1 0x20 DUP3 ADD SWAP1 POP SWAP2 SWAP1 POP JUMP JUMPDEST PUSH1 0x0 DUP2 MLOAD SWAP1 POP SWAP2 SWAP1 POP JUMP JUMPDEST PUSH1 0x0 DUP3 DUP3 MSTORE PUSH1 0x20 DUP3 ADD SWAP1 POP SWAP3 SWAP2 POP POP JUMP JUMPDEST PUSH1 0x0 JUMPDEST DUP4 DUP2 LT ISZERO PUSH2 0xF2C JUMPI DUP1 DUP3 ADD MLOAD DUP2 DUP5 ADD MSTORE PUSH1 0x20 DUP2 ADD SWAP1 POP PUSH2 0xF11 JUMP JUMPDEST PUSH1 0x0 DUP5 DUP5 ADD MSTORE POP POP POP POP JUMP JUMPDEST PUSH1 0x0 PUSH2 0xF43 DUP3 PUSH2 0xEF2 JUMP JUMPDEST PUSH2 0xF4D DUP2 DUP6 PUSH2 0xEFD JUMP JUMPDEST SWAP4 POP PUSH2 0xF5D DUP2 DUP6 PUSH1 0x20 DUP7 ADD PUSH2 0xF0E JUMP JUMPDEST PUSH2 0xF66 DUP2 PUSH2 0xD41 JUMP JUMPDEST DUP5 ADD SWAP2 POP POP SWAP3 SWAP2 POP POP JUMP JUMPDEST PUSH1 0x0 PUSH2 0xF7D DUP4 DUP4 PUSH2 0xF38 JUMP JUMPDEST SWAP1 POP SWAP3 SWAP2 POP POP JUMP JUMPDEST PUSH1 0x0 PUSH1 0x20 DUP3 ADD SWAP1 POP SWAP2 SWAP1 POP JUMP JUMPDEST PUSH1 0x0 PUSH2 0xF9D DUP3 PUSH2 0xEC6 JUMP JUMPDEST PUSH2 0xFA7 DUP2 DUP6 PUSH2 0xED1 JUMP JUMPDEST SWAP4 POP DUP4 PUSH1 0x20 DUP3 MUL DUP6 ADD PUSH2 0xFB9 DUP6 PUSH2 0xEE2 JUMP JUMPDEST DUP1 PUSH1 0x0 JUMPDEST DUP6 DUP2 LT ISZERO PUSH2 0xFF5 JUMPI DUP5 DUP5 SUB DUP10 MSTORE DUP2 MLOAD PUSH2 0xFD6 DUP6 DUP3 PUSH2 0xF71 JUMP JUMPDEST SWAP5 POP PUSH2 0xFE1 DUP4 PUSH2 0xF85 JUMP JUMPDEST SWAP3 POP PUSH1 0x20 DUP11 ADD SWAP10 POP POP PUSH1 0x1 DUP2 ADD SWAP1 POP PUSH2 0xFBD JUMP JUMPDEST POP DUP3 SWAP8 POP DUP8 SWAP6 POP POP POP POP POP POP SWAP3 SWAP2 POP POP JUMP JUMPDEST PUSH1 0x0 PUSH1 0x20 DUP3 ADD SWAP1 POP DUP2 DUP2 SUB PUSH1 0x0 DUP4 ADD MSTORE PUSH2 0x1021 DUP2 DUP5 PUSH2 0xF92 JUMP JUMPDEST SWAP1 POP SWAP3 SWAP2 POP POP JUMP JUMPDEST PUSH1 0x0 PUSH32 0xFF00000000000000000000000000000000000000000000000000000000000000 DUP3 AND SWAP1 POP SWAP2 SWAP1 POP JUMP JUMPDEST PUSH2 0x105E DUP2 PUSH2 0x1029 JUMP JUMPDEST DUP2 EQ PUSH2 0x1069 JUMPI PUSH1 0x0 DUP1 REVERT JUMPDEST POP JUMP JUMPDEST PUSH1 0x0 DUP2 CALLDATALOAD SWAP1 POP PUSH2 0x107B DUP2 PUSH2 0x1055 JUMP JUMPDEST SWAP3 SWAP2 POP POP JUMP JUMPDEST PUSH1 0x0 PUSH1 0x20 DUP3 DUP5 SUB SLT ISZERO PUSH2 0x1097 JUMPI PUSH2 0x1096 PUSH2 0xD2D JUMP JUMPDEST JUMPDEST PUSH1 0x0 PUSH2 0x10A5 DUP5 DUP3 DUP6 ADD PUSH2 0x106C JUMP JUMPDEST SWAP2 POP POP SWAP3 SWAP2 POP POP JUMP JUMPDEST PUSH1 0x0 DUP2 SWAP1 POP SWAP2 SWAP1 POP JUMP JUMPDEST PUSH2 0x10C1 DUP2 PUSH2 0x10AE JUMP JUMPDEST DUP3 MSTORE POP POP JUMP JUMPDEST PUSH1 0x0 PUSH1 0x20 DUP3 ADD SWAP1 POP PUSH2 0x10DC PUSH1 0x0 DUP4 ADD DUP5 PUSH2 0x10B8 JUMP JUMPDEST SWAP3 SWAP2 POP POP JUMP JUMPDEST PUSH2 0x10EB DUP2 PUSH2 0x1029 JUMP JUMPDEST DUP3 MSTORE POP POP JUMP JUMPDEST PUSH1 0x0 PUSH1 0x20 DUP3 ADD SWAP1 POP PUSH2 0x1106 PUSH1 0x0 DUP4 ADD DUP5 PUSH2 0x10E2 JUMP JUMPDEST SWAP3 SWAP2 POP POP JUMP JUMPDEST PUSH1 0x0 PUSH1 0x40 DUP3 ADD SWAP1 POP PUSH2 0x1121 PUSH1 0x0 DUP4 ADD DUP6 PUSH2 0x10B8 JUMP JUMPDEST PUSH2 0x112E PUSH1 0x20 DUP4 ADD DUP5 PUSH2 0x10B8 JUMP JUMPDEST SWAP4 SWAP3 POP POP POP JUMP JUMPDEST PUSH1 0x0 DUP1 PUSH1 0x0 PUSH1 0x60 DUP5 DUP7 SUB SLT ISZERO PUSH2 0x114E JUMPI PUSH2 0x114D PUSH2 0xD2D JUMP JUMPDEST JUMPDEST PUSH1 0x0 DUP5 ADD CALLDATALOAD PUSH8 0xFFFFFFFFFFFFFFFF DUP2 GT ISZERO PUSH2 0x116C JUMPI PUSH2 0x116B PUSH2 0xD32 JUMP JUMPDEST JUMPDEST PUSH2 0x1178 DUP7 DUP3 DUP8 ADD PUSH2 0xE4F JUMP JUMPDEST SWAP4 POP POP PUSH1 0x20 DUP5 ADD CALLDATALOAD PUSH8 0xFFFFFFFFFFFFFFFF DUP2 GT ISZERO PUSH2 0x1199 JUMPI PUSH2 0x1198 PUSH2 0xD32 JUMP JUMPDEST JUMPDEST PUSH2 0x11A5 DUP7 DUP3 DUP8 ADD PUSH2 0xE4F JUMP JUMPDEST SWAP3 POP POP PUSH1 0x40 DUP5 ADD CALLDATALOAD PUSH8 0xFFFFFFFFFFFFFFFF DUP2 GT ISZERO PUSH2 0x11C6 JUMPI PUSH2 0x11C5 PUSH2 0xD32 JUMP JUMPDEST JUMPDEST PUSH2 0x11D2 DUP7 DUP3 DUP8 ADD PUSH2 0xE4F JUMP JUMPDEST SWAP2 POP POP SWAP3 POP SWAP3 POP SWAP3 JUMP JUMPDEST PUSH32 0x4E487B7100000000000000000000000000000000000000000000000000000000 PUSH1 0x0 MSTORE PUSH1 0x11 PUSH1 0x4 MSTORE PUSH1 0x24 PUSH1 0x0 REVERT JUMPDEST PUSH1 0x0 PUSH2 0x1216 DUP3 PUSH2 0x10AE JUMP JUMPDEST SWAP2 POP PUSH2 0x1221 DUP4 PUSH2 0x10AE JUMP JUMPDEST SWAP3 POP DUP3 DUP3 ADD SWAP1 POP DUP1 DUP3 GT ISZERO PUSH2 0x1239 JUMPI PUSH2 0x1238 PUSH2 0x11DC JUMP JUMPDEST JUMPDEST SWAP3 SWAP2 POP POP JUMP JUMPDEST PUSH32 0x4E487B7100000000000000000000000000000000000000000000000000000000 PUSH1 0x0 MSTORE PUSH1 0x32 PUSH1 0x4 MSTORE PUSH1 0x24 PUSH1 0x0 REVERT JUMPDEST PUSH1 0x0 PUSH2 0x1279 DUP3 PUSH2 0x10AE JUMP JUMPDEST SWAP2 POP PUSH32 0xFFFFFFFFFFFFFFFFFFFFFFFFFFFFFFFFFFFFFFFFFFFFFFFFFFFFFFFFFFFFFFFF DUP3 SUB PUSH2 0x12AB JUMPI PUSH2 0x12AA PUSH2 0x11DC JUMP JUMPDEST JUMPDEST PUSH1 0x1 DUP3 ADD SWAP1 POP SWAP2 SWAP1 POP JUMP JUMPDEST PUSH1 0x0 PUSH2 0x12C1 DUP3 PUSH2 0x10AE JUMP JUMPDEST SWAP2 POP PUSH2 0x12CC DUP4 PUSH2 0x10AE JUMP JUMPDEST SWAP3 POP DUP3 DUP3 SUB SWAP1 POP DUP2 DUP2 GT ISZERO PUSH2 0x12E4 JUMPI PUSH2 0x12E3 PUSH2 0x11DC JUMP JUMPDEST JUMPDEST SWAP3 SWAP2 POP POP JUMP JUMPDEST PUSH32 0x4E487B7100000000000000000000000000000000000000000000000000000000 PUSH1 0x0 MSTORE PUSH1 0x12 PUSH1 0x4 MSTORE PUSH1 0x24 PUSH1 0x0 REVERT JUMPDEST PUSH1 0x0 PUSH2 0x1324 DUP3 PUSH2 0x10AE JUMP JUMPDEST SWAP2 POP PUSH2 0x132F DUP4 PUSH2 0x10AE JUMP JUMPDEST SWAP3 POP DUP3 PUSH2 0x133F JUMPI PUSH2 0x133E PUSH2 0x12EA JUMP JUMPDEST JUMPDEST DUP3 DUP3 DIV SWAP1 POP SWAP3 SWAP2 POP POP JUMP JUMPDEST PUSH1 0x0 PUSH2 0x1355 DUP3 PUSH2 0x10AE JUMP JUMPDEST SWAP2 POP PUSH2 0x1360 DUP4 PUSH2 0x10AE JUMP JUMPDEST SWAP3 POP DUP3 DUP3 MUL PUSH2 0x136E DUP2 PUSH2 0x10AE JUMP JUMPDEST SWAP2 POP DUP3 DUP3 DIV DUP5 EQ DUP4 ISZERO OR PUSH2 0x1385 JUMPI PUSH2 0x1384 PUSH2 0x11DC JUMP JUMPDEST JUMPDEST POP SWAP3 SWAP2 POP POP JUMP JUMPDEST PUSH1 0x0 DUP2 PUSH1 0x1 SHR SWAP1 POP SWAP2 SWAP1 POP JUMP JUMPDEST PUSH1 0x0 DUP1 DUP3 SWAP2 POP DUP4 SWAP1 POP JUMPDEST PUSH1 0x1 DUP6 GT ISZERO PUSH2 0x13E3 JUMPI DUP1 DUP7 DIV DUP2 GT ISZERO PUSH2 0x13BF JUMPI PUSH2 0x13BE PUSH2 0x11DC JUMP JUMPDEST JUMPDEST PUSH1 0x1 DUP6 AND ISZERO PUSH2 0x13CE JUMPI DUP1 DUP3 MUL SWAP2 POP JUMPDEST DUP1 DUP2 MUL SWAP1 POP PUSH2 0x13DC DUP6 PUSH2 0x138C JUMP JUMPDEST SWAP5 POP PUSH2 0x13A3 JUMP JUMPDEST SWAP5 POP SWAP5 SWAP3 POP POP POP JUMP JUMPDEST PUSH1 0x0 DUP3 PUSH2 0x13FC JUMPI PUSH1 0x1 SWAP1 POP PUSH2 0x14B8 JUMP JUMPDEST DUP2 PUSH2 0x140A JUMPI PUSH1 0x0 SWAP1 POP PUSH2 0x14B8 JUMP JUMPDEST DUP2 PUSH1 0x1 DUP2 EQ PUSH2 0x1420 JUMPI PUSH1 0x2 DUP2 EQ PUSH2 0x142A JUMPI PUSH2 0x1459 JUMP JUMPDEST PUSH1 0x1 SWAP2 POP POP PUSH2 0x14B8 JUMP JUMPDEST PUSH1 0xFF DUP5 GT ISZERO PUSH2 0x143C JUMPI PUSH2 0x143B PUSH2 0x11DC JUMP JUMPDEST JUMPDEST DUP4 PUSH1 0x2 EXP SWAP2 POP DUP5 DUP3 GT ISZERO PUSH2 0x1453 JUMPI PUSH2 0x1452 PUSH2 0x11DC JUMP JUMPDEST JUMPDEST POP PUSH2 0x14B8 JUMP JUMPDEST POP PUSH1 0x20 DUP4 LT PUSH2 0x133 DUP4 LT AND PUSH1 0x4E DUP5 LT PUSH1 0xB DUP5 LT AND OR ISZERO PUSH2 0x148E JUMPI DUP3 DUP3 EXP SWAP1 POP DUP4 DUP2 GT ISZERO PUSH2 0x1489 JUMPI PUSH2 0x1488 PUSH2 0x11DC JUMP JUMPDEST JUMPDEST PUSH2 0x14B8 JUMP JUMPDEST PUSH2 0x149B DUP5 DUP5 DUP5 PUSH1 0x1 PUSH2 0x1399 JUMP JUMPDEST SWAP3 POP SWAP1 POP DUP2 DUP5 DIV DUP2 GT ISZERO PUSH2 0x14B2 JUMPI PUSH2 0x14B1 PUSH2 0x11DC JUMP JUMPDEST JUMPDEST DUP2 DUP2 MUL SWAP1 POP JUMPDEST SWAP4 SWAP3 POP POP POP JUMP JUMPDEST PUSH1 0x0 PUSH2 0x14CA DUP3 PUSH2 0x10AE JUMP JUMPDEST SWAP2 POP PUSH2 0x14D5 DUP4 PUSH2 0x10AE JUMP JUMPDEST SWAP3 POP PUSH2 0x1502 PUSH32 0xFFFFFFFFFFFFFFFFFFFFFFFFFFFFFFFFFFFFFFFFFFFFFFFFFFFFFFFFFFFFFFFF DUP5 DUP5 PUSH2 0x13EC JUMP JUMPDEST SWAP1 POP SWAP3 SWAP2 POP POP JUMP INVALID PUSH23 0x4A7277705774774A675772686373464D4D664646684670 EXP PUSH11 0x7148524E71526A717A6A47 DIFFICULTY 0x4C SELFBALANCE 0x4C PUSH19 0x73464D66465A53724C72465A73534C0A506D6D PUSH5 0x7A71507256 PUSH23 0x50777754574277670A774D71764C4D5A4868484D76774C BASEFEE PUSH11 0x6276636A6E6E53426E7654 MLOAD CHAINID PUSH15 0xA7474674A7452474A516374545A74 GAS SLOAD EXP NUMBER PUSH19 0x5A734A7350505A73477A7777734C774C6D7077 0x4D DIFFICULTY PUSH24 0xA26469706673582212202AE9F26C49AD9F675F73A51C9F90 CODECOPY DUP8 SIGNEXTEND 0xBB GT 0xBE 0xBB PUSH10 0xE129EA0345C2B0820474 PUSH5 0x736F6C6343 STOP ADDMOD GT STOP CALLER "
				},
				"gasEstimates": {
					"creation": {
						"codeDepositCost": "1117800",
						"executionCost": "1160",
						"totalCost": "1118960"
					},
					"external": {
						"calculate_priority(bytes1)": "infinite",
						"find_badge(string,string,string)": "infinite",
						"find_dup(string)": "infinite",
						"main(string)": "infinite",
						"p1(string)": "infinite",
						"p2(string)": "infinite",
						"split_lines(string)": "infinite"
					}
				},
				"methodIdentifiers": {
					"calculate_priority(bytes1)": "3edb318f",
					"find_badge(string,string,string)": "9f6064e2",
					"find_dup(string)": "519fd1bc",
					"main(string)": "769f204d",
					"p1(string)": "76b7e2c3",
					"p2(string)": "6a7534fc",
					"split_lines(string)": "11fcd048"
				}
			},
			"storageLayout": {
				"storage": [],
				"types": null
			},
			"userdoc": {
				"kind": "user",
				"methods": {},
				"version": 1
			}
		}
	}
}