{
  "_format": "hh-sol-artifact-1",
  "contractName": "Day1",
  "sourceName": "contracts/Day1.sol",
  "abi": [
    {
      "inputs": [
        {
          "internalType": "string",
          "name": "in_str",
          "type": "string"
        }
      ],
      "name": "first_split",
      "outputs": [
        {
          "internalType": "string[]",
          "name": "",
          "type": "string[]"
        }
      ],
      "stateMutability": "pure",
      "type": "function"
    },
    {
      "inputs": [
        {
          "internalType": "string",
          "name": "input",
          "type": "string"
        }
      ],
      "name": "main",
      "outputs": [
        {
          "internalType": "uint256",
          "name": "",
          "type": "uint256"
        },
        {
          "internalType": "uint256",
          "name": "",
          "type": "uint256"
        }
      ],
      "stateMutability": "pure",
      "type": "function"
    },
    {
      "inputs": [
        {
          "internalType": "string",
          "name": "in_str",
          "type": "string"
        }
      ],
      "name": "smt",
      "outputs": [
        {
          "internalType": "uint256[]",
          "name": "",
          "type": "uint256[]"
        }
      ],
      "stateMutability": "pure",
      "type": "function"
    },
    {
      "inputs": [
        {
          "internalType": "string",
          "name": "numString",
          "type": "string"
        }
      ],
      "name": "st2num",
      "outputs": [
        {
          "internalType": "uint256",
          "name": "",
          "type": "uint256"
        }
      ],
      "stateMutability": "pure",
      "type": "function"
    },
    {
      "inputs": [
        {
          "internalType": "uint256[]",
          "name": "num_group",
          "type": "uint256[]"
        }
      ],
      "name": "sum",
      "outputs": [
        {
          "internalType": "uint256",
          "name": "",
          "type": "uint256"
        }
      ],
      "stateMutability": "pure",
      "type": "function"
    }
  ],
  "bytecode": "0x608060405234801561001057600080fd5b5061134d806100206000396000f3fe608060405234801561001057600080fd5b50600436106100575760003560e01c80630194db8e1461005c578063769f204d1461008c57806379cd9055146100bd57806396caabb8146100ed578063a7c73fd81461011d575b600080fd5b61007660048036038101906100719190610c35565b61014d565b6040516100839190610c8d565b60405180910390f35b6100a660048036038101906100a19190610d5d565b6101a5565b6040516100b4929190610da6565b60405180910390f35b6100d760048036038101906100d29190610d5d565b6101c3565b6040516100e49190610c8d565b60405180910390f35b61010760048036038101906101029190610d5d565b61027d565b6040516101149190610e8d565b60405180910390f35b61013760048036038101906101329190610d5d565b6103a6565b6040516101449190610ff0565b60405180910390f35b6000806000905060005b835181101561019b5783818151811061017357610172611012565b5b6020026020010151826101869190611070565b91508080610193906110a4565b915050610157565b5080915050919050565b6000806101b1836104cb565b6101ba84610569565b91509150915091565b60008060009050600083905060005b81518110156102725760008183516101ea91906110ec565b9050600083838151811061020157610200611012565b5b602001015160f81c60f81b905060008160f81c9050600060308260ff1661022891906110ec565b905060018461023791906110ec565b600a6102439190611253565b8161024e919061129e565b876102599190611070565b965050505050808061026a906110a4565b9150506101d2565b508192505050919050565b6060600061028a8361064d565b905060006102cc6040518060400160405280600181526020017f0a0000000000000000000000000000000000000000000000000000000000000081525061064d565b9050600060016102e5838561067b90919063ffffffff16565b6102ef9190611070565b67ffffffffffffffff81111561030857610307610abc565b5b6040519080825280602002602001820160405280156103365781602001602082028036833780820191505090505b50905060005b815181101561039a5761036861036361035e858761072390919063ffffffff16565b61073d565b6101c3565b82828151811061037b5761037a611012565b5b6020026020010181815250508080610392906110a4565b91505061033c565b50809350505050919050565b606060006103b38361064d565b905060006103f56040518060400160405280600281526020017f0a0a00000000000000000000000000000000000000000000000000000000000081525061064d565b90506000600161040e838561067b90919063ffffffff16565b6104189190611070565b67ffffffffffffffff81111561043157610430610abc565b5b60405190808252806020026020018201604052801561046457816020015b606081526020019060019003908161044f5790505b50905060005b81518110156104bf5761048e610489848661072390919063ffffffff16565b61073d565b8282815181106104a1576104a0611012565b5b602002602001018190525080806104b7906110a4565b91505061046a565b50809350505050919050565b600080600090506000808451036104f8576040518060600160405280603781526020016112e16037913993505b6000610503856103a6565b905060005b815181101561055d5761053c61053783838151811061052a57610529611012565b5b602002602001015161027d565b61014d565b92508383111561054a578293505b8080610555906110a4565b915050610508565b50829350505050919050565b60008060009050600080600080865103610599576040518060600160405280603781526020016112e16037913995505b60006105a4876103a6565b905060005b8151811015610629576105dd6105d88383815181106105cb576105ca611012565b5b602002602001015161027d565b61014d565b9250858311156105f557849350859450829550610616565b8483111561060857849350829450610615565b83831115610614578293505b5b5b8080610621906110a4565b9150506105a9565b508284866106379190611070565b6106419190611070565b95505050505050919050565b610655610a78565b600060208301905060405180604001604052808451815260200182815250915050919050565b600080826000015161069f85600001518660200151866000015187602001516107b9565b6106a99190611070565b90505b836000015184602001516106c09190611070565b811161071c5781806106d1906110a4565b925050826000015161070b8560200151836106ec91906110ec565b86600001516106fb91906110ec565b83866000015187602001516107b9565b6107159190611070565b90506106ac565b5092915050565b61072b610a78565b610736838383610902565b5092915050565b60606000826000015167ffffffffffffffff81111561075f5761075e610abc565b5b6040519080825280601f01601f1916602001820160405280156107915781602001600182028036833780820191505090505b50905060006020820190506107af81856020015186600001516109cc565b8192505050919050565b60008084905060008685116108e9576020851161088c576000808611156108125760018660206107e991906110ec565b60086107f5919061129e565b60026108019190611253565b61080b91906110ec565b1960001b90505b60008186511690506000878a8a6108299190611070565b61083391906110ec565b905060008386511690505b82811461087e57818610610865578a8a6108589190611070565b96505050505050506108fa565b8580610870906110a4565b96505083865116905061083e565b8596505050505050506108fa565b60008585209050600091505b85886108a491906110ec565b82116108e757600086842090508082036108c457839450505050506108fa565b6001846108d19190611070565b93505081806108df906110a4565b925050610898565b505b86866108f59190611070565b925050505b949350505050565b61090a610a78565b600061092885600001518660200151866000015187602001516107b9565b9050846020015183602001818152505084602001518161094891906110ec565b836000018181525050846000015185602001516109659190611070565b810361097b5760008560000181815250506109c1565b8360000151836000015161098f9190611070565b856000018181516109a091906110ec565b915081815250508360000151816109b79190611070565b8560200181815250505b829150509392505050565b5b60208110610a0b57815183526020836109e69190611070565b92506020826109f59190611070565b9150602081610a0491906110ec565b90506109cd565b60007fffffffffffffffffffffffffffffffffffffffffffffffffffffffffffffffff90506000821115610a62576001826020610a4891906110ec565b610100610a559190611253565b610a5f91906110ec565b90505b8019835116818551168181178652505050505050565b604051806040016040528060008152602001600081525090565b6000604051905090565b600080fd5b600080fd5b600080fd5b6000601f19601f8301169050919050565b7f4e487b7100000000000000000000000000000000000000000000000000000000600052604160045260246000fd5b610af482610aab565b810181811067ffffffffffffffff82111715610b1357610b12610abc565b5b80604052505050565b6000610b26610a92565b9050610b328282610aeb565b919050565b600067ffffffffffffffff821115610b5257610b51610abc565b5b602082029050602081019050919050565b600080fd5b6000819050919050565b610b7b81610b68565b8114610b8657600080fd5b50565b600081359050610b9881610b72565b92915050565b6000610bb1610bac84610b37565b610b1c565b90508083825260208201905060208402830185811115610bd457610bd3610b63565b5b835b81811015610bfd5780610be98882610b89565b845260208401935050602081019050610bd6565b5050509392505050565b600082601f830112610c1c57610c1b610aa6565b5b8135610c2c848260208601610b9e565b91505092915050565b600060208284031215610c4b57610c4a610a9c565b5b600082013567ffffffffffffffff811115610c6957610c68610aa1565b5b610c7584828501610c07565b91505092915050565b610c8781610b68565b82525050565b6000602082019050610ca26000830184610c7e565b92915050565b600080fd5b600067ffffffffffffffff821115610cc857610cc7610abc565b5b610cd182610aab565b9050602081019050919050565b82818337600083830152505050565b6000610d00610cfb84610cad565b610b1c565b905082815260208101848484011115610d1c57610d1b610ca8565b5b610d27848285610cde565b509392505050565b600082601f830112610d4457610d43610aa6565b5b8135610d54848260208601610ced565b91505092915050565b600060208284031215610d7357610d72610a9c565b5b600082013567ffffffffffffffff811115610d9157610d90610aa1565b5b610d9d84828501610d2f565b91505092915050565b6000604082019050610dbb6000830185610c7e565b610dc86020830184610c7e565b9392505050565b600081519050919050565b600082825260208201905092915050565b6000819050602082019050919050565b610e0481610b68565b82525050565b6000610e168383610dfb565b60208301905092915050565b6000602082019050919050565b6000610e3a82610dcf565b610e448185610dda565b9350610e4f83610deb565b8060005b83811015610e80578151610e678882610e0a565b9750610e7283610e22565b925050600181019050610e53565b5085935050505092915050565b60006020820190508181036000830152610ea78184610e2f565b905092915050565b600081519050919050565b600082825260208201905092915050565b6000819050602082019050919050565b600081519050919050565b600082825260208201905092915050565b60005b83811015610f15578082015181840152602081019050610efa565b60008484015250505050565b6000610f2c82610edb565b610f368185610ee6565b9350610f46818560208601610ef7565b610f4f81610aab565b840191505092915050565b6000610f668383610f21565b905092915050565b6000602082019050919050565b6000610f8682610eaf565b610f908185610eba565b935083602082028501610fa285610ecb565b8060005b85811015610fde5784840389528151610fbf8582610f5a565b9450610fca83610f6e565b925060208a01995050600181019050610fa6565b50829750879550505050505092915050565b6000602082019050818103600083015261100a8184610f7b565b905092915050565b7f4e487b7100000000000000000000000000000000000000000000000000000000600052603260045260246000fd5b7f4e487b7100000000000000000000000000000000000000000000000000000000600052601160045260246000fd5b600061107b82610b68565b915061108683610b68565b925082820190508082111561109e5761109d611041565b5b92915050565b60006110af82610b68565b91507fffffffffffffffffffffffffffffffffffffffffffffffffffffffffffffffff82036110e1576110e0611041565b5b600182019050919050565b60006110f782610b68565b915061110283610b68565b925082820390508181111561111a57611119611041565b5b92915050565b60008160011c9050919050565b6000808291508390505b60018511156111775780860481111561115357611152611041565b5b60018516156111625780820291505b808102905061117085611120565b9450611137565b94509492505050565b600082611190576001905061124c565b8161119e576000905061124c565b81600181146111b457600281146111be576111ed565b600191505061124c565b60ff8411156111d0576111cf611041565b5b8360020a9150848211156111e7576111e6611041565b5b5061124c565b5060208310610133831016604e8410600b84101617156112225782820a90508381111561121d5761121c611041565b5b61124c565b61122f848484600161112d565b9250905081840481111561124657611245611041565b5b81810290505b9392505050565b600061125e82610b68565b915061126983610b68565b92506112967fffffffffffffffffffffffffffffffffffffffffffffffffffffffffffffffff8484611180565b905092915050565b60006112a982610b68565b91506112b483610b68565b92508282026112c281610b68565b915082820484148315176112d9576112d8611041565b5b509291505056fe313030300a323030300a333030300a0a343030300a0a353030300a363030300a0a373030300a383030300a393030300a0a31303030300aa2646970667358221220aad4478329db6838e7a1c1d09638e081f4f41d40ceded526e1e60e26eed5692564736f6c63430008110033",
  "linkReferences": {},
  "deployedLinkReferences": {}
}