{
	"data": {
		"bytecode": {
			"linkReferences": {},
			"object": "608060405234801561001057600080fd5b506115d5806100206000396000f3fe608060405234801561001057600080fd5b506004361061007d5760003560e01c80636a7534fc1161005b5780636a7534fc14610112578063769f204d1461014257806376b7e2c3146101735780639f6064e2146101a35761007d565b806311fcd048146100825780633edb318f146100b2578063519fd1bc146100e2575b600080fd5b61009c60048036038101906100979190610e7d565b6101d3565b6040516100a99190611007565b60405180910390f35b6100cc60048036038101906100c79190611081565b6102f8565b6040516100d991906110c7565b60405180910390f35b6100fc60048036038101906100f79190610e7d565b610392565b60405161010991906110f1565b60405180910390f35b61012c60048036038101906101279190610e7d565b61059b565b60405161013991906110c7565b60405180910390f35b61015c60048036038101906101579190610e7d565b610675565b60405161016a92919061110c565b60405180910390f35b61018d60048036038101906101889190610e7d565b6106b8565b60405161019a91906110c7565b60405180910390f35b6101bd60048036038101906101b89190611135565b610737565b6040516101ca91906110f1565b60405180910390f35b606060006101e0836108de565b905060006102226040518060400160405280600181526020017f0a000000000000000000000000000000000000000000000000000000000000008152506108de565b90506000600161023b838561090c90919063ffffffff16565b610245919061120b565b67ffffffffffffffff81111561025e5761025d610d52565b5b60405190808252806020026020018201604052801561029157816020015b606081526020019060019003908161027c5790505b50905060005b81518110156102ec576102bb6102b684866109b490919063ffffffff16565b6109ce565b8282815181106102ce576102cd61123f565b5b602002602001018190525080806102e49061126e565b915050610297565b50809350505050919050565b6000606160f81b827effffffffffffffffffffffffffffffffffffffffffffffffffffffffffffff1916106103415760608260f81c60ff1661033a91906112b6565b905061038d565b604160f81b827effffffffffffffffffffffffffffffffffffffffffffffffffffffffffffff1916106103885760268260f81c60ff1661038191906112b6565b905061038d565b600090505b919050565b600080600283516103a39190611319565b905060008167ffffffffffffffff8111156103c1576103c0610d52565b5b6040519080825280602002602001820160405280156103ef5781602001602082028036833780820191505090505b50905060005b600285516104039190611319565b8110156104a05784818151811061041d5761041c61123f565b5b602001015160f81c60f81b82828151811061043b5761043a61123f565b5b60200260200101907effffffffffffffffffffffffffffffffffffffffffffffffffffffffffffff191690817effffffffffffffffffffffffffffffffffffffffffffffffffffffffffffff19168152505080806104989061126e565b9150506103f5565b5060008290505b845181101561058b5760005b8251811015610577578582815181106104cf576104ce61123f565b5b602001015160f81c60f81b7effffffffffffffffffffffffffffffffffffffffffffffffffffffffffffff191683828151811061050f5761050e61123f565b5b60200260200101517effffffffffffffffffffffffffffffffffffffffffffffffffffffffffffff191603610564578281815181106105515761055061123f565b5b6020026020010151945050505050610596565b808061056f9061126e565b9150506104b3565b5080806105839061126e565b9150506104a7565b50600060f81b925050505b919050565b6000806000905060006105ad846101d3565b9050600080600090505b600283516105c591906112b6565b8110156106695761063d8382815181106105e2576105e161123f565b5b6020026020010151846001846105f8919061120b565b815181106106095761060861123f565b5b60200260200101518560028561061f919061120b565b815181106106305761062f61123f565b5b6020026020010151610737565b9150610648826102f8565b84610653919061120b565b9350600381610662919061120b565b90506105b7565b50829350505050919050565b600080600083510361069d576040518060c001604052806095815260200161150b6095913992505b6106a6836106b8565b6106af8461059b565b91509150915091565b6000806000905060006106ca846101d3565b9050600080600090505b825181101561072b576107008382815181106106f3576106f261123f565b5b6020026020010151610392565b915061070b826102f8565b84610716919061120b565b935080806107239061126e565b9150506106d4565b50829350505050919050565b600080600090505b84518110156108ce5760005b84518110156108ba578481815181106107675761076661123f565b5b602001015160f81c60f81b7effffffffffffffffffffffffffffffffffffffffffffffffffffffffffffff19168683815181106107a7576107a661123f565b5b602001015160f81c60f81b7effffffffffffffffffffffffffffffffffffffffffffffffffffffffffffff1916036108a75760005b84518110156108a5578481815181106107f8576107f761123f565b5b602001015160f81c60f81b7effffffffffffffffffffffffffffffffffffffffffffffffffffffffffffff19168784815181106108385761083761123f565b5b602001015160f81c60f81b7effffffffffffffffffffffffffffffffffffffffffffffffffffffffffffff1916036108925786838151811061087d5761087c61123f565b5b602001015160f81c60f81b93505050506108d7565b808061089d9061126e565b9150506107dc565b505b80806108b29061126e565b91505061074b565b5080806108c69061126e565b91505061073f565b50600060f81b90505b9392505050565b6108e6610d09565b600060208301905060405180604001604052808451815260200182815250915050919050565b60008082600001516109308560000151866020015186600001518760200151610a4a565b61093a919061120b565b90505b83600001518460200151610951919061120b565b81116109ad5781806109629061126e565b925050826000015161099c85602001518361097d91906112b6565b866000015161098c91906112b6565b8386600001518760200151610a4a565b6109a6919061120b565b905061093d565b5092915050565b6109bc610d09565b6109c7838383610b93565b5092915050565b60606000826000015167ffffffffffffffff8111156109f0576109ef610d52565b5b6040519080825280601f01601f191660200182016040528015610a225781602001600182028036833780820191505090505b5090506000602082019050610a408185602001518660000151610c5d565b8192505050919050565b6000808490506000868511610b7a5760208511610b1d57600080861115610aa3576001866020610a7a91906112b6565b6008610a86919061134a565b6002610a9291906114bf565b610a9c91906112b6565b1960001b90505b60008186511690506000878a8a610aba919061120b565b610ac491906112b6565b905060008386511690505b828114610b0f57818610610af6578a8a610ae9919061120b565b9650505050505050610b8b565b8580610b019061126e565b965050838651169050610acf565b859650505050505050610b8b565b60008585209050600091505b8588610b3591906112b6565b8211610b785760008684209050808203610b555783945050505050610b8b565b600184610b62919061120b565b9350508180610b709061126e565b925050610b29565b505b8686610b86919061120b565b925050505b949350505050565b610b9b610d09565b6000610bb98560000151866020015186600001518760200151610a4a565b90508460200151836020018181525050846020015181610bd991906112b6565b83600001818152505084600001518560200151610bf6919061120b565b8103610c0c576000856000018181525050610c52565b83600001518360000151610c20919061120b565b85600001818151610c3191906112b6565b91508181525050836000015181610c48919061120b565b8560200181815250505b829150509392505050565b5b60208110610c9c5781518352602083610c77919061120b565b9250602082610c86919061120b565b9150602081610c9591906112b6565b9050610c5e565b60007fffffffffffffffffffffffffffffffffffffffffffffffffffffffffffffffff90506000821115610cf3576001826020610cd991906112b6565b610100610ce691906114bf565b610cf091906112b6565b90505b8019835116818551168181178652505050505050565b604051806040016040528060008152602001600081525090565b6000604051905090565b600080fd5b600080fd5b600080fd5b600080fd5b6000601f19601f8301169050919050565b7f4e487b7100000000000000000000000000000000000000000000000000000000600052604160045260246000fd5b610d8a82610d41565b810181811067ffffffffffffffff82111715610da957610da8610d52565b5b80604052505050565b6000610dbc610d23565b9050610dc88282610d81565b919050565b600067ffffffffffffffff821115610de857610de7610d52565b5b610df182610d41565b9050602081019050919050565b82818337600083830152505050565b6000610e20610e1b84610dcd565b610db2565b905082815260208101848484011115610e3c57610e3b610d3c565b5b610e47848285610dfe565b509392505050565b600082601f830112610e6457610e63610d37565b5b8135610e74848260208601610e0d565b91505092915050565b600060208284031215610e9357610e92610d2d565b5b600082013567ffffffffffffffff811115610eb157610eb0610d32565b5b610ebd84828501610e4f565b91505092915050565b600081519050919050565b600082825260208201905092915050565b6000819050602082019050919050565b600081519050919050565b600082825260208201905092915050565b60005b83811015610f2c578082015181840152602081019050610f11565b60008484015250505050565b6000610f4382610ef2565b610f4d8185610efd565b9350610f5d818560208601610f0e565b610f6681610d41565b840191505092915050565b6000610f7d8383610f38565b905092915050565b6000602082019050919050565b6000610f9d82610ec6565b610fa78185610ed1565b935083602082028501610fb985610ee2565b8060005b85811015610ff55784840389528151610fd68582610f71565b9450610fe183610f85565b925060208a01995050600181019050610fbd565b50829750879550505050505092915050565b600060208201905081810360008301526110218184610f92565b905092915050565b60007fff0000000000000000000000000000000000000000000000000000000000000082169050919050565b61105e81611029565b811461106957600080fd5b50565b60008135905061107b81611055565b92915050565b60006020828403121561109757611096610d2d565b5b60006110a58482850161106c565b91505092915050565b6000819050919050565b6110c1816110ae565b82525050565b60006020820190506110dc60008301846110b8565b92915050565b6110eb81611029565b82525050565b600060208201905061110660008301846110e2565b92915050565b600060408201905061112160008301856110b8565b61112e60208301846110b8565b9392505050565b60008060006060848603121561114e5761114d610d2d565b5b600084013567ffffffffffffffff81111561116c5761116b610d32565b5b61117886828701610e4f565b935050602084013567ffffffffffffffff81111561119957611198610d32565b5b6111a586828701610e4f565b925050604084013567ffffffffffffffff8111156111c6576111c5610d32565b5b6111d286828701610e4f565b9150509250925092565b7f4e487b7100000000000000000000000000000000000000000000000000000000600052601160045260246000fd5b6000611216826110ae565b9150611221836110ae565b9250828201905080821115611239576112386111dc565b5b92915050565b7f4e487b7100000000000000000000000000000000000000000000000000000000600052603260045260246000fd5b6000611279826110ae565b91507fffffffffffffffffffffffffffffffffffffffffffffffffffffffffffffffff82036112ab576112aa6111dc565b5b600182019050919050565b60006112c1826110ae565b91506112cc836110ae565b92508282039050818111156112e4576112e36111dc565b5b92915050565b7f4e487b7100000000000000000000000000000000000000000000000000000000600052601260045260246000fd5b6000611324826110ae565b915061132f836110ae565b92508261133f5761133e6112ea565b5b828204905092915050565b6000611355826110ae565b9150611360836110ae565b925082820261136e816110ae565b91508282048414831517611385576113846111dc565b5b5092915050565b60008160011c9050919050565b6000808291508390505b60018511156113e3578086048111156113bf576113be6111dc565b5b60018516156113ce5780820291505b80810290506113dc8561138c565b94506113a3565b94509492505050565b6000826113fc57600190506114b8565b8161140a57600090506114b8565b8160018114611420576002811461142a57611459565b60019150506114b8565b60ff84111561143c5761143b6111dc565b5b8360020a915084821115611453576114526111dc565b5b506114b8565b5060208310610133831016604e8410600b841016171561148e5782820a905083811115611489576114886111dc565b5b6114b8565b61149b8484846001611399565b925090508184048111156114b2576114b16111dc565b5b81810290505b9392505050565b60006114ca826110ae565b91506114d5836110ae565b92506115027fffffffffffffffffffffffffffffffffffffffffffffffffffffffffffffffff84846113ec565b90509291505056fe764a7277705774774a675772686373464d4d6646466846700a6a7148524e71526a717a6a47444c474c7273464d66465a53724c72465a73534c0a506d6d647a715072567650777754574277670a774d71764c4d5a4868484d76774c486a6276636a6e6e53426e765451466e0a7474674a7452474a516374545a745a540a43725a734a7350505a73477a7777734c774c6d70774d4477a26469706673582212202ae9f26c49ad9f675f73a51c9f9039870bbb11bebb69e129ea0345c2b082047464736f6c63430008110033",
			"opcodes": "PUSH1 0x80 PUSH1 0x40 MSTORE CALLVALUE DUP1 ISZERO PUSH2 0x10 JUMPI PUSH1 0x0 DUP1 REVERT JUMPDEST POP PUSH2 0x15D5 DUP1 PUSH2 0x20 PUSH1 0x0 CODECOPY PUSH1 0x0 RETURN INVALID PUSH1 0x80 PUSH1 0x40 MSTORE CALLVALUE DUP1 ISZERO PUSH2 0x10 JUMPI PUSH1 0x0 DUP1 REVERT JUMPDEST POP PUSH1 0x4 CALLDATASIZE LT PUSH2 0x7D JUMPI PUSH1 0x0 CALLDATALOAD PUSH1 0xE0 SHR DUP1 PUSH4 0x6A7534FC GT PUSH2 0x5B JUMPI DUP1 PUSH4 0x6A7534FC EQ PUSH2 0x112 JUMPI DUP1 PUSH4 0x769F204D EQ PUSH2 0x142 JUMPI DUP1 PUSH4 0x76B7E2C3 EQ PUSH2 0x173 JUMPI DUP1 PUSH4 0x9F6064E2 EQ PUSH2 0x1A3 JUMPI PUSH2 0x7D JUMP JUMPDEST DUP1 PUSH4 0x11FCD048 EQ PUSH2 0x82 JUMPI DUP1 PUSH4 0x3EDB318F EQ PUSH2 0xB2 JUMPI DUP1 PUSH4 0x519FD1BC EQ PUSH2 0xE2 JUMPI JUMPDEST PUSH1 0x0 DUP1 REVERT JUMPDEST PUSH2 0x9C PUSH1 0x4 DUP1 CALLDATASIZE SUB DUP2 ADD SWAP1 PUSH2 0x97 SWAP2 SWAP1 PUSH2 0xE7D JUMP JUMPDEST PUSH2 0x1D3 JUMP JUMPDEST PUSH1 0x40 MLOAD PUSH2 0xA9 SWAP2 SWAP1 PUSH2 0x1007 JUMP JUMPDEST PUSH1 0x40 MLOAD DUP1 SWAP2 SUB SWAP1 RETURN JUMPDEST PUSH2 0xCC PUSH1 0x4 DUP1 CALLDATASIZE SUB DUP2 ADD SWAP1 PUSH2 0xC7 SWAP2 SWAP1 PUSH2 0x1081 JUMP JUMPDEST PUSH2 0x2F8 JUMP JUMPDEST PUSH1 0x40 MLOAD PUSH2 0xD9 SWAP2 SWAP1 PUSH2 0x10C7 JUMP JUMPDEST PUSH1 0x40 MLOAD DUP1 SWAP2 SUB SWAP1 RETURN JUMPDEST PUSH2 0xFC PUSH1 0x4 DUP1 CALLDATASIZE SUB DUP2 ADD SWAP1 PUSH2 0xF7 SWAP2 SWAP1 PUSH2 0xE7D JUMP JUMPDEST PUSH2 0x392 JUMP JUMPDEST PUSH1 0x40 MLOAD PUSH2 0x109 SWAP2 SWAP1 PUSH2 0x10F1 JUMP JUMPDEST PUSH1 0x40 MLOAD DUP1 SWAP2 SUB SWAP1 RETURN JUMPDEST PUSH2 0x12C PUSH1 0x4 DUP1 CALLDATASIZE SUB DUP2 ADD SWAP1 PUSH2 0x127 SWAP2 SWAP1 PUSH2 0xE7D JUMP JUMPDEST PUSH2 0x59B JUMP JUMPDEST PUSH1 0x40 MLOAD PUSH2 0x139 SWAP2 SWAP1 PUSH2 0x10C7 JUMP JUMPDEST PUSH1 0x40 MLOAD DUP1 SWAP2 SUB SWAP1 RETURN JUMPDEST PUSH2 0x15C PUSH1 0x4 DUP1 CALLDATASIZE SUB DUP2 ADD SWAP1 PUSH2 0x157 SWAP2 SWAP1 PUSH2 0xE7D JUMP JUMPDEST PUSH2 0x675 JUMP JUMPDEST PUSH1 0x40 MLOAD PUSH2 0x16A SWAP3 SWAP2 SWAP1 PUSH2 0x110C JUMP JUMPDEST PUSH1 0x40 MLOAD DUP1 SWAP2 SUB SWAP1 RETURN JUMPDEST PUSH2 0x18D PUSH1 0x4 DUP1 CALLDATASIZE SUB DUP2 ADD SWAP1 PUSH2 0x188 SWAP2 SWAP1 PUSH2 0xE7D JUMP JUMPDEST PUSH2 0x6B8 JUMP JUMPDEST PUSH1 0x40 MLOAD PUSH2 0x19A SWAP2 SWAP1 PUSH2 0x10C7 JUMP JUMPDEST PUSH1 0x40 MLOAD DUP1 SWAP2 SUB SWAP1 RETURN JUMPDEST PUSH2 0x1BD PUSH1 0x4 DUP1 CALLDATASIZE SUB DUP2 ADD SWAP1 PUSH2 0x1B8 SWAP2 SWAP1 PUSH2 0x1135 JUMP JUMPDEST PUSH2 0x737 JUMP JUMPDEST PUSH1 0x40 MLOAD PUSH2 0x1CA SWAP2 SWAP1 PUSH2 0x10F1 JUMP JUMPDEST PUSH1 0x40 MLOAD DUP1 SWAP2 SUB SWAP1 RETURN JUMPDEST PUSH1 0x60 PUSH1 0x0 PUSH2 0x1E0 DUP4 PUSH2 0x8DE JUMP JUMPDEST SWAP1 POP PUSH1 0x0 PUSH2 0x222 PUSH1 0x40 MLOAD DUP1 PUSH1 0x40 ADD PUSH1 0x40 MSTORE DUP1 PUSH1 0x1 DUP2 MSTORE PUSH1 0x20 ADD PUSH32 0xA00000000000000000000000000000000000000000000000000000000000000 DUP2 MSTORE POP PUSH2 0x8DE JUMP JUMPDEST SWAP1 POP PUSH1 0x0 PUSH1 0x1 PUSH2 0x23B DUP4 DUP6 PUSH2 0x90C SWAP1 SWAP2 SWAP1 PUSH4 0xFFFFFFFF AND JUMP JUMPDEST PUSH2 0x245 SWAP2 SWAP1 PUSH2 0x120B JUMP JUMPDEST PUSH8 0xFFFFFFFFFFFFFFFF DUP2 GT ISZERO PUSH2 0x25E JUMPI PUSH2 0x25D PUSH2 0xD52 JUMP JUMPDEST JUMPDEST PUSH1 0x40 MLOAD SWAP1 DUP1 DUP3 MSTORE DUP1 PUSH1 0x20 MUL PUSH1 0x20 ADD DUP3 ADD PUSH1 0x40 MSTORE DUP1 ISZERO PUSH2 0x291 JUMPI DUP2 PUSH1 0x20 ADD JUMPDEST PUSH1 0x60 DUP2 MSTORE PUSH1 0x20 ADD SWAP1 PUSH1 0x1 SWAP1 SUB SWAP1 DUP2 PUSH2 0x27C JUMPI SWAP1 POP JUMPDEST POP SWAP1 POP PUSH1 0x0 JUMPDEST DUP2 MLOAD DUP2 LT ISZERO PUSH2 0x2EC JUMPI PUSH2 0x2BB PUSH2 0x2B6 DUP5 DUP7 PUSH2 0x9B4 SWAP1 SWAP2 SWAP1 PUSH4 0xFFFFFFFF AND JUMP JUMPDEST PUSH2 0x9CE JUMP JUMPDEST DUP3 DUP3 DUP2 MLOAD DUP2 LT PUSH2 0x2CE JUMPI PUSH2 0x2CD PUSH2 0x123F JUMP JUMPDEST JUMPDEST PUSH1 0x20 MUL PUSH1 0x20 ADD ADD DUP2 SWAP1 MSTORE POP DUP1 DUP1 PUSH2 0x2E4 SWAP1 PUSH2 0x126E JUMP JUMPDEST SWAP2 POP POP PUSH2 0x297 JUMP JUMPDEST POP DUP1 SWAP4 POP POP POP POP SWAP2 SWAP1 POP JUMP JUMPDEST PUSH1 0x0 PUSH1 0x61 PUSH1 0xF8 SHL DUP3 PUSH31 0xFFFFFFFFFFFFFFFFFFFFFFFFFFFFFFFFFFFFFFFFFFFFFFFFFFFFFFFFFFFFFF NOT AND LT PUSH2 0x341 JUMPI PUSH1 0x60 DUP3 PUSH1 0xF8 SHR PUSH1 0xFF AND PUSH2 0x33A SWAP2 SWAP1 PUSH2 0x12B6 JUMP JUMPDEST SWAP1 POP PUSH2 0x38D JUMP JUMPDEST PUSH1 0x41 PUSH1 0xF8 SHL DUP3 PUSH31 0xFFFFFFFFFFFFFFFFFFFFFFFFFFFFFFFFFFFFFFFFFFFFFFFFFFFFFFFFFFFFFF NOT AND LT PUSH2 0x388 JUMPI PUSH1 0x26 DUP3 PUSH1 0xF8 SHR PUSH1 0xFF AND PUSH2 0x381 SWAP2 SWAP1 PUSH2 0x12B6 JUMP JUMPDEST SWAP1 POP PUSH2 0x38D JUMP JUMPDEST PUSH1 0x0 SWAP1 POP JUMPDEST SWAP2 SWAP1 POP JUMP JUMPDEST PUSH1 0x0 DUP1 PUSH1 0x2 DUP4 MLOAD PUSH2 0x3A3 SWAP2 SWAP1 PUSH2 0x1319 JUMP JUMPDEST SWAP1 POP PUSH1 0x0 DUP2 PUSH8 0xFFFFFFFFFFFFFFFF DUP2 GT ISZERO PUSH2 0x3C1 JUMPI PUSH2 0x3C0 PUSH2 0xD52 JUMP JUMPDEST JUMPDEST PUSH1 0x40 MLOAD SWAP1 DUP1 DUP3 MSTORE DUP1 PUSH1 0x20 MUL PUSH1 0x20 ADD DUP3 ADD PUSH1 0x40 MSTORE DUP1 ISZERO PUSH2 0x3EF JUMPI DUP2 PUSH1 0x20 ADD PUSH1 0x20 DUP3 MUL DUP1 CALLDATASIZE DUP4 CALLDATACOPY DUP1 DUP3 ADD SWAP2 POP POP SWAP1 POP JUMPDEST POP SWAP1 POP PUSH1 0x0 JUMPDEST PUSH1 0x2 DUP6 MLOAD PUSH2 0x403 SWAP2 SWAP1 PUSH2 0x1319 JUMP JUMPDEST DUP2 LT ISZERO PUSH2 0x4A0 JUMPI DUP5 DUP2 DUP2 MLOAD DUP2 LT PUSH2 0x41D JUMPI PUSH2 0x41C PUSH2 0x123F JUMP JUMPDEST JUMPDEST PUSH1 0x20 ADD ADD MLOAD PUSH1 0xF8 SHR PUSH1 0xF8 SHL DUP3 DUP3 DUP2 MLOAD DUP2 LT PUSH2 0x43B JUMPI PUSH2 0x43A PUSH2 0x123F JUMP JUMPDEST JUMPDEST PUSH1 0x20 MUL PUSH1 0x20 ADD ADD SWAP1 PUSH31 0xFFFFFFFFFFFFFFFFFFFFFFFFFFFFFFFFFFFFFFFFFFFFFFFFFFFFFFFFFFFFFF NOT AND SWAP1 DUP2 PUSH31 0xFFFFFFFFFFFFFFFFFFFFFFFFFFFFFFFFFFFFFFFFFFFFFFFFFFFFFFFFFFFFFF NOT AND DUP2 MSTORE POP POP DUP1 DUP1 PUSH2 0x498 SWAP1 PUSH2 0x126E JUMP JUMPDEST SWAP2 POP POP PUSH2 0x3F5 JUMP JUMPDEST POP PUSH1 0x0 DUP3 SWAP1 POP JUMPDEST DUP5 MLOAD DUP2 LT ISZERO PUSH2 0x58B JUMPI PUSH1 0x0 JUMPDEST DUP3 MLOAD DUP2 LT ISZERO PUSH2 0x577 JUMPI DUP6 DUP3 DUP2 MLOAD DUP2 LT PUSH2 0x4CF JUMPI PUSH2 0x4CE PUSH2 0x123F JUMP JUMPDEST JUMPDEST PUSH1 0x20 ADD ADD MLOAD PUSH1 0xF8 SHR PUSH1 0xF8 SHL PUSH31 0xFFFFFFFFFFFFFFFFFFFFFFFFFFFFFFFFFFFFFFFFFFFFFFFFFFFFFFFFFFFFFF NOT AND DUP4 DUP3 DUP2 MLOAD DUP2 LT PUSH2 0x50F JUMPI PUSH2 0x50E PUSH2 0x123F JUMP JUMPDEST JUMPDEST PUSH1 0x20 MUL PUSH1 0x20 ADD ADD MLOAD PUSH31 0xFFFFFFFFFFFFFFFFFFFFFFFFFFFFFFFFFFFFFFFFFFFFFFFFFFFFFFFFFFFFFF NOT AND SUB PUSH2 0x564 JUMPI DUP3 DUP2 DUP2 MLOAD DUP2 LT PUSH2 0x551 JUMPI PUSH2 0x550 PUSH2 0x123F JUMP JUMPDEST JUMPDEST PUSH1 0x20 MUL PUSH1 0x20 ADD ADD MLOAD SWAP5 POP POP POP POP POP PUSH2 0x596 JUMP JUMPDEST DUP1 DUP1 PUSH2 0x56F SWAP1 PUSH2 0x126E JUMP JUMPDEST SWAP2 POP POP PUSH2 0x4B3 JUMP JUMPDEST POP DUP1 DUP1 PUSH2 0x583 SWAP1 PUSH2 0x126E JUMP JUMPDEST SWAP2 POP POP PUSH2 0x4A7 JUMP JUMPDEST POP PUSH1 0x0 PUSH1 0xF8 SHL SWAP3 POP POP POP JUMPDEST SWAP2 SWAP1 POP JUMP JUMPDEST PUSH1 0x0 DUP1 PUSH1 0x0 SWAP1 POP PUSH1 0x0 PUSH2 0x5AD DUP5 PUSH2 0x1D3 JUMP JUMPDEST SWAP1 POP PUSH1 0x0 DUP1 PUSH1 0x0 SWAP1 POP JUMPDEST PUSH1 0x2 DUP4 MLOAD PUSH2 0x5C5 SWAP2 SWAP1 PUSH2 0x12B6 JUMP JUMPDEST DUP2 LT ISZERO PUSH2 0x669 JUMPI PUSH2 0x63D DUP4 DUP3 DUP2 MLOAD DUP2 LT PUSH2 0x5E2 JUMPI PUSH2 0x5E1 PUSH2 0x123F JUMP JUMPDEST JUMPDEST PUSH1 0x20 MUL PUSH1 0x20 ADD ADD MLOAD DUP5 PUSH1 0x1 DUP5 PUSH2 0x5F8 SWAP2 SWAP1 PUSH2 0x120B JUMP JUMPDEST DUP2 MLOAD DUP2 LT PUSH2 0x609 JUMPI PUSH2 0x608 PUSH2 0x123F JUMP JUMPDEST JUMPDEST PUSH1 0x20 MUL PUSH1 0x20 ADD ADD MLOAD DUP6 PUSH1 0x2 DUP6 PUSH2 0x61F SWAP2 SWAP1 PUSH2 0x120B JUMP JUMPDEST DUP2 MLOAD DUP2 LT PUSH2 0x630 JUMPI PUSH2 0x62F PUSH2 0x123F JUMP JUMPDEST JUMPDEST PUSH1 0x20 MUL PUSH1 0x20 ADD ADD MLOAD PUSH2 0x737 JUMP JUMPDEST SWAP2 POP PUSH2 0x648 DUP3 PUSH2 0x2F8 JUMP JUMPDEST DUP5 PUSH2 0x653 SWAP2 SWAP1 PUSH2 0x120B JUMP JUMPDEST SWAP4 POP PUSH1 0x3 DUP2 PUSH2 0x662 SWAP2 SWAP1 PUSH2 0x120B JUMP JUMPDEST SWAP1 POP PUSH2 0x5B7 JUMP JUMPDEST POP DUP3 SWAP4 POP POP POP POP SWAP2 SWAP1 POP JUMP JUMPDEST PUSH1 0x0 DUP1 PUSH1 0x0 DUP4 MLOAD SUB PUSH2 0x69D JUMPI PUSH1 0x40 MLOAD DUP1 PUSH1 0xC0 ADD PUSH1 0x40 MSTORE DUP1 PUSH1 0x95 DUP2 MSTORE PUSH1 0x20 ADD PUSH2 0x150B PUSH1 0x95 SWAP2 CODECOPY SWAP3 POP JUMPDEST PUSH2 0x6A6 DUP4 PUSH2 0x6B8 JUMP JUMPDEST PUSH2 0x6AF DUP5 PUSH2 0x59B JUMP JUMPDEST SWAP2 POP SWAP2 POP SWAP2 POP SWAP2 JUMP JUMPDEST PUSH1 0x0 DUP1 PUSH1 0x0 SWAP1 POP PUSH1 0x0 PUSH2 0x6CA DUP5 PUSH2 0x1D3 JUMP JUMPDEST SWAP1 POP PUSH1 0x0 DUP1 PUSH1 0x0 SWAP1 POP JUMPDEST DUP3 MLOAD DUP2 LT ISZERO PUSH2 0x72B JUMPI PUSH2 0x700 DUP4 DUP3 DUP2 MLOAD DUP2 LT PUSH2 0x6F3 JUMPI PUSH2 0x6F2 PUSH2 0x123F JUMP JUMPDEST JUMPDEST PUSH1 0x20 MUL PUSH1 0x20 ADD ADD MLOAD PUSH2 0x392 JUMP JUMPDEST SWAP2 POP PUSH2 0x70B DUP3 PUSH2 0x2F8 JUMP JUMPDEST DUP5 PUSH2 0x716 SWAP2 SWAP1 PUSH2 0x120B JUMP JUMPDEST SWAP4 POP DUP1 DUP1 PUSH2 0x723 SWAP1 PUSH2 0x126E JUMP JUMPDEST SWAP2 POP POP PUSH2 0x6D4 JUMP JUMPDEST POP DUP3 SWAP4 POP POP POP POP SWAP2 SWAP1 POP JUMP JUMPDEST PUSH1 0x0 DUP1 PUSH1 0x0 SWAP1 POP JUMPDEST DUP5 MLOAD DUP2 LT ISZERO PUSH2 0x8CE JUMPI PUSH1 0x0 JUMPDEST DUP5 MLOAD DUP2 LT ISZERO PUSH2 0x8BA JUMPI DUP5 DUP2 DUP2 MLOAD DUP2 LT PUSH2 0x767 JUMPI PUSH2 0x766 PUSH2 0x123F JUMP JUMPDEST JUMPDEST PUSH1 0x20 ADD ADD MLOAD PUSH1 0xF8 SHR PUSH1 0xF8 SHL PUSH31 0xFFFFFFFFFFFFFFFFFFFFFFFFFFFFFFFFFFFFFFFFFFFFFFFFFFFFFFFFFFFFFF NOT AND DUP7 DUP4 DUP2 MLOAD DUP2 LT PUSH2 0x7A7 JUMPI PUSH2 0x7A6 PUSH2 0x123F JUMP JUMPDEST JUMPDEST PUSH1 0x20 ADD ADD MLOAD PUSH1 0xF8 SHR PUSH1 0xF8 SHL PUSH31 0xFFFFFFFFFFFFFFFFFFFFFFFFFFFFFFFFFFFFFFFFFFFFFFFFFFFFFFFFFFFFFF NOT AND SUB PUSH2 0x8A7 JUMPI PUSH1 0x0 JUMPDEST DUP5 MLOAD DUP2 LT ISZERO PUSH2 0x8A5 JUMPI DUP5 DUP2 DUP2 MLOAD DUP2 LT PUSH2 0x7F8 JUMPI PUSH2 0x7F7 PUSH2 0x123F JUMP JUMPDEST JUMPDEST PUSH1 0x20 ADD ADD MLOAD PUSH1 0xF8 SHR PUSH1 0xF8 SHL PUSH31 0xFFFFFFFFFFFFFFFFFFFFFFFFFFFFFFFFFFFFFFFFFFFFFFFFFFFFFFFFFFFFFF NOT AND DUP8 DUP5 DUP2 MLOAD DUP2 LT PUSH2 0x838 JUMPI PUSH2 0x837 PUSH2 0x123F JUMP JUMPDEST JUMPDEST PUSH1 0x20 ADD ADD MLOAD PUSH1 0xF8 SHR PUSH1 0xF8 SHL PUSH31 0xFFFFFFFFFFFFFFFFFFFFFFFFFFFFFFFFFFFFFFFFFFFFFFFFFFFFFFFFFFFFFF NOT AND SUB PUSH2 0x892 JUMPI DUP7 DUP4 DUP2 MLOAD DUP2 LT PUSH2 0x87D JUMPI PUSH2 0x87C PUSH2 0x123F JUMP JUMPDEST JUMPDEST PUSH1 0x20 ADD ADD MLOAD PUSH1 0xF8 SHR PUSH1 0xF8 SHL SWAP4 POP POP POP POP PUSH2 0x8D7 JUMP JUMPDEST DUP1 DUP1 PUSH2 0x89D SWAP1 PUSH2 0x126E JUMP JUMPDEST SWAP2 POP POP PUSH2 0x7DC JUMP JUMPDEST POP JUMPDEST DUP1 DUP1 PUSH2 0x8B2 SWAP1 PUSH2 0x126E JUMP JUMPDEST SWAP2 POP POP PUSH2 0x74B JUMP JUMPDEST POP DUP1 DUP1 PUSH2 0x8C6 SWAP1 PUSH2 0x126E JUMP JUMPDEST SWAP2 POP POP PUSH2 0x73F JUMP JUMPDEST POP PUSH1 0x0 PUSH1 0xF8 SHL SWAP1 POP JUMPDEST SWAP4 SWAP3 POP POP POP JUMP JUMPDEST PUSH2 0x8E6 PUSH2 0xD09 JUMP JUMPDEST PUSH1 0x0 PUSH1 0x20 DUP4 ADD SWAP1 POP PUSH1 0x40 MLOAD DUP1 PUSH1 0x40 ADD PUSH1 0x40 MSTORE DUP1 DUP5 MLOAD DUP2 MSTORE PUSH1 0x20 ADD DUP3 DUP2 MSTORE POP SWAP2 POP POP SWAP2 SWAP1 POP JUMP JUMPDEST PUSH1 0x0 DUP1 DUP3 PUSH1 0x0 ADD MLOAD PUSH2 0x930 DUP6 PUSH1 0x0 ADD MLOAD DUP7 PUSH1 0x20 ADD MLOAD DUP7 PUSH1 0x0 ADD MLOAD DUP8 PUSH1 0x20 ADD MLOAD PUSH2 0xA4A JUMP JUMPDEST PUSH2 0x93A SWAP2 SWAP1 PUSH2 0x120B JUMP JUMPDEST SWAP1 POP JUMPDEST DUP4 PUSH1 0x0 ADD MLOAD DUP5 PUSH1 0x20 ADD MLOAD PUSH2 0x951 SWAP2 SWAP1 PUSH2 0x120B JUMP JUMPDEST DUP2 GT PUSH2 0x9AD JUMPI DUP2 DUP1 PUSH2 0x962 SWAP1 PUSH2 0x126E JUMP JUMPDEST SWAP3 POP POP DUP3 PUSH1 0x0 ADD MLOAD PUSH2 0x99C DUP6 PUSH1 0x20 ADD MLOAD DUP4 PUSH2 0x97D SWAP2 SWAP1 PUSH2 0x12B6 JUMP JUMPDEST DUP7 PUSH1 0x0 ADD MLOAD PUSH2 0x98C SWAP2 SWAP1 PUSH2 0x12B6 JUMP JUMPDEST DUP4 DUP7 PUSH1 0x0 ADD MLOAD DUP8 PUSH1 0x20 ADD MLOAD PUSH2 0xA4A JUMP JUMPDEST PUSH2 0x9A6 SWAP2 SWAP1 PUSH2 0x120B JUMP JUMPDEST SWAP1 POP PUSH2 0x93D JUMP JUMPDEST POP SWAP3 SWAP2 POP POP JUMP JUMPDEST PUSH2 0x9BC PUSH2 0xD09 JUMP JUMPDEST PUSH2 0x9C7 DUP4 DUP4 DUP4 PUSH2 0xB93 JUMP JUMPDEST POP SWAP3 SWAP2 POP POP JUMP JUMPDEST PUSH1 0x60 PUSH1 0x0 DUP3 PUSH1 0x0 ADD MLOAD PUSH8 0xFFFFFFFFFFFFFFFF DUP2 GT ISZERO PUSH2 0x9F0 JUMPI PUSH2 0x9EF PUSH2 0xD52 JUMP JUMPDEST JUMPDEST PUSH1 0x40 MLOAD SWAP1 DUP1 DUP3 MSTORE DUP1 PUSH1 0x1F ADD PUSH1 0x1F NOT AND PUSH1 0x20 ADD DUP3 ADD PUSH1 0x40 MSTORE DUP1 ISZERO PUSH2 0xA22 JUMPI DUP2 PUSH1 0x20 ADD PUSH1 0x1 DUP3 MUL DUP1 CALLDATASIZE DUP4 CALLDATACOPY DUP1 DUP3 ADD SWAP2 POP POP SWAP1 POP JUMPDEST POP SWAP1 POP PUSH1 0x0 PUSH1 0x20 DUP3 ADD SWAP1 POP PUSH2 0xA40 DUP2 DUP6 PUSH1 0x20 ADD MLOAD DUP7 PUSH1 0x0 ADD MLOAD PUSH2 0xC5D JUMP JUMPDEST DUP2 SWAP3 POP POP POP SWAP2 SWAP1 POP JUMP JUMPDEST PUSH1 0x0 DUP1 DUP5 SWAP1 POP PUSH1 0x0 DUP7 DUP6 GT PUSH2 0xB7A JUMPI PUSH1 0x20 DUP6 GT PUSH2 0xB1D JUMPI PUSH1 0x0 DUP1 DUP7 GT ISZERO PUSH2 0xAA3 JUMPI PUSH1 0x1 DUP7 PUSH1 0x20 PUSH2 0xA7A SWAP2 SWAP1 PUSH2 0x12B6 JUMP JUMPDEST PUSH1 0x8 PUSH2 0xA86 SWAP2 SWAP1 PUSH2 0x134A JUMP JUMPDEST PUSH1 0x2 PUSH2 0xA92 SWAP2 SWAP1 PUSH2 0x14BF JUMP JUMPDEST PUSH2 0xA9C SWAP2 SWAP1 PUSH2 0x12B6 JUMP JUMPDEST NOT PUSH1 0x0 SHL SWAP1 POP JUMPDEST PUSH1 0x0 DUP2 DUP7 MLOAD AND SWAP1 POP PUSH1 0x0 DUP8 DUP11 DUP11 PUSH2 0xABA SWAP2 SWAP1 PUSH2 0x120B JUMP JUMPDEST PUSH2 0xAC4 SWAP2 SWAP1 PUSH2 0x12B6 JUMP JUMPDEST SWAP1 POP PUSH1 0x0 DUP4 DUP7 MLOAD AND SWAP1 POP JUMPDEST DUP3 DUP2 EQ PUSH2 0xB0F JUMPI DUP2 DUP7 LT PUSH2 0xAF6 JUMPI DUP11 DUP11 PUSH2 0xAE9 SWAP2 SWAP1 PUSH2 0x120B JUMP JUMPDEST SWAP7 POP POP POP POP POP POP POP PUSH2 0xB8B JUMP JUMPDEST DUP6 DUP1 PUSH2 0xB01 SWAP1 PUSH2 0x126E JUMP JUMPDEST SWAP7 POP POP DUP4 DUP7 MLOAD AND SWAP1 POP PUSH2 0xACF JUMP JUMPDEST DUP6 SWAP7 POP POP POP POP POP POP POP PUSH2 0xB8B JUMP JUMPDEST PUSH1 0x0 DUP6 DUP6 KECCAK256 SWAP1 POP PUSH1 0x0 SWAP2 POP JUMPDEST DUP6 DUP9 PUSH2 0xB35 SWAP2 SWAP1 PUSH2 0x12B6 JUMP JUMPDEST DUP3 GT PUSH2 0xB78 JUMPI PUSH1 0x0 DUP7 DUP5 KECCAK256 SWAP1 POP DUP1 DUP3 SUB PUSH2 0xB55 JUMPI DUP4 SWAP5 POP POP POP POP POP PUSH2 0xB8B JUMP JUMPDEST PUSH1 0x1 DUP5 PUSH2 0xB62 SWAP2 SWAP1 PUSH2 0x120B JUMP JUMPDEST SWAP4 POP POP DUP2 DUP1 PUSH2 0xB70 SWAP1 PUSH2 0x126E JUMP JUMPDEST SWAP3 POP POP PUSH2 0xB29 JUMP JUMPDEST POP JUMPDEST DUP7 DUP7 PUSH2 0xB86 SWAP2 SWAP1 PUSH2 0x120B JUMP JUMPDEST SWAP3 POP POP POP JUMPDEST SWAP5 SWAP4 POP POP POP POP JUMP JUMPDEST PUSH2 0xB9B PUSH2 0xD09 JUMP JUMPDEST PUSH1 0x0 PUSH2 0xBB9 DUP6 PUSH1 0x0 ADD MLOAD DUP7 PUSH1 0x20 ADD MLOAD DUP7 PUSH1 0x0 ADD MLOAD DUP8 PUSH1 0x20 ADD MLOAD PUSH2 0xA4A JUMP JUMPDEST SWAP1 POP DUP5 PUSH1 0x20 ADD MLOAD DUP4 PUSH1 0x20 ADD DUP2 DUP2 MSTORE POP POP DUP5 PUSH1 0x20 ADD MLOAD DUP2 PUSH2 0xBD9 SWAP2 SWAP1 PUSH2 0x12B6 JUMP JUMPDEST DUP4 PUSH1 0x0 ADD DUP2 DUP2 MSTORE POP POP DUP5 PUSH1 0x0 ADD MLOAD DUP6 PUSH1 0x20 ADD MLOAD PUSH2 0xBF6 SWAP2 SWAP1 PUSH2 0x120B JUMP JUMPDEST DUP2 SUB PUSH2 0xC0C JUMPI PUSH1 0x0 DUP6 PUSH1 0x0 ADD DUP2 DUP2 MSTORE POP POP PUSH2 0xC52 JUMP JUMPDEST DUP4 PUSH1 0x0 ADD MLOAD DUP4 PUSH1 0x0 ADD MLOAD PUSH2 0xC20 SWAP2 SWAP1 PUSH2 0x120B JUMP JUMPDEST DUP6 PUSH1 0x0 ADD DUP2 DUP2 MLOAD PUSH2 0xC31 SWAP2 SWAP1 PUSH2 0x12B6 JUMP JUMPDEST SWAP2 POP DUP2 DUP2 MSTORE POP POP DUP4 PUSH1 0x0 ADD MLOAD DUP2 PUSH2 0xC48 SWAP2 SWAP1 PUSH2 0x120B JUMP JUMPDEST DUP6 PUSH1 0x20 ADD DUP2 DUP2 MSTORE POP POP JUMPDEST DUP3 SWAP2 POP POP SWAP4 SWAP3 POP POP POP JUMP JUMPDEST JUMPDEST PUSH1 0x20 DUP2 LT PUSH2 0xC9C JUMPI DUP2 MLOAD DUP4 MSTORE PUSH1 0x20 DUP4 PUSH2 0xC77 SWAP2 SWAP1 PUSH2 0x120B JUMP JUMPDEST SWAP3 POP PUSH1 0x20 DUP3 PUSH2 0xC86 SWAP2 SWAP1 PUSH2 0x120B JUMP JUMPDEST SWAP2 POP PUSH1 0x20 DUP2 PUSH2 0xC95 SWAP2 SWAP1 PUSH2 0x12B6 JUMP JUMPDEST SWAP1 POP PUSH2 0xC5E JUMP JUMPDEST PUSH1 0x0 PUSH32 0xFFFFFFFFFFFFFFFFFFFFFFFFFFFFFFFFFFFFFFFFFFFFFFFFFFFFFFFFFFFFFFFF SWAP1 POP PUSH1 0x0 DUP3 GT ISZERO PUSH2 0xCF3 JUMPI PUSH1 0x1 DUP3 PUSH1 0x20 PUSH2 0xCD9 SWAP2 SWAP1 PUSH2 0x12B6 JUMP JUMPDEST PUSH2 0x100 PUSH2 0xCE6 SWAP2 SWAP1 PUSH2 0x14BF JUMP JUMPDEST PUSH2 0xCF0 SWAP2 SWAP1 PUSH2 0x12B6 JUMP JUMPDEST SWAP1 POP JUMPDEST DUP1 NOT DUP4 MLOAD AND DUP2 DUP6 MLOAD AND DUP2 DUP2 OR DUP7 MSTORE POP POP POP POP POP POP JUMP JUMPDEST PUSH1 0x40 MLOAD DUP1 PUSH1 0x40 ADD PUSH1 0x40 MSTORE DUP1 PUSH1 0x0 DUP2 MSTORE PUSH1 0x20 ADD PUSH1 0x0 DUP2 MSTORE POP SWAP1 JUMP JUMPDEST PUSH1 0x0 PUSH1 0x40 MLOAD SWAP1 POP SWAP1 JUMP JUMPDEST PUSH1 0x0 DUP1 REVERT JUMPDEST PUSH1 0x0 DUP1 REVERT JUMPDEST PUSH1 0x0 DUP1 REVERT JUMPDEST PUSH1 0x0 DUP1 REVERT JUMPDEST PUSH1 0x0 PUSH1 0x1F NOT PUSH1 0x1F DUP4 ADD AND SWAP1 POP SWAP2 SWAP1 POP JUMP JUMPDEST PUSH32 0x4E487B7100000000000000000000000000000000000000000000000000000000 PUSH1 0x0 MSTORE PUSH1 0x41 PUSH1 0x4 MSTORE PUSH1 0x24 PUSH1 0x0 REVERT JUMPDEST PUSH2 0xD8A DUP3 PUSH2 0xD41 JUMP JUMPDEST DUP2 ADD DUP2 DUP2 LT PUSH8 0xFFFFFFFFFFFFFFFF DUP3 GT OR ISZERO PUSH2 0xDA9 JUMPI PUSH2 0xDA8 PUSH2 0xD52 JUMP JUMPDEST JUMPDEST DUP1 PUSH1 0x40 MSTORE POP POP POP JUMP JUMPDEST PUSH1 0x0 PUSH2 0xDBC PUSH2 0xD23 JUMP JUMPDEST SWAP1 POP PUSH2 0xDC8 DUP3 DUP3 PUSH2 0xD81 JUMP JUMPDEST SWAP2 SWAP1 POP JUMP JUMPDEST PUSH1 0x0 PUSH8 0xFFFFFFFFFFFFFFFF DUP3 GT ISZERO PUSH2 0xDE8 JUMPI PUSH2 0xDE7 PUSH2 0xD52 JUMP JUMPDEST JUMPDEST PUSH2 0xDF1 DUP3 PUSH2 0xD41 JUMP JUMPDEST SWAP1 POP PUSH1 0x20 DUP2 ADD SWAP1 POP SWAP2 SWAP1 POP JUMP JUMPDEST DUP3 DUP2 DUP4 CALLDATACOPY PUSH1 0x0 DUP4 DUP4 ADD MSTORE POP POP POP JUMP JUMPDEST PUSH1 0x0 PUSH2 0xE20 PUSH2 0xE1B DUP5 PUSH2 0xDCD JUMP JUMPDEST PUSH2 0xDB2 JUMP JUMPDEST SWAP1 POP DUP3 DUP2 MSTORE PUSH1 0x20 DUP2 ADD DUP5 DUP5 DUP5 ADD GT ISZERO PUSH2 0xE3C JUMPI PUSH2 0xE3B PUSH2 0xD3C JUMP JUMPDEST JUMPDEST PUSH2 0xE47 DUP5 DUP3 DUP6 PUSH2 0xDFE JUMP JUMPDEST POP SWAP4 SWAP3 POP POP POP JUMP JUMPDEST PUSH1 0x0 DUP3 PUSH1 0x1F DUP4 ADD SLT PUSH2 0xE64 JUMPI PUSH2 0xE63 PUSH2 0xD37 JUMP JUMPDEST JUMPDEST DUP2 CALLDATALOAD PUSH2 0xE74 DUP5 DUP3 PUSH1 0x20 DUP7 ADD PUSH2 0xE0D JUMP JUMPDEST SWAP2 POP POP SWAP3 SWAP2 POP POP JUMP JUMPDEST PUSH1 0x0 PUSH1 0x20 DUP3 DUP5 SUB SLT ISZERO PUSH2 0xE93 JUMPI PUSH2 0xE92 PUSH2 0xD2D JUMP JUMPDEST JUMPDEST PUSH1 0x0 DUP3 ADD CALLDATALOAD PUSH8 0xFFFFFFFFFFFFFFFF DUP2 GT ISZERO PUSH2 0xEB1 JUMPI PUSH2 0xEB0 PUSH2 0xD32 JUMP JUMPDEST JUMPDEST PUSH2 0xEBD DUP5 DUP3 DUP6 ADD PUSH2 0xE4F JUMP JUMPDEST SWAP2 POP POP SWAP3 SWAP2 POP POP JUMP JUMPDEST PUSH1 0x0 DUP2 MLOAD SWAP1 POP SWAP2 SWAP1 POP JUMP JUMPDEST PUSH1 0x0 DUP3 DUP3 MSTORE PUSH1 0x20 DUP3 ADD SWAP1 POP SWAP3 SWAP2 POP POP JUMP JUMPDEST PUSH1 0x0 DUP2 SWAP1 POP PUSH1 0x20 DUP3 ADD SWAP1 POP SWAP2 SWAP1 POP JUMP JUMPDEST PUSH1 0x0 DUP2 MLOAD SWAP1 POP SWAP2 SWAP1 POP JUMP JUMPDEST PUSH1 0x0 DUP3 DUP3 MSTORE PUSH1 0x20 DUP3 ADD SWAP1 POP SWAP3 SWAP2 POP POP JUMP JUMPDEST PUSH1 0x0 JUMPDEST DUP4 DUP2 LT ISZERO PUSH2 0xF2C JUMPI DUP1 DUP3 ADD MLOAD DUP2 DUP5 ADD MSTORE PUSH1 0x20 DUP2 ADD SWAP1 POP PUSH2 0xF11 JUMP JUMPDEST PUSH1 0x0 DUP5 DUP5 ADD MSTORE POP POP POP POP JUMP JUMPDEST PUSH1 0x0 PUSH2 0xF43 DUP3 PUSH2 0xEF2 JUMP JUMPDEST PUSH2 0xF4D DUP2 DUP6 PUSH2 0xEFD JUMP JUMPDEST SWAP4 POP PUSH2 0xF5D DUP2 DUP6 PUSH1 0x20 DUP7 ADD PUSH2 0xF0E JUMP JUMPDEST PUSH2 0xF66 DUP2 PUSH2 0xD41 JUMP JUMPDEST DUP5 ADD SWAP2 POP POP SWAP3 SWAP2 POP POP JUMP JUMPDEST PUSH1 0x0 PUSH2 0xF7D DUP4 DUP4 PUSH2 0xF38 JUMP JUMPDEST SWAP1 POP SWAP3 SWAP2 POP POP JUMP JUMPDEST PUSH1 0x0 PUSH1 0x20 DUP3 ADD SWAP1 POP SWAP2 SWAP1 POP JUMP JUMPDEST PUSH1 0x0 PUSH2 0xF9D DUP3 PUSH2 0xEC6 JUMP JUMPDEST PUSH2 0xFA7 DUP2 DUP6 PUSH2 0xED1 JUMP JUMPDEST SWAP4 POP DUP4 PUSH1 0x20 DUP3 MUL DUP6 ADD PUSH2 0xFB9 DUP6 PUSH2 0xEE2 JUMP JUMPDEST DUP1 PUSH1 0x0 JUMPDEST DUP6 DUP2 LT ISZERO PUSH2 0xFF5 JUMPI DUP5 DUP5 SUB DUP10 MSTORE DUP2 MLOAD PUSH2 0xFD6 DUP6 DUP3 PUSH2 0xF71 JUMP JUMPDEST SWAP5 POP PUSH2 0xFE1 DUP4 PUSH2 0xF85 JUMP JUMPDEST SWAP3 POP PUSH1 0x20 DUP11 ADD SWAP10 POP POP PUSH1 0x1 DUP2 ADD SWAP1 POP PUSH2 0xFBD JUMP JUMPDEST POP DUP3 SWAP8 POP DUP8 SWAP6 POP POP POP POP POP POP SWAP3 SWAP2 POP POP JUMP JUMPDEST PUSH1 0x0 PUSH1 0x20 DUP3 ADD SWAP1 POP DUP2 DUP2 SUB PUSH1 0x0 DUP4 ADD MSTORE PUSH2 0x1021 DUP2 DUP5 PUSH2 0xF92 JUMP JUMPDEST SWAP1 POP SWAP3 SWAP2 POP POP JUMP JUMPDEST PUSH1 0x0 PUSH32 0xFF00000000000000000000000000000000000000000000000000000000000000 DUP3 AND SWAP1 POP SWAP2 SWAP1 POP JUMP JUMPDEST PUSH2 0x105E DUP2 PUSH2 0x1029 JUMP JUMPDEST DUP2 EQ PUSH2 0x1069 JUMPI PUSH1 0x0 DUP1 REVERT JUMPDEST POP JUMP JUMPDEST PUSH1 0x0 DUP2 CALLDATALOAD SWAP1 POP PUSH2 0x107B DUP2 PUSH2 0x1055 JUMP JUMPDEST SWAP3 SWAP2 POP POP JUMP JUMPDEST PUSH1 0x0 PUSH1 0x20 DUP3 DUP5 SUB SLT ISZERO PUSH2 0x1097 JUMPI PUSH2 0x1096 PUSH2 0xD2D JUMP JUMPDEST JUMPDEST PUSH1 0x0 PUSH2 0x10A5 DUP5 DUP3 DUP6 ADD PUSH2 0x106C JUMP JUMPDEST SWAP2 POP POP SWAP3 SWAP2 POP POP JUMP JUMPDEST PUSH1 0x0 DUP2 SWAP1 POP SWAP2 SWAP1 POP JUMP JUMPDEST PUSH2 0x10C1 DUP2 PUSH2 0x10AE JUMP JUMPDEST DUP3 MSTORE POP POP JUMP JUMPDEST PUSH1 0x0 PUSH1 0x20 DUP3 ADD SWAP1 POP PUSH2 0x10DC PUSH1 0x0 DUP4 ADD DUP5 PUSH2 0x10B8 JUMP JUMPDEST SWAP3 SWAP2 POP POP JUMP JUMPDEST PUSH2 0x10EB DUP2 PUSH2 0x1029 JUMP JUMPDEST DUP3 MSTORE POP POP JUMP JUMPDEST PUSH1 0x0 PUSH1 0x20 DUP3 ADD SWAP1 POP PUSH2 0x1106 PUSH1 0x0 DUP4 ADD DUP5 PUSH2 0x10E2 JUMP JUMPDEST SWAP3 SWAP2 POP POP JUMP JUMPDEST PUSH1 0x0 PUSH1 0x40 DUP3 ADD SWAP1 POP PUSH2 0x1121 PUSH1 0x0 DUP4 ADD DUP6 PUSH2 0x10B8 JUMP JUMPDEST PUSH2 0x112E PUSH1 0x20 DUP4 ADD DUP5 PUSH2 0x10B8 JUMP JUMPDEST SWAP4 SWAP3 POP POP POP JUMP JUMPDEST PUSH1 0x0 DUP1 PUSH1 0x0 PUSH1 0x60 DUP5 DUP7 SUB SLT ISZERO PUSH2 0x114E JUMPI PUSH2 0x114D PUSH2 0xD2D JUMP JUMPDEST JUMPDEST PUSH1 0x0 DUP5 ADD CALLDATALOAD PUSH8 0xFFFFFFFFFFFFFFFF DUP2 GT ISZERO PUSH2 0x116C JUMPI PUSH2 0x116B PUSH2 0xD32 JUMP JUMPDEST JUMPDEST PUSH2 0x1178 DUP7 DUP3 DUP8 ADD PUSH2 0xE4F JUMP JUMPDEST SWAP4 POP POP PUSH1 0x20 DUP5 ADD CALLDATALOAD PUSH8 0xFFFFFFFFFFFFFFFF DUP2 GT ISZERO PUSH2 0x1199 JUMPI PUSH2 0x1198 PUSH2 0xD32 JUMP JUMPDEST JUMPDEST PUSH2 0x11A5 DUP7 DUP3 DUP8 ADD PUSH2 0xE4F JUMP JUMPDEST SWAP3 POP POP PUSH1 0x40 DUP5 ADD CALLDATALOAD PUSH8 0xFFFFFFFFFFFFFFFF DUP2 GT ISZERO PUSH2 0x11C6 JUMPI PUSH2 0x11C5 PUSH2 0xD32 JUMP JUMPDEST JUMPDEST PUSH2 0x11D2 DUP7 DUP3 DUP8 ADD PUSH2 0xE4F JUMP JUMPDEST SWAP2 POP POP SWAP3 POP SWAP3 POP SWAP3 JUMP JUMPDEST PUSH32 0x4E487B7100000000000000000000000000000000000000000000000000000000 PUSH1 0x0 MSTORE PUSH1 0x11 PUSH1 0x4 MSTORE PUSH1 0x24 PUSH1 0x0 REVERT JUMPDEST PUSH1 0x0 PUSH2 0x1216 DUP3 PUSH2 0x10AE JUMP JUMPDEST SWAP2 POP PUSH2 0x1221 DUP4 PUSH2 0x10AE JUMP JUMPDEST SWAP3 POP DUP3 DUP3 ADD SWAP1 POP DUP1 DUP3 GT ISZERO PUSH2 0x1239 JUMPI PUSH2 0x1238 PUSH2 0x11DC JUMP JUMPDEST JUMPDEST SWAP3 SWAP2 POP POP JUMP JUMPDEST PUSH32 0x4E487B7100000000000000000000000000000000000000000000000000000000 PUSH1 0x0 MSTORE PUSH1 0x32 PUSH1 0x4 MSTORE PUSH1 0x24 PUSH1 0x0 REVERT JUMPDEST PUSH1 0x0 PUSH2 0x1279 DUP3 PUSH2 0x10AE JUMP JUMPDEST SWAP2 POP PUSH32 0xFFFFFFFFFFFFFFFFFFFFFFFFFFFFFFFFFFFFFFFFFFFFFFFFFFFFFFFFFFFFFFFF DUP3 SUB PUSH2 0x12AB JUMPI PUSH2 0x12AA PUSH2 0x11DC JUMP JUMPDEST JUMPDEST PUSH1 0x1 DUP3 ADD SWAP1 POP SWAP2 SWAP1 POP JUMP JUMPDEST PUSH1 0x0 PUSH2 0x12C1 DUP3 PUSH2 0x10AE JUMP JUMPDEST SWAP2 POP PUSH2 0x12CC DUP4 PUSH2 0x10AE JUMP JUMPDEST SWAP3 POP DUP3 DUP3 SUB SWAP1 POP DUP2 DUP2 GT ISZERO PUSH2 0x12E4 JUMPI PUSH2 0x12E3 PUSH2 0x11DC JUMP JUMPDEST JUMPDEST SWAP3 SWAP2 POP POP JUMP JUMPDEST PUSH32 0x4E487B7100000000000000000000000000000000000000000000000000000000 PUSH1 0x0 MSTORE PUSH1 0x12 PUSH1 0x4 MSTORE PUSH1 0x24 PUSH1 0x0 REVERT JUMPDEST PUSH1 0x0 PUSH2 0x1324 DUP3 PUSH2 0x10AE JUMP JUMPDEST SWAP2 POP PUSH2 0x132F DUP4 PUSH2 0x10AE JUMP JUMPDEST SWAP3 POP DUP3 PUSH2 0x133F JUMPI PUSH2 0x133E PUSH2 0x12EA JUMP JUMPDEST JUMPDEST DUP3 DUP3 DIV SWAP1 POP SWAP3 SWAP2 POP POP JUMP JUMPDEST PUSH1 0x0 PUSH2 0x1355 DUP3 PUSH2 0x10AE JUMP JUMPDEST SWAP2 POP PUSH2 0x1360 DUP4 PUSH2 0x10AE JUMP JUMPDEST SWAP3 POP DUP3 DUP3 MUL PUSH2 0x136E DUP2 PUSH2 0x10AE JUMP JUMPDEST SWAP2 POP DUP3 DUP3 DIV DUP5 EQ DUP4 ISZERO OR PUSH2 0x1385 JUMPI PUSH2 0x1384 PUSH2 0x11DC JUMP JUMPDEST JUMPDEST POP SWAP3 SWAP2 POP POP JUMP JUMPDEST PUSH1 0x0 DUP2 PUSH1 0x1 SHR SWAP1 POP SWAP2 SWAP1 POP JUMP JUMPDEST PUSH1 0x0 DUP1 DUP3 SWAP2 POP DUP4 SWAP1 POP JUMPDEST PUSH1 0x1 DUP6 GT ISZERO PUSH2 0x13E3 JUMPI DUP1 DUP7 DIV DUP2 GT ISZERO PUSH2 0x13BF JUMPI PUSH2 0x13BE PUSH2 0x11DC JUMP JUMPDEST JUMPDEST PUSH1 0x1 DUP6 AND ISZERO PUSH2 0x13CE JUMPI DUP1 DUP3 MUL SWAP2 POP JUMPDEST DUP1 DUP2 MUL SWAP1 POP PUSH2 0x13DC DUP6 PUSH2 0x138C JUMP JUMPDEST SWAP5 POP PUSH2 0x13A3 JUMP JUMPDEST SWAP5 POP SWAP5 SWAP3 POP POP POP JUMP JUMPDEST PUSH1 0x0 DUP3 PUSH2 0x13FC JUMPI PUSH1 0x1 SWAP1 POP PUSH2 0x14B8 JUMP JUMPDEST DUP2 PUSH2 0x140A JUMPI PUSH1 0x0 SWAP1 POP PUSH2 0x14B8 JUMP JUMPDEST DUP2 PUSH1 0x1 DUP2 EQ PUSH2 0x1420 JUMPI PUSH1 0x2 DUP2 EQ PUSH2 0x142A JUMPI PUSH2 0x1459 JUMP JUMPDEST PUSH1 0x1 SWAP2 POP POP PUSH2 0x14B8 JUMP JUMPDEST PUSH1 0xFF DUP5 GT ISZERO PUSH2 0x143C JUMPI PUSH2 0x143B PUSH2 0x11DC JUMP JUMPDEST JUMPDEST DUP4 PUSH1 0x2 EXP SWAP2 POP DUP5 DUP3 GT ISZERO PUSH2 0x1453 JUMPI PUSH2 0x1452 PUSH2 0x11DC JUMP JUMPDEST JUMPDEST POP PUSH2 0x14B8 JUMP JUMPDEST POP PUSH1 0x20 DUP4 LT PUSH2 0x133 DUP4 LT AND PUSH1 0x4E DUP5 LT PUSH1 0xB DUP5 LT AND OR ISZERO PUSH2 0x148E JUMPI DUP3 DUP3 EXP SWAP1 POP DUP4 DUP2 GT ISZERO PUSH2 0x1489 JUMPI PUSH2 0x1488 PUSH2 0x11DC JUMP JUMPDEST JUMPDEST PUSH2 0x14B8 JUMP JUMPDEST PUSH2 0x149B DUP5 DUP5 DUP5 PUSH1 0x1 PUSH2 0x1399 JUMP JUMPDEST SWAP3 POP SWAP1 POP DUP2 DUP5 DIV DUP2 GT ISZERO PUSH2 0x14B2 JUMPI PUSH2 0x14B1 PUSH2 0x11DC JUMP JUMPDEST JUMPDEST DUP2 DUP2 MUL SWAP1 POP JUMPDEST SWAP4 SWAP3 POP POP POP JUMP JUMPDEST PUSH1 0x0 PUSH2 0x14CA DUP3 PUSH2 0x10AE JUMP JUMPDEST SWAP2 POP PUSH2 0x14D5 DUP4 PUSH2 0x10AE JUMP JUMPDEST SWAP3 POP PUSH2 0x1502 PUSH32 0xFFFFFFFFFFFFFFFFFFFFFFFFFFFFFFFFFFFFFFFFFFFFFFFFFFFFFFFFFFFFFFFF DUP5 DUP5 PUSH2 0x13EC JUMP JUMPDEST SWAP1 POP SWAP3 SWAP2 POP POP JUMP INVALID PUSH23 0x4A7277705774774A675772686373464D4D664646684670 EXP PUSH11 0x7148524E71526A717A6A47 DIFFICULTY 0x4C SELFBALANCE 0x4C PUSH19 0x73464D66465A53724C72465A73534C0A506D6D PUSH5 0x7A71507256 PUSH23 0x50777754574277670A774D71764C4D5A4868484D76774C BASEFEE PUSH11 0x6276636A6E6E53426E7654 MLOAD CHAINID PUSH15 0xA7474674A7452474A516374545A74 GAS SLOAD EXP NUMBER PUSH19 0x5A734A7350505A73477A7777734C774C6D7077 0x4D DIFFICULTY PUSH24 0xA26469706673582212202AE9F26C49AD9F675F73A51C9F90 CODECOPY DUP8 SIGNEXTEND 0xBB GT 0xBE 0xBB PUSH10 0xE129EA0345C2B0820474 PUSH5 0x736F6C6343 STOP ADDMOD GT STOP CALLER "
		},
		"gasEstimates": {
			"creation": {
				"codeDepositCost": "1117800",
				"executionCost": "1160",
				"totalCost": "1118960"
			},
			"external": {
				"calculate_priority(bytes1)": "infinite",
				"find_badge(string,string,string)": "infinite",
				"find_dup(string)": "infinite",
				"main(string)": "infinite",
				"p1(string)": "infinite",
				"p2(string)": "infinite",
				"split_lines(string)": "infinite"
			}
		},
		"methodIdentifiers": {
			"calculate_priority(bytes1)": "3edb318f",
			"find_badge(string,string,string)": "9f6064e2",
			"find_dup(string)": "519fd1bc",
			"main(string)": "769f204d",
			"p1(string)": "76b7e2c3",
			"p2(string)": "6a7534fc",
			"split_lines(string)": "11fcd048"
		}
	},
	"abi": [
		{
			"inputs": [
				{
					"internalType": "bytes1",
					"name": "char",
					"type": "bytes1"
				}
			],
			"name": "calculate_priority",
			"outputs": [
				{
					"internalType": "uint256",
					"name": "",
					"type": "uint256"
				}
			],
			"stateMutability": "pure",
			"type": "function"
		},
		{
			"inputs": [
				{
					"internalType": "string",
					"name": "elf1",
					"type": "string"
				},
				{
					"internalType": "string",
					"name": "elf2",
					"type": "string"
				},
				{
					"internalType": "string",
					"name": "elf3",
					"type": "string"
				}
			],
			"name": "find_badge",
			"outputs": [
				{
					"internalType": "bytes1",
					"name": "",
					"type": "bytes1"
				}
			],
			"stateMutability": "pure",
			"type": "function"
		},
		{
			"inputs": [
				{
					"internalType": "string",
					"name": "input",
					"type": "string"
				}
			],
			"name": "find_dup",
			"outputs": [
				{
					"internalType": "bytes1",
					"name": "",
					"type": "bytes1"
				}
			],
			"stateMutability": "pure",
			"type": "function"
		},
		{
			"inputs": [
				{
					"internalType": "string",
					"name": "input",
					"type": "string"
				}
			],
			"name": "main",
			"outputs": [
				{
					"internalType": "uint256",
					"name": "",
					"type": "uint256"
				},
				{
					"internalType": "uint256",
					"name": "",
					"type": "uint256"
				}
			],
			"stateMutability": "pure",
			"type": "function"
		},
		{
			"inputs": [
				{
					"internalType": "string",
					"name": "input",
					"type": "string"
				}
			],
			"name": "p1",
			"outputs": [
				{
					"internalType": "uint256",
					"name": "",
					"type": "uint256"
				}
			],
			"stateMutability": "pure",
			"type": "function"
		},
		{
			"inputs": [
				{
					"internalType": "string",
					"name": "input",
					"type": "string"
				}
			],
			"name": "p2",
			"outputs": [
				{
					"internalType": "uint256",
					"name": "",
					"type": "uint256"
				}
			],
			"stateMutability": "pure",
			"type": "function"
		},
		{
			"inputs": [
				{
					"internalType": "string",
					"name": "in_str",
					"type": "string"
				}
			],
			"name": "split_lines",
			"outputs": [
				{
					"internalType": "string[]",
					"name": "",
					"type": "string[]"
				}
			],
			"stateMutability": "pure",
			"type": "function"
		}
	]
}