{
  "_format": "hh-sol-artifact-1",
  "contractName": "Day2",
  "sourceName": "contracts/Day2.sol",
  "abi": [
    {
      "inputs": [
        {
          "internalType": "string",
          "name": "in_str",
          "type": "string"
        }
      ],
      "name": "calculate_score",
      "outputs": [
        {
          "internalType": "uint256",
          "name": "",
          "type": "uint256"
        }
      ],
      "stateMutability": "pure",
      "type": "function"
    },
    {
      "inputs": [
        {
          "internalType": "string",
          "name": "in_str",
          "type": "string"
        }
      ],
      "name": "calculate_score_p2",
      "outputs": [
        {
          "internalType": "uint256",
          "name": "",
          "type": "uint256"
        }
      ],
      "stateMutability": "pure",
      "type": "function"
    },
    {
      "inputs": [
        {
          "internalType": "string",
          "name": "in_str",
          "type": "string"
        }
      ],
      "name": "first_split",
      "outputs": [
        {
          "internalType": "string[]",
          "name": "",
          "type": "string[]"
        }
      ],
      "stateMutability": "pure",
      "type": "function"
    },
    {
      "inputs": [
        {
          "internalType": "string",
          "name": "input",
          "type": "string"
        }
      ],
      "name": "main",
      "outputs": [
        {
          "internalType": "uint256",
          "name": "",
          "type": "uint256"
        },
        {
          "internalType": "uint256",
          "name": "",
          "type": "uint256"
        }
      ],
      "stateMutability": "pure",
      "type": "function"
    },
    {
      "inputs": [
        {
          "internalType": "string",
          "name": "str_1",
          "type": "string"
        },
        {
          "internalType": "string",
          "name": "str_2",
          "type": "string"
        }
      ],
      "name": "str_cmp",
      "outputs": [
        {
          "internalType": "bool",
          "name": "",
          "type": "bool"
        }
      ],
      "stateMutability": "pure",
      "type": "function"
    }
  ],
  "bytecode": "0x608060405234801561001057600080fd5b5061153c806100206000396000f3fe608060405234801561001057600080fd5b50600436106100575760003560e01c806344b7f83c1461005c578063769f204d1461008c578063a1edea50146100bd578063a7c73fd8146100ed578063dd63aeda1461011d575b600080fd5b61007660048036038101906100719190610f2e565b61014d565b6040516100839190610fc1565b60405180910390f35b6100a660048036038101906100a19190610fdc565b6101b6565b6040516100b492919061103e565b60405180910390f35b6100d760048036038101906100d29190610fdc565b610216565b6040516100e49190611067565b60405180910390f35b61010760048036038101906101029190610fdc565b6104d7565b60405161011491906111c3565b60405180910390f35b61013760048036038101906101329190610fdc565b6105fc565b6040516101449190611067565b60405180910390f35b6000816040516020016101609190611221565b60405160208183030381529060405280519060200120836040516020016101879190611221565b60405160208183030381529060405280519060200120036101ab57600190506101b0565b600090505b92915050565b60008060008351036101fb576040518060400160405280600c81526020017f4120590a4220580a43205a0a000000000000000000000000000000000000000081525092505b610204836108bd565b61020d84610926565b91509150915091565b6000610257826040518060400160405280600381526020017f412058000000000000000000000000000000000000000000000000000000000081525061014d565b1561026557600490506104d2565b6102a4826040518060400160405280600381526020017f412059000000000000000000000000000000000000000000000000000000000081525061014d565b156102b257600890506104d2565b6102f1826040518060400160405280600381526020017f41205a000000000000000000000000000000000000000000000000000000000081525061014d565b156102ff57600390506104d2565b61033e826040518060400160405280600381526020017f422058000000000000000000000000000000000000000000000000000000000081525061014d565b1561034c57600190506104d2565b61038b826040518060400160405280600381526020017f422059000000000000000000000000000000000000000000000000000000000081525061014d565b1561039957600590506104d2565b6103d8826040518060400160405280600381526020017f42205a000000000000000000000000000000000000000000000000000000000081525061014d565b156103e657600990506104d2565b610425826040518060400160405280600381526020017f432058000000000000000000000000000000000000000000000000000000000081525061014d565b1561043357600790506104d2565b610472826040518060400160405280600381526020017f432059000000000000000000000000000000000000000000000000000000000081525061014d565b1561048057600290506104d2565b6104bf826040518060400160405280600381526020017f43205a000000000000000000000000000000000000000000000000000000000081525061014d565b156104cd57600690506104d2565b600090505b919050565b606060006104e48361098f565b905060006105266040518060400160405280600181526020017f0a0000000000000000000000000000000000000000000000000000000000000081525061098f565b90506000600161053f83856109bd90919063ffffffff16565b6105499190611267565b67ffffffffffffffff81111561056257610561610e03565b5b60405190808252806020026020018201604052801561059557816020015b60608152602001906001900390816105805790505b50905060005b81518110156105f0576105bf6105ba8486610a6590919063ffffffff16565b610a7f565b8282815181106105d2576105d161129b565b5b602002602001018190525080806105e8906112ca565b91505061059b565b50809350505050919050565b600061063d826040518060400160405280600381526020017f412058000000000000000000000000000000000000000000000000000000000081525061014d565b1561064b57600390506108b8565b61068a826040518060400160405280600381526020017f412059000000000000000000000000000000000000000000000000000000000081525061014d565b1561069857600490506108b8565b6106d7826040518060400160405280600381526020017f41205a000000000000000000000000000000000000000000000000000000000081525061014d565b156106e557600890506108b8565b610724826040518060400160405280600381526020017f422058000000000000000000000000000000000000000000000000000000000081525061014d565b1561073257600190506108b8565b610771826040518060400160405280600381526020017f422059000000000000000000000000000000000000000000000000000000000081525061014d565b1561077f57600590506108b8565b6107be826040518060400160405280600381526020017f42205a000000000000000000000000000000000000000000000000000000000081525061014d565b156107cc57600990506108b8565b61080b826040518060400160405280600381526020017f432058000000000000000000000000000000000000000000000000000000000081525061014d565b1561081957600290506108b8565b610858826040518060400160405280600381526020017f432059000000000000000000000000000000000000000000000000000000000081525061014d565b1561086657600690506108b8565b6108a5826040518060400160405280600381526020017f43205a000000000000000000000000000000000000000000000000000000000081525061014d565b156108b357600790506108b8565b600090505b919050565b6000806108c9836104d7565b90506000805b825181101561091b576108fb8382815181106108ee576108ed61129b565b5b6020026020010151610216565b826109069190611267565b91508080610913906112ca565b9150506108cf565b508092505050919050565b600080610932836104d7565b90506000805b8251811015610984576109648382815181106109575761095661129b565b5b60200260200101516105fc565b8261096f9190611267565b9150808061097c906112ca565b915050610938565b508092505050919050565b610997610dba565b600060208301905060405180604001604052808451815260200182815250915050919050565b60008082600001516109e18560000151866020015186600001518760200151610afb565b6109eb9190611267565b90505b83600001518460200151610a029190611267565b8111610a5e578180610a13906112ca565b9250508260000151610a4d856020015183610a2e9190611312565b8660000151610a3d9190611312565b8386600001518760200151610afb565b610a579190611267565b90506109ee565b5092915050565b610a6d610dba565b610a78838383610c44565b5092915050565b60606000826000015167ffffffffffffffff811115610aa157610aa0610e03565b5b6040519080825280601f01601f191660200182016040528015610ad35781602001600182028036833780820191505090505b5090506000602082019050610af18185602001518660000151610d0e565b8192505050919050565b6000808490506000868511610c2b5760208511610bce57600080861115610b54576001866020610b2b9190611312565b6008610b379190611346565b6002610b4391906114bb565b610b4d9190611312565b1960001b90505b60008186511690506000878a8a610b6b9190611267565b610b759190611312565b905060008386511690505b828114610bc057818610610ba7578a8a610b9a9190611267565b9650505050505050610c3c565b8580610bb2906112ca565b965050838651169050610b80565b859650505050505050610c3c565b60008585209050600091505b8588610be69190611312565b8211610c295760008684209050808203610c065783945050505050610c3c565b600184610c139190611267565b9350508180610c21906112ca565b925050610bda565b505b8686610c379190611267565b925050505b949350505050565b610c4c610dba565b6000610c6a8560000151866020015186600001518760200151610afb565b90508460200151836020018181525050846020015181610c8a9190611312565b83600001818152505084600001518560200151610ca79190611267565b8103610cbd576000856000018181525050610d03565b83600001518360000151610cd19190611267565b85600001818151610ce29190611312565b91508181525050836000015181610cf99190611267565b8560200181815250505b829150509392505050565b5b60208110610d4d5781518352602083610d289190611267565b9250602082610d379190611267565b9150602081610d469190611312565b9050610d0f565b60007fffffffffffffffffffffffffffffffffffffffffffffffffffffffffffffffff90506000821115610da4576001826020610d8a9190611312565b610100610d9791906114bb565b610da19190611312565b90505b8019835116818551168181178652505050505050565b604051806040016040528060008152602001600081525090565b6000604051905090565b600080fd5b600080fd5b600080fd5b600080fd5b6000601f19601f8301169050919050565b7f4e487b7100000000000000000000000000000000000000000000000000000000600052604160045260246000fd5b610e3b82610df2565b810181811067ffffffffffffffff82111715610e5a57610e59610e03565b5b80604052505050565b6000610e6d610dd4565b9050610e798282610e32565b919050565b600067ffffffffffffffff821115610e9957610e98610e03565b5b610ea282610df2565b9050602081019050919050565b82818337600083830152505050565b6000610ed1610ecc84610e7e565b610e63565b905082815260208101848484011115610eed57610eec610ded565b5b610ef8848285610eaf565b509392505050565b600082601f830112610f1557610f14610de8565b5b8135610f25848260208601610ebe565b91505092915050565b60008060408385031215610f4557610f44610dde565b5b600083013567ffffffffffffffff811115610f6357610f62610de3565b5b610f6f85828601610f00565b925050602083013567ffffffffffffffff811115610f9057610f8f610de3565b5b610f9c85828601610f00565b9150509250929050565b60008115159050919050565b610fbb81610fa6565b82525050565b6000602082019050610fd66000830184610fb2565b92915050565b600060208284031215610ff257610ff1610dde565b5b600082013567ffffffffffffffff8111156110105761100f610de3565b5b61101c84828501610f00565b91505092915050565b6000819050919050565b61103881611025565b82525050565b6000604082019050611053600083018561102f565b611060602083018461102f565b9392505050565b600060208201905061107c600083018461102f565b92915050565b600081519050919050565b600082825260208201905092915050565b6000819050602082019050919050565b600081519050919050565b600082825260208201905092915050565b60005b838110156110e85780820151818401526020810190506110cd565b60008484015250505050565b60006110ff826110ae565b61110981856110b9565b93506111198185602086016110ca565b61112281610df2565b840191505092915050565b600061113983836110f4565b905092915050565b6000602082019050919050565b600061115982611082565b611163818561108d565b9350836020820285016111758561109e565b8060005b858110156111b15784840389528151611192858261112d565b945061119d83611141565b925060208a01995050600181019050611179565b50829750879550505050505092915050565b600060208201905081810360008301526111dd818461114e565b905092915050565b600081905092915050565b60006111fb826110ae565b61120581856111e5565b93506112158185602086016110ca565b80840191505092915050565b600061122d82846111f0565b915081905092915050565b7f4e487b7100000000000000000000000000000000000000000000000000000000600052601160045260246000fd5b600061127282611025565b915061127d83611025565b925082820190508082111561129557611294611238565b5b92915050565b7f4e487b7100000000000000000000000000000000000000000000000000000000600052603260045260246000fd5b60006112d582611025565b91507fffffffffffffffffffffffffffffffffffffffffffffffffffffffffffffffff820361130757611306611238565b5b600182019050919050565b600061131d82611025565b915061132883611025565b92508282039050818111156113405761133f611238565b5b92915050565b600061135182611025565b915061135c83611025565b925082820261136a81611025565b9150828204841483151761138157611380611238565b5b5092915050565b60008160011c9050919050565b6000808291508390505b60018511156113df578086048111156113bb576113ba611238565b5b60018516156113ca5780820291505b80810290506113d885611388565b945061139f565b94509492505050565b6000826113f857600190506114b4565b8161140657600090506114b4565b816001811461141c576002811461142657611455565b60019150506114b4565b60ff84111561143857611437611238565b5b8360020a91508482111561144f5761144e611238565b5b506114b4565b5060208310610133831016604e8410600b841016171561148a5782820a90508381111561148557611484611238565b5b6114b4565b6114978484846001611395565b925090508184048111156114ae576114ad611238565b5b81810290505b9392505050565b60006114c682611025565b91506114d183611025565b92506114fe7fffffffffffffffffffffffffffffffffffffffffffffffffffffffffffffffff84846113e8565b90509291505056fea26469706673582212209aeab44554f9067555662faf65f886cbd4de4dcc851001838eb2ac71dc0aa52464736f6c63430008110033",
  "linkReferences": {},
  "deployedLinkReferences": {}
}